:02000002B0004C
:1040000000400B005E900B00000006000C00050253
:0840100004012215000000006C
:04401800E0610B0058
:10401C00034613F8012B002AFBD1181A01387047FC
:10402C0009480A49884208B505D0094A824202D09B
:10403C00121A02F009F80748074A0021121A02F076
:10404C0011F8014808BD00BF58BA0320B48F0B000B
:10405C00D4BA0320D4BA0320F0E7032070B5074E7E
:10406C00074C01F0BDFEA41BA4080025AC4200D1F6
:10407C0070BD56F8043B98470135F7E76C8F0B0081
:10408C00908F0B0000F013B808B500F06DF9BDE887
:10409C00084001F05DBE01F0D1B801F0D7B800784E
:1040AC00B0FA80F04009704701230370704708B5DF
:1040BC0001F0C8FD4FF4E13101F0B8FDBDE8084056
:1040CC004FF4FA6001F0EAB82DE9F0478F4894B04C
:1040DC0000F05DFB044638B101F0B4FD8C4914B01E
:1040EC00BDE8F04701F008BB8A498B48DFF87092B5
:1040FC00DFF87082894F8A4D01F08DFC89498A481E
:10410C0001F089FC89498A4801F085FC89498A4873
:10411C0001F081FC8949484601F07DFC8849404604
:10412C0001F079FCFF21794800F074FC774800F02D
:10413C00BBFB764800F0DDFC744800F0A4FB4FF4A8
:10414C00FA7001F0ABF87148502100F0D4FA6F48C6
:10415C00172100F0DBFA4FF4B473F022794904A86C
:10416C0000F04FFD04A8032100F097FD04A80121E5
:10417C0000F078FD05221146734B019404A80097BA
:10418C0000F00AFE644910A801F03AFC109B00955F
:10419C000522642104A8019400F0FEFD10A801F092
:1041AC00C1FB6A4B232204A8CDE90074052100F061
:1041BC00F3FD5D4910A801F023FC109BCDE90054E0
:1041CC002322642104A800F0E7FD10A801F0AAFB4B
:1041DC005F4B412204A8CDE90074052100F0DCFD01
:1041EC0053490CA801F00CFC0CA908A801F008FC20
:1041FC00584908A801F044FC4F49064610A801F0A4
:10420C00FFFB10A9304601F02FFCCDE900544122F0
:10421C000368642104A800F0BFFD10A801F082FB24
:10422C0008A801F07FFB0CA801F07CFB214604A838
:10423C0000944FF4B473882200F0C6FD4FF0F00ADE
:10424C0004A8009468238822B42100F0CDFD012637
:10425C00214604A80194CDF800A0AA23912200F0D5
:10426C00D3FD04A8CDE900763B4B9B22052100F041
:10427C0093FDCDE90056D9F8003004A8B9220521E8
:10428C0000F08AFDCDE90056D8F8003004A8D722FA
:10429C00052100F081FD4FF4B473912204A8CDE9FF
:1042AC0000A4BE2100F0B0FD2C4910A801F0A8FB21
:1042BC00109BB422C821CDE9005604A800F06CFD77
:1042CC0010A801F02FFB04A800F0E1FC039004A857
:1042DC0000F0DFFC054604A800F0DDFC0399234642
:1042EC002246CDE90050094800F058FB074800F081
:1042FC00CAFA192000F0D2FF044800F014FC04A8FC
:10430C0000F092FC14B0BDE8F08700BF54BB032052
:10431C00F4610B0008620B00F0BA032058BA0320BA
:10432C0060BA032013620B0000BB032023620B0056
:10433C0010BB032029620B0020BB03202F620B0053
:10434C0034620B0071BB032039620B0040620B001E
:10435C0048620B004F620B0053620B00D4BA03206F
:10436C0030BB032040BB0320FFF7AEBE1C4B10B587
:10437C0000241C701B4B01221A701B4BA2F1011262
:10438C00C3E900449A60022000F0CCFE174800F00C
:10439C009DF91749174801F010FB1549164801F013
:1043AC000CFB1349154801F008FB1149144801F0A6
:1043BC0004FB0F49134801F000FB0D49124801F0B2
:1043CC00FCFA0B49114801F0F8FA22461048022178
:1043DC0000F0B8F8BDE810400E4800F03BBD00BF3F
:1043EC0050BB032051BB0320E4BA032054BB032071
:1043FC00F1620B00F0BA032000BB032010BB0320BA
:10440C0020BB032030BB032040BB0320D4BA0320C5
:10441C006CE6032070BB0320704710B510210446D6
:10442C00FFF73BFE204610BD0EB403B503AB0021D5
:10443C0053F8042B019301F090F902B05DF804EBF2
:10444C0003B0704773B5044608462279A36832B1AD
:10445C00A3B90B4902B0BDE8704001F04DB9094A4F
:10446C00267B094D0949647B012E18BF2946CDE9ED
:10447C0000140749FFF7D8FF02B070BD054AEFE7FB
:10448C006E620B00F1620B006A620B0066620B003D
:10449C0084620B005D620B000368C9B29B6818470D
:1044AC002DE9F04101320220D5B20F4600F0F6FEA4
:1044BC0001F05EFD242100F0BBFF01F059FD00214D
:1044CC00FFF7EAFF01F054FD0021FFF7E5FF01F0D3
:1044DC004FFDFF21FFF7E0FF01F04AFD036829467D
:1044EC009B68984701F044FD6942FFF7D5FF01F046
:1044FC003FFDD421FFF7D0FF0024D326013D04F16A
:10450C000108E4B2AC420ADA01F032FD0368395D0D
:10451C009B689847395D0E44F6B24446EFE701F0CC
:10452C0027FD0368F1439B68C9B2984701F020FD51
:10453C00036800219B68984701F01AFDBDE8F04123
:10454C0000F07DBF38B50446064B84F84810084689
:10455C0015462360002101F0B3FC84F84950204635
:10456C0038BD00BFC0620B0038B50546652495F810
:10457C00480001F0CFFC30B1013CA4B22CB10A20B0
:10458C0000F08CFEF3E7012038BD2046FCE7F7B5C0
:10459C0000238DF800308DF801308DF803308DF844
:1045AC00053090F84930FF22012B04460D468DF85A
:1045BC0002208DF8042041D1FFF7D6FF10B900205E
:1045CC0003B0F0BD01F0D4FC0822242100F029FF37
:1045DC0001F0CEFC03685B699847261D04F10A07BD
:1045EC00012000F05BFE01F0C3FC03685B69984797
:1045FC0006F8010BBE42F3D12046FFF7B5FF0028A9
:10460C00DDD001F0B5FC2A1F242100F00AFF01F0D7
:10461C00AFFC03685B6998476FF00907063D3F1BC9
:10462C00BB199D4249DD012000F038FE01F0A0FCD1
:10463C0003685B69984706F8010BF1E7002B3CD146
:10464C001E2000F02BFE01F093FC0822242100F028
:10465C00E8FE01F08DFC03685B699847261D04F1A8
:10466C000A07012000F01AFE01F082FC03685B6966
:10467C00984706F8010BBE42F3D11E2000F00EFE47
:10468C0001F076FC2A1F242100F0CBFE01F070FC17
:10469C0003685B6998476FF00907063D3F1BBB1920
:1046AC009D420ADD012000F0F9FD01F061FC036878
:1046BC005B69984706F8010BF1E70622211D684655
:1046CC0001F00EFDB0FA80F0400979E710B5044610
:1046DC0000F034FA08220623C4E900230B21072337
:1046EC00C4E90213F0204FF4B473C4E904030023AB
:1046FC002376204610BD10B50C464068002100F012
:10470C001EFA2046BDE8104000F06ABA10B50C46FF
:10471C004068012100F013FA2046BDE8104000F07B
:10472C005FBA000010B5044601F08CFA094900F09C
:10473C00E3FFE06800F007FAC0B20028F9D1C82006
:10474C0000F004FA01F07EFABDE81040024900F0D6
:10475C00D3BF00BFC8620B00D9620B0010B501219A
:10476C000446006800F0EBF9142000F0EFF9206823
:10477C00002100F0E4F9022000F0E8F920680121A2
:10478C0000F0DDF9BDE81040142000F0DFB938B5B9
:10479C00044600F0F9F90546002871D12046FFF7D0
:1047AC00DDFF294620462576FFF7A5FFFF21204691
:1047BC00FFF7ACFF01212046FFF7A8FF012120469F
:1047CC00FFF799FF03212046FFF7A0FF1021204699
:1047DC00FFF79CFF3F212046FFF798FF3F21204623
:1047EC00FFF794FF03212046FFF790FF0621204698
:1047FC00FFF781FF37212046FFF788FF3D21204638
:10480C00FFF784FF3D212046FFF780FF6021204603
:10481C00FFF771FF22212046FFF778FF8221204607
:10482C00FFF769FF07212046FFF770FF3021204674
:10483C00FFF761FF09212046FFF768FFE3212046BF
:10484C00FFF759FF88212046FFF760FF61212046C2
:10485C00FFF751FFF0212046FFF758FF01212046BA
:10486C00FFF754FF68212046FFF750FF50212046E8
:10487C00FFF741FFB7212046FFF748FF284638BD18
:10488C004FF0FF35FAE710B517210446FFF733FF59
:10489C002046A521FFF73AFF2046FFF743FFBDE86E
:1048AC001040C82000F052B970B520210446FFF723
:1048BC0022FF354E382516F8011B2046013DFFF727
:1048CC0025FF15F0FF05F6D121212046FFF713FF38
:1048DC002E4E2A2516F8011B2046013DFFF716FF28
:1048EC0015F0FF05F6D124212046FFF704FF284ED2
:1048FC002A2516F8011B2046013DFFF707FF15F08E
:10490C00FF05F6D1237E22212046F3B9FFF7F3FEF3
:10491C00204E382516F8011B2046013DFFF7F6FE08
:10492C0015F0FF05F6D123212046FFF7E4FE1A4EC1
:10493C002A2516F8011B2046013DFFF7E7FE15F06E
:10494C00FF05F6D10123237670BDFFF7D4FE124E7E
:10495C00382516F8011B2046013DFFF7D7FE15F050
:10496C00FF05F6D123212046FFF7C5FE094E2A2567
:10497C0016F8011B2046013DFFF7C8FE15F0FF0598
:10498C00F6D12576E0E700BFF2620B002A630B003C
:10499C00C4630B0054630B008C630B002DE9F74FC1
:1049AC00009113211F4614460546FFF7A4FE0C9BED
:1049BC000D994FEAD40B1C447B43C3F100097B18BF
:1049CC00E4084FF0000A0193696951451FD9009B17
:1049DC00CBEBD908002698442969B6EBD10F11D23C
:1049EC00B3450DD8B4420BD9BA4509D3019B5345F5
:1049FC0006D318F806102846FFF788FE0136EBE7B9
:104A0C000021F8E70C9B0AF1010A9944DCE703B09A
:104A1C00BDE8F08F2DE9F0410E4613210446FFF757
:104A2C006AFE00256369AB4261D9002705F00108D5
:104A3C002369B7EBD30F4FEAD30256D20F2E2CD0EB
:104A4C0008D8032E0DD8711E022915D8DFE801F005
:104A5C002D3B1900F02E24D005D8552E09D0AA2EA6
:104A6C0005D00137E4E7FF2EFBD1FF2105E03146ED
:104A7C0003E0B8F1000FF8D100212046FFF746FE05
:104A8C00EFE76269B7EB131F4FEA520202D395426C
:104A9C00F2D3EAE79542EFD2E7E7B7EB131FE4D284
:104AAC00EAE76369B5EB530FF9E7002DE4D06369CE
:104ABC00013BAB42E0D00FB97F21DEE7531EBB4276
:104ACC00D3D1FE21D9E71822B3FBF2F3BB42CCD8E9
:104ADC00B7EB430FC9D863690322B3FBF2F3AB42C4
:104AEC00CAD2B5EB430FC7D2BFE701359AE7BDE891
:104AFC00F08138B513210446FFF7FDFD0025D4E9FC
:104B0C0004325343B5EBD30F05D2FF212046FFF7F8
:104B1C00FDFD0135F3E72046FFF7C6FE2046BDE854
:104B2C003840FFF7B0BE10B507210446FFF7E3FD90
:104B3C002046A521BDE81040FFF7E8BD7047C9B27B
:104B4C0080B201F0CEB980B201F0E4B900F0A6BB9E
:104B5C0013B50B4C2178BFF35B8F11F001010BD116
:104B6C0020460191FFF79BFA019928B1054800F006
:104B7C0031FE2046FFF798FA024802B010BD00BF84
:104B8C00B8E60320BCE603201FB501210B2001F081
:104B9C0097F90121082001F093F90121062001F079
:104BAC008FF90021072001F08BF9FFF7D1FF00F0FE
:104BBC001BFE094B0093094B029300240123ADF813
:104BCC000C308DF80440FFF7C3FF694600F036FE49
:104BDC00204604B010BD00BFAC620B0080841E00E8
:104BEC0010B5002104460B2001F07BF9FFF7B0FF54
:104BFC00214600F091FEBDE8104001210B2001F090
:104C0C0070B930B50024C46012F00704016008D0FC
:104C1C0002F10805524202F00701224658BF4A42EF
:104C2C00AA1AC0E9012330BD7047002930B515DB45
:104C3C0044688C4212DD002A10DB856895420DDD3C
:104C4C0002FB04120568D21001F00701802444FA1B
:104C5C0001F1A85649B213B10843A85430BD20EA5B
:104C6C000100FAE770B50B46044600256268AA42BB
:104C7C000CDD0026A268B24206DD324629462046EB
:104C8C00FFF7D3FF0136F5E70135EFE770BD00689C
:104C9C0070474068704780687047C1607047F0B4D7
:104CAC00C7680D46144667B9002937DB47688F4241
:104CBC0034DD002A32DB856895422FDDF0BCFFF72E
:104CCC00B4BF012F0CD1002928DB82688A4225DD74
:104CDC00002C23DB4168A14220DD2A46091BEDE7AD
:104CEC00022F0CD1002919DB4168A94216DD002ADC
:104CFC0014DB8268A24211DD121B491BDEE7032F75
:104D0C000CD100290ADB82688A4207DD002C05DB06
:104D1C004168A14202DD521B2146CFE7F0BC70472F
:104D2C002DE9F74F0C9DAC88914614F0070218BF83
:104D3C00012202EBD402EC88203B63432C688846AA
:104D4C0003FB024400274FF0800BEB88BB4220DDB5
:104D5C00002609EB0702AB88B34215DD217806F07B
:104D6C00070A4BFA0AF3194208D00D9B019206EB85
:104D7C0008010090FFF793FFDDE90002BAF1070F7D
:104D8C0008BF01340136E6E75B0718BF0134013771
:104D9C00DBE703B0BDE8F08F2DE9F341089F064631
:104DAC000C4690465D1E15F8013F53B1099A2146F9
:104DBC00CDE9007230464246FFF7B2FFBB881C4477
:104DCC00F1E702B0BDE8F081F8B5064617460C468F
:104DDC00CD18A54207DD2146069B3A463046FFF723
:104DEC005EFF0134F5E7F8BDF8B506460F461446EC
:104DFC00D518A54207DD2246069B39463046FFF7FB
:104E0C004EFF0134F5E7F8BD2DE9F3418B42044622
:104E1C0008981E46A8BF0E468B42B8BF0B46904260
:104E2C008046A8BF90469042ACBFC8EB0007C8EBC9
:104E3C0002071D460137AE4209DC099B009331463F
:104E4C003B4642462046FFF7CFFF0136F3E702B060
:104E5C00BDE8F08110B5044601F08AF800F0B2FA12
:104E6C00204610BD08B5024B1B685B6C019308BD56
:104E7C004802030008B5024B1B685B68019308BD30
:104E8C001802030008B5024B1B685B69019308BD4F
:104E9C001802030008B5024B1B689B68019308BD00
:104EAC002C02030008B5024B1B68DB68019308BD9C
:104EBC002C02030008B5024B1B681B69019308BD4B
:104ECC002C02030008B5024B1B685B69019308BDFB
:104EDC002C02030008B5024B1B68DB68019308BD6C
:104EEC002802030008B5024B1B689B69019308BD9F
:104EFC002802030008B5024B1B68DB69019308BD4F
:104F0C002802030008B5024B1B681B6A019308BDFD
:104F1C002802030008B5024B1B685B6A019308BDAD
:104F2C002802030008B5024B1B689B6A019308BD5D
:104F3C002802030008B5024B1B68DB6A019308BD0D
:104F4C002802030008B5024B1B681B6B019308BDBC
:104F5C002802030008B5024B1B685B6B019308BD6C
:104F6C002802030008B5024B1B681B6C019308BD9B
:104F7C002802030008B5024B1B681B6D019308BD8A
:104F8C002802030008B5024B1B685B69019308BD3E
:104F9C006402030008B5024B1B689B68019308BDB3
:104FAC006802030008B5024B1B68DB68019308BD5F
:104FBC006802030008B5024B1B681B68019308BD0F
:104FCC003002030008B5024B1B685B69019308BDF6
:104FDC003002030008B5024B1B68DB69019308BD66
:104FEC003002030008B5024B1B681B6A019308BD15
:104FFC003002030008B5024B1B685B6A019308BDC5
:10500C003002030008B5024B1B68DB6B019308BD33
:10501C003002030008B5024B1B681B6C019308BDE2
:10502C003002030008B5024B1B685B6C019308BD92
:10503C003002030008B5024B1B68DB68019308BD06
:10504C003C02030008B5024B1B681B69019308BDA9
:10505C003C02030008B5024B1B685B69019308BD59
:10506C003C02030008B5024B1B689B69019308BD09
:10507C003C02030008B5024B1B68DB69019308BDB9
:10508C003C02030008B5024B1B681B6A019308BD68
:10509C003C02030008B5024B1B689B6A019308BDD8
:1050AC003C02030008B5024B1B681B6C019308BD46
:1050BC003C02030008B5024B1B681B68019308BD3A
:1050CC004C02030008B5024B1B685B68019308BDDA
:1050DC004C02030008B5024B1B681B69019308BD09
:1050EC004C02030008B5024B1B685B69019308BDB9
:1050FC004C02030008B5024B1B689B69019308BD69
:10510C004C02030008B5024B1B68DB69019308BD18
:10511C004C02030008B5024B1B681B6A019308BDC7
:10512C004C02030008B5024B1B685B68019308BD79
:10513C002002030008B5024B1B685B69019308BD94
:10514C002002030008B5034B1B68D3F88830019389
:10515C0008BD00002002030008B5034B1B68D3F800
:10516C009430019308BD00002002030008B5024BE7
:10517C001B68DB6B019308BD4402030008B5024BAE
:10518C001B685B68019308BD4002030008B5024B25
:10519C001B689B68019308BD4002030008B5024BD5
:1051AC001B68DB68019308BD4002030008B5024B85
:1051BC001B681B69019308BD4002030008B5024B34
:1051CC001B685B69019308BD4002030008B5024BE4
:1051DC001B689B69019308BD4002030008B5024B94
:1051EC001B68DB69019308BD4002030008B5024B44
:1051FC001B681B6A019308BD4002030008B5024BF3
:10520C001B681B6B019308BD4002030008B5024BE1
:10521C001B685B6B019308BD4002030008B5024B91
:10522C001B681B6C019308BD4002030008B5024BC0
:10523C001B685B6C019308BD4002030008B5024B70
:10524C001B681B68019308BD1C02030008B5024BC8
:10525C001B685B68019308BD1C02030008B5024B78
:10526C001B689B68019308BD1C02030008B5024B28
:10527C001B685B6A019308BD1C02030008B5024B56
:10528C001B681B6C019308BD1C02030008B5024B84
:10529C001B685B6C019308BD1C0203000021FFF727
:1052AC0049BF0000024800230360FFF7DBBD00BFCD
:1052BC00C4E60320002240681146FFF797BF002286
:1052CC0040681146FFF7A2BF40680022FFF796BF67
:1052DC004068002281F00101FFF780BF0023406885
:1052EC001A461946FFF772BF002340681A46194642
:1052FC00FFF764BF002240681146FFF757BF00223A
:10530C0040681146FFF742BF406800220221FFF7B8
:10531C0045BF002340681A46FFF730BF024B0322FB
:10532C005A60024A1A607047C8E60320888D0B0049
:10533C007047F8B5064615460C468F18BC4206D089
:10534C00336814F8011B9B6830469847F6E72846EB
:10535C00F8BD007C0022FFF7D5BD007C0021FFF7D3
:10536C00D9BD007C0021FFF7DDBD007C0021FFF7DB
:10537C00E1BD007C0021FFF7E5BD10B5142104460A
:10538C00FEF78BFE204610BD38B5044615464FF48B
:10539C007A730022C4E90123094B21740846236067
:1053AC002946FFF7DFFDBF3008D16B69DB0705D558
:1053BC006868FFF74BFFE868FFF748FF204638BDE9
:1053CC00C48D0B000023007C1A461946FFF782BDE2
:1053DC007FB500221423CDE90122ADF804300B78FF
:1053EC008DF808304B680393CB680493007C0B7AE0
:1053FC00059301A9FFF7BEFD07B05DF804FB1FB5CF
:10540C00003B8DF800104FF06401039118BF01238D
:10541C00694601928DF80830FFF7DAFF05B05DF8A8
:10542C0004FB0123FFF7EBBF007C0022FFF75ABD02
:10543C00C9B2FFF7F9BF007C0022FFF75BBD012169
:10544C00FFF7F9BF704710B518210446FEF725FE8B
:10545C00204610BDF0B5037D062B8DB00E4600F135
:10546C0004074FF0000412D000F1080515F8011DD7
:10547C000A22304600F053F9AF42044419D0002CF4
:10548C00F4D02E21304600F03BF90444EEE72F23F4
:10549C006A4639460A208DF80040FFF773FD6846CE
:1054AC00FEF7B6FD33680246DB686946304698471E
:1054BC00044620460DB0F0BD10B5054B0446112234
:1054CC0040F8043B002100F0CDFD204610BD00BF8C
:1054DC00EC8D0B000346074A10B543F8042B01F181
:1054EC00100251F8044B43F8044B9142F9D10A785D
:1054FC001A7010BDEC8D0B0010B59DF8084044EAF5
:10550C00032343EA024242EA01610423416003752A
:10551C0010BD000007B5064B0360CB7800938B7869
:10552C004A780978FFF7E8FF03B05DF804FB00BF89
:10553C00EC8D0B00014B024A1A607047D0E6032039
:10554C00F88D0B00002340681A46FFF717BE406821
:10555C0000220221FFF722BE002240681146FFF70D
:10556C0015BE002240681146FFF720BE002340689C
:10557C001A461946FFF722BE002340681A46194600
:10558C00FFF724BE40680021FFF748BE40680021A9
:10559C00FFF74CBE4068002281F00101FFF71EBEF0
:1055AC0040680022FFF72ABE002240681146FFF730
:1055BC002DBE002240681146FFF718BE2DE9F043BE
:1055CC0095B014460D460746FFF776FF00211C22C6
:1055DC000DA8009100F046FD40230C9320466B462D
:1055EC000CAA0021FFF7DEFC044600284BD1024632
:1055FC0001216868FFF7DAFD0221804622466868BF
:10560C00FFF7D4FD009E81462146002E3BD0002999
:10561C0039D17368022B03D00A2B11D0F669F4E749
:10562C00B8F1000FFAD0716906A8043107ADFFF785
:10563C0071FF0FCD3C1D0FC42B6823704146EDE765
:10564C00B9F1000FEAD07469102201A800F00AFD2C
:10565C0006238DF8143001AD04F1080318341868D2
:10566C0059682A4603C20833A3421546F7D101A94B
:10567C0006A807ADFFF72EFF0FCD3C1D0FC42B68FE
:10568C0023704946CAE70098FFF784FC384615B0EA
:10569C00BDE8F083024B034A1A6000225A6070473F
:1056AC00D4E60320048E0B00F8B506460D468F1881
:1056BC000024BD420CD0336815F8011B9B683046A2
:1056CC009847031E01DB1C44F3E7002C08BF1C4663
:1056DC002046F8BD13B50446084659B10191FEF7B2
:1056EC0097FC23680199DB680246204602B0BDE8AE
:1056FC001040184702B010BD08B5FFF7EBFF08BD0E
:10570C0003689B68184738B50D210546FFF7F8FF6D
:10571C000A2104462846FFF7F3FF204438BD30B574
:10572C008BB00023012A8DF8243098BF0A2209ACD3
:10573C000D46B1FBF2F101FB125303F0FF03092BF1
:10574C0094BF30333733DBB2AA4204F8013DEFD9B2
:10575C002146FFF7BFFF0BB030BD2DE9F04186B0FD
:10576C0000AF05460E46381D142114463B60FFF76A
:10577C007DFD13280ED8391D2846FFF7ABFF0446D4
:10578C001EB12846FFF7BFFF044420461837BD461C
:10579C00BDE8F08100F1080323F00703E846ADEB08
:1057AC00030D2246411C3B686846FFF75FFD6946C6
:1057BC002846FFF78FFF0446C546E1E7014B002260
:1057CC009A607047DCE603200021FFF72BBC002118
:1057DC00FFF720BC10B5044608462170FFF7FAFB12
:1057EC0000236360204610BD13B504460078FFF714
:1057FC00EEFF58B9207801904FF6FF71FFF7DAFBF6
:10580C00019802B0BDE81040FFF7DEBF02B010BD3A
:10581C00400830B51860002418688842E5B206D9F3
:10582C000134082C02D040081860F5E70725024B1C
:10583C005B5D137030BD00BF388E0B002DE9F0435B
:10584C0006468FB000780C46FFF7C1FF00281BDB23
:10585C0035781422002109A800F004FC0B23002247
:10586C0009A92846ADF82430FFF7C4FB9DF82D306C
:10587C0013B19DF82C5055B10027B946B8460125F7
:10588C0023795DB1C3B100200FB0BDE8F083DDF822
:10589C0030809DF834909DF83570F1E7002B35D1B0
:1058AC00A368434508D18DF820908DF82170BDF880
:1058BC002020A3899A42E6D00023A1688DF80F30EE
:1058CC000A9804AB0DF10F02FFF7A2FF217985B9FD
:1058DC0089B9A36843450ED38DF820908DF82170BB
:1058EC00BDF82020A3899A4205D1049B434502D1DF
:1058FC00C9E70029F9D100230193637B00939DF83C
:10590C000F20237B3078FFF77DFBBCE7CDE90055FA
:10591C002B462A460121F5E708B50078FFF752FB24
:10592C00C0B208BD10B504460068FFF78FFC2046D6
:10593C0010BD10B50446006808B1FFF787FC0023C2
:10594C00C4E90133236010BD38B504460D46006828
:10595C000131FFF783FC10B1C4E90005012038BD0B
:10596C0010B50368044623B143688B4201D3012070
:10597C0010BD2046FFF7E8FF0028F9D0A368002BE4
:10598C00F5D122681370F2E737B50D461146019236
:10599C000446FFF7E5FF019A28B92046FFF7C9FF37
:1059AC00204603B030BDA2602946206800F04CFBB5
:1059BC002268A3680021D154F2E7002313B5C0E993
:1059CC00003304468360037341B108460191FEF72E
:1059DC001FFB019902462046FFF7D6FF204602B076
:1059EC0010BD884210B5044605D00B682BB18A68EF
:1059FC001946FFF7C9FF204610BDFFF79AFFFAE7DB
:105A0C0010B500230446C0E9003383600373FFF72D
:105A1C00E8FF204610BD13B5044659B10846019164
:105A2C00FEF7F6FA019902462046FFF7ADFF204635
:105A3C0002B010BDFFF77DFFF9E770B505460E46C5
:105A4C0009B9002070BD6AB1846814442146FFF77F
:105A5C0087FF0028F5D02868AB683146184400F061
:105A6C0037FBAC600120EDE710B58A680968044685
:105A7C00FFF7E3FF10B92046FFF75BFF204610BD90
:105A8C0013B5044629B92046FFF753FF204602B050
:105A9C0010BD08460191FEF7BBFA0199024620465B
:105AAC00FFF7CBFF0028EED0F0E70000054B0222F9
:105ABC001A60054B054A9A600020C3E90000FFF705
:105ACC0031BB00BFF8E60320ECE603200000FFFF2B
:105ADC00024B1A68024B1A60704700BF68BA032069
:105AEC00FCE6032070474174704708B5007CFFF753
:105AFC00D1FA20EAE07008BD08B5007CFFF7A2FAE5
:105B0C0020EAE07008BD08B5007CFFF7ABFA40EA6C
:105B1C00E07008BD08B5007CFFF79CFA40EAE07025
:105B2C0008BD007CFFF7A6BA37B5457C04462DB1FD
:105B3C00207C03B0BDE83040FFF77CBA007C0191BB
:105B4C00FFF7A8FA00280199F2DC284603B030BD13
:105B5C0010B514210446FEF7A0FA204610BD000033
:105B6C0010B54FF47A730446084611460022C4E976
:105B7C000123044B2360012320746374FFF792FA12
:105B8C00204610BD648E0B004174704770477047FF
:105B9C0008B50021007CFFF7ADFA40EAE07008BDC3
:105BAC0008B50121007CFFF7A5FA40EAE07008BDBA
:105BBC0008B5007CFFF796FA20EAE07008BD08B53E
:105BCC00007CFFF787FA20EAE07008BD13B50446A5
:105BDC00007C0191FFF786FA0028019901DC607CBA
:105BEC0020B1207CFFF78EFA20EAE07002B010BDE5
:105BFC00007CFFF78FBA10B514210446FEF74DFA5E
:105C0C00204610BD10B54FF47A73044608460021A7
:105C1C00C4E90113044B23600123207463741146FF
:105C2C00FFF748FA204610BD948E0B00007C002232
:105C3C00FFF748BA10B514220446002100F012FAFE
:105C4C00204610BD10B50F4C88B003A8FFF7F2FF2B
:105C5C002178BFF35B8F11F001010FD12046019128
:105C6C00FEF71DFA019948B103AA0748FFF7CAFFCE
:105C7C002046FEF719FA054800F0E0F9024808B092
:105C8C0010BD00BF00E7032004E70320995B0B0065
:105C9C00002240681146FFF789BA0022406811467D
:105CAC00FFF7A4BA002240681146FFF7AFBA40686C
:105CBC000022FFF7A3BA4068002281F00101FFF730
:105CCC008DBA002340681A461946FFF77FBA0023A5
:105CDC0040681A461946FFF771BA0022406811460F
:105CEC00FFF754BA406800220221FFF757BA00238D
:105CFC0040681A46FFF742BA024B04225A60024A25
:105D0C001A60704718E70320C48E0B00014B186013
:105D1C00704700BF6CBA032008B50B4B43B1FFF7BB
:105D2C0091FF03681B699847002801DDAFF30080E1
:105D3C00064B43B100F05CF903681B6998470028D7
:105D4C0001DDAFF3008008BD000000000000000082
:105D5C0008B5FFF7E1FFFFF795F8014B186008BD98
:105D6C0028E703200548064A064908B5121A00F030
:105D7C006BF9054B054A1A6008BD00BF00F40320FF
:105D8C0004F4032030900B0000F403201E1C279A0F
:105D9C0007B5002300931A466FF07701FFF7DCF983
:105DAC0003B05DF804FB000007B543880A2B08D04C
:105DBC00502B0BD1094B1B684BB103B05DF804EBB6
:105DCC001847FFF7E5FF03B05DF804FB00230093D1
:105DDC001A466FF07701FFF7BFF9F4E724E70320C9
:105DEC0010B512480021FFF751FA114B1A68114BEC
:105DFC009A42114B0CBF012200221A7001D0FFF7FE
:105E0C00B1FFFFF737F8044600F034F90B4B13B130
:105E1C002046AFF3008000210848FFF7A7F9BDE842
:105E2C00104007480021FFF78DB900BF195D0B002A
:105E3C0000F403201E1C279A20E70320000000001A
:105E4C00B55D0B00232813B502D9002002B010BD9C
:105E5C00A0F10B03022B1AD8174C2178BFF35B8FE0
:105E6C0011F001010BD120460191FEF718F90199AF
:105E7C0028B11248FFF7AEFC2046FEF715F90F4B80
:105E8C001878FFF7AFF80028DFD10120DEE70128F2
:105E9C0009D800F06DF80021007CFFF75BF880F06A
:105EAC000100C0B2D2E709380128EED800F0A0F802
:105EBC00007CFFF7E7F8F2E7B8E60320BCE6032026
:105ECC00232838B504460D460AD8FF2908D0FFF719
:105EDC00B9FF28B129462046BDE83840FEF7DABFA5
:105EEC0038BD38B504460D46FEF7DCFFFF2810D050
:105EFC00062804D84D2323FA00F0C30709D4204602
:105F0C00FFF7A0FF28B129462046BDE83840FEF730
:105F1C00D1BF38BD10B50446FEF7C4FF031FDBB27A
:105F2C00012B08D92046FFF78DFF20B12046BDE894
:105F3C001040FEF7C7BF002010BD704738B50A4BA4
:105F4C0003600123044643610849202000F074F8E3
:105F5C00202560600549A560284600F06DF8C4E96D
:105F6C000305204638BD00BF18000100F88E0B0059
:105F7C0030B50E4D2978BFF35B8F11F0010487B05B
:105F8C0011D12846FEF78BF868B16846FFF7D6FFAB
:105F9C006A4621460648FFF7F7F92846FEF784F8CB
:105FAC00044800F04BF8024807B030BD2CE7032042
:105FBC0030E70320475F0B007047000038B50446FC
:105FCC0014252A46002100F04DF82580402507496C
:105FDC0025812846258200F02FF804496060284668
:105FEC0000F02AF8E060204638BD00BFF88E0B00A8
:105FFC0030B50E4D2978BFF35B8F11F0010487B0DB
:10600C0011D12846FEF74BF868B101A8FFF7D6FF6F
:10601C0001AA21460648FFF7A3FD2846FEF744F8DF
:10602C00044800F00BF8024807B030BD44E70320E9
:10603C0048E70320C55F0B00FEF72DB8002301468F
:10604C001A46184600F060B80A44914200F1FF333A
:10605C0000D1704710B511F8014B03F8014F914274
:10606C00F9D110BD02440346934200D1704703F8A6
:10607C00011BF9E738B5104B1D68AB6B0446B3B97F
:10608C001820FFF7DBF80246A86320B90B4B0C482D
:10609C004221FFF7F3F80B490B4BC0E900130B4BF4
:1060AC0083600B23838100210120C2E90401AB6BC7
:1060BC0000221C615A6138BD6CBA0320F98E0B00AA
:1060CC00108F0B000E33CDAB34126DE6ECDE0500F9
:1060DC00034611F8012B03F8012B002AF9D1704764
:1060EC0010B57AB103460139841813F8010B11F875
:1060FC00012F904201D1A34201D1801A10BD00287A
:10610C00F3D1FAE71046F9E72DE9F843DFF8B88048
:10611C000646D8F800001F460D46914600F056F88A
:10612C00254B1C6834B9254C1C60254B13B11B68DE
:10613C00C4F8883063681F2B07DDD8F8000000F026
:10614C0047F84FF0FF30BDE8F8834EB3D4F8880021
:10615C0088B91C4B23B9D8F8000000F038F8F0E7E8
:10616C004FF48470FFF76AF80028F4D00023C0E9DC
:10617C004033C4F88800636840F8239001229A40A9
:10618C0000EB8301D0F800311343C0F80031022E2C
:10619C00C1F8807002BFD0F804311343C0F8043149
:1061AC006368D8F800005A1C0233626044F823502C
:1061BC0000F00EF80020C6E7E8E703205CE70320B8
:1061CC000000000049520B00D0BA03207047704702
:1061DC00704700002D400B0069400B0091400B00F4
:1061EC0095400B0000000000652D50617065722019
:1061FC00696E6974206661696C6564004C756E63C8
:10620C006820526F6F6D0057686174277320666F3A
:10621C0072206C7563680031303A30300031323A9C
:10622C00303000456C6F6E004D75736B00524F4FE4
:10623C004D3A20005449544C453A200054494D45A0
:10624C003A2000202D2000535045414B45523A2016
:10625C000064656661756C7420004D5342004C53AC
:10626C0042003C53504953657474696E67732064E3
:10627C00656661756C743E003C535049536574748B
:10628C00696E67732025732575202573204D4F4447
:10629C004525753E000000000000000000000000D5
:1062AC0051440B0025440B0027440B000000000058
:1062BC0000000000AD440B009B450B00652D5061A8
:1062CC007065722062757379200D0A2000652D505F
:1062DC006170657220627573792072656C6561738B
:1062EC0065200D0A2000010F0F0F010101000000B5
:1062FC000000000000000000000000000000000092
:10630C000000000000000000000000000000000081
:10631C000000000000000000000000000000014F21
:10632C008F0F0101010000000000000000000000C0
:10633C000000000000000000000000000000000051
:10634C000000000000000000010F8F0F0101010090
:10635C000000000000000000000000000000000031
:10636C000000000000000000000000000000000021
:10637C000000000000000000000000000000000011
:10638C00014F8F4F010101000000000000000000D0
:10639C0000000000000000000000000000000000F1
:1063AC0000000000000000000000000000000000E1
:1063BC000000000000000000010F8F4F01010100E0
:1063CC0000000000000000000000000000000000C1
:1063DC0000000000000000000000000000000000B1
:1063EC0000000000000000000000000000000000A1
:1063FC000000000000000000000000000000000091
:10640C000000000000000000000000000700070072
:10641C000700070007000700070002000200000049
:10642C000000070007000000000000000000000052
:10643C000000000000001CE01CE01CE008400840CC
:10644C0008400000000000000000000000000000F8
:10645C00000000000000000000000CC00CC00CC0CC
:10646C000CC00CC03FF03FF00CC00CC03FF03FF034
:10647C000CC00CC00CC00CC00CC000000000000014
:10648C0000000300030007E00FE0186018001F0075
:10649C000FC000E0186018601FC01F8003000300CD
:1064AC000300000000000000000000001C0022009F
:1064BC00220022001C6001E00F803C0031C0022051
:1064CC000220022001C000000000000000000000BB
:1064DC00000000000000000003E00FE00C000C00C6
:1064EC0006000F301FF019E018C01FF007B00000B5
:1064FC00000000000000000000000000000003800D
:10650C000380038001000100010000000000000076
:10651C00000000000000000000000000000000006F
:10652C000000000000C000C0018001800180030059
:10653C0003000300030003000300018001800180BD
:10654C0000C000C000000000000000000C000C00A7
:10655C00060006000600030003000300030003000E
:10656C0003000600060006000C000C0000000000F2
:10657C00000000000300030003001B601FE0078005
:10658C0007800FC00CC000000000000000000000DD
:10659C0000000000000000000000000000000000EF
:1065AC0003000300030003003FF03FF0030003006F
:1065BC0003000300000000000000000000000000C9
:1065CC0000000000000000000000000000000000BF
:1065DC000000000000000000038003000300060020
:1065EC000600040000000000000000000000000095
:1065FC0000000000000000003FE03FE00000000051
:10660C00000000000000000000000000000000007E
:10661C00000000000000000000000000000000006E
:10662C0000000000000000000380038003800000D5
:10663C00000000000000000000000060006000C0CE
:10664C0000C000C0018001800300030006000600AA
:10665C000C000C000C0018001800000000000000DA
:10666C00000000000F801FC018C030603060306028
:10667C00306030603060306018C01FC00F80000088
:10668C0000000000000000000000000003001F00DC
:10669C001F000300030003000300030003000300BA
:1066AC0003001FE01FE000000000000000000000DD
:1066BC00000000000F801FC038E03060006000C098
:1066CC000180030006000C0018003FE03FE00000D2
:1066DC000000000000000000000000000F803FC020
:1066EC0030E0006000E007C007C000E00060006020
:1066FC0060E07FC03F800000000000000000000050
:10670C000000000001C003C003C006C00CC00CC0D8
:10671C0018C030C03FE03FE000C003E003E00000E1
:10672C000000000000000000000000001FC01FC09F
:10673C00180018001F801FC018E000600060006087
:10674C0030E03FC01F80000000000000000000008F
:10675C000000000003E00FE01E0018003800378036
:10676C003FC038E03060306018E01FC00780000088
:10677C000000000000000000000000003FE03FE0CF
:10678C003060006000C000C000C00180018001804A
:10679C0003000300030000000000000000000000E4
:1067AC00000000000F801FC038E0306038E01FC0D0
:1067BC001FC038E03060306038E01FC00F80000030
:1067CC000000000000000000000000000F001FC0CF
:1067DC0038C03060306038E01FE00F6000E000C06F
:1067EC0003C03F803E0000000000000000000000DD
:1067FC000000000000000000000000000380038087
:10680C000380000000000000038003800380000070
:10681C00000000000000000000000000000000006C
:10682C000000000001C001C001C000000000000019
:10683C0003800300060006000400000000000000B6
:10684C000000000000000000003000F003C0070052
:10685C001C0078001C00070003C000F00030000092
:10686C00000000000000000000000000000000001C
:10687C00000000007FF07FF0000000007FF07FF050
:10688C0000000000000000000000000000000000FC
:10689C00000000000000000030003C000F000380EE
:1068AC0000E0007800E003800F003C0030000000A6
:1068BC0000000000000000000000000000000F803D
:1068CC001FC018601860006001C003800300000046
:1068DC00000007000700000000000000000000009E
:1068EC000000000003800C8008401040104011C0D4
:1068FC0012401240124011C01000080008400780DE
:10690C0000000000000000000000000000001F80DC
:10691C001F80038006C006C00CC00C601FE01FE087
:10692C00303078787878000000000000000000001B
:10693C000000000000003F803FC01860186018E0A5
:10694C001FC01FE01870183018303FF03FE00000F7
:10695C00000000000000000000000000000007B074
:10696C000FF01C7038303000300030003000383000
:10697C001C700FE007C000000000000000000000C9
:10698C000000000000007F807FC030E030703030AD
:10699C00303030303030307030E07FC07F800000DD
:1069AC0000000000000000000000000000003FF0AC
:1069BC003FF01830183019801F801F801980183054
:1069CC0018303FF03FF00000000000000000000015
:1069DC000000000000003FF03FF018301830198024
:1069EC001F801F801980180018003F003F00000016
:1069FC00000000000000000000000000000007B0D4
:106A0C001FF0187030303000300031F831F8303071
:106A1C0018301FF007C0000000000000000000004C
:106A2C000000000000003CF03CF01860186018609A
:106A3C001FE01FE01860186018603CF03CF000008C
:106A4C0000000000000000000000000000001FE03B
:106A5C001FE0030003000300030003000300030016
:106A6C0003001FE01FE00000000000000000000019
:106A7C0000000000000003F803F8006000600060F4
:106A8C00006030603060306030E03FC00F8000004C
:106A9C0000000000000000000000000000003EF8B4
:106AAC003EF818E019801B001F001D8018C018C08C
:106ABC0018603E783E380000000000000000000026
:106ACC000000000000003F003F000C000C000C0018
:106ADC000C000C000C300C300C303FF03FF0000080
:106AEC0000000000000000000000000000007878AA
:106AFC00787838703CF034B037B037B0333033304E
:106B0C0030307CF87CF80000000000000000000031
:106B1C0000000000000039F03DF01C601E601E609B
:106B2C001B601B6019E019E018E03EE03E600000BD
:106B3C0000000000000000000000000000000780C2
:106B4C000FC01CE03870303030303030303038709E
:106B5C001CE00FC0078000000000000000000000D7
:106B6C000000000000003FC03FE0187018301830E3
:106B7C0018701FE01FC0180018003F003F000000F5
:106B8C000000000000000000000000000000078072
:106B9C000FC01CE03870303030303030303038704E
:106BAC001CE00FC0078007B00FF00CE000000000E5
:106BBC000000000000003FC03FE018701830187053
:106BCC001FE01FC018E0186018703E383E18000017
:106BDC0000000000000000000000000000000FB0EA
:106BEC001FF03870303038001F8007E000703030F4
:106BFC0038703FE037C000000000000000000000CB
:106C0C000000000000003FF03FF0333033303330F1
:106C1C00030003000300030003000FC00FC00000BB
:106C2C0000000000000000000000000000003CF02C
:106C3C003CF01860186018601860186018601860D4
:106C4C001CE00FC0078000000000000000000000E6
:106C5C0000000000000078F078F03060306018C060
:106C6C0018C00D800D800D80070007000700000084
:106C7C0000000000000000000000000000007C7C10
:106C8C007C7C301833983398339836D816D01C70D7
:106C9C001C701C7018300000000000000000000088
:106CAC0000000000000078F078F0306018C00D8013
:106CBC00070007000D8018C0306078F078F00000F5
:106CCC0000000000000000000000000000003CF08C
:106CDC003CF018600CC00780078003000300030021
:106CEC0003000FC00FC000000000000000000000F7
:106CFC000000000000001FE01FE0186018C00180B9
:106D0C000300030006000C6018601FE01FE0000089
:106D1C0000000000000000000000000003C003C0E1
:106D2C00030003000300030003000300030003003F
:106D3C00030003000300030003C003C000000000B5
:106D4C000000180018000C000C000C0006000600D7
:106D5C00030003000180018000C000C000C000607F
:106D6C000060000000000000000000000F000F0099
:106D7C0003000300030003000300030003000300EF
:106D8C0003000300030003000F000F0000000000CD
:106D9C0000000000020007000D8018C030602020A9
:106DAC0000000000000000000000000000000000D7
:106DBC0000000000000000000000000000000000C7
:106DCC0000000000000000000000000000000000B7
:106DDC000000000000000000000000000000FFFCAC
:106DEC00FFFC000004000300008000000000000015
:106DFC000000000000000000000000000000000087
:106E0C000000000000000000000000000000000076
:106E1C00000000000FC01FE000600FE01FE03860B2
:106E2C0030E03FF01F700000000000000000000088
:106E3C0000000000700070003000300037803FE030
:106E4C00386030303030303038607FE07780000090
:106E5C000000000000000000000000000000000026
:106E6C000000000007B01FF0183030303000300048
:106E7C0038301FF00FC000000000000000000000C0
:106E8C0000000000007000700030003007B01FF0F0
:106E9C00187030303030303038701FF807B80000C0
:106EAC0000000000000000000000000000000000D6
:106EBC000000000007801FE018603FF03FF030003A
:106ECC0018301FF007C00000000000000000000098
:106EDC000000000003F007F0060006001FE01FE0B2
:106EEC00060006000600060006001FE01FE000007A
:106EFC000000000000000000000000000000000086
:106F0C000000000007B81FF81870303030303030F7
:106F1C0018701FF007B0003000700FE00FC00000B9
:106F2C000000000038003800180018001BC01FE0DB
:106F3C001C6018601860186018603CF03CF0000091
:106F4C00000000000000000000000000030003002F
:106F5C00000000001F001F000300030003000300DB
:106F6C0003001FE01FE00000000000000000000014
:106F7C000000000003000300000000001FC01FC041
:106F8C0000C000C000C000C000C000C000C000C0F5
:106F9C0001C03F803F0000000000000038003800B6
:106FAC00180018001BE01BE01B001E001E001B003D
:106FBC00198039F039F000000000000000000000DA
:106FCC00000000001F001F0003000300030003006B
:106FDC00030003000300030003001FE01FE0000098
:106FEC000000000000000000000000000000000095
:106FFC00000000007EE07FF033303330333033302C
:10700C0033307BB87BB800000000000000000000AB
:10701C000000000000000000000000003BC03FE04A
:10702C001C6018601860186018603CF03CF00000A0
:10703C000000000000000000000000000000000044
:10704C000000000007801FE0186030303030303016
:10705C0018601FE007800000000000000000000026
:10706C0000000000000000000000000077807FE0BE
:10707C00386030303030303038603FE037803000AE
:10708C0030007C007C0000000000000000000000CC
:10709C000000000007B81FF8187030303030303066
:1070AC0018701FF007B00030003000F800F8000036
:1070BC000000000000000000000000003CE03DF07B
:1070CC000F300E000C000C000C003FC03FC0000045
:1070DC0000000000000000000000000000000000A4
:1070EC000000000007E01FE018601E000FC001E068
:1070FC0018601FE01F80000000000000000000006E
:10710C000000000000000C000C000C003FE03FE011
:10711C000C000C000C000C000C300FF007C0000031
:10712C000000000000000000000000000000000053
:10713C000000000038E038E0186018601860186033
:10714C0018E01FF00F7000000000000000000000AD
:10715C0000000000000000000000000078F078F053
:10716C00306018C018C00D800D80070007000000AB
:10717C000000000000000000000000000000000003
:10718C000000000078F078F03260326037E01DC00B
:10719C001DC018C018C00000000000000000000056
:1071AC000000000000000000000000003CF03CF07B
:1071BC000CC00780030007800CC03CF03CF00000C2
:1071CC0000000000000000000000000000000000B3
:1071DC000000000078F078F0306018C018C00D8006
:1071EC000F800700060006000C007F007F000000E7
:1071FC000000000000000000000000001FE01FE085
:10720C0018C00180030006000C601FE01FE00000A6
:10721C0000000000000000000000000001C003C0DE
:10722C000300030003000300030007000E00070027
:10723C00030003000300030003C001C000000000B2
:10724C000000000003000300030003000300030020
:10725C00030003000300030003000300030003000A
:10726C000300030000000000000000001C001E00D2
:10727C000600060006000600060007000380070053
:10728C0006000600060006001E001C0000000000A0
:10729C0000000000000000000000000000000E00D4
:1072AC003F3033F001E0000000000000000000005F
:1072BC0000000000000000000000000000000000C2
:1072CC0000000000000000000000000000000000B2
:1072DC0000000000000000000000000000000000A2
:1072EC000000000000000000000000000000000092
:1072FC000000000000000000000000000000000082
:10730C0000000000000000000380000380000380E8
:10731C0000038000038000038000038000038000D2
:10732C0003800001000001000000000000000003C9
:10733C00800003800000000000000000000000003E
:10734C000000000000000000000000000000000031
:10735C000000000E70000E70000E7000042000047F
:10736C0020000420000420000000000000000000A9
:10737C000000000000000000000000000000000001
:10738C0000000000000000000000000000000000F1
:10739C0000000000000000000660000660000660AF
:1073AC00000660000660003FF8003FF80006600031
:1073BC000CC0003FF8003FF8000CC0000CC0000CE3
:1073CC00C0000CC0000CC000000000000000000059
:1073DC000000000000000000000000000001800020
:1073EC0001800007B0000FF0001870001870001C2E
:1073FC0000000F800007E00000F0001830001C3087
:10740C00001C70001FE0001BC00001800001800008
:10741C00018000018000000000000000000000005E
:10742C0000000000000000000780000FC0001CE0FE
:10743C00001860001860001CE0000FF80007E00066
:10744C001FF0000738000618000618000738000364
:10745C00F00001E00000000000000000000000004F
:10746C000000000000000000000000000000000010
:10747C0000000000000003F00007F0000C60000C9E
:10748C0000000C00000600000700000F9C001DFC13
:10749C000018F0001870000FFC0007DC0000000062
:1074AC0000000000000000000000000000000000D0
:1074BC0000000000000000000000000380000380BA
:1074CC000003800001000001000001000001000029
:1074DC0000000000000000000000000000000000A0
:1074EC000000000000000000000000000000000090
:1074FC000000000000000000000000000000000080
:10750C0000180000380000700000F00000E00000DF
:10751C00E00001C00001C00001C00001C00001C0BA
:10752C000001C00000E00000E000007000007000EE
:10753C0000380000180000000000000000000000EF
:10754C0000000000000000001800001C00000E00ED
:10755C00000E0000070000070000038000038000FD
:10756C0003800003800003800003800007000007F5
:10757C0000000F00000E00001C00001800000000AE
:10758C0000000000000000000000000000000000EF
:10759C000180000180000180001DB8001FF8000769
:1075AC00E00003C00003C00006600006600000009D
:1075BC0000000000000000000000000000000000BF
:1075CC0000000000000000000000000000000000AF
:1075DC00000000000000000000000000000001801E
:1075EC00000180000180000180000180003FFC0050
:1075FC003FFC00018000018000018000018000013F
:10760C0080000000000000000000000000000000EE
:10761C00000000000000000000000000000000005E
:10762C00000000000000000000000000000000004E
:10763C00000000000000000000000000000000003E
:10764C000000000000E00000C00001C0000180004C
:10765C000180000300000300000000000000000097
:10766C00000000000000000000000000000000000E
:10767C00000000000000000000000000001FF800E7
:10768C001FF80000000000000000000000000000D7
:10769C0000000000000000000000000000000000DE
:1076AC0000000000000000000000000000000000CE
:1076BC0000000000000000000000000000000000BE
:1076CC0000000000000000000000000000000000AE
:1076DC000000000003C00003C00003C00000000055
:1076EC00000000000000000000000000000000008E
:1076FC000000001800001800003800003000007076
:10770C000000600000600000C00000C000018000AC
:10771C000180000300000300000600000600000EBC
:10772C0000000C00001C00001800001800000000F5
:10773C00000000000000000000000000000000003D
:10774C0003C00007E0000C30000C300018180018C3
:10775C001800181800181800181800181800181815
:10776C00000C30000C300007E00003C000000000EB
:10777C0000000000000000000000000000000000FD
:10778C0000000000000000000080000780001F8047
:10779C00001D80000180000180000180000180003C
:1077AC000180000180000180000180000180001F29
:1077BC00F8001FF8000000000000000000000000AE
:1077CC0000000000000000000000000000000000AD
:1077DC0007C0001FF00038300030180030180000CF
:1077EC00180000300000600001C00003800006009B
:1077FC00000C00001800003FF8003FF800000000EB
:10780C00000000000000000000000000000000006C
:10781C00000000000000000003C0000FE0000C702E
:10782C000000300000300000600003C00003E000E6
:10783C000070000018000018000018001838001F15
:10784C00F0000FC00000000000000000000000006D
:10785C00000000000000000000000000000000001C
:10786C0000E00001E00001E000036000066000069B
:10787C0060000C60000C60001860003060003FF885
:10788C00003FF80000600003F80003F8000000005F
:10789C0000000000000000000000000000000000DC
:1078AC0000000000000000001FF0001FF000180096
:1078BC00001800001800001BC0001FF0001C300056
:1078CC000018000018000018000018003030003FAD
:1078DC00F0000FC0000000000000000000000000DD
:1078EC00000000000000000000000000000000008C
:1078FC0000F80003F8000700000E00000C00001850
:10790C0000001BC0001FF0001C30001818001818D5
:10791C00001818000C38000FF00003E00000000005
:10792C00000000000000000000000000000000004B
:10793C0000000000000000001FF8001FF8001818DD
:10794C0000183800003000003000007000006000AB
:10795C0000600000E00000C00000C00001C0000199
:10796C00800001800000000000000000000000000A
:10797C0000000000000000000000000000000000FB
:10798C0007E0000FF0001C38001818001818000C45
:10799C00300007E00007E0000C3000181800181841
:1079AC00001818001C38000FF00007E00000000061
:1079BC0000000000000000000000000000000000BB
:1079CC00000000000000000007C0000FF0001C3099
:1079DC00001818001818001818000C38000FF800C0
:1079EC0003D80000180000300000700000E0001FF9
:1079FC00C0001F000000000000000000000000009C
:107A0C00000000000000000000000000000000006A
:107A1C0000000000000000000000000003C0000394
:107A2C00C00003C0000000000000000000000000C7
:107A3C000000000003C00003C00003C000000000F1
:107A4C00000000000000000000000000000000002A
:107A5C00000000000000000000000000000000001A
:107A6C000000000000F00000F00000F0000000003A
:107A7C0000000000000000000000E00001C0000158
:107A8C0080000180000300000200000000000000E4
:107A9C0000000000000000000000000000000000DA
:107AAC00000000000000001C00003C0000F000037F
:107ABC00C0000F00003C0000F000003C00000F0074
:107ACC000003C00000F000003C00001C000000009F
:107ADC00000000000000000000000000000000009A
:107AEC00000000000000000000000000000000008A
:107AFC00000000000000007FFC007FFC0000000084
:107B0C000000007FFC007FFC000000000000000073
:107B1C000000000000000000000000000000000059
:107B2C000000000000000000000000000000000049
:107B3C000000000000007000007800001E0000072C
:107B4C00800001E000007800001E0000780001E0D9
:107B5C00000780001E00007800007000000000008C
:107B6C000000000000000000000000000000000009
:107B7C00000000000000000000000007C0000FE043
:107B8C000018700018300018300000700000E00081
:107B9C0003C0000380000300000000000000000789
:107BAC0000000700000000000000000000000000C2
:107BBC0000000000000000000000000000000000B9
:107BCC0003E00007F0000E38000C180018780018BD
:107BDC00F80019D80019980019980019980018F88D
:107BEC00001878001800000C00000E180007F800B0
:107BFC0003E0000000000000000000000000000096
:107C0C0000000000000000000000001F80001FC0EA
:107C1C000001C00003600003600006300006300065
:107C2C000C30000FF8001FF800180C00300C00FC92
:107C3C007F00FC7F0000000000000000000000003E
:107C4C000000000000000000000000000000000028
:107C5C000000007FE0007FF00018380018180018B2
:107C6C0018001838001FF0001FF800181C00180C22
:107C7C0000180C00180C007FF8007FF000000000CA
:107C8C0000000000000000000000000000000000E8
:107C9C00000000000000000000000003EC000FFCDE
:107CAC00001C1C00180C00300C00300000300000D0
:107CBC00300000300000300000180C001C1C000FBD
:107CCC00F80003F0000000000000000000000000BD
:107CDC000000000000000000000000000000000098
:107CEC000000007FC0007FF0001838001818001842
:107CFC000C00180C00180C00180C00180C00180CB8
:107D0C00001818001838007FF0007FE00000000019
:107D1C000000000000000000000000000000000057
:107D2C0000000000000000000000007FF8007FF859
:107D3C00001818001818001998001980001F8000EE
:107D4C001F80001980001998001818001818007F5F
:107D5C00F8007FF8000000000000000000000000A8
:107D6C000000000000000000000000000000000007
:107D7C000000003FFC003FFC000C0C000C0C000C45
:107D8C00CC000CC0000FC0000FC0000CC0000CC019
:107D9C00000C00000C00003FC0003FC000000000C1
:107DAC0000000000000000000000000000000000C7
:107DBC00000000000000000000000003EC000FFCBD
:107DCC00001C1C00180C00300C00300000300000AF
:107DDC0030FE0030FE00300C00380C001C1C000F74
:107DEC00FC0003F000000000000000000000000098
:107DFC000000000000000000000000000000000077
:107E0C000000007E7E007E7E0018180018180018F6
:107E1C0018001818001FF8001FF800181800181880
:107E2C00001818001818007E7E007E7E00000000EE
:107E3C000000000000000000000000000000000036
:107E4C0000000000000000000000001FF8001FF8F8
:107E5C000001800001800001800001800001800091
:107E6C000180000180000180000180000180001F62
:107E7C00F8001FF8000000000000000000000000E7
:107E8C0000000000000000000000000000000000E6
:107E9C0000000007FE0007FE00003000003000006C
:107EAC003000003000003000303000303000303016
:107EBC00003030003060003FE0000F800000000018
:107ECC0000000000000000000000000000000000A6
:107EDC0000000000000000000000007F3E007F3E1C
:107EEC000018300018600018C0001980001B8000BA
:107EFC001FC0001CE0001870001830001838007FFC
:107F0C001F007F1F000000000000000000000000A8
:107F1C000000000000000000000000000000000055
:107F2C000000007F80007F80000C00000C00000C23
:107F3C0000000C00000C00000C00000C0C000C0CE1
:107F4C00000C0C000C0C007FFC007FFC00000000FF
:107F5C000000000000000000000000000000000015
:107F6C000000000000000000000000F00F00F81FEF
:107F7C0000381C003C3C003C3C00366C00366C006D
:107F8C0033CC0033CC00318C00300C00300C00FEB4
:107F9C007F00FE7F000000000000000000000000D9
:107FAC0000000000000000000000000000000000C5
:107FBC0000000078FE0078FE001C18001E18001F40
:107FCC0018001B18001B980019D80018D80018F8B6
:107FDC00001878001838007F18007F180000000087
:107FEC000000000000000000000000000000000085
:107FFC00000000000000000000000003C0000FF0B3
:10800C00001C3800181800381C00300C00300C0014
:10801C00300C00300C00381C001818001C38000FF5
:10802C00F00003C000000000000000000000000091
:10803C000000000000000000000000000000000034
:10804C000000003FF0003FF8000C1C000C0C000C72
:10805C000C000C0C000C18000FF8000FE0000C00CA
:10806C00000C00000C00003FC0003FC000000000EE
:10807C0000000000000000000000000000000000F4
:10808C00000000000000000000000003C0000FF022
:10809C00001C3800181800381C00300C00300C0084
:1080AC00300C00300C00381C001818001C38000F65
:1080BC00F00007C00007CC000FFC000C38000000DB
:1080CC0000000000000000000000000000000000A4
:1080DC000000007FE0007FF000183800181800182E
:1080EC0018001838001FF0001FC00018E0001870AE
:1080FC00001830001838007F1E007F0E00000000B2
:10810C000000000000000000000000000000000063
:10811C00000000000000000000000007D8000FF86D
:10812C00001C38001818001818001E00000FC000A2
:10813C0003F0000078001818001818001C38001FF5
:10814C00F0001BE000000000000000000000000038
:10815C000000000000000000000000000000000013
:10816C000000003FFC003FFC00318C00318C0031E2
:10817C008C00318C000180000180000180000180A6
:10818C00000180000180000FF0000FF000000000E3
:10819C0000000000000000000000000000000000D3
:1081AC0000000000000000000000007E7E007E7ECB
:1081BC0000181800181800181800181800181800C3
:1081CC001818001818001818001818000C30000F98
:1081DC00F00003C0000000000000000000000000E0
:1081EC000000000000000000000000000000000083
:1081FC000000007F7F007F7F00180C000C18000C23
:10820C0018000C18000630000630000360000360F4
:10821C000003600001C00001C000008000000000ED
:10822C000000000000000000000000000000000042
:10823C000000000000000000000000FE3F80FE3F38
:10824C008030060030060030860019CC0019CC00B6
:10825C001B6C001B6C001E7C000E38000E38000CD2
:10826C0018000C18000000000000000000000000C6
:10827C0000000000000000000000000000000000F2
:10828C000000007E7E007E7E001818000C30000678
:10829C00600003C00001800001800003C000066084
:1082AC00000C30001818007E7E007E7E000000005E
:1082BC0000000000000000000000000000000000B2
:1082CC0000000000000000000000007C7E007C7EAE
:1082DC00001818000C300006600006600003C00097
:1082EC000180000180000180000180000180000FEE
:1082FC00F0000FF000000000000000000000000083
:10830C000000000000000000000000000000000061
:10831C000000001FF8001FF8001818001830001893
:10832C00600018C0000180000300000618000C1843
:10833C00001818003018003FF8003FF8000000004B
:10834C000000000000000000000000000000000021
:10835C00000000000000000001F00001F0000180AE
:10836C00000180000180000180000180000180007C
:10837C00018000018000018000018000018000016B
:10838C00800001800001800001F00001F00000007D
:10839C0000000000000000000000180000180000A1
:1083AC001C00000C00000E0000060000060000037C
:1083BC00000003000001800001800000C00000C02C
:1083CC000000600000600000700000300000380009
:1083DC000018000018000000000000000000000061
:1083EC0000000000000000000F80000F80000180E2
:1083FC0000018000018000018000018000018000EC
:10840C0001800001800001800001800001800001DA
:10841C0080000180000180000F80000F80000000B0
:10842C0000000000000000000000000000008000C0
:10843C0001C00003E0000770000630000C180018A3
:10844C000C00100400000000000000000000000000
:10845C000000000000000000000000000000000010
:10846C000000000000000000000000000000000000
:10847C0000000000000000000000000000000000F0
:10848C0000000000000000000000000000000000E0
:10849C0000000000000000000000000000000000D0
:1084AC0000000000000000000000000000000000C0
:1084BC0000000000FFFF00FFFF00000000030000B1
:1084CC0003800000E00000600000000000000000DD
:1084DC000000000000000000000000000000000090
:1084EC000000000000000000000000000000000080
:1084FC000000000000000000000000000000000070
:10850C00000000000000000000000000000000005F
:10851C00000000000FC0001FE00000300000300021
:10852C0007F0001FF0003830003030003070001FB2
:10853C00FC000FBC00000000000000000000000068
:10854C00000000000000000000000000000000001F
:10855C007800007800001800001800001BE0001FD5
:10856C00F8001C1800180C00180C00180C00180C43
:10857C0000180C001C18007FF8007BE000000000C5
:10858C0000000000000000000000000000000000DF
:10859C0000000000000000000000000000000000CF
:1085AC000000000003EC000FFC001C1C00380C0049
:1085BC00300C00300000300000380C001C1C000F88
:1085CC00F80003F0000000000000000000000000B4
:1085DC00000000000000000000000000000000008F
:1085EC0000780000780000180000180007D8001F61
:1085FC00F800183800301800301800301800301807
:10860C00003018001838001FFE0007DE00000000C4
:10861C00000000000000000000000000000000004E
:10862C00000000000000000000000000000000003E
:10863C000000000007E0001FF800181800300C00C4
:10864C003FFC003FFC00300000300000180C001F05
:10865C00FC0007F00000000000000000000000001B
:10866C0000000000000000000000000000000000FE
:10867C0001FC0003FC000600000600003FF8003F70
:10868C00F8000600000600000600000600000600C8
:10869C00000600000600003FF0003FF00000000064
:1086AC0000000000000000000000000000000000BE
:1086BC0000000000000000000000000000000000AE
:1086CC000000000007DE001FFE0018380030180004
:1086DC003018003018003018003018001838001FFF
:1086EC00F80007D8000018000018000038000FF040
:1086FC00000FC0000000000000000000000000009F
:10870C007800007800001800001800001BE0001F23
:10871C00F0001C3800181800181800181800181849
:10872C00001818001818007E7E007E7E00000000E5
:10873C00000000000000000000000000000000002D
:10874C00000000000000000001800001800000001B
:10875C00000000001F80001F8000018000018000CD
:10876C000180000180000180000180000180003F39
:10877C00FC003FFC000000000000000000000000B6
:10878C0000000000000000000000000000000000DD
:10879C0000C00000C0000000000000001FF0001F1F
:1087AC00F0000030000030000030000030000030DD
:1087BC0000003000003000003000003000003000BD
:1087CC000030000070001FE0001F8000000000005F
:1087DC0000000000000000003C00003C00000C0009
:1087EC00000C00000CF8000CF8000CC0000D800010
:1087FC000F80000F00000F80000DC0000CE0003C4B
:10880C007C003C7C00000000000000000000000028
:10881C00000000000000000000000000000000004C
:10882C001F80001F8000018000018000018000017A
:10883C008000018000018000018000018000018027
:10884C00000180000180003FFC003FFC00000000A4
:10885C00000000000000000000000000000000000C
:10886C0000000000000000000000000000000000FC
:10887C0000000000F77800FFFC0039CC00318C00C0
:10888C00318C00318C00318C00318C00318C00FD2E
:10889C00EF00FDEF000000000000000000000000F1
:1088AC0000000000000000000000000000000000BC
:1088BC000000000000000000000000007BE0007FD2
:1088CC00F0001C3800181800181800181800181898
:1088DC00001818001818007E7E007E7E0000000034
:1088EC00000000000000000000000000000000007C
:1088FC00000000000000000000000000000000006C
:10890C000000000003C0000FF0001C3800381C00F1
:10891C00300C00300C00300C00381C001C38000FE0
:10892C00F00003C000000000000000000000000088
:10893C00000000000000000000000000000000002B
:10894C000000000000000000000000007BE0007F41
:10895C00F8001C1800180C00180C00180C00180C4F
:10896C0000180C001C18001FF8001BE00018000079
:10897C001800001800007F00007F000000000000BD
:10898C0000000000000000000000000000000000DB
:10899C000000000007DE001FFE0018380030180031
:1089AC003018003018003018003018001838001F2C
:1089BC00F80007D80000180000180000180000FE8E
:1089CC000000FE000000000000000000000000009D
:1089DC000000000000000000000000003E78003E97
:1089EC00FC0007CC00070000060000060000060093
:1089FC00000600000600003FF0003FF00000000001
:108A0C00000000000000000000000000000000005A
:108A1C00000000000000000000000000000000004A
:108A2C000000000007F8000FF800181800181800D4
:108A3C001F80000FF00000F8001818001838001FF5
:108A4C00F0001FE00000000000000000000000002B
:108A5C00000000000000000000000000000000000A
:108A6C000C00000C00000C00000C00003FF0003F5C
:108A7C00F0000C00000C00000C00000C00000C00BE
:108A8C00000C00000C1C0007FC0003F000000000B0
:108A9C0000000000000000000000000000000000CA
:108AAC0000000000000000000000000000000000BA
:108ABC00000000007878007878001818001818006A
:108ACC001818001818001818001818001838000F7B
:108ADC00FE0007DE000000000000000000000000A7
:108AEC00000000000000000000000000000000007A
:108AFC000000000000000000000000007C3E007C34
:108B0C003E001818001818000C30000C30000660DD
:108B1C000006600007E00003C00003C00000000076
:108B2C000000000000000000000000000000000039
:108B3C000000000000000000000000000000000029
:108B4C0000000000783C00783C003118003398009D
:108B5C003398001AB0001EF0001EF0001C60000CD0
:108B6C0060000C600000000000000000000000002D
:108B7C0000000000000000000000000000000000E9
:108B8C000000000000000000000000003E7C003EE1
:108B9C007C000C300006600003C00001800003C0A4
:108BAC00000660000C30003E7C003E7C00000000A3
:108BBC0000000000000000000000000000000000A9
:108BCC000000000000000000000000000000000099
:108BDC00000000007E1F007E1F00180C000C180007
:108BEC000C180006300006300003600003E00001A2
:108BFC00C00000C0000180000180000300003FC0E5
:108C0C00003FC00000000000000000000000000059
:108C1C000000000000000000000000001FF8001F12
:108C2C00F80018300018600000C00001800003003C
:108C3C00000618000C18001FF8001FF800000000B8
:108C4C000000000000000000000000000000000018
:108C5C00000000000000000000E00001E0000180C6
:108C6C000001800001800001800001800001800073
:108C7C0003800007000003800001800001800001D8
:108C8C00800001800001800001E00000E000000095
:108C9C0000000000000000000000000000000000C8
:108CAC000180000180000180000180000180000132
:108CBC0080000180000180000180000180000180A3
:108CCC000001800001800001800001800001800013
:108CDC000180000180000000000000000000000086
:108CEC000000000000000000070000078000018069
:108CFC0000018000018000018000018000018000E3
:108D0C0001C00000E00001C00001800001800001F2
:108D1C008000018000018000078000070000000037
:108D2C000000000000000000000000000000000037
:108D3C000000000000000000000000000000000027
:108D4C0000000E00001F18003BB80031F00000E0DE
:108D5C000000000000000000000000000000000007
:108D6C0000000000000000000000000000000000F7
:108D7C000000000000000000000000001F530B006A
:108D8C0015530B000B530B0001530B00F5520B004A
:108D9C00E9520B0091550B0099550B00DD520B005D
:108DAC00D5520B00CB520B00C1520B00C9550B0016
:108DBC0000000000000000003D530B0087530B0027
:108DCC005F530B003F530B0067530B006F530B00AB
:108DDC0077530B007F530B000000000000000000D5
:108DEC0061540B0051540B0053540B006170700014
:108DFC00000000000000000051550B005B550B00FB
:108E0C0065550B006F550B0079550B0085550B0004
:108E1C0091550B0099550B00A1550B00AD550B004E
:108E2C00B5550B00BF550B00C9550B0000081018A9
:108E3C002028303825592D256D2D25645425483A88
:108E4C00254D3A2553257A0061736374696D65006D
:108E5C000000000000000000F15A0B005D5B0B00ED
:108E6C00355B0B00B5560B00055B0B00215B0B0053
:108E7C00135B0B002F5B0B00F35A0B00F75A0B0024
:108E8C0000000000000000009B5B0B00035C0B006B
:108E9C00D95B0B00B5560B00CB5B0B009D5B0B003D
:108EAC00AD5B0B00FD5B0B00BD5B0B00955B0B0022
:108EBC000000000000000000FB5C0B00F15C0B00EC
:108ECC00E75C0B009D5C0B00DB5C0B00CF5C0B00CC
:108EDC0091550B0099550B00C35C0B00BB5C0B0050
:108EEC00B15C0B00A75C0B00C9550B00005245454B
:108EFC004E54206D616C6C6F632073756363656594
:108F0C00646564002F746D702F6A656E6B696E7387
:108F1C002D4743432D31302D706970656C696E653A
:108F2C002D34385F32303230313132345F313630BB
:108F3C00363138303633392F7372632F6E65776C58
:108F4C0069622F6E65776C69622F6C6962632F732F
:108F5C0074646C69622F72616E642E630000000091
:108F6C0079430B00B1520B0029530B0041550B00F8
:108F7C00A1560B00C9570B00B95A0B00DD5A0B0058
:048F8C00055D0B0074
:108F9000040000001400000003000000474E5500CC
:108FA0003DDD98BC41731A7B7F4470F36E6714D922
:048FB000E0772545FC
:108FB400EE630B000E001400C6720B0011001800C3
:108FC400548E0B0070BA0320000000000000000063
:108FD400000000000000000000000000000000008D
:108FE400000000000000000000000000000000007D
:108FF400000000000000000000000000000000006D
:10900400000000000000000000000000000000005C
:10901400000000000000000000000000000000004C
:0C9024000000000000000000ECE703204A
:04903000000000003C
:10903A0000000102030405060708090A0B0C0D0EBD
:10904A000F101112131415161718191A1B1C1D1EAE
:04905A001F202800AB
:04905E0078563412FA
:04000003B000401CED
:00000001FF
