:02000002B0004C
:1040000000400B00F2640B000000060019000502DE
:084010000401B41400000000DB
:0440180038610B0000
:10401C0010F8012B11F8013B012A28BF9A42F7D066
:10402C00D01A7047034613F8012B002AFBD1181A3B
:10403C000138704709480A49884208B505D0094A31
:10404C00824202D0121A01F08CFF0748074A002165
:10405C00121A01F094FF014808BD00BF24E40320AC
:10406C0058640B0090E4032090E40320F0E7032055
:10407C0070B5074E074C01F03DFEA41BA4080025AB
:10408C00AC4200D170BD56F8043B98470135F7E7B8
:10409C0010640B0034640B0000F0C2B808B500F0DB
:1040AC009DF8BDE8084001F0DDBD00F0DDBD00F07D
:1040BC00DBBD00F0E1BD0078B0FA80F0400970473C
:1040CC00012303707047000038B51F4D0446294684
:1040DC0001F0D9FB294604F1100001F0D4FB29466C
:1040EC0004F1200001F0CFFB294604F1300001F06F
:1040FC00CAFB294604F1400001F0C5FB294604F136
:10410C00500001F0C0FB294604F1600001F0BBFB3C
:10411C00294604F1700001F0B6FB294604F1800039
:10412C0001F0B1FB294604F1900001F0ACFB2946EB
:10413C0004F1A00001F0A7FB294604F1B00001F046
:10414C00A2FB204638BD00BF7E610B00F8B51D48B0
:10415C0000F0AEF9A0B31C491A48022200F060FA34
:10416C0001280AD001F0FAFC184901F008FBBDE85F
:10417C00F8404FF4FA7000F0AFBD01F0EFFC1449B9
:10418C00114D144F01F0FBFA01F0E8FC124901F05B
:10419C00E3FA0024264601F0E1FC2978102201F014
:1041AC00F8FA013401F0DAFC394601F0D5FA0A2CA0
:1041BC0005F8016BEFD101F0D1FC01F0D4FAD6E790
:1041CC00F8BD00BF44E6032018E603204C610B0049
:1041DC0068610B007D610B0079610B0008B500F084
:1041EC0077FB034B1860BDE80840FFF7AFBF00BF7B
:1041FC0014E6032038B5046805467CB16368013BBE
:10420C0063605BB9236820469B689847A368013BB1
:10421C00A3601BB923682046DB689847284638BD45
:10422C0030B585B001F09AFC4FF4E13101F08AFC15
:10423C000121162001F0CEFD0121162001F0DBFD3D
:10424C000121092001F0C6FD0021092001F0D3FD58
:10425C0001F084FC1D491E4D1E4C01F07DFA01211C
:10426C00172001F0B7FD0121172001F0C4FD01F06A
:10427C0075FC01F078FA01F071FC174901F06CFA49
:10428C00164B17491B788DF8003000223C2302A8EE
:10429C0000F0D4FE03A8FFF7ADFF284600F0D4FAD7
:1042AC0040B901F05BFC214601F056FA642000F0A5
:1042BC0013FDF2E701F052FC01F055FA01F04EFC4F
:1042CC00084905B0BDE8304001F059BA7F610B00D8
:1042DC0044E60320B4610B008A610B0010E6032056
:1042EC0097610B009D610B0008B50B4B0B4801222D
:1042FC001A7000F01DF80A48FFF7E6FE0948FFF7B0
:10430C00E3FE09480022022100F0DAF9BDE808407A
:10431C00064800F022B800BF10E6032028E6032070
:10432C0090E4032050E5032044E6032040E60320FC
:10433C0010B5044600F010F806220523C4E9022348
:10434C0008210723C4E904134FF4C8704FF4967383
:10435C00C4E90003204610BD704710B5044601F0B7
:10436C0091FD01F05FF8204610BD0368C9B29B684F
:10437C0018472DE9F04101320220D5B20F4600F06A
:10438C00ABFC01F07FFD242101F082F801F07AFDF5
:10439C000021FFF7EAFF01F075FD0021FFF7E5FFB3
:1043AC0001F070FDFF21FFF7E0FF01F06BFD0368EA
:1043BC0029469B68984701F065FD6942FFF7D5FFD8
:1043CC0001F060FDD421FFF7D0FF0024D326013D7E
:1043DC0004F10108E4B2AC420ADA01F053FD0368BF
:1043EC00395D9B689847395D0E44F6B24446EFE759
:1043FC0001F048FD0368F1439B68C9B2984701F08E
:10440C0041FD036800219B68984701F03BFDBDE826
:10441C00F04101F044B830B5024690F84100A0B12B
:10442C006FF0030502F10A0000230239AD1A2C18B3
:10443C00A14203DD10F8014B2344F8E70A44DB43A7
:10444C001079DBB21B1A5842584130BD1FB50446D7
:10445C0090F8410050B340208DF8000001208DF8F9
:10446C00010060208DF8020018689B88ADF80830B8
:10447C001368CDF80A3023688DF8031001901B687F
:10448C000E2269462046984723684FF47A725B687F
:10449C0010212046984748B110212046FFF7BBFF5A
:1044AC0020B1208AA0F141035842584104B010BDFC
:1044BC001FB590F84130044613B34A238DF80430ED
:1044CC0001238DF8053000238DF806300368032294
:1044DC001B6801A9984723684FF47A725B6819210D
:1044EC0020469847034658B1A37EE27D84F83030CD
:1044FC00637C84F82D20228BE2855A1E5342534153
:10450C00184604B010BD00002DE9F041FF2A8AB016
:10451C0005460C46164606DD394901F0B4F9284625
:10452C000AB0BDE8F08191F841300BB93549F4E798
:10453C000846FFF7BDFF10B933492846EDE704F1F3
:10454C00270304F12D0231462046FFF77FFF08B9FF
:10455C002E49F2E740238DF8043001238DF8053005
:10456C0030238DF8063023688DF8076004220DEB9C
:10457C0002011B682046984723684FF47A725B68E7
:10458C0020212046984708B92149D6E7214902A89D
:10459C0001F079F920212046FFF73DFF30B3238A43
:1045AC00412B23D11C4FDFF874801234002614F8F1
:1045BC00011BA1770F2921D8394602A801F0DEF999
:1045CC0014F8011C102206A801F0ABF906A902A8E8
:1045DC0001F0D0F906A801F00BF90F2E03D04146DB
:1045EC0002A801F0CBF90136102EE0D102A9284621
:1045FC0001F07AF902A801F0FBF890E71022E2E74B
:10460C00D0610B00B8610B00C7610B00D6610B00C9
:10461C00E2610B007E610B00B6610B007D610B004B
:10462C0030B590F8413085B004460D46002B39D09A
:10463C0001466846FFF768FF1B49684601F0AFF971
:10464C0030B1FF24684601F0D3F8204605B030BDE8
:10465C001649684601F0A3F90028F2D114496846BE
:10466C0001F09DF90028ECD11249684601F097F948
:10467C000028E6D11049684601F091F90028E0D1F4
:10468C000E49684601F08BF90028DAD104F13103A8
:10469C002946413453F8042B41F8042BA342F9D199
:1046AC000124CFE7FF24D0E7C7610B00D6610B00D4
:1046BC00F0610B00E2610B00B8610B00D0610B00E4
:1046CC0038B50446064B84F8481008461546236056
:1046DC00002101F07FFB84F84950204638BD00BF13
:1046EC0008620B0038B50546652495F8480001F0C2
:1046FC009BFB30B1013CA4B22CB10A2000F0ECFAC7
:10470C00F3E7012038BD2046FCE7F7B500238DF810
:10471C0000308DF801308DF803308DF8053090F8AD
:10472C004930FF22012B04460D468DF802208DF8EE
:10473C00042041D1FFF7D6FF10B9002003B0F0BD23
:10474C0001F0A0FB0822242100F09BFE01F09AFB53
:10475C0003685B699847261D04F10A07012000F0E5
:10476C00BBFA01F08FFB03685B69984706F8010BF5
:10477C00BE42F3D12046FFF7B5FF0028DDD001F093
:10478C0081FB2A1F242100F07CFE01F07BFB0368D7
:10479C005B6998476FF00907063D3F1BBB199D42AB
:1047AC0049DD012000F098FA01F06CFB03685B69AD
:1047BC00984706F8010BF1E7002B3CD11E2000F0C6
:1047CC008BFA01F05FFB0822242100F05AFE01F065
:1047DC0059FB03685B699847261D04F10A07012001
:1047EC0000F07AFA01F04EFB03685B69984706F813
:1047FC00010BBE42F3D11E2000F06EFA01F042FB19
:10480C002A1F242100F03DFE01F03CFB03685B698C
:10481C0098476FF00907063D3F1BBB199D420ADD07
:10482C00012000F059FA01F02DFB03685B699847F1
:10483C0006F8010BF1E70622211D684601F0FBFB8F
:10484C00B0FA80F0400979E737B5FF2380F82730BC
:10485C004FF0FF3304460125836280F82C3014237B
:10486C008DF804308DF806308DF805508DF8075012
:10487C0001F008FB00F0D6FD236884F841500422B7
:10488C000DEB02011B68204698470A2000F024FA21
:10489C0023684FF47A725B680E212046984720B14A
:1048AC00207CA0F115035842584103B030BD0000E4
:1048BC0008B5024B1B685B6C019308BD48020300F2
:1048CC0008B5024B1B685B68019308BD1802030016
:1048DC0008B5024B1B685B69019308BD1802030005
:1048EC0008B5024B1B689B68019308BD2C020300A2
:1048FC0008B5024B1B68DB68019308BD2C02030052
:10490C0008B5024B1B681B69019308BD2C02030000
:10491C0008B5024B1B685B69019308BD2C020300B0
:10492C0008B5024B1B68DB68019308BD2802030025
:10493C0008B5024B1B689B69019308BD2802030054
:10494C0008B5024B1B68DB69019308BD2802030004
:10495C0008B5024B1B681B6A019308BD28020300B3
:10496C0008B5024B1B685B6A019308BD2802030063
:10497C0008B5024B1B689B6A019308BD2802030013
:10498C0008B5024B1B68DB6A019308BD28020300C3
:10499C0008B5024B1B681B6B019308BD2802030072
:1049AC0008B5024B1B685B6B019308BD2802030022
:1049BC0008B5024B1B681B6C019308BD2802030051
:1049CC0008B5024B1B681B6D019308BD2802030040
:1049DC0008B5024B1B685B69019308BD64020300B8
:1049EC0008B5024B1B689B68019308BD6802030065
:1049FC0008B5024B1B68DB68019308BD6802030015
:104A0C0008B5024B1B68DB69019308BD300203003B
:104A1C0008B5024B1B681B6A019308BD30020300EA
:104A2C0008B5024B1B68DB68019308BD3C02030010
:104A3C0008B5024B1B681B69019308BD3C020300BF
:104A4C0008B5024B1B685B69019308BD3C0203006F
:104A5C0008B5024B1B689B69019308BD3C0203001F
:104A6C0008B5024B1B68DB69019308BD3C020300CF
:104A7C0008B5024B1B681B6A019308BD3C0203007E
:104A8C0008B5024B1B689B6A019308BD3C020300EE
:104A9C0008B5024B1B681B6C019308BD3C0203005C
:104AAC0008B5024B1B681B68019308BD4C02030040
:104ABC0008B5024B1B685B68019308BD4C020300F0
:104ACC0008B5024B1B681B69019308BD4C0203001F
:104ADC0008B5024B1B685B69019308BD4C020300CF
:104AEC0008B5024B1B689B69019308BD4C0203007F
:104AFC0008B5024B1B68DB69019308BD4C0203002F
:104B0C0008B5024B1B681B6A019308BD4C020300DD
:104B1C0008B5024B1B685B68019308BD20020300BB
:104B2C0008B5024B1B685B69019308BD20020300AA
:104B3C0008B5024B1B68DB6C019308BD2002030017
:104B4C0008B5024B1B685B6D019308BD2002030086
:104B5C0008B5034B1B68D3F88830019308BD0000DF
:104B6C002002030008B5034B1B68D3F89430019363
:104B7C0008BD00002002030008B5024B1B685B69EE
:104B8C00019308BD4402030008B5024B1B681B6A65
:104B9C00019308BD4402030008B5024B1B68DB6B94
:104BAC00019308BD4402030008B5024B1B685B6807
:104BBC00019308BD4002030008B5024B1B689B68BB
:104BCC00019308BD4002030008B5024B1B68DB686B
:104BDC00019308BD4002030008B5024B1B681B691A
:104BEC00019308BD4002030008B5024B1B685B69CA
:104BFC00019308BD4002030008B5024B1B689B697A
:104C0C00019308BD4002030008B5024B1B68DB6929
:104C1C00019308BD4002030008B5024B1B681B6AD8
:104C2C00019308BD4002030008B5024B1B681B6BC7
:104C3C00019308BD4002030008B5024B1B685B6B77
:104C4C00019308BD4002030008B5024B1B681B6CA6
:104C5C00019308BD4002030008B5024B1B685B6C56
:104C6C00019308BD4002030008B5024B1B681B688A
:104C7C00019308BD1C02030008B5024B1B685B685E
:104C8C00019308BD1C02030008B5024B1B689B680E
:104C9C00019308BD1C02030008B5024B1B68DB6ABC
:104CAC00019308BD1C02030008B5024B1B681B6B6B
:104CBC00019308BD1C02030008B5024B1B681B6C5A
:104CCC00019308BD1C02030008B5024B1B685B6C0A
:104CDC00019308BD1C0203000021FFF721BF10B592
:104CEC00836804460BB901F033F9C3689847A3688D
:104CFC001BB1032221462046984720461021BDE8CF
:104D0C001040FFF7D6B910B58368044613B10322DF
:104D1C0001469847204610BD13B50B460246D0E914
:104D2C0000016C4684E8030093E8030082E803006A
:104D3C0094E8030083E8030002B010BD024800238E
:104D4C000360FFF7B5BD00BF9CE60320002240685E
:104D5C001146FFF741BF002240681146FFF75CBFC8
:104D6C00002240681146FFF767BF40680022FFF73A
:104D7C005BBF4068002281F00101FFF745BF0023B3
:104D8C0040681A461946FFF737BF002340681A4699
:104D9C001946FFF729BF002240681146FFF70CBFE8
:104DAC00406800220221FFF70FBF002340681A461B
:104DBC00FFF7FABE084B10B52824224618460021EE
:104DCC0001F0DDF8054B04804FF0FF324260042205
:104DDC005A60034A1A6010BDA8E60320A0E603201F
:104DEC0018620B0070470020704710B51021044664
:104DFC00FFF75FF9204610BD08B5FFF7F6FF08BDB9
:104E0C0030B500224FF69C74026084808D888C80B3
:104E1C000C68858004600A6030BD10B504460068DB
:104E2C00FFF72AFF204610BD38B5C468F4B12378CB
:104E3C00022B03D104F10C00FFF7EFFF656835B1CD
:104E4C002846FFF760FF10212846FFF732F9A568C6
:104E5C0035B12846FFF757FF10212846FFF729F9EF
:104E6C0020461421BDE83840FFF723B938BD0B6844
:104E7C0003604B68436013B15A6801325A60704743
:104E8C0037B5044668460D46FFF7F1FF009B019AC3
:104E9C0023606260002301A801930093FFF7AAF935
:104EAC0035B1281DFFF7A6F908212846FFF701F9AF
:104EBC00204603B030BD826810B50AB901F048F83D
:104ECC00BDE81040C368184708B5006800F1100130
:104EDC00FFF7F1FF08BD826810B50AB901F038F888
:104EEC00BDE81040C368184708B5006800F1100110
:104EFC00FFF7F1FF08BD000038B50023044603603E
:104F0C0010200D46FFF7D1F828B10123C0E9013379
:104F1C00024B0360C5602060204638BD54620B0014
:104F2C0038B5002383608B6804460D462BB10222F2
:104F3C009847EB68E360AB68A360204638BD00007F
:104F4C00F0B589B004686846FFF75AFF4FF00203CA
:104F5C00D4E84F2F002A03D1C4E8413F0029F7D1F0
:104F6C0025D104F10C0569462846FFF749FFBFF32C
:104F7C005B8F01236370002004F10803BFF35B8F88
:104F8C0053E8006F43E80002002AF9D1BFF35B8FAE
:104F9C006EB1FFF7CDFD78B129463046FFF78BFF98
:104FAC003046FFF7B0FE10213046FFF782F8684616
:104FBC00FFF733FF09B0F0BD314602A8FFF7B0FF91
:104FCC00E068B4F9105008B101F018F80690102000
:104FDC00ADF81C50FFF769F80546E8B1002787606B
:104FEC001820FFF762F8044688B10146876002A8D2
:104FFC00FFF792FE049BA268A360059B049206A98E
:10500C00E268E36004F110000592FFF7F9FE084B2B
:10501C00EB60084B2C60AB6006A8FFF7FEFE02A805
:10502C00FFF771FE002229460348FFF789FDB7E719
:10503C00D54E0B0059510B00EB4C0B002DE9F04FEA
:10504C008BB005469DF850A00F4690469946FFF749
:10505C0093FD07AE834638BB4FF62E73059005A91A
:10506C003046ADF81830FFF7CBFE1420FFF71DF8D3
:10507C00044648B1022303700123C0E901BB43700D
:10508C0031460C30FFF7BCFE2846214640F8044B55
:10509C00FFF732FF3046FFF7C0FE05A8FFF7BDFE55
:1050AC0028460BB0BDE8F08F0C2300241420CDE96A
:1050BC0008440793FEF7F9FF014618B1C0E9014413
:1050CC000470447004A80391FFF716FF1E4B08935D
:1050DC000820FEF7EAFF044610B103A9FFF7C7FE4C
:1050EC0000965FFA8AF34A46414638460994FFF720
:1050FC004BFDB8B9039B5B7803F0FF0293B94FF6F5
:10510C009C7305A903A80592ADF81830FFF718FF9A
:10511C0005A8FFF782FE05A80999FFF7B1FE06A8BE
:10512C00FFF768F803A905A8FFF7A1FE059B069AEF
:10513C002B606A60002306A806930593FFF75AF8C4
:10514C0004A8FFF757F8ABE7D5510B00012AF8B5C7
:10515C00054603D10B6803600020F8BD022A10D06D
:10516C00032AF9D10468002CF6D004F11000FFF7E3
:10517C0054FE2046FFF7C7FD18212046FEF799FF85
:10518C00EAE718200E68FEF790FF044650B131464E
:10519C00FFF7C6FE3069B6F9147008B100F02EFFA7
:1051AC002061A7822C60D7E738B5002383608B6819
:1051BC0004460D462BB102229847EB68E360AB68BE
:1051CC00A360204638BD0000F0B589B004460D46FA
:1051DC0001A81146FFF754FEA4B124B21DB1284614
:1051EC0000F00CFF054601A803A90395ADF810408B
:1051FC00FFF7A6FE03A8FFF710FE02A8FEF7FAFFC2
:10520C0009B0F0BD019D0123D5E84F2F002A03D131
:10521C00C5E8413F0029F7D1EFD12B73BFF35B8F6A
:10522C006B702B1DBFF35B8F53E8006F43E800429C
:10523C00002AF9D1BFF35B8F002EDED02046FFF79A
:10524C0077FC074660B105F10C013046FFF743FED1
:10525C003046FFF758FD10213046FEF72AFFCCE709
:10526C00314603A8FFF7A0FF2B7B8DF81C301020D4
:10527C00FEF71BFF0546D0B187601420FEF715FF23
:10528C00044678B18760014603A8FFF745FD059BEE
:10529C00A268A360069B0592E268E3609DF81C304F
:1052AC0006922374064BEB60064B2C60AB6003A894
:1052BC00FFF729FD002229460348FFF741FCC7E709
:1052CC00F54E0B00D9520B00EB4C0B00012A70B5BC
:1052DC00044603D10B680360002070BD022A0CD079
:1052EC00032AF9D10468002CF6D02046FFF70BFDF9
:1052FC0014212046FEF7DDFEEEE714200E68FEF7C3
:10530C00D4FE054620B13146FFF74EFF337C2B749B
:10531C002560E1E7002240681146FFF77DBC0022C2
:10532C0040681146FFF788BC40680022FFF77CBC40
:10533C004068002281F00101FFF766BC0023406841
:10534C001A461946FFF758BC002340681A461946FE
:10535C00FFF74ABC002240681146FFF73DBC002213
:10536C0040681146FFF728BC406800220221FFF775
:10537C002BBC002340681A46FFF716BC024B0322D5
:10538C005A60024A1A607047D0E6032070620B0024
:10539C007047F8B5064615460C468F18BC4206D029
:1053AC00336814F8011B9B6830469847F6E728468B
:1053BC00F8BD007C0022FFF7CBBA007C0021FFF780
:1053CC00CFBA007C0021FFF7D3BA007C0021FFF795
:1053DC00D7BA007C0021FFF7DBBA10B514210446C4
:1053EC00FEF767FE204610BD38B5044615464FF44F
:1053FC007A730022C4E90123094B21740846236007
:10540C002946FFF7D5FABF3008D16B69DB0705D504
:10541C006868FFF731FCE868FFF72EFC204638BDC2
:10542C00AC620B000023007C1A461946FFF778BAD1
:10543C007FB500221423CDE90122ADF804300B789E
:10544C008DF808304B680393CB680493007C0B7A7F
:10545C00059301A9FFF7B4FA07B05DF804FB1FB57B
:10546C00003B8DF800104FF06401039118BF01232D
:10547C00694601928DF80830FFF7DAFF05B05DF848
:10548C0004FB0123FFF7EBBF007C0022FFF750BAAF
:10549C00C9B2FFF7F9BF007C0022FFF751BA012116
:1054AC00FFF7F9BF704710B518210446FEF701FE4F
:1054BC00204610BDF0B5037D062B8DB00E4600F1D5
:1054CC0004074FF0000412D000F1080515F8011D77
:1054DC000A22304600F05DF9AF42044419D0002C8A
:1054EC00F4D02E21304600F03BF90444EEE72F2394
:1054FC006A4639460A208DF80040FFF769FA68467B
:10550C00FEF790FD33680246DB68694630469847E3
:10551C00044620460DB0F0BD10B5054B04461122D3
:10552C0040F8043B002100F02AFD204610BD00BFCE
:10553C00D4620B000346074A10B543F8042B01F163
:10554C00100251F8044B43F8044B9142F9D10A78FC
:10555C001A7010BDD4620B0010B59DF8084044EAD7
:10556C00032343EA024242EA0161042341600375CA
:10557C0010BD000007B5064B0360CB7800938B7809
:10558C004A780978FFF7E8FF03B05DF804FB00BF29
:10559C00D4620B00014B024A1A607047D8E6032014
:1055AC00E0620B00002340681A46FFF7FDBA406822
:1055BC0000220221FFF708BB002240681146FFF7CA
:1055CC00FBBA002240681146FFF706BB0023406877
:1055DC001A461946FFF708BB002340681A461946BD
:1055EC00FFF70ABB40680021FFF72EBB4068002183
:1055FC00FFF732BB4068002281F00101FFF704BBCA
:10560C0040680022FFF710BB002240681146FFF7EC
:10561C0013BB002240681146FFF7FEBA2DE9F04398
:10562C0095B014460D460746FFF776FF00211C2265
:10563C000DA8009100F0A3FC40230C9320466B4670
:10564C000CAA0021FFF7D4F9044600284BD10246DE
:10565C0001216868FFF7C0FA02218046224668687B
:10566C00FFF7BAFA009E81462146002E3BD0002956
:10567C0039D17368022B03D00A2B11D0F669F4E7E9
:10568C00B8F1000FFAD0716906A8043107ADFFF725
:10569C0071FF0FCD3C1D0FC42B6823704146EDE705
:1056AC00B9F1000FEAD07469102201A800F067FC70
:1056BC0006238DF8143001AD04F108031834186872
:1056CC0059682A4603C20833A3421546F7D101A9EB
:1056DC0006A807ADFFF72EFF0FCD3C1D0FC42B689E
:1056EC0023704946CAE70098FFF77AF9384615B097
:1056FC00BDE8F083024B034A1A6000225A607047DF
:10570C00DCE60320EC620B00F8B506460D468F185C
:10571C000024BD420CD0336815F8011B9B68304641
:10572C009847031E01DB1C44F3E7002C08BF1C4602
:10573C002046F8BD13B50446084659B10191FEF751
:10574C0071FC23680199DB680246204602B0BDE873
:10575C001040184702B010BD08B5FFF7EBFF08BDAD
:10576C0003689B68184738B50D210546FFF7F8FF0D
:10577C000A2104462846FFF7F3FF204438BD38B50C
:10578C000546FFF7D7FF04462846FFF7ECFF2044F9
:10579C0038BD30B58BB00023012A8DF8243098BF6A
:1057AC000A2209AC0D46B1FBF2F101FB125303F0D6
:1057BC00FF03092B94BF30333733DBB2AA4204F812
:1057CC00013DEFD92146FFF7B5FF0BB030BD00000E
:1057DC00014B00229A607047E4E6032010B50446A2
:1057EC0008462170FFF70CF900236360204610BDBA
:1057FC0010B504460068FFF73FFA204610BD10B5FF
:10580C000446006808B1FFF737FA0023C4E90133F6
:10581C00236010BD38B504460D4600680131FFF712
:10582C0033FA10B1C4E90005012038BD10B5036886
:10583C00044623B143688B4201D3012010BD20469E
:10584C00FFF7E8FF0028F9D0A368002BF5D12268F8
:10585C001370F2E737B50D46114601920446FFF777
:10586C00E5FF019A28B92046FFF7C9FF204603B08F
:10587C0030BDA2602946206800F073FB2268A36843
:10588C000021D154F2E7002313B5C0E900330446DC
:10589C008360037341B108460191FEF7C3FB019984
:1058AC0002462046FFF7D6FF204602B010BD38B5A1
:1058BC00054600680C4668B16A688B689A4207D343
:1058CC00096800F093FBA368AB600023A36038BDAC
:1058DC00FFF7D2F923682B6063686B60A368AB6039
:1058EC000023C4E90033F1E710B50023C0E900330D
:1058FC00044683600373FFF7DAFF204610BD13B52F
:10590C00044659B108460191FEF78CFB01990246F9
:10591C002046FFF79FFF204602B010BDFFF76FFF38
:10592C00F9E71FB504460023C4E90033A3602373D1
:10593C00084601A900F06EF901A92046FFF7DFFF28
:10594C00204604B010BD70B505460E4609B90020BE
:10595C0070BD6AB1846814442146FFF767FF0028C4
:10596C00F5D02868AB683146184400F03FFBAC60BA
:10597C000120EDE78A680968FFF7E5BF13B5044617
:10598C00084651B10191FEF74DFB019902462046A4
:10599C0002B0BDE81040FFF7D6BF02B010BD08B58D
:1059AC0082683AB921B10878B0FA80F0400900E079
:1059BC00012008BD006809B90078F5E7FEF728FB5F
:1059CC00F2E70000054B02221A60054B054A9A606B
:1059DC000020C3E90000FFF79BB800BF00E70320DD
:1059EC00F4E603200000FFFF024B1A68024B1A601A
:1059FC00704700BF24E4032004E703207047417480
:105A0C00704708B5007CFFF73BF820EAE07008BD52
:105A1C0008B5007CFFF70CF820EAE07008BD08B56B
:105A2C00007CFFF715F840EAE07008BD08B5007C73
:105A3C00FFF706F840EAE07008BD007CFFF710B8ED
:105A4C0037B5457C04462DB1207C03B0BDE8304011
:105A5C00FEF7E6BF007C0191FFF712F800280199D0
:105A6C00F2DC284603B030BD10B514210446FEF715
:105A7C0020FB204610BD000010B54FF47A7304468D
:105A8C00084611460022C4E90123044B236001237C
:105A9C0020746374FEF7FCFF204610BD44630B00BA
:105AAC00417470477047704708B50021007CFFF7C0
:105ABC0017F840EAE07008BD08B50121007CFFF73B
:105ACC000FF840EAE07008BD08B5007CFFF700F85D
:105ADC0020EAE07008BD08B5007CFEF7F1FF20EA73
:105AEC00E07008BD13B50446007C0191FEF7F0FF91
:105AFC000028019901DC607C20B1207CFEF7F8FFC6
:105B0C0020EAE07002B010BD007CFEF7F9BF10B5C2
:105B1C0014210446FEF7CDFA204610BD10B54FF403
:105B2C007A73044608460021C4E90113044B236030
:105B3C000123207463741146FEF7B2FF204610BD9A
:105B4C0074630B00007C0022FEF7B2BF10B5142268
:105B5C000446002100F013FA204610BD10B50F4C7E
:105B6C0088B003A8FFF7F2FF2178BFF35B8F11F029
:105B7C0001010FD120460191FEF79DFA019948B120
:105B8C0003AA0748FFF7CAFF2046FEF799FA054813
:105B9C0000F0E1F9024808B010BD00BF08E703208F
:105BAC000CE70320B15A0B0010B50446FEF73AFA85
:105BBC00013823182046834206D90278197800F858
:105BCC00011B03F80129F6E710BD70B50C46911EB8
:105BDC0022291DD8254630B9234430229D4210D2AB
:105BEC0005F8012BFAE7B0FBF2F602FB1600C1B286
:105BFC00092894BF30315731C9B205F8011B304622
:105C0C00E9E7002320462B70FFF7CEFF204670BD3E
:105C1C000020FCE708B50123FFF7D7FF08BD000003
:105C2C00014B1860704700BF28E4032008B50B4BEC
:105C3C0043B1FFF793FF03681B699847002801DD08
:105C4C00AFF30080064B43B100F05CF903681B69AD
:105C5C009847002801DDAFF3008008BD000000006C
:105C6C000000000008B5FFF7E1FFFEF731FE014B25
:105C7C00186008BD28E703200548064A064908B500
:105C8C00121A00F06EF9054B054A1A6008BD00BFE8
:105C9C0000F4032004F40320C4640B0000F403207C
:105CAC001E1C279A07B5002300931A466FF0770144
:105CBC00FEF758FF03B05DF804FB000007B54388FE
:105CCC000A2B08D0502B0BD1094B1B684BB103B0DE
:105CDC005DF804EB1847FFF7E5FF03B05DF804FB34
:105CEC00002300931A466FF07701FEF73BFFF4E7B1
:105CFC0024E7032010B512480021FEF7E5FF114BF5
:105D0C001A68114B9A42114B0CBF012200221A70D7
:105D1C0001D0FFF7B1FFFEF7D3FD044600F038F9D0
:105D2C000B4B13B12046AFF3008000210848FEF75F
:105D3C0033FFBDE8104007480021FEF709BF00BF44
:105D4C002D5C0B0000F403201E1C279A20E7032077
:105D5C0000000000C95C0B00252813B502D90020F7
:105D6C0002B010BDA0F10B03022B1AD8174C2178EE
:105D7C00BFF35B8F11F001010BD120460191FEF7AF
:105D8C009AF9019928B11248FFF728FD2046FEF731
:105D9C0097F90F4B1878FEF73BFE0028DFD1012056
:105DAC00DEE7012809D800F06DF80021007CFEF731
:105DBC00F7FD80F00100C0B2D2E709380128EED817
:105DCC0000F0A0F8007CFEF753FEF2E790E603200B
:105DDC0094E60320252838B504460D460AD8FF2939
:105DEC0008D0FFF7B9FF28B129462046BDE8384056
:105DFC00FEF776BD38BD38B504460D46FEF778FD86
:105E0C00FF2810D0062804D84D2323FA00F0C3072E
:105E1C0009D42046FFF7A0FF28B129462046BDE84B
:105E2C003840FEF76DBD38BD10B50446FEF760FD79
:105E3C00031FDBB2012B08D92046FFF78DFF20B1E1
:105E4C002046BDE81040FEF763BD002010BD704732
:105E5C0038B50A4B036001230446436108492020EE
:105E6C0000F074F8202560600549A560284600F014
:105E7C006DF8C4E90305204638BD00BF18000100C9
:105E8C009C630B0030B50E4D2978BFF35B8F11F07E
:105E9C00010487B011D12846FEF70DF968B16846A8
:105EAC00FFF7D6FF6A4621460648FFF79DFA2846BB
:105EBC00FEF706F9044800F04EF8024807B030BD72
:105ECC002CE7032030E703205B5E0B0070470000DB
:105EDC0038B5044614252A46002100F050F82580D8
:105EEC004025074925812846258200F02FF80449D2
:105EFC006060284600F02AF8E060204638BD00BFFC
:105F0C009C630B0030B50E4D2978BFF35B8F11F0FD
:105F1C00010487B011D12846FEF7CDF868B101A86D
:105F2C00FFF7D6FF01AA21460648FFF7A5FD284634
:105F3C00FEF7C6F8044800F00EF8024807B030BD72
:105F4C0044E7032048E70320D95E0B00FEF7AFB807
:105F5C0008B5FEF7A1FE002301461A46184600F0CC
:105F6C007FB80A44914200F1FF3300D1704710B55D
:105F7C0011F8014B03F8014F9142F9D110BD0244C5
:105F8C000346934200D1704703F8011BF9E7000068
:105F9C0038B5104B1D68AB6B0446B3B91820FEF72F
:105FAC0063FE0246A86320B90B4B0C484221FEF756
:105FBC0083FE0B490B4BC0E900130B4B83600B2387
:105FCC00838100210120C2E90401AB6B00221C611A
:105FDC005A6138BD28E403209D630B00B4630B00A9
:105FEC000E33CDAB34126DE6ECDE0500034611F832
:105FFC00012B03F8012B002AF9D17047024B014603
:10600C00186800F003B800BF28E4032037B5044635
:10601C0008460D46FEF706F8421C11462046019232
:10602C00FEF742FE044618B1019A2946FFF799FF84
:10603C00204603B030BD10B57AB10346013984183F
:10604C0013F8010B11F8012F904201D1A34201D199
:10605C00801A10BD0028F3D1FAE71046F9E70000CA
:10606C002DE9F843DFF8B8800646D8F800001F4643
:10607C000D46914600F056F8254B1C6834B9254C5A
:10608C001C60254B13B11B68C4F8883063681F2B48
:10609C0007DDD8F8000000F047F84FF0FF30BDE8FE
:1060AC00F8834EB3D4F8880088B91C4B23B9D8F8C0
:1060BC00000000F038F8F0E74FF48470FEF7D4FDE0
:1060CC000028F4D00023C0E94033C4F8880063688A
:1060DC0040F8239001229A4000EB8301D0F8003164
:1060EC001343C0F80031022EC1F8807002BFD0F803
:1060FC0004311343C0F804316368D8F800005A1C0B
:10610C000233626044F8235000F00EF80020C6E71A
:10611C00E8E703205CE7032000000000754C0B004F
:10612C008CE40320704770477047000041400B001F
:10613C007D400B00A5400B00A9400B0000000000A7
:10614C004641494C4544202D20504C454153452057
:10615C005343414E20414741494E2100454E4A4F41
:10616C005920544845204556454E54210055494424
:10617C003A200042757A7A6572206F666600496E25
:10618C00697469616C697A696E6720504E35333277
:10619C000057616974696E6720666F7220612063B5
:1061AC006172642E2E2E2E2E2E00300077616B65C0
:1061BC00207570206572726F7221006E6F206361A2
:1061CC0072642100666C61736500726561642065A0
:1061DC0072726F722100726561642074696D656FF3
:1061EC0075742100756E6B6E6F776E206572726FB1
:1061FC007221000000000000000000007F430B0033
:10620C0017470B000000000000000000B74D0B000A
:10621C00AD4D0B00A34D0B00594D0B00974D0B00D2
:10622C008B4D0B00F1550B00F9550B007F4D0B00FE
:10623C00774D0B006D4D0B00634D0B0029560B0079
:10624C000000000000000000F14D0B00F74D0B00AA
:10625C00354E0B00054E0B00F34D0B0000000000FB
:10626C00000000007F530B0075530B006B530B00A9
:10627C0061530B0055530B0049530B00F1550B00A8
:10628C00F9550B003D530B0035530B002B530B00F2
:10629C0021530B0029560B000000000000000000E9
:1062AC009D530B00E7530B00BF530B009F530B0088
:1062BC00C7530B00CF530B00D7530B00DF530B000E
:1062CC000000000000000000C1540B00B1540B0092
:1062DC00B3540B006170700000000000000000005F
:1062EC00B1550B00BB550B00C5550B00CF550B0022
:1062FC00D9550B00E5550B00F1550B00F9550B006A
:10630C0001560B000D560B0015560B001F560B00BB
:10631C0029560B0025592D256D2D25645425483AF9
:10632C00254D3A2553257A0061736374696D6500B8
:10633C000000000000000000095A0B00755A0B0009
:10634C004D5A0B0015570B001D5A0B00395A0B00F8
:10635C002B5A0B00475A0B000B5A0B000F5A0B0011
:10636C000000000000000000B35A0B001B5B0B0088
:10637C00F15A0B0015570B00E35A0B00B55A0B00E2
:10638C00C55A0B00155B0B00D55A0B00AD5A0B0010
:10639C00005245454E54206D616C6C6F63207375D3
:1063AC0063636565646564002F746D702F6A656E38
:1063BC006B696E732D4743432D31302D70697065B9
:1063CC006C696E652D34385F323032303131323495
:1063DC005F313630363138303633392F7372632FA4
:1063EC006E65776C69622F6E65776C69622F6C696C
:1063FC0062632F7374646C69622F72616E642E63B6
:10640C0000000000F5420B00494D0B00C14D0B0084
:10641C0089530B00A1550B0001570B00DD570B00E6
:08642C00D1590B00F5590B00DA
:10643400040000001400000003000000474E550053
:1064440003643FD6DC0961B9AE75DF98468F43F229
:04645400F708F01144
:1064580034630B002CE4032000000000000000005F
:106468000000000000000000000000000000000024
:106478000000000000000000000000000000000014
:106488000000000000000000000000000000000004
:1064980000000000000000000000000000000000F4
:1064A80000000000000000000000000000000000E4
:0C64B8000000000000000000ECE70320E2
:0464C40000000000D4
:1064CE0000000102030405060708090A0B0C0D0E55
:1064DE000F101112131415161718191A1B1C1D1E46
:0464EE001F20280043
:0464F2007856341292
:04000003B000401CED
:00000001FF
