:02000002B0004C
:1040000000400B0076910B0000000600190005022D
:08401000040118150000000076
:0440180090620B00A7
:10401C00034613F8012B002AFBD1181A01387047FC
:10402C0009480A49884208B505D0094A824202D09B
:10403C00121A02F061F80748074A0021121A02F01E
:10404C0069F8014808BD00BF30BA0320CC900B00C2
:10405C00ACBA0320ACBA0320F0E7032070B5074ECE
:10406C00074C01F015FFA41BA4080025AC4200D19D
:10407C0070BD56F8043B98470135F7E784900B0068
:10408C00A8900B0000F014B808B500F099F9BDE841
:10409C00084001F0B5BE01F011B901F017B9007874
:1040AC00B0FA80F04009704701230370704700009C
:1040BC0008B501F05DFE4FF4E13101F04DFE41F227
:1040CC00883001F02BF901F053FE01F0A8FB01F050
:1040DC004FFE0C4901F09CFB0B4800F036FA30B156
:1040EC0001F046FEBDE80840084901F091BB01F023
:1040FC003FFE01F094FB01F03BFEBDE80840044993
:10410C0001F099BBA4620B002CBB0320C1620B0015
:10411C00DE620B002DE9F04F914EDFF894B2DFF820
:10412C0094A2DFF89492DFF894828E4D8E4F95B066
:10413C0001F01EFE8D4901F07EFB8D49304601F0E9
:10414C0000FD8C49584601F0FCFC8B49504601F0AF
:10415C00F8FC8A49484601F0F4FC8949894801F089
:10416C00F0FC8949894801F0ECFC8949404601F092
:10417C00E8FCFF21284600F02BFB284600F072FAE1
:10418C00284600F094FB284600F05BFA4FF4FA70D6
:10419C0001F0C4F82846502100F08BF9284617216D
:1041AC0000F092F94FF4B473F0227A4904A800F0AD
:1041BC0046FC04A8032100F08EFC04A80121002475
:1041CC0000F06EFC05221146734B019404A8009775
:1041DC0000F000FD314610A8704E01F0A7FC109BBA
:1041EC0000960522642104A8019400F0F3FC10A8A9
:1041FC0001F02EFC6A4B232204A8CDE900740521A2
:10420C0000F0E8FC594610A801F090FC109BCDE999
:10421C0000642322642104A800F0DCFC10A801F047
:10422C0017FC604B412204A8CDE90074052100F075
:10423C00D1FC514608A801F079FC08A90CA801F0A2
:10424C0075FC59490CA801F0B1FC4946824610A8EE
:10425C0001F06CFC10A9504601F09CFCCDE9006407
:10426C0041220368642104A800F0B4FC10A801F0FA
:10427C00EFFB0CA801F0ECFB08A801F0E9FB2146D0
:10428C0004A800944FF4B473882200F0BBFC4FF0E8
:10429C00F00A04A8009468238822B42100F0C2FC20
:1042AC004FF00109214604A80194CDF800A0AA23DF
:1042BC00912200F0C7FC04A8CDE900793B4B9B226E
:1042CC00052100F087FCCDE900692E4B04A81B6882
:1042DC00B922052100F07EFCCDE900692B4B04A826
:1042EC001B68D722052100F075FC4FF4B4739122A2
:1042FC0004A8CDE900A4BE2100F0A4FC414610A8FE
:10430C0001F014FC109BB422C821CDE9006904A86B
:10431C0000F060FC10A801F09BFB04A800F0D5FB9A
:10432C00039004A800F0D3FB064604A800F0D1FBD0
:10433C00039923462246CDE90060284600F00CFA8A
:10434C00284600F07EF9192000F0E8FF284600F01E
:10435C00C8FA04A800F086FB15B0BDE8F08F00BFCA
:10436C00C8BA03202CBB032030BA0320F7620B0021
:10437C001B630B0027630B0033630B0039630B00CB
:10438C003F630B0008BB032045630B0018BB0320E5
:10439C004C630B0049BB032053630B0038BA03205A
:1043AC005A630B0062630B0069630B006D630B00B7
:1043BC00D8BA0320E8BA0320F8BA0320ACBA032019
:1043CC0008B5FFF7A7FEBDE8084041F2883000F0C1
:1043DC00A5BF000038B51D4B1D4A00241C701D4B99
:1043EC0001251D701C4B02209A60C3E9004400F0AB
:1043FC00D1FE2146284600F0DDFE184800F044F8B6
:10440C001749184801F06FFB1549174801F06BFB71
:10441C001349164801F067FB1149154801F063FB7D
:10442C000F49144801F05FFB0D49134801F05BFB89
:10443C000B49124801F057FB22461148022100F0AB
:10444C0085FCBDE838400F4800F022BC28BB032097
:10445C000000FFFF29BB0320BCBA03202CBB0320A8
:10446C00A0630B00C8BA0320D8BA0320E8BA032013
:10447C00F8BA032008BB032018BB0320ACBA0320F6
:10448C0044E6032048BB032010B5044600F074FA40
:10449C0006220523C4E9002308210723C4E90213DB
:1044AC00F0204FF4B473C4E90403002323762046B0
:1044BC0010BD10B50C464068002100F05EFA204695
:1044CC00BDE8104000F0AABA10B50C4640680121B6
:1044DC0000F053FA2046BDE8104000F09FBA0000EF
:1044EC0010B5044601F044FC094901F091F9E0686B
:1044FC0000F047FAC0B20028F9D1C82000F044FA05
:10450C0001F036FCBDE81040024901F081B900BF52
:10451C0077630B0088630B0010B50121044600681B
:10452C0000F02BFA142000F02FFA2068002100F084
:10453C0024FA022000F028FA2068012100F01DFA6C
:10454C00BDE81040142000F01FBA38B5044600F046
:10455C0039FA0546002871D12046FFF7DDFF2946C0
:10456C0020462576FFF7A5FFFF212046FFF7ACFF7D
:10457C0001212046FFF7A8FF01212046FFF799FFF4
:10458C0003212046FFF7A0FF10212046FFF79CFFD8
:10459C003F212046FFF798FF3F212046FFF794FF6D
:1045AC0003212046FFF790FF06212046FFF781FFED
:1045BC0037212046FFF788FF3D212046FFF784FF77
:1045CC003D212046FFF780FF60212046FFF771FF59
:1045DC0022212046FFF778FF82212046FFF769FF52
:1045EC0007212046FFF770FF30212046FFF761FFBF
:1045FC0009212046FFF768FFE3212046FFF759FF0A
:10460C0088212046FFF760FF61212046FFF751FF0C
:10461C00F0212046FFF758FF01212046FFF754FFF9
:10462C0068212046FFF750FF50212046FFF741FF3D
:10463C00B7212046FFF748FF284638BD4FF0FF351D
:10464C00FAE710B517210446FFF733FF2046A521E2
:10465C00FFF73AFF2046FFF743FFBDE81040C820A4
:10466C0000F092B970B520210446FFF722FF354EB9
:10467C00382516F8011B2046013DFFF725FF15F0E4
:10468C00FF05F6D121212046FFF713FF2E4E2A25D8
:10469C0016F8011B2046013DFFF716FF15F0FF052C
:1046AC00F6D124212046FFF704FF284E2A2516F8C0
:1046BC00011B2046013DFFF707FF15F0FF05F6D162
:1046CC00237E22212046F3B9FFF7F3FE204E382536
:1046DC0016F8011B2046013DFFF7F6FE15F0FF050D
:1046EC00F6D123212046FFF7E4FE1A4E2A2516F8B0
:1046FC00011B2046013DFFF7E7FE15F0FF05F6D143
:10470C000123237670BDFFF7D4FE124E382516F820
:10471C00011B2046013DFFF7D7FE15F0FF05F6D132
:10472C0023212046FFF7C5FE094E2A2516F8011B4A
:10473C002046013DFFF7C8FE15F0FF05F6D12576A2
:10474C00E0E700BFA1630B00D9630B0073640B009F
:10475C0003640B003B640B002DE9F74F0091132110
:10476C001F4614460546FFF7A4FE0C9B0D994FEA15
:10477C00D40B1C447B43C3F100097B18E4084FF0B5
:10478C00000A0193696951451FD9009BCBEBD908ED
:10479C00002698442969B6EBD10F11D2B3450DD838
:1047AC00B4420BD9BA4509D3019B534506D318F82B
:1047BC0006102846FFF788FE0136EBE70021F8E7E4
:1047CC000C9B0AF1010A9944DCE703B0BDE8F08FB9
:1047DC002DE9F0410E4613210446FFF76AFE002531
:1047EC006369AB4261D9002705F001082369B7EB77
:1047FC00D30F4FEAD30256D20F2E2CD008D8032E4B
:10480C000DD8711E022915D8DFE801F02D3B1900D7
:10481C00F02E24D005D8552E09D0AA2E05D001375C
:10482C00E4E7FF2EFBD1FF2105E0314603E0B8F1B0
:10483C00000FF8D100212046FFF746FEEFE7626932
:10484C00B7EB131F4FEA520202D39542F2D3EAE7B9
:10485C009542EFD2E7E7B7EB131FE4D2EAE76369BF
:10486C00B5EB530FF9E7002DE4D06369013BAB4284
:10487C00E0D00FB97F21DEE7531EBB42D3D1FE211E
:10488C00D9E71822B3FBF2F3BB42CCD8B7EB430FFA
:10489C00C9D863690322B3FBF2F3AB42CAD2B5EBBE
:1048AC00430FC7D2BFE701359AE7BDE8F08138B5B1
:1048BC0013210446FFF7FDFD0025D4E904325343D0
:1048CC00B5EBD30F05D2FF212046FFF7FDFD0135D7
:1048DC00F3E72046FFF7C6FE2046BDE83840FFF759
:1048EC00B0BE10B507210446FFF7E3FD2046A52115
:1048FC00BDE81040FFF7E8BD704710B51021044625
:10490C00FFF7CBFB204610BD0EB403B503AB002163
:10491C0053F8042B019300F0B6FF02B05DF804EBE2
:10492C0003B0704773B5044608462279A36832B1C8
:10493C00A3B90B4902B0BDE8704000F069BF094A49
:10494C00267B094D0949647B012E18BF2946CDE908
:10495C0000140749FFF7D8FF02B070BD054AEFE716
:10496C00AE640B00A0630B00AA640B00A6640B00E2
:10497C00C4640B009D640B007047C9B280B201F097
:10498C0008BB80B201F01EBB00F0C8BC13B50B4CC9
:10499C002178BFF35B8F11F001010BD120460191FF
:1049AC00FFF77DFB019928B1054800F0A9FF2046CF
:1049BC00FFF77AFB024802B010BD00BF90E603205F
:1049CC0094E603201FB50121082001F0D1FA012142
:1049DC00062001F0CDFA0121052001F0C9FA0021D1
:1049EC00072001F0C5FAFFF7D1FF00F093FF094B48
:1049FC000093094B029300240123ADF80C308DF881
:104A0C000440FFF7C3FF694600F0AEFF204604B038
:104A1C0010BD00BFEC640B0080841E0010B500219B
:104A2C000446082001F0B5FAFFF7B0FF214601F06B
:104A3C0009F8BDE810400121082001F0AABA30B5F0
:104A4C000024C46012F00704016008D002F10805CC
:104A5C00524202F00701224658BF4A42AA1AC0E944
:104A6C00012330BD7047002930B515DB44688C42FA
:104A7C0012DD002A10DB856895420DDD02FB041265
:104A8C000568D21001F00701802444FA01F1A85600
:104A9C0049B213B10843A85430BD20EA0100FAE72B
:104AAC0070B50B46044600256268AA420CDD002650
:104ABC00A268B24206DD324629462046FFF7D3FFF4
:104ACC000136F5E70135EFE770BD006870474068C7
:104ADC00704780687047C1607047F0B4C7680D4676
:104AEC00144667B9002937DB47688F4234DD002A4A
:104AFC0032DB856895422FDDF0BCFFF7B4BF012F88
:104B0C000CD1002928DB82688A4225DD002C23DBAE
:104B1C004168A14220DD2A46091BEDE7022F0CD18A
:104B2C00002919DB4168A94216DD002A14DB8268D2
:104B3C00A24211DD121B491BDEE7032F0CD1002909
:104B4C000ADB82688A4207DD002C05DB4168A14242
:104B5C0002DD521B2146CFE7F0BC70472DE9F74F21
:104B6C000C9DAC88914614F0070218BF012202EB91
:104B7C00D402EC88203B63432C68884603FB024438
:104B8C0000274FF0800BEB88BB4220DD002609EBA1
:104B9C000702AB88B34215DD217806F0070A4BFA01
:104BAC000AF3194208D00D9B019206EB0801009004
:104BBC00FFF793FFDDE90002BAF1070F08BF0134DC
:104BCC000136E6E75B0718BF01340137DBE703B0BA
:104BDC00BDE8F08F2DE9F341089F06460C46904640
:104BEC005D1E15F8013F53B1099A2146CDE90072BB
:104BFC0030464246FFF7B2FFBB881C44F1E702B0D7
:104C0C00BDE8F081F8B5064617460C46CD18A5420E
:104C1C0007DD2146069B3A463046FFF75EFF01341E
:104C2C00F5E7F8BDF8B506460F461446D518A5426B
:104C3C0007DD2246069B39463046FFF74EFF01340E
:104C4C00F5E7F8BD2DE9F3418B42044608981E4662
:104C5C00A8BF0E468B42B8BF0B4690428046A8BFF9
:104C6C0090469042ACBFC8EB0007C8EB02071D464C
:104C7C000137AE4209DC099B009331463B46424664
:104C8C002046FFF7CFFF0136F3E702B0BDE8F08115
:104C9C0010B5044601F0C4F900F020FC204610BD0C
:104CAC000368C9B29B6818472DE9F0410132022014
:104CBC00D5B20F4600F032FB01F0B2F9242100F01E
:104CCC0043FC01F0ADF90021FFF7EAFF01F0A8F970
:104CDC000021FFF7E5FF01F0A3F9FF21FFF7E0FF4B
:104CEC0001F09EF9036829469B68984701F098F9F2
:104CFC006942FFF7D5FF01F093F9D421FFF7D0FFFC
:104D0C000024D326013D04F10108E4B2AC420ADAD6
:104D1C0001F086F90368395D9B689847395D0E444C
:104D2C00F6B24446EFE701F07BF90368F1439B6868
:104D3C00C9B2984701F074F9036800219B68984741
:104D4C0001F06EF9BDE8F04100F005BC38B5044641
:104D5C00064B84F84810084615462360002101F0E4
:104D6C0007F984F84950204638BD00BF908E0B00DF
:104D7C0038B50546652495F8480001F023F930B1A3
:104D8C00013CA4B22CB10A2000F0C8FAF3E70120D0
:104D9C0038BD2046FCE7F7B500238DF800308DF8C0
:104DAC0001308DF803308DF8053090F84930FF2232
:104DBC00012B04460D468DF802208DF8042041D1BC
:104DCC00FFF7D6FF10B9002003B0F0BD01F028F9B1
:104DDC000822242100F0B1FB01F022F903685B6981
:104DEC009847261D04F10A07012000F097FA01F0FC
:104DFC0017F903685B69984706F8010BBE42F3D1BB
:104E0C002046FFF7B5FF0028DDD001F009F92A1F75
:104E1C00242100F092FB01F003F903685B699847C9
:104E2C006FF00907063D3F1BBB199D4249DD012070
:104E3C0000F074FA01F0F4F803685B69984706F81F
:104E4C00010BF1E7002B3CD11E2000F067FA01F0BA
:104E5C00E7F80822242100F070FB01F0E1F8036868
:104E6C005B699847261D04F10A07012000F056FAE9
:104E7C0001F0D6F803685B69984706F8010BBE424F
:104E8C00F3D11E2000F04AFA01F0CAF82A1F24219F
:104E9C0000F053FB01F0C4F803685B6998476FF0AE
:104EAC000907063D3F1BBB199D420ADD012000F09E
:104EBC0035FA01F0B5F803685B69984706F8010B01
:104ECC00F1E70622211D684601F062F9B0FA80F084
:104EDC00400979E708B5024B1B685B6C019308BD70
:104EEC004802030008B5024B1B685B68019308BDC0
:104EFC001802030008B5024B1B685B69019308BDDF
:104F0C001802030008B5024B1B689B68019308BD8F
:104F1C002C02030008B5024B1B68DB68019308BD2B
:104F2C002C02030008B5024B1B681B69019308BDDA
:104F3C002C02030008B5024B1B685B69019308BD8A
:104F4C002C02030008B5024B1B68DB68019308BDFB
:104F5C002802030008B5024B1B689B69019308BD2E
:104F6C002802030008B5024B1B68DB69019308BDDE
:104F7C002802030008B5024B1B681B6A019308BD8D
:104F8C002802030008B5024B1B685B6A019308BD3D
:104F9C002802030008B5024B1B689B6A019308BDED
:104FAC002802030008B5024B1B68DB6A019308BD9D
:104FBC002802030008B5024B1B681B6B019308BD4C
:104FCC002802030008B5024B1B685B6B019308BDFC
:104FDC002802030008B5024B1B681B6C019308BD2B
:104FEC002802030008B5024B1B681B6D019308BD1A
:104FFC002802030008B5024B1B685B69019308BDCE
:10500C006402030008B5024B1B689B68019308BD42
:10501C006802030008B5024B1B68DB68019308BDEE
:10502C006802030008B5024B1B681B68019308BD9E
:10503C003002030008B5024B1B685B69019308BD85
:10504C003002030008B5024B1B68DB69019308BDF5
:10505C003002030008B5024B1B681B6A019308BDA4
:10506C003002030008B5024B1B685B6A019308BD54
:10507C003002030008B5024B1B68DB6B019308BDC3
:10508C003002030008B5024B1B681B6C019308BD72
:10509C003002030008B5024B1B685B6C019308BD22
:1050AC003002030008B5024B1B68DB68019308BD96
:1050BC003C02030008B5024B1B681B69019308BD39
:1050CC003C02030008B5024B1B685B69019308BDE9
:1050DC003C02030008B5024B1B689B69019308BD99
:1050EC003C02030008B5024B1B68DB69019308BD49
:1050FC003C02030008B5024B1B681B6A019308BDF8
:10510C003C02030008B5024B1B689B6A019308BD67
:10511C003C02030008B5024B1B681B6C019308BDD5
:10512C003C02030008B5024B1B681B68019308BDC9
:10513C004C02030008B5024B1B685B68019308BD69
:10514C004C02030008B5024B1B681B69019308BD98
:10515C004C02030008B5024B1B685B69019308BD48
:10516C004C02030008B5024B1B689B69019308BDF8
:10517C004C02030008B5024B1B68DB69019308BDA8
:10518C004C02030008B5024B1B681B6A019308BD57
:10519C004C02030008B5024B1B685B68019308BD09
:1051AC002002030008B5024B1B685B69019308BD24
:1051BC002002030008B5024B1B68DB6A019308BD93
:1051CC002002030008B5034B1B68D3F88830019309
:1051DC0008BD00002002030008B5034B1B68D3F880
:1051EC009430019308BD00002002030008B5024B67
:1051FC001B68DB6B019308BD4402030008B5024B2E
:10520C001B685B68019308BD4002030008B5024BA4
:10521C001B689B68019308BD4002030008B5024B54
:10522C001B68DB68019308BD4002030008B5024B04
:10523C001B681B69019308BD4002030008B5024BB3
:10524C001B685B69019308BD4002030008B5024B63
:10525C001B689B69019308BD4002030008B5024B13
:10526C001B68DB69019308BD4002030008B5024BC3
:10527C001B681B6A019308BD4002030008B5024B72
:10528C001B681B6B019308BD4002030008B5024B61
:10529C001B685B6B019308BD4002030008B5024B11
:1052AC001B681B6C019308BD4002030008B5024B40
:1052BC001B685B6C019308BD4002030008B5024BF0
:1052CC001B681B68019308BD1C02030008B5024B48
:1052DC001B685B68019308BD1C02030008B5024BF8
:1052EC001B689B68019308BD1C02030008B5024BA8
:1052FC001B685B6A019308BD1C02030008B5024BD6
:10530C001B681B6C019308BD1C02030008B5024B03
:10531C001B685B6C019308BD1C0203000021FFF7A6
:10532C0041BF0000024800230360FFF7D3BD00BF5C
:10533C009CE60320002240681146FFF777BF00224D
:10534C0040681146FFF792BF002240681146FFF7F4
:10535C009DBF40680022FFF791BF4068002281F09A
:10536C000101FFF77BBF002340681A461946FFF77F
:10537C006DBF002340681A461946FFF75FBF002235
:10538C0040681146FFF742BF406800220221FFF738
:10539C0045BF002340681A46FFF730BF084B10B5D5
:1053AC00282422461846002100F0B4FE054B048048
:1053BC004FF0FF32426004225A60034A1A6010BD5B
:1053CC00A8E60320A0E60320A08E0B000022406874
:1053DC001146FFF74BBF002240681146FFF756BF3E
:1053EC0040680022FFF74ABF4068002281F00101AB
:1053FC00FFF734BF002340681A461946FFF726BF53
:10540C00002340681A461946FFF718BF002240686F
:10541C001146FFF70BBF002240681146FFF7F6BE9E
:10542C00406800220221FFF7F9BE002340681A46AB
:10543C00FFF7E4BE024B03225A60024A1A6070471F
:10544C00D0E60320DC8E0B007047F8B506461546F7
:10545C000C468F18BC4206D0336814F8011B9B68AD
:10546C0030469847F6E72846F8BD007C0022FFF747
:10547C0081BD007C0021FFF785BD007C0021FFF77A
:10548C0089BD007C0021FFF78DBD007C0021FFF75A
:10549C0091BD10B514210446FEF7FFFD204610BD4A
:1054AC0038B5044615464FF47A730022C4E901233B
:1054BC00094B2174084623602946FFF78BFDBF304A
:1054CC0008D16B69DB0705D56868FFF7FFFEE86854
:1054DC00FFF7FCFE204638BD188F0B000023007C24
:1054EC001A461946FFF72EBD7FB500221423CDE9CD
:1054FC000122ADF804300B788DF808304B6803931B
:10550C00CB680493007C0B7A059301A9FFF76AFD25
:10551C0007B05DF804FB1FB5003B8DF800104FF091
:10552C006401039118BF0123694601928DF808307C
:10553C00FFF7DAFF05B05DF804FB0123FFF7EBBFC3
:10554C00007C0022FFF706BDC9B2FFF7F9BF007C53
:10555C000022FFF707BD0121FFF7F9BF704710B517
:10556C0018210446FEF799FD204610BDF0B5037DC9
:10557C00062B8DB00E4600F104074FF0000412D03C
:10558C0000F1080515F8011D0A22304600F05DF9FE
:10559C00AF42044419D0002CF4D02E21304600F038
:1055AC003BF90444EEE72F236A4639460A208DF86E
:1055BC000040FFF71FFD6846FEF72AFD33680246E0
:1055CC00DB68694630469847044620460DB0F0BD6E
:1055DC0010B5054B0446112240F8043B002100F0A5
:1055EC0099FD204610BD00BF408F0B000346074AB3
:1055FC0010B543F8042B01F1100251F8044B43F899
:10560C00044B9142F9D10A781A7010BD408F0B00EF
:10561C0010B59DF8084044EA032343EA024242EAEB
:10562C00016104234160037510BD000007B5064BF2
:10563C000360CB7800938B784A780978FFF7E8FF02
:10564C0003B05DF804FB00BF408F0B00014B024A16
:10565C001A607047D8E603204C8F0B00002340687B
:10566C001A46FFF7CBBD406800220221FFF7D6BDDA
:10567C00002240681146FFF7C9BD00224068114660
:10568C00FFF7D4BD002340681A461946FFF7D6BD74
:10569C00002340681A461946FFF7D8BD4068002120
:1056AC00FFF7FCBD40680021FFF700BE40680022F8
:1056BC0081F00101FFF7D2BD40680022FFF7DEBD8B
:1056CC00002240681146FFF7E1BD002240681146F8
:1056DC00FFF7CCBD2DE9F04395B014460D460746B7
:1056EC00FFF776FF00211C220DA8009100F012FD9F
:1056FC0040230C9320466B460CAA0021FFF78AFC32
:10570C00044600284BD1024601216868FFF78EFD44
:10571C000221804622466868FFF788FD009E81467C
:10572C002146002E3BD0002939D17368022B03D0BF
:10573C000A2B11D0F669F4E7B8F1000FFAD07169B1
:10574C0006A8043107ADFFF771FF0FCD3C1D0FC448
:10575C002B6823704146EDE7B9F1000FEAD074696C
:10576C00102201A800F0D6FC06238DF8143001ADF0
:10577C0004F108031834186859682A4603C2083320
:10578C00A3421546F7D101A906A807ADFFF72EFFD6
:10579C000FCD3C1D0FC42B6823704946CAE70098F7
:1057AC00FFF730FC384615B0BDE8F083024B034AD6
:1057BC001A6000225A607047DCE60320588F0B00F9
:1057CC00F8B506460D468F180024BD420CD0336840
:1057DC0015F8011B9B6830469847031E01DB1C44DF
:1057EC00F3E7002C08BF1C462046F8BD13B5044651
:1057FC00084659B10191FEF70BFC23680199DB684F
:10580C000246204602B0BDE81040184702B010BD59
:10581C0008B5FFF7EBFF08BD03689B68184738B560
:10582C000D210546FFF7F8FF0A2104462846FFF72D
:10583C00F3FF204438BD38B50546FFF7D7FF0446C3
:10584C002846FFF7ECFF204438BD30B58BB0002361
:10585C00012A8DF8243098BF0A2209AC0D46B1FB01
:10586C00F2F101FB125303F0FF03092B94BF303309
:10587C003733DBB2AA4204F8013DEFD92146FFF7DA
:10588C00B5FF0BB030BD2DE9F04186B000AF054639
:10589C000E46381D142114463B60FFF727FD1328D4
:1058AC000ED8391D2846FFF7A1FF04461EB1284625
:1058BC00FFF7B5FF044420461837BD46BDE8F0811C
:1058CC0000F1080323F00703E846ADEB030D224675
:1058DC00411C3B686846FFF709FD69462846FFF7FF
:1058EC0085FF0446C546E1E7014B00229A607047EC
:1058FC00E4E603200021FFF7CDBB0021FFF7C2BB7C
:10590C0010B5044608462170FFF79CFB002363602A
:10591C00204610BD13B504460078FFF7EEFF58B9CA
:10592C00207801904FF6FF71FFF77CFB019802B0D5
:10593C00BDE81040FFF7DEBF02B010BD400830B527
:10594C001860002418688842E5B206D90134082C86
:10595C0002D040081860F5E70725024B5B5D137019
:10596C0030BD00BF8C8F0B002DE9F04306468FB085
:10597C0000780C46FFF7C1FF00281BDB357814229A
:10598C00002109A800F0C6FB0B23002209A9284618
:10599C00ADF82430FFF766FB9DF82D3013B19DF860
:1059AC002C5055B10027B946B846012523795DB175
:1059BC00C3B100200FB0BDE8F083DDF830809DF856
:1059CC0034909DF83570F1E7002B35D1A368434531
:1059DC0008D18DF820908DF82170BDF82020A38976
:1059EC009A42E6D00023A1688DF80F300A9804ABD8
:1059FC000DF10F02FFF7A2FF217985B989B9A368D0
:105A0C0043450ED38DF820908DF82170BDF82020E1
:105A1C00A3899A4205D1049B434502D1C9E70029C9
:105A2C00F9D100230193637B00939DF80F20237B16
:105A3C003078FFF71FFBBCE7CDE900552B462A4613
:105A4C000121F5E708B50078FFF7F4FAC0B208BDFC
:105A5C0010B504460068FFF739FC204610BD10B5A0
:105A6C000446006808B1FFF731FC0023C4E9013398
:105A7C00236010BD38B504460D4600680131FFF7B0
:105A8C002DFC10B1C4E90005012038BD10B5036828
:105A9C00044623B143688B4201D3012010BD20463C
:105AAC00FFF7E8FF0028F9D0A368002BF5D1226896
:105ABC001370F2E737B50D46114601920446FFF715
:105ACC00E5FF019A28B92046FFF7C9FF204603B02D
:105ADC0030BDA2602946206800F00EFB2268A36846
:105AEC000021D154F2E7002313B5C0E9003304467A
:105AFC008360037341B108460191FEF789FA01995D
:105B0C0002462046FFF7D6FF204602B010BD884261
:105B1C0010B5044605D00B682BB18A681946FFF7FF
:105B2C00C9FF204610BDFFF79AFFFAE710B5002316
:105B3C000446C0E9003383600373FFF7E8FF204697
:105B4C0010BD13B5044659B108460191FEF760FA31
:105B5C00019902462046FFF7ADFF204602B010BD6A
:105B6C00FFF77DFFF9E770B505460E4609B9002031
:105B7C0070BD6AB1846814442146FFF787FF002882
:105B8C00F5D02868AB683146184400F0F9FAAC60DF
:105B9C000120EDE710B58A6809680446FFF7E3FFBA
:105BAC0010B92046FFF75BFF204610BD13B5044625
:105BBC0029B92046FFF753FF204602B010BD084616
:105BCC000191FEF725FA019902462046FFF7CBFF1B
:105BDC000028EED0F0E70000054B02221A60054BBE
:105BEC00054A9A600020C3E90000FFF7D3BA00BF52
:105BFC0000E70320F4E603200000FFFF024B1A68C5
:105C0C00024B1A60704700BF40BA032004E7032020
:105C1C0070474174704708B5007CFFF773FA20EAAF
:105C2C00E07008BD08B5007CFFF744FA20EAE0708C
:105C3C0008BD08B5007CFFF74DFA40EAE07008BDDE
:105C4C0008B5007CFFF73EFA40EAE07008BD007C26
:105C5C00FFF748BA37B5457C04462DB1207C03B01C
:105C6C00BDE83040FFF71EBA007C0191FFF74AFAFD
:105C7C0000280199F2DC284603B030BD10B5142180
:105C8C000446FEF70AFA204610BD000010B54FF48A
:105C9C007A730446084611460022C4E90123044BDA
:105CAC002360012320746374FFF734FA204610BD7F
:105CBC00B88F0B00417470477047704708B50021CE
:105CCC00007CFFF74FFA40EAE07008BD08B50121EF
:105CDC00007CFFF747FA40EAE07008BD08B5007C8D
:105CEC00FFF738FA20EAE07008BD08B5007CFFF732
:105CFC0029FA20EAE07008BD13B50446007C019136
:105D0C00FFF728FA0028019901DC607C20B1207C87
:105D1C00FFF730FA20EAE07002B010BD007CFFF70C
:105D2C0031BA10B514210446FEF7B7F9204610BD60
:105D3C0010B54FF47A73044608460021C4E90113E8
:105D4C00044B23600123207463741146FFF7EAF9B6
:105D5C00204610BDE88F0B00007C0022FFF7EAB94B
:105D6C0010B514220446002100F0D4F9204610BDD1
:105D7C0010B50F4C88B003A8FFF7F2FF2178BFF3E2
:105D8C005B8F11F001010FD120460191FEF787F9CD
:105D9C00019948B103AA0748FFF7CAFF2046FEF74E
:105DAC0083F9054800F0A2F9024808B010BD00BF05
:105DBC0008E703200CE70320C55C0B00014B1860BF
:105DCC00704700BF44BA032008B50B4B43B1FFF733
:105DDC00CFFF03681B699847002801DDAFF30080F3
:105DEC00064B43B100F05CF903681B699847002827
:105DFC0001DDAFF3008008BD0000000000000000D2
:105E0C0008B5FFF7E1FFFFF775F8014B186008BD07
:105E1C0028E703200548064A064908B5121A00F07F
:105E2C006BF9054B054A1A6008BD00BF00F403204E
:105E3C0004F4032048910B0000F403201E1C279A45
:105E4C0007B5002300931A466FF07701FFF7C4F9EA
:105E5C0003B05DF804FB000007B543880A2B08D09B
:105E6C00502B0BD1094B1B684BB103B05DF804EB05
:105E7C001847FFF7E5FF03B05DF804FB0023009320
:105E8C001A466FF07701FFF7A7F9F4E724E7032030
:105E9C0010B512480021FFF739FA114B1A68114B53
:105EAC009A42114B0CBF012200221A7001D0FFF74D
:105EBC00B1FFFFF717F8044600F034F90B4B13B1A0
:105ECC002046AFF3008000210848FFF78FF9BDE8AA
:105EDC00104007480021FFF775B900BFC95D0B00E2
:105EEC0000F403201E1C279A20E70320000000006A
:105EFC00655E0B00252813B502D9002002B010BD39
:105F0C00A0F10B03022B1AD8174C2178BFF35B8F2F
:105F1C0011F001010BD120460191FEF7C0F8019957
:105F2C0028B11248FFF7ECFC2046FEF7BDF80F4BEA
:105F3C001878FFF78FF80028DFD10120DEE7012861
:105F4C0009D800F06DF80021007CFFF73BF880F0D9
:105F5C000100C0B2D2E709380128EED800F0A0F851
:105F6C00007CFFF7C7F8F2E790E6032094E60320E5
:105F7C00252838B504460D460AD8FF2908D0FFF766
:105F8C00B9FF28B129462046BDE83840FEF7BABF14
:105F9C0038BD38B504460D46FEF7BCFFFF2810D0BF
:105FAC00062804D84D2323FA00F0C30709D4204651
:105FBC00FFF7A0FF28B129462046BDE83840FEF780
:105FCC00B1BF38BD10B50446FEF7A4FF031FDBB20A
:105FDC00012B08D92046FFF78DFF20B12046BDE8E4
:105FEC001040FEF7A7BF002010BD704738B50A4B14
:105FFC0003600123044643610849202000F074F833
:10600C00202560600549A560284600F06DF8C4E9BC
:10601C000305204638BD00BF1800010010900B008E
:10602C0030B50E4D2978BFF35B8F11F0010487B0AA
:10603C0011D12846FEF733F868B16846FFF7D6FF52
:10604C006A4621460648FFF72BFA2846FEF72CF83D
:10605C00044800F04BF8024807B030BD2CE7032091
:10606C0030E70320F75F0B007047000038B504469B
:10607C0014252A46002100F04DF8258040250749BB
:10608C0025812846258200F02FF8044960602846B7
:10609C0000F02AF8E060204638BD00BF10900B00DD
:1060AC0030B50E4D2978BFF35B8F11F0010487B02A
:1060BC0011D12846FDF7F3FF68B101A8FFF7D6FF11
:1060CC0001AA21460648FFF7E1FD2846FDF7ECFF43
:1060DC00044800F00BF8024807B030BD44E7032039
:1060EC0048E7032075600B00FDF7D5BF0023014680
:1060FC001A46184600F060B80A44914200F1FF338A
:10610C0000D1704710B511F8014B03F8014F9142C3
:10611C00F9D110BD02440346934200D1704703F8F5
:10612C00011BF9E738B5104B1D68AB6B0446B3B9CE
:10613C001820FFF7C3F80246A86320B90B4B0C4894
:10614C004221FFF7DBF80B490B4BC0E900130B4B5B
:10615C0083600B23838100210120C2E90401AB6B16
:10616C0000221C615A6138BD44BA032011900B0007
:10617C0028900B000E33CDAB34126DE6ECDE05002F
:10618C00034611F8012B03F8012B002AF9D17047B3
:10619C0010B57AB103460139841813F8010B11F8C4
:1061AC00012F904201D1A34201D1801A10BD0028C9
:1061BC00F3D1FAE71046F9E72DE9F843DFF8B88098
:1061CC000646D8F800001F460D46914600F056F8DA
:1061DC00254B1C6834B9254C1C60254B13B11B682E
:1061EC00C4F8883063681F2B07DDD8F8000000F076
:1061FC0047F84FF0FF30BDE8F8834EB3D4F8880071
:10620C0088B91C4B23B9D8F8000000F038F8F0E737
:10621C004FF48470FFF752F80028F4D00023C0E943
:10622C004033C4F88800636840F8239001229A40F8
:10623C0000EB8301D0F800311343C0F80031022E7B
:10624C00C1F8807002BFD0F804311343C0F8043198
:10625C006368D8F800005A1C0233626044F823507B
:10626C0000F00EF80020C6E7E8E703205CE7032007
:10627C0000000000C9520B00A8BA032070477047F9
:10628C00704700002D400B0069400B0091400B0043
:10629C0095400B0000000000496E697469616C69DF
:1062AC007A696E6720652D50617065722064697320
:1062BC00706C6179004661696C656420746F20694B
:1062CC006E697469616C697A6520646973706C615C
:1062DC00790057616974696E6720666F722061205E
:1062EC00636172642E2E2E2E2E2E00436F6E7374ED
:1062FC0072756374696E67206D6573736167652071
:10630C00666F7220646973706C61792E2E2E004F4B
:10631C00666669636520526F6F6D004D6F766965B7
:10632C00204E696768740032303A30300032323AAD
:10633C00303000546F6D2026004372756973650010
:10634C00442D4461792000524F4F4D3A200054495E
:10635C00544C453A200054494D453A2000202D20FC
:10636C0000535045414B45523A2000652D50617009
:10637C0065722062757379200D0A2000652D5061BD
:10638C0070657220627573792072656C65617365D6
:10639C00200D0A2000010F0F0F0101010000000069
:1063AC0000000000000000000000000000000000E1
:1063BC0000000000000000000000000000000000D1
:1063CC0000000000000000000000000000014F8FE2
:1063DC000F0101010000000000000000000000009F
:1063EC0000000000000000000000000000000000A1
:1063FC0000000000000000010F8F0F0101010000E0
:10640C000000000000000000000000000000000080
:10641C000000000000000000000000000000000070
:10642C00000000000000000000000000000000015F
:10643C004F8F4F0101010000000000000000000020
:10644C000000000000000000000000000000000040
:10645C000000000000000000000000000000000030
:10646C0000000000000000010F8F4F01010100002F
:10647C000000000000000000000000000000000010
:10648C000000000000000000000000000000000000
:10649C000064656661756C7420004D5342004C536A
:1064AC0042003C53504953657474696E67732064A1
:1064BC00656661756C743E003C5350495365747449
:1064CC00696E67732025732575202573204D4F4405
:1064DC004525753E00000000000000000000000093
:1064EC0031490B0005490B0007490B000000000067
:1064FC000000000000000000000000000000000090
:10650C00000000000000000000000000000000007F
:10651C00000000000000070007000700070007004C
:10652C00070007000200020000000000070007003F
:10653C00000000000000000000000000000000004F
:10654C001CE01CE01CE00840084008400000000073
:10655C00000000000000000000000000000000002F
:10656C00000000000CC00CC00CC00CC00CC03FF0F4
:10657C003FF00CC00CC03FF03FF00CC00CC00CC086
:10658C000CC00CC000000000000000000300030061
:10659C0007E00FE0186018001F000FC000E0186043
:1065AC0018601FC01F8003000300030000000000E0
:1065BC000000000000001C002200220022001C60D1
:1065CC0001E00F803C0031C002200220022001C0FB
:1065DC0000000000000000000000000000000000AF
:1065EC00000003E00FE00C000C0006000F301FF061
:1065FC0019E018C01FF007B00000000000000000F8
:10660C0000000000000000000380038003800100F4
:10661C00010001000000000000000000000000006C
:10662C00000000000000000000000000000000C09E
:10663C0000C00180018001800300030003000300FF
:10664C000300030001800180018000C000C0000035
:10665C000000000000000C000C0006000600060004
:10666C000300030003000300030003000600060000
:10667C0006000C000C0000000000000000000300ED
:10668C00030003001B601FE0078007800FC00CC0D5
:10669C0000000000000000000000000000000000EE
:1066AC0000000000000000000000030003000300D5
:1066BC0003003FF03FF00300030003000300000061
:1066CC0000000000000000000000000000000000BE
:1066DC0000000000000000000000000000000000AE
:1066EC000000038003000300060006000400000005
:1066FC00000000000000000000000000000000008E
:10670C0000003FE03FE0000000000000000000003F
:10671C00000000000000000000000000000000006D
:10672C00000000000000000000000000000000005D
:10673C0000000380038003800000000000000000C4
:10674C00000000000060006000C000C000C00180BC
:10675C00018003000300060006000C000C000C0076
:10676C0018001800000000000000000000000F805E
:10677C001FC018C0306030603060306030603060F6
:10678C00306018C01FC00F80000000000000000027
:10679C0000000000000003001F001F0003000300A6
:1067AC000300030003000300030003001FE01FE0CD
:1067BC0000000000000000000000000000000F803E
:1067CC001FC038E03060006000C00180030006008C
:1067DC000C0018003FE03FE000000000000000004B
:1067EC000000000000000F803FC030E0006000E0BF
:1067FC0007C007C000E00060006060E07FC03F8021
:10680C00000000000000000000000000000001C0BB
:10681C0003C003C006C00CC00CC018C030C03FE0A1
:10682C003FE000C003E003E00000000000000000B7
:10683C000000000000001FC01FC0180018001F80BF
:10684C001FC018E000600060006030E03FC01F8097
:10685C00000000000000000000000000000003E049
:10686C000FE01E001800380037803FC038E0306061
:10687C00306018E01FC0078000000000000000001E
:10688C000000000000003FE03FE03060006000C00E
:10689C0000C000C0018001800180030003000300E0
:1068AC0000000000000000000000000000000F804D
:1068BC001FC038E0306038E01FC01FC038E03060C7
:1068CC00306038E01FC00F800000000000000000A6
:1068DC000000000000000F001FC038C030603060A6
:1068EC0038E01FE00F6000E000C003C03F803E00B6
:1068FC00000000000000000000000000000000008C
:10690C0000000000000003800380038000000000F2
:10691C0000000380038003800000000000000000E2
:10692C00000000000000000000000000000001C09A
:10693C0001C001C00000000000000380030006003D
:10694C000600040000000000000000000000000031
:10695C000000003000F003C007001C0078001C0091
:10696C00070003C000F00030000000000000000031
:10697C0000000000000000000000000000007FF09C
:10698C007FF0000000007FF07FF0000000000000AE
:10699C0000000000000000000000000000000000EB
:1069AC00000030003C000F00038000E0007800E0A5
:1069BC0003800F003C0030000000000000000000CD
:1069CC0000000000000000000F801FC0186018605D
:1069DC00006001C0038003000000000007000700F6
:1069EC000000000000000000000000000000038018
:1069FC000C8008401040104011C012401240124050
:106A0C0011C01000080008400780000000000000C2
:106A1C0000000000000000001F801F80038006C0E3
:106A2C0006C00CC00C601FE01FE03030787878781E
:106A3C00000000000000000000000000000000004A
:106A4C003F803FC01860186018E01FC01FE018702E
:106A5C00183018303FF03FE000000000000000004C
:106A6C00000000000000000007B00FF01C70383070
:106A7C00300030003000300038301C700FE007C0A0
:106A8C0000000000000000000000000000000000FA
:106A9C007F807FC030E0307030303030303030307C
:106AAC00307030E07FC07F800000000000000000EC
:106ABC0000000000000000003FF03FF018301830DC
:106ACC0019801F801F801980183018303FF03FF05C
:106ADC0000000000000000000000000000000000AA
:106AEC003FF03FF01830183019801F801F8019803C
:106AFC00180018003F003F000000000000000000DC
:106B0C00000000000000000007B01FF018703030CB
:106B1C003000300031F831F8303018301FF007C039
:106B2C000000000000000000000000000000000059
:106B3C003CF03CF01860186018601FE01FE0186013
:106B4C00186018603CF03CF00000000000000000F1
:106B5C0000000000000000001FE01FE00300030025
:106B6C000300030003000300030003001FE01FE009
:106B7C000000000000000000000000000000000009
:106B8C0003F803F800600060006000603060306063
:106B9C00306030E03FC00F800000000000000000BB
:106BAC0000000000000000003EF83EF818E01980DC
:106BBC001B001F001D8018C018C018603E783E389E
:106BCC0000000000000000000000000000000000B9
:106BDC003F003F000C000C000C000C000C000C30B3
:106BEC000C300C303FF03FF00000000000000000C3
:106BFC0000000000000000007878787838703CF0D5
:106C0C0034B037B037B03330333030307CF87CF8B8
:106C1C000000000000000000000000000000000068
:106C2C0039F03DF01C601E601E601B601B6019E09B
:106C3C0019E018E03EE03E6000000000000000009B
:106C4C00000000000000000007800FC01CE038703E
:106C5C00303030303030303038701CE00FC00780AE
:106C6C000000000000000000000000000000000018
:106C7C003FC03FE018701830183018701FE01FC06C
:106C8C00180018003F003F0000000000000000004A
:106C9C00000000000000000007800FC01CE03870EE
:106CAC00303030303030303038701CE00FC007805E
:106CBC0007B00FF00CE00000000000000000000026
:106CCC003FC03FE01870183018701FE01FC018E06C
:106CDC00186018703E383E180000000000000000DC
:106CEC0000000000000000000FB01FF038703030C2
:106CFC0038001F8007E00070303038703FE037C03C
:106D0C000000000000000000000000000000000077
:106D1C003FF03FF0333033303330030003000300D7
:106D2C00030003000FC00FC00000000000000000B3
:106D3C0000000000000000003CF03CF018601860FF
:106D4C00186018601860186018601CE00FC007808D
:106D5C000000000000000000000000000000000027
:106D6C0078F078F03060306018C018C00D800D805D
:106D7C000D80070007000700000000000000000065
:106D8C0000000000000000007C7C7C7C30183398F4
:106D9C003398339836D816D01C701C701C70183071
:106DAC0000000000000000000000000000000000D7
:106DBC0078F078F0306018C00D80070007000D8067
:106DCC0018C0306078F078F000000000000000007F
:106DDC0000000000000000003CF03CF018600CC00B
:106DEC000780078003000300030003000FC00FC0DF
:106DFC000000000000000000000000000000000087
:106E0C001FE01FE0186018C001800300030006009B
:106E1C000C6018601FE01FE0000000000000000084
:106E2C0000000000000003C003C0030003000300C7
:106E3C00030003000300030003000300030003002E
:106E4C00030003C003C0000000000000180018007D
:106E5C000C000C000C00060006000300030001806F
:106E6C00018000C000C000C0006000600000000095
:106E7C000000000000000F000F00030003000300DF
:106E8C0003000300030003000300030003000300DE
:106E9C0003000F000F0000000000000000000200C3
:106EAC0007000D8018C0306020200000000000009A
:106EBC0000000000000000000000000000000000C6
:106ECC0000000000000000000000000000000000B6
:106EDC0000000000000000000000000000000000A6
:106EEC000000000000000000FFFCFFFC000004009C
:106EFC000300008000000000000000000000000003
:106F0C000000000000000000000000000000000075
:106F1C0000000000000000000000000000000FC096
:106F2C001FE000600FE01FE0386030E03FF01F70A2
:106F3C0000000000000000000000000000007000D5
:106F4C0070003000300037803FE038603030303037
:106F5C00303038607FE077800000000000000000D7
:106F6C00000000000000000000000000000007B05E
:106F7C001FF0183030303000300038301FF00FC0A8
:106F8C000000000000000000000000000000007085
:106F9C0000700030003007B01FF018703030303007
:106FAC00303038701FF807B80000000000000000F7
:106FBC00000000000000000000000000000007803E
:106FCC001FE018603FF03FF0300018301FF007C092
:106FDC00000000000000000000000000000003F0B2
:106FEC0007F0060006001FE01FE006000600060082
:106FFC00060006001FE01FE000000000000000007B
:10700C00000000000000000000000000000007B8B5
:10701C001FF8187030303030303018701FF007B057
:10702C00003000700FE00FC00000000000003800BE
:10703C003800180018001BC01FE01C601860186096
:10704C00186018603CF03CF00000000000000000EC
:10705C0000000000000003000300000000001F00FF
:10706C001F00030003000300030003001FE01FE0E8
:10707C000000000000000000000000000000030001
:10708C000300000000001FC01FC000C000C000C0F3
:10709C0000C000C000C000C000C001C03F803F0065
:1070AC0000000000000038003800180018001BE039
:1070BC001BE01B001E001E001B00198039F039F06C
:1070CC0000000000000000000000000000001F0095
:1070DC001F00030003000300030003000300030070
:1070EC00030003001FE01FE0000000000000000090
:1070FC0000000000000000000000000000007EE026
:10710C007FF0333033303330333033307BB87BB8AF
:10711C000000000000000000000000000000000063
:10712C000000000000003BC03FE01C6018601860CD
:10713C00186018603CF03CF00000000000000000FB
:10714C0000000000000000000000000000000780AC
:10715C001FE0186030303030303018601FE007808E
:10716C000000000000000000000000000000000013
:10717C0000000000000077807FE038603030303055
:10718C00303038603FE03780300030007C007C00CD
:10719C00000000000000000000000000000007B824
:1071AC001FF8187030303030303018701FF007B0C6
:1071BC000030003000F800F8000000000000000073
:1071CC000000000000003CE03DF00F300E000C0011
:1071DC000C000C003FC03FC000000000000000008D
:1071EC00000000000000000000000000000007E0AC
:1071FC001FE018601E000FC001E018601FE01F8028
:10720C000000000000000000000000000000000072
:10721C000C000C000C003FE03FE00C000C000C00DC
:10722C000C000C300FF007C0000000000000000044
:10723C00000000000000000000000000000038E02A
:10724C0038E0186018601860186018E01FF00F70B4
:10725C000000000000000000000000000000000022
:10726C0000000000000078F078F0306018C018C002
:10727C000D800D80070007000000000000000000DA
:10728C00000000000000000000000000000078F08A
:10729C0078F03260326037E01DC01DC018C018C0D5
:1072AC0000000000000000000000000000000000D2
:1072BC000000000000003CF03CF00CC00780030014
:1072CC0007800CC03CF03CF0000000000000000007
:1072DC00000000000000000000000000000078F03A
:1072EC0078F0306018C018C00D800F8007000600C1
:1072FC0006000C007F007F00000000000000000072
:10730C000000000000001FE01FE018C00180030017
:10731C0006000C601FE01FE00000000000000000F1
:10732C0000000000000001C003C0030003000300C4
:10733C000300030007000E00070003000300030016
:10734C00030003C001C000000000000000000300A7
:10735C000300030003000300030003000300030009
:10736C0003000300030003000300030003000000FC
:10737C000000000000001C001E00060006000600B5
:10738C000600060007000380070006000600060042
:10739C0006001E001C0000000000000000000000A1
:1073AC0000000000000000000E003F3033F001E050
:1073BC0000000000000000000000000000000000C1
:1073CC0000000000000000000000000000000000B1
:1073DC0000000000000000000000000000000000A1
:1073EC000000000000000000000000000000000091
:1073FC000000000000000000000000000000000081
:10740C000000000000000000000000000000000070
:10741C0000000380000380000380000380000380D1
:10742C000003800003800003800003800001000043
:10743C000100000000000000000380000380000039
:10744C000000000000000000000000000000000030
:10745C00000000000000000000000000000E7000A2
:10746C000E70000E700004200004200004200004A4
:10747C0020000000000000000000000000000000E0
:10748C0000000000000000000000000000000000F0
:10749C0000000000000000000000000000000000E0
:1074AC0000000660000660000660000660000660D2
:1074BC00003FF8003FF8000660000CC0003FF800E9
:1074CC003FF8000CC0000CC0000CC0000CC0000C3D
:1074DC00C0000000000000000000000000000000E0
:1074EC000000000000000001800001800007B000D7
:1074FC000FF0001870001870001C00000F800007BF
:10750C00E00000F0001830001C30001C70001FE080
:10751C00001BC00001800001800001800001800080
:10752C00000000000000000000000000000000004F
:10753C0000000780000FC0001CE0001860001860FD
:10754C00001CE0000FF80007E0001FF000073800F7
:10755C0006180006180007380003F00001E00000D0
:10756C00000000000000000000000000000000000F
:10757C0000000000000000000000000000000000FF
:10758C0003F00007F0000C60000C00000C0000067B
:10759C0000000700000F9C001DFC0018F000187084
:1075AC00000FFC0007DC00000000000000000000E1
:1075BC0000000000000000000000000000000000BF
:1075CC000000000000038000038000038000010025
:1075DC00000100000100000100000000000000009C
:1075EC00000000000000000000000000000000008F
:1075FC00000000000000000000000000000000007F
:10760C00000000000000000000000018000038001E
:10761C0000700000F00000E00000E00001C000017C
:10762C00C00001C00001C00001C00001C00000E0AA
:10763C000000E0000070000070000038000018002E
:10764C00000000000000000000000000000000002E
:10765C0000001800001C00000E00000E00000700C7
:10766C0000070000038000038000038000038000FB
:10767C000380000380000700000700000F00000ECD
:10768C0000001C00001800000000000000000000BA
:10769C0000000000000000000000018000018000DC
:1076AC000180001DB8001FF80007E00003C00003B4
:1076BC00C000066000066000000000000000000032
:1076CC0000000000000000000000000000000000AE
:1076DC00000000000000000000000000000000009E
:1076EC00000000000000000001800001800001800B
:1076FC00000180000180003FFC003FFC0001800085
:10770C000180000180000180000180000000000069
:10771C00000000000000000000000000000000005D
:10772C00000000000000000000000000000000004D
:10773C00000000000000000000000000000000003D
:10774C00000000000000000000000000000000E04D
:10775C000000C00001C00001800001800003000097
:10776C00030000000000000000000000000000000A
:10777C0000000000000000000000000000000000FD
:10778C00000000000000001FF8001FF800000000BF
:10779C0000000000000000000000000000000000DD
:1077AC0000000000000000000000000000000000CD
:1077BC0000000000000000000000000000000000BD
:1077CC0000000000000000000000000000000000AD
:1077DC00000000000000000000000000000003C0DA
:1077EC000003C00003C00000000000000000000007
:1077FC000000000000000000000000000018000065
:10780C0018000038000030000070000060000060BC
:10781C000000C00000C000018000018000030000D7
:10782C000300000600000600000E00000C00001C07
:10783C00000018000018000000000000000000000C
:10784C000000000000000000000003C00007E00082
:10785C000C30000C300018180018180018180018FC
:10786C0018001818001818001818000C30000C30EC
:10787C000007E00003C00000000000000000000052
:10788C0000000000000000000000000000000000EC
:10789C0000000080000780001F80001D8000018018
:1078AC000001800001800001800001800001800047
:1078BC000180000180000180001FF8001FF800000B
:1078CC0000000000000000000000000000000000AC
:1078DC000000000000000000000007C0001FF000C6
:1078EC00383000301800301800001800003000004C
:1078FC00600001C0000380000600000C00001800AE
:10790C00003FF8003FF800000000000000000000FD
:10791C00000000000000000000000000000000005B
:10792C00000003C0000FE0000C70000030000030BD
:10793C000000600003C00003E000007000001800AD
:10794C000018000018001838001FF0000FC00000CD
:10795C00000000000000000000000000000000001B
:10796C000000000000000000000000E00001E0004A
:10797C0001E0000360000660000660000C60000C73
:10798C0060001860003060003FF8003FF8000060B5
:10799C000003F80003F800000000000000000000E5
:1079AC0000000000000000000000000000000000CB
:1079BC0000001FF0001FF000180000180000180055
:1079CC00001BC0001FF0001C300000180000180045
:1079DC000018000018003030003FF0000FC000000D
:1079EC00000000000000000000000000000000008B
:1079FC000000000000000000000000F80003F80088
:107A0C000700000E00000C00001800001BC0001F37
:107A1C00F0001C30001818001818001818000C384A
:107A2C00000FF00003E00000000000000000000068
:107A3C00000000000000000000000000000000003A
:107A4C0000001FF8001FF80018180018380000304C
:107A5C000000300000700000600000600000E000DA
:107A6C0000C00000C00001C00001800001800000C7
:107A7C0000000000000000000000000000000000FA
:107A8C000000000000000000000007E0000FF00004
:107A9C001C38001818001818000C300007E00007FC
:107AAC00E0000C30001818001818001818001C38CA
:107ABC00000FF00007E000000000000000000000D4
:107ACC0000000000000000000000000000000000AA
:107ADC00000007C0000FF0001C3000181800181828
:107AEC00001818000C38000FF80003D8000018001C
:107AFC0000300000700000E0001FC0001F000000FC
:107B0C000000000000000000000000000000000069
:107B1C000000000000000000000000000000000059
:107B2C0000000000000003C00003C00003C0000000
:107B3C00000000000000000000000000000003C076
:107B4C000003C00003C000000000000000000000A3
:107B5C000000000000000000000000000000000019
:107B6C00000000000000000000000000000000F019
:107B7C000000F00000F00000000000000000000019
:107B8C0000000000E00001C0000180000180000343
:107B9C0000000200000000000000000000000000D7
:107BAC0000000000000000000000000000000000C9
:107BBC00001C00003C0000F00003C0000F00003C63
:107BCC000000F000003C00000F000003C00000F0BB
:107BDC0000003C00001C0000000000000000000041
:107BEC000000000000000000000000000000000089
:107BFC000000000000000000000000000000000079
:107C0C00007FFC007FFC000000000000007FFC00F7
:107C1C007FFC0000000000000000000000000000DD
:107C2C000000000000000000000000000000000048
:107C3C000000000000000000000000000000000038
:107C4C007000007800001E000007800001E00000BA
:107C5C007800001E0000780001E0000780001E0084
:107C6C000078000070000000000000000000000020
:107C7C0000000000000000000000000000000000F8
:107C8C00000000000007C0000FE000187000183062
:107C9C000018300000700000E00003C000038000FA
:107CAC0003000000000000000007000007000000B7
:107CBC0000000000000000000000000000000000B8
:107CCC000000000000000000000003E00007F000CE
:107CDC000E38000C180018780018F80019D8001984
:107CEC00980019980019980018F8001878001800D6
:107CFC00000C00000E180007F80003E00000000064
:107D0C000000000000000000000000000000000067
:107D1C0000000000001F80001FC00001C0000360B5
:107D2C00000360000630000630000C30000FF80035
:107D3C001FF800180C00300C00FC7F00FC7F0000CA
:107D4C000000000000000000000000000000000027
:107D5C00000000000000000000000000007FE000B8
:107D6C007FF0001838001818001818001838001F79
:107D7C00F0001FF800181C00180C00180C00180C50
:107D8C00007FF8007FF00000000000000000000001
:107D9C0000000000000000000000000000000000D7
:107DAC00000000000003EC000FFC001C1C00180C71
:107DBC0000300C00300000300000300000300000BB
:107DCC00300000180C001C1C000FF80003F0000021
:107DDC000000000000000000000000000000000097
:107DEC00000000000000000000000000007FC00048
:107DFC007FF000183800181800180C00180C001828
:107E0C000C00180C00180C00180C0018180018386E
:107E1C00007FF0007FE00000000000000000000088
:107E2C000000000000000000000000000000000046
:107E3C0000000000007FF8007FF8001818001818E8
:107E4C00001998001980001F80001F800019800005
:107E5C001998001818001818007FF8007FF8000017
:107E6C000000000000000000000000000000000006
:107E7C00000000000000000000000000003FFC00BB
:107E8C003FFC000C0C000C0C000CCC000CC0000FC8
:107E9C00C0000FC0000CC0000CC0000C00000C0097
:107EAC00003FC0003FC000000000000000000000C8
:107EBC0000000000000000000000000000000000B6
:107ECC00000000000003EC000FFC001C1C00180C50
:107EDC0000300C0030000030000030FE0030FE009E
:107EEC00300C00380C001C1C000FFC0003F00000D0
:107EFC000000000000000000000000000000000076
:107F0C00000000000000000000000000007E7E0069
:107F1C007E7E001818001818001818001818001F7A
:107F2C00F8001FF800181800181800181800181876
:107F3C00007E7E007E7E000000000000000000003D
:107F4C000000000000000000000000000000000025
:107F5C0000000000001FF8001FF8000180000180E5
:107F6C000001800001800001800001800001800080
:107F7C000180000180000180001FF8001FF8000044
:107F8C0000000000000000000000000000000000E5
:107F9C000000000000000000000000000007FE00D0
:107FAC0007FE000030000030000030000030000000
:107FBC003000303000303000303000303000306075
:107FCC00003FE0000F8000000000000000000000F7
:107FDC000000000000000000000000000000000095
:107FEC0000000000007F3E007F3E0018300018604B
:107FFC000018C0001980001B80001FC0001CE0008E
:10800C001870001830001838007F1F007F1F000008
:10801C000000000000000000000000000000000054
:10802C00000000000000000000000000007F800045
:10803C007F80000C00000C00000C00000C00000CF9
:10804C0000000C00000C0C000C0C000C0C000C0CB8
:10805C00007FFC007FFC000000000000000000001E
:10806C000000000000000000000000000000000004
:10807C000000000000F00F00F81F00381C003C3C12
:10808C00003C3C00366C00366C0033CC0033CC002A
:10809C00318C00300C00300C00FE7F00FE7F0000A5
:1080AC0000000000000000000000000000000000C4
:1080BC000000000000000000000000000078FE003E
:1080CC0078FE001C18001E18001F18001B18001B3F
:1080DC00980019D80018D80018F80018780018382B
:1080EC00007F18007F180000000000000000000056
:1080FC000000000000000000000000000000000074
:10810C00000000000003C0000FF0001C380018181D
:10811C0000381C00300C00300C00300C00300C000F
:10812C00381C001818001C38000FF00003C00000A9
:10813C000000000000000000000000000000000033
:10814C00000000000000000000000000003FF000F4
:10815C003FF8000C1C000C0C000C0C000C0C000C60
:10816C0018000FF8000FE0000C00000C00000C00D1
:10817C00003FC0003FC000000000000000000000F5
:10818C0000000000000000000000000000000000E3
:10819C00000000000003C0000FF0001C380018188D
:1081AC0000381C00300C00300C00300C00300C007F
:1081BC00381C001818001C38000FF00007C000070E
:1081CC00CC000FFC000C3800000000000000000088
:1081DC00000000000000000000000000007FE00034
:1081EC007FF0001838001818001818001838001FF5
:1081FC00F0001FC00018E00018700018300018388C
:10820C00007F1E007F0E0000000000000000000038
:10821C000000000000000000000000000000000052
:10822C00000000000007D8000FF8001C38001818D8
:10823C00001818001E00000FC00003F000007800AA
:10824C001818001818001C38001FF0001BE0000064
:10825C000000000000000000000000000000000012
:10826C00000000000000000000000000003FFC00C7
:10827C003FFC00318C00318C00318C00318C0001C2
:10828C0080000180000180000180000180000180DD
:10829C00000FF0000FF000000000000000000000D4
:1082AC0000000000000000000000000000000000C2
:1082BC0000000000007E7E007E7E0018180018185A
:1082CC0000181800181800181800181800181800B2
:1082DC001818001818000C30000FF00003C0000034
:1082EC000000000000000000000000000000000082
:1082FC00000000000000000000000000007F7F0074
:10830C007F7F00180C000C18000C18000C180006CD
:10831C00300006300003600003600003600001C001
:10832C000001C00000800000000000000000000000
:10833C000000000000000000000000000000000031
:10834C000000000000FE3F80FE3F8030060030063B
:10835C000030860019CC0019CC001B6C001B6C0083
:10836C001E7C000E38000E38000C18000C18000093
:10837C0000000000000000000000000000000000F1
:10838C00000000000000000000000000007E7E00E5
:10839C007E7E001818000C300006600003C000013F
:1083AC00800001800003C0000660000C300018182B
:1083BC00007E7E007E7E00000000000000000000B9
:1083CC0000000000000000000000000000000000A1
:1083DC0000000000007C7E007C7E001818000C3031
:1083EC000006600006600003C000018000018000F0
:1083FC000180000180000180000FF0000FF00000F0
:10840C000000000000000000000000000000000060
:10841C00000000000000000000000000001FF80039
:10842C001FF80018180018300018600018C0000160
:10843C0080000300000618000C18001818003018F3
:10844C00003FF8003FF800000000000000000000B2
:10845C000000000000000000000000000000000010
:10846C00000001F00001F00001800001800001809B
:10847C00000180000180000180000180000180006B
:10848C00018000018000018000018000018000015A
:10849C00800001F00001F00000000000000000006E
:1084AC00000000001800001800001C00000C000068
:1084BC000E0000060000060000030000030000018F
:1084CC00800001800000C00000C00000600000605F
:1084DC000000700000300000380000180000180088
:1084EC000000000000000000000000000000000080
:1084FC0000000F80000F80000180000180000180CF
:10850C0000018000018000018000018000018000DA
:10851C0001800001800001800001800001800001C9
:10852C0080000F80000F80000000000000000000A1
:10853C000000000000000000800001C00003E0000B
:10854C000770000630000C1800180C001004000016
:10855C00000000000000000000000000000000000F
:10856C0000000000000000000000000000000000FF
:10857C0000000000000000000000000000000000EF
:10858C0000000000000000000000000000000000DF
:10859C0000000000000000000000000000000000CF
:1085AC0000000000000000000000000000000000BF
:1085BC000000000000000000000000000000FFFFB1
:1085CC0000FFFF0000000003000003800000E0003B
:1085DC00006000000000000000000000000000002F
:1085EC00000000000000000000000000000000007F
:1085FC00000000000000000000000000000000006F
:10860C00000000000000000000000000000000005E
:10861C0000000000000000000000000000000FC07F
:10862C00001FE00000300000300007F0001FF000D9
:10863C003830003030003070001FFC000FBC0000E0
:10864C00000000000000000000000000000000001E
:10865C00000000000000000000007800007800001E
:10866C001800001800001BE0001FF8001C18001870
:10867C000C00180C00180C00180C00180C001C181E
:10868C00007FF8007BE0000000000000000000000C
:10869C0000000000000000000000000000000000CE
:1086AC00000000000000000000000000000003ECCF
:1086BC00000FFC001C1C00380C00300C00300000BB
:1086CC00300000380C001C1C000FF80003F00000F8
:1086DC00000000000000000000000000000000008E
:1086EC00000000000000000000000078000078008E
:1086FC0000180000180007D8001FF80018380030C8
:10870C0018003018003018003018003018001838D5
:10871C00001FFE0007DE000000000000000000004B
:10872C00000000000000000000000000000000003D
:10873C00000000000000000000000000000007E046
:10874C00001FF800181800300C003FFC003FFC0024
:10875C00300000300000180C001FFC0007F0000077
:10876C0000000000000000000000000000000000FD
:10877C000000000000000000000001FC0003FC00F1
:10878C000600000600003FF8003FF8000600000657
:10879C0000000600000600000600000600000600AF
:1087AC00003FF0003FF0000000000000000000005F
:1087BC0000000000000000000000000000000000AD
:1087CC00000000000000000000000000000007DEB8
:1087DC00001FFE0018380030180030180030180048
:1087EC003018003018001838001FF80007D80000A7
:1087FC0018000018000038000FF0000FC000000037
:10880C00000000000000000000007800007800006C
:10881C001800001800001BE0001FF0001C380018A6
:10882C001800181800181800181800181800181834
:10883C00007E7E007E7E0000000000000000000034
:10884C00000000000000000000000000000000001C
:10885C0000000180000180000000000000001F806B
:10886C00001F800001800001800001800001800059
:10887C000180000180000180003FFC003FFC0000F3
:10888C0000000000000000000000000000000000DC
:10889C000000000000000000000000C00000C0004C
:1088AC000000000000001FF0001FF000003000006E
:1088BC00300000300000300000300000300000308C
:1088CC00000030000030000030000030000070006C
:1088DC001FE0001F800000000000000000000000EE
:1088EC0000003C00003C00000C00000C00000CF8E8
:1088FC00000CF8000CC0000D80000F80000F000071
:10890C000F80000DC0000CE0003C7C003C7C0000A3
:10891C00000000000000000000000000000000004B
:10892C00000000000000000000001F80001F8000FD
:10893C0001800001800001800001800001800001A5
:10894C008000018000018000018000018000018016
:10895C00003FFC003FFC0000000000000000000095
:10896C0000000000000000000000000000000000FB
:10897C000000000000000000000000000000F7787C
:10898C0000FFFC0039CC00318C00318C00318C00A4
:10899C00318C00318C00318C00FDEF00FDEF0000BC
:1089AC0000000000000000000000000000000000BB
:1089BC0000000000000000000000000000000000AB
:1089CC000000000000007BE0007FF0001C38001865
:1089DC001800181800181800181800181800181883
:1089EC00007E7E007E7E0000000000000000000083
:1089FC00000000000000000000000000000000006B
:108A0C00000000000000000000000000000003C097
:108A1C00000FF0001C3800381C00300C00300C002B
:108A2C00300C00381C001C38000FF00003C0000094
:108A3C00000000000000000000000000000000002A
:108A4C00000000000000000000000000000000001A
:108A5C000000000000007BE0007FF8001C180018EC
:108A6C000C00180C00180C00180C00180C001C182A
:108A7C00001FF8001BE00018000018000018000090
:108A8C007F00007F000000000000000000000000DC
:108A9C00000000000000000000000000000007DEE5
:108AAC00001FFE0018380030180030180030180075
:108ABC003018003018001838001FF80007D80000D4
:108ACC00180000180000180000FE0000FE00000056
:108ADC00000000000000000000000000000000008A
:108AEC000000000000003E78003EFC0007CC0007B0
:108AFC00000006000006000006000006000006004C
:108B0C00003FF0003FF000000000000000000000FB
:108B1C000000000000000000000000000000000049
:108B2C00000000000000000000000000000007F83A
:108B3C00000FF8001818001818001F80000FF00024
:108B4C0000F8001818001838001FF0001FE0000093
:108B5C000000000000000000000000000000000009
:108B6C00000000000000000000000C00000C0000E1
:108B7C000C00000C00003FF0003FF0000C00000C5B
:108B8C0000000C00000C00000C00000C00000C1C81
:108B9C000007FC0003F000000000000000000000D3
:108BAC0000000000000000000000000000000000B9
:108BBC0000000000000000000000000000007878B9
:108BCC0000787800181800181800181800181800E9
:108BDC001818001818001838000FFE0007DE0000E7
:108BEC000000000000000000000000000000000079
:108BFC000000000000000000000000000000000069
:108C0C000000000000007C3E007C3E00181800189C
:108C1C0018000C30000C300006600006600007E005
:108C2C000003C00003C000000000000000000000B2
:108C3C000000000000000000000000000000000028
:108C4C000000000000000000000000000000783C64
:108C5C0000783C003118003398003398001AB000AB
:108C6C001EF0001EF0001C60000C60000C60000088
:108C7C0000000000000000000000000000000000E8
:108C8C0000000000000000000000000000000000D8
:108C9C000000000000003E7C003E7C000C30000612
:108CAC00600003C00001800003C0000660000C30AF
:108CBC00003E7C003E7C0000000000000000000034
:108CCC000000000000000000000000000000000098
:108CDC0000000000000000000000000000007E1FEB
:108CEC00007E1F00180C000C18000C180006300039
:108CFC0006300003600003E00001C00000C000016A
:108D0C0080000180000300003FC0003FC000000055
:108D1C000000000000000000000000000000000047
:108D2C000000000000001FF8001FF80018300018A9
:108D3C00600000C0000180000300000618000C1841
:108D4C00001FF8001FF800000000000000000000E9
:108D5C000000000000000000000000000000000007
:108D6C00000000E00001E0000180000180000180B3
:108D7C0000018000018000018000038000070000DA
:108D8C00038000018000018000018000018000014F
:108D9C00800001E00000E000000000000000000086
:108DAC0000000000000000000000018000018000B5
:108DBC000180000180000180000180000180000121
:108DCC008000018000018000018000018000018092
:108DDC000001800001800001800001800001800002
:108DEC000000000000000000000000000000000077
:108DFC000000070000078000018000018000018056
:108E0C000001800001800001800001C00000E00032
:108E1C0001C0000180000180000180000180000180
:108E2C008000078000070000000000000000000028
:108E3C000000000000000000000000000000000026
:108E4C000000000000000000000000000E00001FE9
:108E5C0018003BB80031F00000E0000000000000FA
:108E6C0000000000000000000000000000000000F6
:108E7C0000000000000000000000000000000000E6
:108E8C0000000000B54C0B00A34D0B0000000000CF
:108E9C00000000009F530B0095530B008B530B00ED
:108EAC0041530B007F530B0073530B00A9560B005F
:108EBC00B1560B0067530B005F530B0055530B005F
:108ECC004B530B00E1560B000000000000000000AB
:108EDC0037540B002D540B0023540B0019540B006A
:108EEC000D540B0001540B00A9560B00B1560B008E
:108EFC00F5530B00ED530B00E3530B00D9530B0050
:108F0C00E1560B00000000000000000055540B005F
:108F1C009F540B0077540B0057540B007F540B00DD
:108F2C0087540B008F540B0097540B00000000006B
:108F3C000000000079550B0069550B006B550B00B8
:108F4C0061707000000000000000000069560B000A
:108F5C0073560B007D560B0087560B0091560B0079
:108F6C009D560B00A9560B00B1560B00B9560B00C1
:108F7C00C5560B00CD560B00D7560B00E1560B0017
:108F8C00000810182028303825592D256D2D256402
:108F9C005425483A254D3A2553257A00617363745C
:108FAC00696D650000000000000000001D5C0B00F6
:108FBC00895C0B00615C0B00CD570B00315C0B0026
:108FCC004D5C0B003F5C0B005B5C0B001F5C0B00F3
:108FDC00235C0B000000000000000000C75C0B00CD
:108FEC002F5D0B00055D0B00CD570B00F75C0B00E4
:108FFC00C95C0B00D95C0B00295D0B00E95C0B0014
:10900C00C15C0B00005245454E54206D616C6C6F79
:10901C006320737563636565646564002F746D709C
:10902C002F6A656E6B696E732D4743432D31302D5E
:10903C00706970656C696E652D34385F3230323012
:10904C00313132345F313630363138303633392FB6
:10905C007372632F6E65776C69622F6E65776C69BE
:10906C00622F6C6962632F7374646C69622F726116
:10907C006E642E6300000000E1430B0031530B00C3
:10908C00A9530B0041540B0059560B00B9570B0058
:0C909C00F5580B00E55B0B00095C0B00B5
:1090A800040000001400000003000000474E5500B3
:1090B8006896BDC2FE38CCEAC2CB05E6BFB42E82A4
:0490C800A3689A837C
:1090CC00F8640B000E001400D0730B001100180094
:1090DC00A88F0B0048BA032000000000000000001D
:1090EC000000000000000000000000000000000074
:1090FC000000000000000000000000000000000064
:10910C000000000000000000000000000000000053
:10911C000000000000000000000000000000000043
:10912C000000000000000000000000000000000033
:0C913C000000000000000000ECE7032031
:049148000000000023
:1091520000000102030405060708090A0B0C0D0EA4
:109162000F101112131415161718191A1B1C1D1E95
:049172001F20280092
:0491760078563412E1
:04000003B000401CED
:00000001FF
