:02000002B0004C
:1040000000400B0062C00B00000006001900050212
:0840100004017D150000000011
:0440180068830B00AE
:10401C0081F0004102E000BF83F0004330B54FEA6D
:10402C0041044FEA430594EA050F08BF90EA020FDA
:10403C001FBF54EA000C55EA020C7FEA645C7FEA6D
:10404C00655C00F0E2804FEA5454D4EB5555B8BF90
:10405C006D420CDD2C4480EA020281EA030382EA01
:10406C00000083EA010180EA020281EA0303362D93
:10407C0088BF30BD11F0004F4FEA01314FF4801C66
:10408C004CEA113102D0404261EB410113F0004F78
:10409C004FEA03334CEA133302D0524263EB43032F
:1040AC0094EA050F00F0A780A4F10104D5F1200ECD
:1040BC000DDB02FA0EFC22FA05F2801841F1000128
:1040CC0003FA0EF2801843FA05F359410EE0A5F1FC
:1040DC0020050EF1200E012A03FA0EFC28BF4CF02D
:1040EC00020C43FA05F3C01851EBE37101F00045E3
:1040FC0007D54FF0000EDCF1000C7EEB00006EEBF0
:10410C000101B1F5801F1BD3B1F5001F0CD3490879
:10411C005FEA30004FEA3C0C04F101044FEA4452D0
:10412C0012F5800F80F09A80BCF1004F08BF5FEA57
:10413C00500C50F1000041EB045141EA050130BD37
:10414C005FEA4C0C404141EB0101013C28BFB1F549
:10415C00801FE9D291F0000F04BF01460020B1FA94
:10416C0081F308BF2033A3F10B03B3F120020CDA67
:10417C000C3208DD02F1140CC2F10C0201FA0CF045
:10418C0021FA02F10CE002F11402D8BFC2F1200CAA
:10419C0001FA02F120FA0CFCDCBF41EA0C01904060
:1041AC00E41AA2BF01EB0451294330BD6FEA0404A9
:1041BC001F3C1CDA0C340EDC04F11404C4F1200294
:1041CC0020FA04F001FA02F340EA030021FA04F3A6
:1041DC0045EA030130BDC4F10C04C4F1200220FAFD
:1041EC0002F001FA04F340EA0300294630BD21FA3B
:1041FC0004F0294630BD94F0000F83F4801306BF01
:10420C0081F480110134013D4EE77FEA645C18BFF4
:10421C007FEA655C29D094EA050F08BF90EA020F8B
:10422C0005D054EA000C04BF1946104630BD91EA83
:10423C00030F1EBF0021002030BD5FEA545C05D186
:10424C004000494128BF41F0004130BD14F58004C5
:10425C003CBF01F5801130BD01F0004545F0FE4139
:10426C0041F470014FF0000030BD7FEA645C1ABF6E
:10427C00194610467FEA655C1CBF0B46024650EAA5
:10428C00013406BF52EA033591EA030F41F40021D1
:10429C0030BD00BF90F0000F04BF0021704730B557
:1042AC004FF4806404F132044FF000054FF000012C
:1042BC0050E700BF90F0000F04BF0021704730B5ED
:1042CC004FF4806404F1320410F0004548BF4042C2
:1042DC004FF000013EE700BF42004FEAE2014FEA17
:1042EC0031014FEA02701FBF12F07F4393F07F4FF2
:1042FC0081F06051704732F07F4208BF704793F0F5
:10430C007F4F04BF41F40021704730B54FF4607407
:10431C0001F0004521F000411CE700BF50EA01020A
:10432C0008BF704730B54FF000050AE050EA0102B3
:10433C0008BF704730B511F0004502D5404261EB23
:10434C0041014FF4806404F132045FEA915C3FF464
:10435C00D8AE4FF003025FEADC0C18BF03325FEA01
:10436C00DC0C18BF033202EBDC02C2F1200300FAB2
:10437C0003FC20FA02F001FA03FE40EA0E0021FAD7
:10438C0002F11444BDE600BF70B54FF0FF0C4CF4C5
:10439C00E06C1CEA11541DBF1CEA135594EA0C0F77
:1043AC0095EA0C0F00F0DEF82C4481EA030621EAB2
:1043BC004C5123EA4C5350EA013518BF52EA0335ED
:1043CC0041F4801143F4801338D0A0FB02CE4FF09F
:1043DC000005E1FB02E506F00042E0FB03E54FF0CF
:1043EC000006E1FB03569CF0000F18BF4EF0010EC7
:1043FC00A4F1FF04B6F5007F64F5407404D25FEAC3
:10440C004E0E6D4146EB060642EAC62141EA555175
:10441C004FEAC52040EA5E504FEACE2EB4F1FD0CB7
:10442C0088BFBCF5E06F1ED8BEF1004F08BF5FEA35
:10443C00500E50F1000041EB045170BD06F00046E7
:10444C0046EA010140EA020081EA0301B4EB5C0494
:10445C00C2BFD4EB0C0541EA045170BD41F480118C
:10446C004FF0000E013C00F3AB8014F1360FDEBFB1
:10447C00002001F0004170BDC4F10004203C35DA8D
:10448C000C341BDC04F11404C4F1200500FA05F310
:10449C0020FA04F001FA05F240EA020001F00042B1
:1044AC0021F0004110EBD37021FA04F642EB060127
:1044BC005EEA430E08BF20EAD37070BDC4F10C0451
:1044CC00C4F1200500FA04F320FA05F001FA04F215
:1044DC0040EA020001F0004110EBD37041F1000101
:1044EC005EEA430E08BF20EAD37070BDC4F120050C
:1044FC0000FA05F24EEA020E20FA04F301FA05F274
:10450C0043EA020321FA04F001F0004121FA04F21B
:10451C0020EA020000EBD3705EEA430E08BF20EAEB
:10452C00D37070BD94F0000F0FD101F00046400025
:10453C0041EB010111F4801F08BF013CF7D041EAA7
:10454C00060195F0000F18BF704703F000465200AB
:10455C0043EB030313F4801F08BF013DF7D043EA7C
:10456C000603704794EA0C0F0CEA135518BF95EA32
:10457C000C0F0CD050EA410618BF52EA4306D1D1B9
:10458C0081EA030101F000414FF0000070BD50EAD8
:10459C00410606BF1046194652EA430619D094EA62
:1045AC000C0F02D150EA013613D195EA0C0F05D14C
:1045BC0052EA03361CBF104619460AD181EA0301A0
:1045CC0001F0004141F0FE4141F470014FF0000058
:1045DC0070BD41F0FE4141F4780170BD70B54FF0F3
:1045EC00FF0C4CF4E06C1CEA11541DBF1CEA135573
:1045FC0094EA0C0F95EA0C0F00F0A7F8A4EB050455
:10460C0081EA030E52EA03354FEA013100F088804B
:10461C004FEA03334FF0805545EA131343EA126314
:10462C004FEA022245EA111545EA10654FEA0026C9
:10463C000EF000419D4208BF964244F1FD0404F582
:10464C00407402D25B084FEA3202B61A65EB0305DE
:10465C005B084FEA32024FF480104FF4002CB6EB9B
:10466C00020E75EB030E22BFB61A754640EA0C001B
:10467C005B084FEA3202B6EB020E75EB030E22BF5B
:10468C00B61A754640EA5C005B084FEA3202B6EB9C
:10469C00020E75EB030E22BFB61A754640EA9C005B
:1046AC005B084FEA3202B6EB020E75EB030E22BF2B
:1046BC00B61A754640EADC0055EA060E18D04FEAE9
:1046CC00051545EA16754FEA06164FEAC30343EA89
:1046DC0052734FEAC2025FEA1C1CC0D111F4801F56
:1046EC000BD141EA00014FF000004FF0004CB6E74F
:1046FC0011F4801F04BF01430020B4F1FD0C88BFEE
:10470C00BCF5E06F3FF6AFAEB5EB030C04BFB6EBF8
:10471C00020C5FEA500C50F1000041EB045170BDEB
:10472C000EF0004E4EEA113114EB5C04C2BFD4EB18
:10473C000C0541EA045170BD41F480114FF0000E9C
:10474C00013C90E645EA060E8DE60CEA135594EA18
:10475C000C0F08BF95EA0C0F3FF43BAF94EA0C0F1B
:10476C000AD150EA01347FF434AF95EA0C0F7FF490
:10477C0025AF104619462CE795EA0C0F06D152EAE4
:10478C0003353FF4FDAE1046194622E750EA4106C8
:10479C0018BF52EA43067FF4C5AE50EA41047FF4D9
:1047AC000DAF52EA43057FF4EBAE12E74A0011D28B
:1047BC0012F5001211D20DD56FF47873B3EB62526F
:1047CC000ED44FEAC12343F0004343EA505323FA7B
:1047DC0002F070474FF00000704750EA013002D1F0
:1047EC004FF0FF3070474FF00000704707EE900A13
:1047FC00F5EEC07AF1EE10FA01D400F00BB8F1EE40
:10480C00677A08B517EE900A00F004F8404261EBA5
:10481C00410108BDD0B5FFF75FFD0C4B00220646E9
:10482C000F46FFF7B1FDFFF7C1FF0446FFF732FD5E
:10483C00074B0022FFF7A8FD02460B4630463946CF
:10484C00FFF7EAFBFFF7B2FF2146D0BD0000F03DB9
:10485C000000F04110F8012B11F8013B012A28BF90
:10486C009A42F7D0D01A7047034613F8012B002A4E
:10487C00FBD1181A0138704709480A49884208B513
:10488C0005D0094A824202D0121A03F088FB07486D
:10489C00074A0021121A03F090FB014808BD00BF23
:1048AC0020DE03209CBF0B00B8DE0320B8DE032003
:1048BC00F0E7032070B5074E074C03F035FAA41B44
:1048CC00A4080025AC4200D170BD56F8043B9847B3
:1048DC000135F7E754BF0B0078BF0B0000F0A2BC0A
:1048EC0008B500F015FEBDE8084003F0D5B901F09D
:1048FC002DBF01F02BBF01F031BF0078B0FA80F072
:10490C0040097047012303707047000038B50B480D
:10491C000B4C0C4D03F088FB0A49084803F0D0FB04
:10492C0030B144F8040B2946002003F0C9FBF7E72B
:10493C00054B1860054B01221A6038BDA4E1032019
:10494C0098E003207C830B005CE0032048E003200C
:10495C00002340681A46194601F0B8BE38B51F4D01
:10496C000446294602F01DFE294604F1100002F00F
:10497C0018FE294604F1200002F013FE294604F12A
:10498C00300002F00EFE294604F1400002F009FE50
:10499C00294604F1500002F004FE294604F160009F
:1049AC0002F0FFFD294604F1700002F0FAFD2946E1
:1049BC0004F1800002F0F5FD294604F1900002F0AC
:1049CC00F0FD294604F1A00002F0EBFD294604F1AC
:1049DC00B00002F0E6FD204638BD00BF99830B0005
:1049EC002DE9F041ADF5434DAAB010A800F028FE1A
:1049FC0003F0B8F80A4902F069FC10A800F06EFE4A
:104A0C00044688B103F0AEF8064902F05FFC10A82A
:104A1C0000F010FE0DF5434D2AB0BDE8F08100BF4B
:104A2C007E830B009A830B0010A800F0DCFE4FF481
:104A3C0094734FF4C87216A904A800F0D2FF04A80E
:104A4C00012100F0FFFFDFF86883C64DC64E04A8B5
:104A5C00022101F012F804A8C44B0194CDF8008097
:104A6C0005220A2101F088F8009504A8C04B019496
:104A7C0091220A2101F080F8CDE90054BD4B04A825
:104A8C00A5220A2101F078F8716905220B3108A8DA
:104A9C0003F003FB0CAB08A91846039302F081FD4D
:104AAC000C9BCDE90054A5226E2104A801F064F8FA
:104ABC00039802F02BFDCDE9005404A8AE4B9122D3
:104ACC00CD2101F059F8AB4BCDE9005404A8A52237
:104ADC00CD2101F051F8B16905220B3108A803F082
:104AEC00DCFA08A9039802F05CFD0C9BCDE900549C
:104AFC00A52240F2311104A801F03EF87826039863
:104B0C0002F004FD009604A80194642323220A21D8
:104B1C0001F0A6F81B22009204A801946E230A212E
:104B2C0001F09EF86E23CDE90064194604A81B22FF
:104B3C0001F096F88C27CDE90064324604A840F2C7
:104B4C008B136E2101F08CF8B92600973A4604A815
:104B5C000194BE230A2101F083F80096324604A882
:104B6C000194BE230A2101F07BF8BE23CDE9006439
:104B7C003A46194604A801F073F8C823CDE900643D
:104B8C003A46194604A801F06BF8CDE900643246A8
:104B9C0004A84FF4C373C82101F062F8CDE9007486
:104BAC003A4604A84FF4C373C82101F059F8CDE973
:104BBC000064324604A84FF491764FF4C373CD21B0
:104BCC0001F04EF8009604A801944FF48273E6228B
:104BDC000A2101F009F8CDE9006404A84FF4C3736D
:104BEC00C8224FF48C7100F0FFFFDE23634E00935C
:104BFC00012704A801944FF4C373C8224FF48C719D
:104C0C0001F02EF804A85E4B01970096CD2240F2DD
:104C1C001D1100F0B1FF5B4B0A22196808A802F0C5
:104C2C003BFD08A9039802F008FD5749039802F0D0
:104C3C007EFDCDE90064E32203684FF4A07104A863
:104C4C0000F09AFF039802F061FC08A802F05EFCE9
:104C5C004FF48573009304A801944FF4C373F422AA
:104C6C004FF48C7100F0FCFF484BF92204A8CDE9FD
:104C7C00006740F21D1100F07FFF4549039802F0D8
:104C8C00DCFC0C9B40F20F1240F2311104A8CDE970
:104C9C00006400F071FF039802F038FCC823009305
:104CAC0004A801944FF48273E6220A2100F0D8FF85
:104CBC00CDE90057374BD22204A80F2100F05CFF3E
:104CCC003549039802F0B9FC0C9BF022CDE9005455
:104CDC000F2104A800F050FF039802F017FC2F4995
:104CEC00039802F0AAFC0C9BCDE900544FF482729D
:104CFC000F2104A800F040FF039802F007FC04A861
:104D0C00CDE90084264B0522822100F035FF04A852
:104D1C00CDE90084234B2322822100F02DFF04A82F
:104D2C00CDE90084204B4122822100F025FF1F4B4E
:104D3C005F22822104A8CDE9008400F01DFF04A8A5
:104D4C0000F095FE039004A800F093FE054604A81D
:104D5C0000F091FE234622460399CDE9005010A89D
:104D6C0028E000BF3CDE032098E00320B7830B0053
:104D7C00BD830B00C4830B00C9830B0034DE0320FE
:104D8C00D0830B0074E00320D8830B00DA830B0074
:104D9C0028DF0320E4830B0048DF032058DF0320C7
:104DAC00F0830B0001840B0011840B0020840B009A
:104DBC0044DE032000F0AFFC10A800F045FD3220CB
:104DCC0001F014FD10A800F00EFD10A800F049FD34
:104DDC00044B1C60044B1A68044B04A81A6000F0C6
:104DEC0013FE14E63CE10320FCE003208CE10320DD
:104DFC0000B5574B9DB0D3F8800003F0CCF807EE0C
:104E0C00900AB8EEE70A02F07DFD524BD3F8800011
:104E1C0003F0C1F807EE900AB8EEE70A02F072FD53
:104E2C0002F0ADFDC11702F039FD0A2201466846B9
:104E3C0002F032FC02F0A3FDC11702F049FD464915
:104E4C00024604A802F09AFC02F099FDC11702F088
:104E5C0047FD4149024608A802F090FC02F0A8FD6B
:104E6C000A2201460CA802F017FC02F0ADFD0A2242
:104E7C00014610A802F010FC02F0AEFD0A22014619
:104E8C0014A802F009FC02F08AFD694600284CD1F6
:104E9C0018A802F0D2FB314918A802F048FC04A96A
:104EAC0002F039FC2D4902F042FC08A902F033FC57
:104EBC002B4902F03CFC01462A4802F0AFFB18A833
:104ECC0002F024FB14A918A802F0B7FB264918A875
:104EDC0002F02DFC10A902F01EFC234902F027FC65
:104EEC000CA902F018FC214902F021FC1D4902F02A
:104EFC0012FC01461E4802F091FB18A802F006FBBA
:104F0C0014A802F003FB10A802F000FB0CA802F09E
:104F1C00FDFA08A802F0FAFA04A802F0F7FA6846BB
:104F2C0002F0F4FA1DB05DF804FB18A802F085FB42
:104F3C000A4918A802F0FBFB04A902F0ECFB074994
:104F4C0002F0F5FB08A902F0E6FB0A49B1E700BF45
:104F5C00B8DE032078DF03202C840B00EE830B00DB
:104F6C0031840B002CE1032037840B0039840B00B7
:104F7C0018E1032034840B0038B51D4D1D4C6968B5
:104F8C0004F1200002F064FBA96804F1300002F087
:104F9C005FFBE968204602F05BFB296904F14000E5
:104FAC0002F056FB696904F1500002F051FBA9694B
:104FBC0004F1600002F04CFBE96904F1700002F0AE
:104FCC0047FB296A04F1800002F042FB696A04F194
:104FDC00900002F03DFBA96A04F1A00002F038FB3E
:104FEC00E96A04F1B000BDE8384002F031BB00BF03
:104FFC0098E00320B8DE032038B51E4D1E4CA96A7C
:10500C0004F1200002F024FBA96804F1300002F046
:10501C001FFB296B204602F01BFB696B04F140005F
:10502C0002F016FBA96B04F1500002F011FBE96BC6
:10503C0004F1600002F00CFB296C04F1700002F02A
:10504C0007FB696C04F1800002F002FBA96C04F10F
:10505C00900002F0FDFAE96C04F1A00002F0F8FAFD
:10506C00296D04F1B00002F0F3FA044B02221A602D
:10507C0038BD00BF98E0032078DF03203CE103201B
:10508C0038B5046805467CB16368013B63605BB965
:10509C00236820469B689847A368013BA3601BB913
:1050AC0023682046DB689847284638BD1D4B10B551
:1050BC0000241C701C4B01221A701C4BA2F1011213
:1050CC00C3E900449A60022001F054FA18491948C7
:1050DC0002F067FA1649184802F063FA14491748A7
:1050EC0002F05FFA1249164802F05BFA10491548B3
:1050FC0002F057FA0E49144802F053FA0C491348BF
:10510C0002F04FFA1248FFF729FC1248FFF726FC71
:10511C0022461148022100F0B5FFBDE810400F48AF
:10512C0000F0C8BD94E0032095E0032078E0032054
:10513C0099830B0038E0032064E0032084E0032013
:10514C004CE0032094E103202CE1032018E1032020
:10515C00B8DE032078DF032040E1032028E10320A0
:10516C0030B585B002F0FEFC264902F0C2F802F020
:10517C002DFB054602F0F6FC234902F0A7F802F0DD
:10518C00F1FC0A220446294602F0BDF8204602F042
:10519C00A4F801F03BFA98BB02F0E4FC1B4902F0C6
:1051AC00A8F80121172002F040FE4FF47A7001F0AC
:1051BC001DFB1748FFF7CCFB154801F0CDFF10B9CC
:1051CC0001F014FAF8E7124801F0C6FF01F016FAE4
:1051DC0001F01CFA10B901F009FAF9E701F016FA1E
:1051EC000C4B0D4A1B780D498DF8003002A83C235E
:1051FC0001F0DEFC03A8FFF743FF094B01221A6004
:10520C0005B030BD3B840B0059840B0067840B0048
:10521C0064E6032095E0032028DE03208C840B0039
:10522C003CE1032030B587B002F09CFC00254FF424
:10523C00E13102F08BFC254925482B462A46CDE965
:10524C00005501F0F3F90124032241F2883303A83D
:10525C00CDE90323ADF8144001F0A7FB214616203D
:10526C0002F0D2FD2146162002F0DFFD2146092076
:10527C0002F0CAFD2946092002F0D7FD214617206D
:10528C0002F0C2FD2146172002F0CFFD1148124D4D
:10529C00124C00F017FD02F065FC02F01EF802F053
:1052AC0061FC0F4902F012F8284600F0AFFF40B93C
:1052BC0002F058FC214602F009F8642001F096FA3D
:1052CC00F2E707B0BDE83040FFF74ABF19490B00C1
:1052DC007E840B0028E1032040E1032057840B005F
:1052EC0095840B002DE9F0418EB001F08FF918BBBD
:1052FC0002F038FC334901F0FCFF0121172002F0C9
:10530C0094FD4FF47A7001F071FA2F48FFF720FBEF
:10531C002D4801F021FF10B901F068F9F8E72A488F
:10532C0001F01AFF01F06AF901F070F910B901F0FF
:10533C005DF9F9E701F06AF9244E254C3068254DEA
:10534C0002F029FE2449336A079008682768D5F8CB
:10535C000080069302F01FFE2968059121680491D4
:10536C00316ADDE90632CDE90201CDE900780AA8FF
:10537C001A4902F003FA1A4B0A9A1B7819498DF84C
:10538C00003008A83C2301F013FC09A8FFF778FEB5
:10539C000AA802F0BBF802F0E5FB134901F0A9FFE3
:1053AC001249284602F054F91049204602F050F9EF
:1053BC000F4B00221A600F4B1A680F4B1A600EB07D
:1053CC00BDE8F081A8840B0064E60320B8DE03205E
:1053DC0084E003204CE0032078DF0320BA840B0028
:1053EC0094E003204E850B005A850B0099830B002B
:1053FC0060E0032004E1032090E1032070B53A48FB
:10540C0088B000F038FD58B138493748022200F016
:10541C00E9FD01280AD002F0A5FB354901F069FF2E
:10542C00FA2008B0BDE8704001F0E0B931492F4DC9
:10543C00684602F0B6F80A240026102229780DEBF3
:10544C00020002F017F904A9684602F04FF904A80B
:10545C0002F05CF8013C05F8016BEED1FFF7C8FCDB
:10546C00694604A802F0E9F82349244D244C04A809
:10547C0002F05DF90146284602F038F904A802F062
:10548C0045F8204904A802F0D8F81B4904A802F0FA
:10549C004EF90146204602F029F904A802F036F82C
:1054AC0002F060FB296801F011FF02F05BFB01F0D8
:1054BC0014FF02F057FB216801F008FF02F052FBC9
:1054CC0001F00BFF104A13680133052B136006D152
:1054DC0002F048FB0D4901F00CFFFFF703FF684693
:1054EC0002F014F89CE700BF40E1032008E1032020
:1054FC0071850B0099830B008D850B004CE003200C
:10550C0084E0032018E1032060E003208F850B006A
:10551C007FB501F07BF810B1002001F08FF800F09E
:10552C00C1FE374B374D186000F0BCFE286000F010
:10553C00B9FE354A2B681268344C9B1A344A2060E9
:10554C001268934204D3334B1B680BB9FFF708FE68
:10555C00314A236812689B1A304A1268934206D368
:10556C0002F000FB2E4901F0C4FEFFF7BBFE2D4BF1
:10557C001B6833B9FFF700FD322001F037F9FFF754
:10558C003BFD294D2B68012B2FD1002301A8CDE920
:10559C000133ADF80C3001F0EEF901F037F80446A8
:1055AC0010B101F023F8F8E7204E01F02FF87068E5
:1055BC0023462246214601F091F8304601F0D0FDF9
:1055CC0010B901F013F8F8E7184801F0C9FD0A20EA
:1055DC0001F00CF90021172002F027FC02F0C2FAAE
:1055EC00134901F086FE00232B600A4B1B68022B2B
:1055FC0001D1FFF7F5F904B0BDE87040FFF7FEBE2E
:10560C0000E10320FCE003208CE1032004E10320F3
:10561C0020DE03203CE1032090E1032024DE032064
:10562C00A5850B005CE0032048E0032064E6032022
:10563C00BA850B0010B5044600F06FF9204610BD7A
:10564C0010B5044600F068F906220523C4E90223CC
:10565C0008210723C4E904134FF4C8704FF4967360
:10566C00C4E90003204610BD10B50C46C0680021EB
:10567C0000F054F92046BDE8104000F0A1B910B577
:10568C000C46C068012100F049F92046BDE81040E5
:10569C0000F096B910B50446606900F043F918B9EA
:1056AC00642000F042F9F7E710BD10B50121044663
:1056BC00806800F033F9C82000F037F9A0680021A9
:1056CC0000F02CF9022000F030F9A068012100F064
:1056DC0025F9BDE81040C82000F027B938B50446BC
:1056EC0000F042F9054698B92046FFF7DEFF042189
:1056FC002046FFF7B9FF2046FFF7CCFF294620468E
:10570C00FFF7B2FF0F212046FFF7B9FF284638BD3F
:10571C004FF0FF35FAE72DE9F04704460F4691218B
:10572C0016469946DDE90858FFF79EFF9021204662
:10573C0006F0F80AFFF798FFC6F307212046FFF79B
:10574C009EFF51462046FFF79AFF514629440139E6
:10575C00C1F307212046FFF792FF691E514441F027
:10576C000701C9B22046FFF78AFF5FFA89F6C9F331
:10577C0007212046FFF783FF31462046FFF77FFFC6
:10578C0009EB08010139C1F307212046FFF777FF28
:10579C0008F1FF313144C9B22046FFF770FF0121F7
:1057AC002046FFF76CFF022000F0BFF810212046C6
:1057BC00FFF75AFF77B1002DB8BF0735ED1008FB86
:1057CC0005F50026B54205DDB95D2046FFF757FF0C
:1057DC000136F7E7022000F0A8F820469221BDE838
:1057EC00F047FFF741BF38B510210446FFF73CFFE7
:1057FC00022000F09AF8002523686268DB08534306
:10580C00AB4205D9FF212046FFF739FF0135F3E7FD
:10581C00022000F08AF813212046FFF725FF022012
:10582C0000F083F8002523686268DB085343AB4221
:10583C0005D9FF212046FFF722FF0135F3E7BDE82C
:10584C003840022000F071B810B512210446FFF761
:10585C000BFF642000F069F82046BDE81040FFF70C
:10586C0019BF10B550210446FFF7FEFE2046F72164
:10587C00FFF705FF02212046FFF7F6FE2046FFF753
:10588C0009FF20460721FFF7EFFE2046A521BDE8C2
:10589C001040FFF7F4BE704710B510210446FFF717
:1058AC002AF8204610BD0EB403B503AB002153F803
:1058BC00042B019301F045FD02B05DF804EB03B03D
:1058CC007047000073B5044608462279A36832B1CC
:1058DC00A3B90B4902B0BDE8704001F0F7BC094A0E
:1058EC00267B094D0949647B012E18BF2946CDE959
:1058FC0000140749FFF7D7FF02B070BD054AEFE768
:10590C00DC850B0099830B00D8850B00D4850B002C
:10591C00F2850B00CB850B0070477047C9B280B283
:10592C0002F083BA80B202F099BA00F05FBF0000B7
:10593C0013B50B4C2178BFF35B8F11F001010BD128
:10594C0020460191FEF7D9FF019928B1054801F0D5
:10595C0035FD2046FEF7D6FF024802B010BD00BF51
:10596C0054E6032058E603201FB50121082002F05D
:10597C004BFA0121062002F047FA0121052002F022
:10598C0043FA0021072002F03FFAFFF7D1FF01F0A4
:10599C001FFD094B0093094B029300240123ADF822
:1059AC000C308DF80440FFF7C3FF694601F03AFD57
:1059BC00204604B010BD00BF18860B0080841E006A
:1059CC0010B500210446082002F02FFAFFF7B0FFB3
:1059DC00214601F095FDBDE810400121082002F0A0
:1059EC0024BA30B50024C46012F00704016008D05A
:1059FC0002F10805524202F00701224658BF4A4202
:105A0C00AA1AC0E9012330BD7047002930B515DB57
:105A1C0044688C4212DD002A10DB856895420DDD4E
:105A2C0002FB04120568D21001F00701802444FA2D
:105A3C0001F1A85649B213B10843A85430BD20EA6D
:105A4C000100FAE770B50B46044600256268AA42CD
:105A5C000CDD0026A268B24206DD324629462046FD
:105A6C00FFF7D3FF0136F5E70135EFE770BD0068AE
:105A7C0070474068704780687047C1607047F0B4E9
:105A8C00C7680D46144667B9002937DB47688F4253
:105A9C0034DD002A32DB856895422FDDF0BCFFF740
:105AAC00B4BF012F0CD1002928DB82688A4225DD86
:105ABC00002C23DB4168A14220DD2A46091BEDE7BF
:105ACC00022F0CD1002919DB4168A94216DD002AEE
:105ADC0014DB8268A24211DD121B491BDEE7032F87
:105AEC000CD100290ADB82688A4207DD002C05DB19
:105AFC004168A14202DD521B2146CFE7F0BC704742
:105B0C002DE9F74F0C9DAC88914614F0070218BF95
:105B1C00012202EBD402EC88203B63432C688846BC
:105B2C0003FB024400274FF0800BEB88BB4220DDC7
:105B3C00002609EB0702AB88B34215DD217806F08D
:105B4C00070A4BFA0AF3194208D00D9B019206EB97
:105B5C0008010090FFF793FFDDE90002BAF1070F8F
:105B6C0008BF01340136E6E75B0718BF0134013783
:105B7C00DBE703B0BDE8F08F2DE9F341089F064643
:105B8C000C4690465D1E15F8013F53B1099A21460B
:105B9C00CDE9007230464246FFF7B2FFBB881C4489
:105BAC00F1E702B0BDE8F081F8B5064617460C46A1
:105BBC00CD18A54207DD2146069B3A463046FFF735
:105BCC005EFF0134F5E7F8BDF8B506460F461446FE
:105BDC00D518A54207DD2246069B39463046FFF70D
:105BEC004EFF0134F5E7F8BD2DE9FF410F46DDE925
:105BFC000A48BB421946A8BF3946BB42B8BF3B4610
:105C0C00944227461D46A8BF17465B1A9442B8BF5C
:105C1C001446064601333A46CDF8008003930291B0
:105C2C00FFF7C2FF039B0299CDF800802246304655
:105C3C000391FFF7B9FFE31B0399CDF80080013303
:105C4C003A4630460293FFF7BFFF029BCDF82880FF
:105C5C003A462946304604B0BDE8F041FFF7B4BFE0
:105C6C002DE9F3418B42044608981E46A8BF0E4608
:105C7C008B42B8BF0B4690428046A8BF90469042DC
:105C8C00ACBFC8EB0007C8EB02071D460137AE429C
:105C9C0009DC099B009331463B4642462046FFF700
:105CAC0093FF0136F3E702B0BDE8F0810368C9B297
:105CBC009B68184710B5044602F0FEF801F06CF929
:105CCC00204610BD08B502F0F7F8362101F09AF91C
:105CDC0002F0F2F86021FFF7E9FF02F0EDF80F2176
:105CEC00FFF7E4FF02F0E8F80021FFF7DFFF02F016
:105CFC00E3F801F08EF9322000F078FD02F0DCF8C8
:105D0C00362101F07FF902F0D7F8BB21FFF7CEFF67
:105D1C0002F0D2F80121FFF7C9FF02F0CDF8002103
:105D2C00FFF7C4FF02F0C8F8BDE8084001F071B9F4
:105D3C000368C9B29B6818472DE9F0410132022073
:105D4C00D5B20F4600F052FD02F0B6F8242101F056
:105D5C0059F902F0B1F80021FFF7EAFF02F0ACF8B4
:105D6C000021FFF7E5FF02F0A7F8FF21FFF7E0FFA6
:105D7C0002F0A2F8036829469B68984702F09CF849
:105D8C006942FFF7D5FF02F097F8D421FFF7D0FF57
:105D9C000024D326013D04F10108E4B2AC420ADA36
:105DAC0002F08AF80368395D9B689847395D0E44A8
:105DBC00F6B24446EFE702F07FF80368F1439B68C4
:105DCC00C9B2984702F078F8036800219B6898479D
:105DDC0002F072F8BDE8F04101F01BB930B5024693
:105DEC0090F84100A0B16FF0030502F10A00002306
:105DFC000239AD1A2C18A14203DD10F8014B2344D3
:105E0C00F8E70A44DB431079DBB21B1A58425841BD
:105E1C0030BD1FB5044690F8410050B340208DF8BA
:105E2C00000001208DF8010060208DF80200186838
:105E3C009B88ADF808301368CDF80A3023688DF8CC
:105E4C00031001901B680E22694620469847236870
:105E5C004FF47A725B6810212046984748B11021A4
:105E6C002046FFF7BBFF20B1208AA0F14103584226
:105E7C00584104B010BD1FB590F84130044613B31F
:105E8C004A238DF8043001238DF8053000238DF85A
:105E9C000630036803221B6801A9984723684FF456
:105EAC007A725B68192120469847034658B1A37E45
:105EBC00E27D84F83030637C84F82D20228BE285DF
:105ECC005A1E53425341184604B010BD2DE9F041FF
:105EDC00FF2A8AB005460C46164606DD394901F004
:105EEC0060FB28460AB0BDE8F08191F841300BB94F
:105EFC003549F4E70846FFF7BEFF10B93349284689
:105F0C00EDE704F1270304F12D0231462046FFF79B
:105F1C0080FF08B92E49F2E740238DF804300123A5
:105F2C008DF8053030238DF8063023688DF8076026
:105F3C0004220DEB02011B682046984723684FF49E
:105F4C007A725B6820212046984708B92149D6E728
:105F5C00214902A801F025FB20212046FFF73EFF36
:105F6C0030B3238A412B23D11C4FDFF874801234B9
:105F7C00002614F8011BA1770F2921D8394602A855
:105F8C0001F0B8FB14F8011C102206A801F072FBFA
:105F9C0006A902A801F0AAFB06A801F0B7FA0F2E79
:105FAC0003D0414602A801F0A5FB0136102EE0D12A
:105FBC0002A9284601F027FB02A801F0A7FA90E7F6
:105FCC001022E2E7AEBB0B0096BB0B00A5BB0B008F
:105FDC00B4BB0B00C0BB0B0099830B0094BB0B0034
:105FEC0098830B0030B590F8413085B004460D46CF
:105FFC00002B39D001466846FFF768FF1B496846FD
:10600C0001F0AAFB30B1FF24684601F07FFA20466C
:10601C0005B030BD1649684601F09EFB0028F2D150
:10602C001449684601F098FB0028ECD112496846E7
:10603C0001F092FB0028E6D11049684601F08CFB78
:10604C000028E0D10E49684601F086FB0028DAD121
:10605C0004F131032946413453F8042B41F8042B45
:10606C00A342F9D10124CFE7FF24D0E7A5BB0B0055
:10607C00B4BB0B00CEBB0B00C0BB0B0096BB0B0024
:10608C00AEBB0B0038B50446064B84F848100846E6
:10609C0015462360002101F0B7FE84F849502046D4
:1060AC0038BD00BFE8BB0B0038B50546652495F834
:1060BC00480001F0D3FE30B1013CA4B22CB10A204F
:1060CC0000F094FBF3E7012038BD2046FCE7F7B560
:1060DC0000238DF800308DF801308DF803308DF8E9
:1060EC00053090F84930FF22012B04460D468DF8FF
:1060FC0002208DF8042041D1FFF7D6FF10B9002003
:10610C0003B0F0BD01F0D8FE0822242100F073FF8B
:10611C0001F0D2FE03685B699847261D04F10A075B
:10612C00012000F063FB01F0C7FE03685B69984730
:10613C0006F8010BBE42F3D12046FFF7B5FF00284D
:10614C00DDD001F0B9FE2A1F242100F054FF01F02C
:10615C00B3FE03685B6998476FF00907063D3F1B68
:10616C00BB199D4249DD012000F040FB01F0A4FE6B
:10617C0003685B69984706F8010BF1E7002B3CD1EB
:10618C001E2000F033FB01F097FE0822242100F0C2
:10619C0032FF01F091FE03685B699847261D04F1FC
:1061AC000A07012000F022FB01F086FE03685B6900
:1061BC00984706F8010BBE42F3D11E2000F016FBE7
:1061CC0001F07AFE2A1F242100F015FF01F074FE65
:1061DC0003685B6998476FF00907063D3F1BBB19C5
:1061EC009D420ADD012000F001FB01F065FE036811
:1061FC005B69984706F8010BF1E70622211D6846FA
:10620C0001F037FFB0FA80F0400979E737B5FF238A
:10621C0080F827304FF0FF3304460125836280F865
:10622C002C3014238DF804308DF806308DF8055081
:10623C008DF8075001F040FE00F0AEFE236884F8A4
:10624C00415004220DEB02011B68204698470A209E
:10625C0000F0CCFA23684FF47A725B680E2120466A
:10626C00984720B1207CA0F115035842584103B047
:10627C0030BD000008B5024B1B685B6C019308BD78
:10628C004802030008B5024B1B685B6D019308BD07
:10629C003402030008B5024B1B685B68019308BD10
:1062AC001802030008B5024B1B685B69019308BD1B
:1062BC001802030008B5024B1B689B6D019308BDC7
:1062CC001802030008B5024B1B685B6E019308BDF6
:1062DC001802030008B5024B1B689B68019308BDAC
:1062EC002C02030008B5024B1B68DB68019308BD48
:1062FC002C02030008B5024B1B681B69019308BDF7
:10630C002C02030008B5024B1B685B69019308BDA6
:10631C002C02030008B5024B1B68DB68019308BD17
:10632C002802030008B5024B1B689B69019308BD4A
:10633C002802030008B5024B1B68DB69019308BDFA
:10634C002802030008B5024B1B681B6A019308BDA9
:10635C002802030008B5024B1B685B6A019308BD59
:10636C002802030008B5024B1B689B6A019308BD09
:10637C002802030008B5024B1B68DB6A019308BDB9
:10638C002802030008B5024B1B681B6B019308BD68
:10639C002802030008B5024B1B685B6B019308BD18
:1063AC002802030008B5024B1B681B6C019308BD47
:1063BC002802030008B5024B1B681B6D019308BD36
:1063CC002802030008B5024B1B685B69019308BDEA
:1063DC006402030008B5024B1B689B68019308BD5F
:1063EC006802030008B5024B1B68DB68019308BD0B
:1063FC006802030008B5024B1B681B68019308BDBB
:10640C003002030008B5024B1B685B69019308BDA1
:10641C003002030008B5024B1B68DB69019308BD11
:10642C003002030008B5024B1B681B6A019308BDC0
:10643C003002030008B5024B1B685B6A019308BD70
:10644C003002030008B5024B1B68DB6B019308BDDF
:10645C003002030008B5024B1B681B6C019308BD8E
:10646C003002030008B5024B1B685B6C019308BD3E
:10647C003002030008B5024B1B68DB68019308BDB2
:10648C003C02030008B5024B1B681B69019308BD55
:10649C003C02030008B5024B1B685B69019308BD05
:1064AC003C02030008B5024B1B689B69019308BDB5
:1064BC003C02030008B5024B1B68DB69019308BD65
:1064CC003C02030008B5024B1B681B6A019308BD14
:1064DC003C02030008B5024B1B689B6A019308BD84
:1064EC003C02030008B5024B1B681B6C019308BDF2
:1064FC003C02030008B5024B1B681B68019308BDE6
:10650C004C02030008B5024B1B685B68019308BD85
:10651C004C02030008B5024B1B681B69019308BDB4
:10652C004C02030008B5024B1B685B69019308BD64
:10653C004C02030008B5024B1B689B69019308BD14
:10654C004C02030008B5024B1B68DB69019308BDC4
:10655C004C02030008B5024B1B681B6A019308BD73
:10656C004C02030008B5024B1B681B68019308BD65
:10657C002002030008B5024B1B685B68019308BD41
:10658C002002030008B5024B1B685B69019308BD30
:10659C002002030008B5024B1B68DB6C019308BD9D
:1065AC002002030008B5024B1B685B6D019308BD0C
:1065BC002002030008B5024B1B689B6D019308BDBC
:1065CC002002030008B5034B1B68D3F888300193F5
:1065DC0008BD00002002030008B5034B1B68D3F86C
:1065EC009430019308BD00002002030008B5024B53
:1065FC001B689B68019308BD4402030008B5024B5D
:10660C001B68DB68019308BD4402030008B5024B0C
:10661C001B685B69019308BD4402030008B5024B7B
:10662C001B681B6A019308BD4402030008B5024BAA
:10663C001B685B6A019308BD4402030008B5024B5A
:10664C001B68DB6A019308BD4402030008B5024BCA
:10665C001B681B6B019308BD4402030008B5024B79
:10666C001B689B6B019308BD4402030008B5024BE9
:10667C001B68DB6B019308BD4402030008B5024B99
:10668C001B685B6C019308BD4402030008B5024B08
:10669C001B685B68019308BD4002030008B5024B00
:1066AC001B689B68019308BD4002030008B5024BB0
:1066BC001B68DB68019308BD4002030008B5024B60
:1066CC001B681B69019308BD4002030008B5024B0F
:1066DC001B685B69019308BD4002030008B5024BBF
:1066EC001B689B69019308BD4002030008B5024B6F
:1066FC001B68DB69019308BD4002030008B5024B1F
:10670C001B681B6A019308BD4002030008B5024BCD
:10671C001B681B6B019308BD4002030008B5024BBC
:10672C001B685B6B019308BD4002030008B5024B6C
:10673C001B681B6C019308BD4002030008B5024B9B
:10674C001B685B6C019308BD4002030008B5024B4B
:10675C001B681B68019308BD1C02030008B5024BA3
:10676C001B685B68019308BD1C02030008B5024B53
:10677C001B689B68019308BD1C02030008B5024B03
:10678C001B685B6A019308BD1C02030008B5024B31
:10679C001B68DB6A019308BD1C02030008B5024BA1
:1067AC001B681B6B019308BD1C02030008B5024B50
:1067BC001B68DB6B019308BD1C02030008B5024B80
:1067CC001B681B6C019308BD1C02030008B5024B2F
:1067DC001B685B6C019308BD1C02030008B5024BDF
:1067EC001B68DB6C019308BD1C0203000021FFF742
:1067FC00C9BE10B5836804460BB901F0C3FBC3686E
:10680C009847A3681BB1032221462046984720468F
:10681C001021BDE81040FEF76EB810B58368044631
:10682C0013B1032201469847204610BD13B50B4601
:10683C000246D0E900016C4684E8030093E80300AB
:10684C0082E8030094E8030083E8030002B010BD63
:10685C00024800230360FFF70DBD00BF60E6032074
:10686C00002240681146FFF729BF002240681146FC
:10687C00FFF744BF002240681146FFF74FBF406846
:10688C000022FFF743BF4068002281F00101FFF7AF
:10689C002DBF002340681A461946FFF71FBF002280
:1068AC0040681146FFF7FABE406800220221FFF74C
:1068BC00FDBE002340681A46FFF7E8BE084B10B532
:1068CC00282422461846002101F077FB054B048052
:1068DC004FF0FF32426004225A60034A1A6010BD26
:1068EC006CE6032064E60320F8BB0B007047002025
:1068FC00704710B510210446FDF7FDFF204610BD72
:10690C0008B5FFF7F6FF08BD30B500224FF69C74B2
:10691C00026084808D888C800C68858004600A609D
:10692C0030BD10B504460068FFF718FF204610BDB7
:10693C0038B5C468F4B12378022B03D104F10C00F0
:10694C00FFF7EFFF656835B12846FFF766FF1021AA
:10695C002846FDF7D0FFA56835B12846FFF75DFF47
:10696C0010212846FDF7C7FF20461421BDE838400A
:10697C00FDF7C1BF38BD1FB50C23ADF8043003685B
:10698C008DF80630037A8DF80730436802930021A6
:10699C00437AADF80D1001A88DF80F108DF80C305E
:1069AC00FFF76CFE05B05DF804FB1FB50C22ADF8CB
:1069BC00042002688DF80620027A8DF807204268C0
:1069CC0002920023427A8DF80C20194601AA02206B
:1069DC00ADF80D308DF80F30FFF740FE05B05DF8C7
:1069EC0004FB0B6803604B68436013B15A680132B7
:1069FC005A60704737B5044668460D46FFF7F1FFFD
:106A0C00009B019A23606260002301A8019300930C
:106A1C00FEF736FB35B1281DFEF732FB0821284660
:106A2C00FDF769FF204603B030BD826810B50AB986
:106A3C0001F0A8FABDE81040C368184708B5006813
:106A4C0000F11001FFF7F1FF08BD826810B50AB91B
:106A5C0001F098FABDE81040C368184708B5006803
:106A6C0000F11001FFF7F1FF08BD000038B500235D
:106A7C000446036010200D46FDF739FF28B10123B1
:106A8C00C0E90133024B0360C5602060204638BD6D
:106A9C0034BC0B0038B5002383608B6804460D466C
:106AAC002BB102229847EB68E360AB68A3602046E9
:106ABC0038BD0000F0B589B004686846FFF724FFC4
:106ACC004FF00203D4E84F2F002A03D1C4E8413F12
:106ADC000029F7D125D104F10C0569462846FFF7AA
:106AEC0013FFBFF35B8F01236370002004F10803D5
:106AFC00BFF35B8F53E8006F43E80002002AF9D123
:106B0C00BFF35B8F6EB1FFF745FD78B12946304678
:106B1C00FFF78BFF3046FFF780FE10213046FDF764
:106B2C00EAFE6846FFF7FDFE09B0F0BD314602A84B
:106B3C00FFF7B0FFE068B4F9105008B101F07CFA2F
:106B4C0006901020ADF81C50FDF7D1FE0546E8B1BB
:106B5C00002787601820FDF7CAFE044688B101465D
:106B6C00876002A8FFF762FE049BA268A360059BE6
:106B7C00049206A9E268E36004F110000592FFF7A5
:106B8C00C3FE084BEB60084B2C60AB6006A8FFF70C
:106B9C00C8FE02A8FFF741FE002229460348FFF772
:106BAC0001FDB7E7496A0B00CD6C0B00FF670B00CA
:106BBC002DE9F04F8BB005469DF850A00F4690463E
:106BCC009946FFF723FD07AE834638BB4FF62E736D
:106BDC00059005A93046ADF81830FFF795FE142046
:106BEC00FDF785FE044648B1022303700123C0E97A
:106BFC0001BB437031460C30FFF786FE2846214618
:106C0C0040F8044BFFF732FF3046FFF78AFE05A829
:106C1C00FFF787FE28460BB0BDE8F08F0C2300244D
:106C2C001420CDE908440793FDF761FE014618B125
:106C3C00C0E901440470447004A80391FFF716FFE7
:106C4C001E4B08930820FDF752FE044610B103A911
:106C5C00FFF7C7FE00965FFA8AF34A46414638466C
:106C6C000994FFF7DBFCB8B9039B5B7803F0FF02D8
:106C7C0093B94FF69C7305A903A80592ADF818308B
:106C8C00FFF718FF05A8FFF74CFE05A80999FFF7B9
:106C9C00B1FE06A8FEF7F4F903A905A8FFF7A1FEBB
:106CAC00059B069A2B606A60002306A80693059341
:106CBC00FEF7E6F904A8FEF7E3F9ABE7496D0B0024
:106CCC00012AF8B5054603D10B6803600020F8BD16
:106CDC00022A10D0032AF9D10468002CF6D004F152
:106CEC001000FFF71EFE2046FFF797FD18212046E7
:106CFC00FDF701FEEAE718200E68FDF7F8FD0446E3
:106D0C0050B13146FFF7C6FE3069B6F9147008B1C0
:106D1C0001F092F92061A7822C60D7E738B50023E7
:106D2C0083608B6804460D462BB102229847EB68B2
:106D3C00E360AB68A360204638BD0000F0B589B0B5
:106D4C0004460D4601A81146FFF754FEA4B124B227
:106D5C001DB1284601F070F9054601A803A9039559
:106D6C00ADF81040FFF7A6FE03A8FFF7DAFD02A866
:106D7C00FEF786F909B0F0BD019D0123D5E84F2F30
:106D8C00002A03D1C5E8413F0029F7D1EFD12B737D
:106D9C00BFF35B8F6B702B1DBFF35B8F53E8006FE2
:106DAC0043E80042002AF9D1BFF35B8F002EDED0FE
:106DBC002046FFF7EFFB074660B105F10C013046AA
:106DCC00FFF743FE3046FFF728FD10213046FDF754
:106DDC0092FDCCE7314603A8FFF7A0FF2B7B8DF883
:106DEC001C301020FDF783FD0546D0B187601420C0
:106DFC00FDF77DFD044678B18760014603A8FFF7D7
:106E0C0015FD059BA268A360069B0592E268E360F2
:106E1C009DF81C3006922374064BEB60064B2C60DD
:106E2C00AB6003A8FFF7F9FC002229460348FFF7E3
:106E3C00B9FBC7E7696A0B004D6E0B00FF670B00CF
:106E4C00012A70B5044603D10B680360002070BDA5
:106E5C00022A0CD0032AF9D10468002CF6D0204663
:106E6C00FFF7DBFC14212046FDF745FDEEE714206F
:106E7C000E68FDF73CFD054620B13146FFF74EFF8D
:106E8C00337C2B742560E1E7002240681146FFF744
:106E9C0035BC002240681146FFF740BC4068002218
:106EAC00FFF734BC4068002281F00101FFF71EBCE3
:106EBC00002340681A461946FFF710BC00234068AF
:106ECC001A461946FFF702BC002240681146FFF72C
:106EDC00F5BB002240681146FFF7E0BB406800227A
:106EEC000221FFF7E3BB002340681A46FFF7CEBB35
:106EFC00024B03225A60024A1A60704794E6032040
:106F0C0050BC0B007047F8B5064615460C468F185A
:106F1C00BC4206D0336814F8011B9B683046984776
:106F2C00F6E72846F8BD007C0022FFF70BBA007C80
:106F3C000021FFF70FBA007C0021FFF713BA007C89
:106F4C000021FFF717BA007C0021FFF71BBA10B520
:106F5C0014210446FDF7CFFC204610BD38B504467D
:106F6C0015464FF47A730022C4E90123094B2174AE
:106F7C00084623602946FFF715FABF3008D16B6924
:106F8C00DB0705D56868FFF7E9FBE868FFF7E6FB68
:106F9C00204638BD8CBC0B000023007C1A461946D9
:106FAC00FFF7B8B97FB500221423CDE90122ADF863
:106FBC0004300B788DF808304B680393CB6804933E
:106FCC00007C0B7A059301A9FFF7F4F907B05DF883
:106FDC0004FB1FB5003B8DF800104FF064010391CA
:106FEC0018BF0123694601928DF80830FFF7DAFFCC
:106FFC0005B05DF804FB0123FFF7EBBF007C00221A
:10700C00FFF790B9C9B2FFF7F9BF007C0022FFF778
:10701C0091B90121FFF7F9BF704710B5182104464B
:10702C00FDF769FC204610BDF0B5037D062B8DB035
:10703C000E4600F104074FF0000412D000F10805D1
:10704C0015F8011D0A22304600F05DF9AF420444E8
:10705C0019D0002CF4D02E21304600F03BF904441A
:10706C00EEE72F236A4639460A208DF80040FFF7D9
:10707C00A9F96846FDF7F8FB33680246DB686946F8
:10708C0030469847044620460DB0F0BD10B5054B70
:10709C000446112240F8043B002100F08EFF2046EC
:1070AC0010BD00BFB4BC0B000346074A10B543F833
:1070BC00042B01F1100251F8044B43F8044B91429C
:1070CC00F9D10A781A7010BDB4BC0B0010B59DF83C
:1070DC00084044EA032343EA024242EA01610423E2
:1070EC004160037510BD000007B5064B0360CB78FB
:1070FC0000938B784A780978FFF7E8FF03B05DF8C6
:10710C0004FB00BFB4BC0B00014B024A1A60704771
:10711C009CE60320C0BC0B00002340681A46FFF716
:10712C00B5BA406800220221FFF7C0BA00224068BD
:10713C001146FFF7B3BA002240681146FFF7BEBAFA
:10714C00002340681A461946FFF7C0BA002340686E
:10715C001A461946FFF7C2BA40680021FFF7E6BA93
:10716C0040680021FFF7EABA4068002281F0010173
:10717C00FFF7BCBA40680022FFF7C8BA002240688B
:10718C001146FFF7CBBA002240681146FFF7B6BA9A
:10719C002DE9F04395B014460D460746FFF776FFF0
:1071AC0000211C220DA8009100F007FF40230C9336
:1071BC0020466B460CAA0021FFF714F90446002860
:1071CC004BD1024601216868FFF778FA022180460C
:1071DC0022466868FFF772FA009E81462146002E0F
:1071EC003BD0002939D17368022B03D00A2B11D064
:1071FC00F669F4E7B8F1000FFAD0716906A804310A
:10720C0007ADFFF771FF0FCD3C1D0FC42B6823702A
:10721C004146EDE7B9F1000FEAD07469102201A8DC
:10722C0000F0CBFE06238DF8143001AD04F10803F9
:10723C001834186859682A4603C20833A342154605
:10724C00F7D101A906A807ADFFF72EFF0FCD3C1D06
:10725C000FC42B6823704946CAE70098FFF7BAF8A9
:10726C00384615B0BDE8F083024B034A1A60002281
:10727C005A607047A0E60320CCBC0B00F8B506465C
:10728C000D468F180024BD420CD0336815F8011B35
:10729C009B6830469847031E01DB1C44F3E7002C27
:1072AC0008BF1C462046F8BD13B50446084659B124
:1072BC000191FDF7D9FA23680199DB680246204653
:1072CC0002B0BDE81040184702B010BD08B5FFF77A
:1072DC00EBFF08BD03689B68184738B50D210546C0
:1072EC00FFF7F8FF0A2104462846FFF7F3FF204476
:1072FC0038BD38B50546FFF7D7FF04462846FFF7DB
:10730C00ECFF204438BD30B58BB00023012A8DF83A
:10731C00243098BF0A2209AC0D46B1FBF2F101FBF7
:10732C00125303F0FF03092B94BF30333733DBB216
:10733C00AA4204F8013DEFD92146FFF7B5FF0BB087
:10734C0030BD2DE9F04186B000AF05460E46381D24
:10735C00142114463B60FFF711FA13280ED8391D7F
:10736C002846FFF7A1FF04461EB12846FFF7B5FFDC
:10737C00044420461837BD46BDE8F08100F10803EF
:10738C0023F00703E846ADEB030D2246411C3B6896
:10739C006846FFF7F3F969462846FFF785FF044670
:1073AC00C546E1E7014B00229A607047A8E603202E
:1073BC000021FFF757B80021FFF74CB810B5044671
:1073CC0008462170FFF726F800236360204610BDA5
:1073DC0013B504460078FFF7EEFF58B920780190FA
:1073EC004FF6FF71FFF706F8019802B0BDE81040A8
:1073FC00FFF7DEBF02B010BD400830B518600024A6
:10740C0018688842E5B206D90134082C02D040082D
:10741C001860F5E70725024B5B5D137030BD00BFAC
:10742C0000BD0B002DE9F04306468FB000780C46EA
:10743C00FFF7C1FF00281BDB35781422002109A8B7
:10744C0000F0BBFD0B23002209A92846ADF824301F
:10745C00FEF7F0FF9DF82D3013B19DF82C5055B16F
:10746C000027B946B846012523795DB1C3B1002088
:10747C000FB0BDE8F083DDF830809DF834909DF8B6
:10748C003570F1E7002B35D1A368434508D18DF851
:10749C0020908DF82170BDF82020A3899A42E6D067
:1074AC000023A1688DF80F300A9804AB0DF10F0280
:1074BC00FFF7A2FF217985B989B9A36843450ED39B
:1074CC008DF820908DF82170BDF82020A3899A4268
:1074DC0005D1049B434502D1C9E70029F9D100230A
:1074EC000193637B00939DF80F20237B3078FEF78C
:1074FC00A9FFBCE7CDE900552B462A460121F5E74B
:10750C0008B50078FEF77EFFC0B208BD10B5044682
:10751C000068FFF723F9204610BD10B5044600683B
:10752C0008B1FFF71BF90023C4E90133236010BD38
:10753C0038B504460D4600680131FFF717F910B154
:10754C00C4E90005012038BD10B50368044623B119
:10755C0043688B4201D3012010BD2046FFF7E8FFA2
:10756C000028F9D0A368002BF5D122681370F2E73C
:10757C0037B50D46114601920446FFF7E5FF019A17
:10758C0028B92046FFF7C9FF204603B030BDA260E2
:10759C002946206800F003FD2268A3680021D1541D
:1075AC00F2E7002313B5C0E900330446836003738C
:1075BC0041B108460191FDF757F901990246204661
:1075CC00FFF7D6FF204602B010BD38B5054600685F
:1075DC000C4670B16A688B689A4208D3096831B15D
:1075EC0000F022FDA368AB600023A36038BDFFF759
:1075FC00B5F823682B6063686B60A368AB600023ED
:10760C00C4E90033F1E710B50023C0E900330446A8
:10761C0083600373FFF7D9FF204610BD884210B575
:10762C00044605D00B682BB18A681946FFF7A0FFFA
:10763C00204610BDFFF771FFFAE710B50023044692
:10764C00C0E9003383600373FFF7E8FF204610BDE9
:10765C0013B5044659B108460191FDF705F9019996
:10766C0002462046FFF784FF204602B010BDFFF70C
:10767C0054FFF9E71FB504460023C4E90033A360A7
:10768C002373084601A900F0DFFA01A92046FFF791
:10769C00DFFF204604B010BD10B504468AB00023AD
:1076AC00C4E90033A3602373084601A900F0B6FABD
:1076BC0001A92046FFF7CCFF20460AB010BD70B5DB
:1076CC0005460E4609B9002070BD6AB184681444A1
:1076DC002146FFF739FF0028F5D02868AB68314602
:1076EC00184400F0A1FCAC600120EDE78A68096841
:1076FC00FFF7E5BF13B50446084651B10191FDF7FC
:10770C00B3F801990246204602B0BDE81040FFF7DD
:10771C00D6BF02B010BD10B58A6809680446FFF7E1
:10772C00CEFF10B92046FFF7F8FE204610BD13B56A
:10773C00044629B92046FFF7F0FE204602B010BDE2
:10774C0008460191FDF790F8019902462046FFF793
:10775C00B6FF0028EED0F0E708B582683AB921B13F
:10776C000878B0FA80F0400900E0012008BD0068FC
:10777C0009B90078F5E7FDF76DF8F2E70EB470B5CE
:10778C0087B00BAD044655F8042B01922B4605210E
:10779C0004A80395FEF7F2FF0B4906462046FFF7B7
:1077AC0000FF31462046FFF7CFFE206830B1019A2A
:1077BC0003952B46711CFEF7E1FFA060204607B035
:1077CC00BDE8704003B0704799830B0010B52024BE
:1077DC0088B022460021684600F0EFFB0021684685
:1077EC00ADF80040FEF74EFD019808B010BD00004A
:1077FC00054B02221A60054B054A9A600020C3E92A
:10780C000000FEF7B7BE00BFC4E60320B8E60320B5
:10781C000000FFFF2DE9F041154ADFF86080D2E946
:10782C000063801943EB0101124BD3E90067D8E9DF
:10783C000023861941EB0707BB4208BFB2428CB04C
:10784C0013D003A96846CDE90067FEF7C7FF089B74
:10785C00094D03F26C7303AC08930FCC0FC50FCC1E
:10786C000FC5C8E9006723682B600CB0BDE8F08138
:10787C00F8E60320F0E60320CCE6032000E7032023
:10788C0008B50020FEF7E2FE28B1FEF7BFFE80F03F
:10789C000100C0B208BD0120FCE7000008B5FFF7ED
:1078AC00B9FF044B986818B10C2800DD0C3808BDE2
:1078BC000C20FCE7CCE6032008B5FFF7ABFF034B2D
:1078CC0098680B28D4BF0020012008BDCCE603200B
:1078DC0008B5FFF79FFF014B586808BDCCE60320A5
:1078EC0008B5FFF797FF014B186808BDCCE60320DD
:1078FC0008B5FFF78FFF024B1869013008BD00BFB8
:10790C00CCE60320FAEE087AB4EEE70AF1EE10FAB0
:10791C0008B511D4F2EE0C7AB4EEE70AF1EE10FAD7
:10792C000ADCDFED067A60EE277A17EE900AFCF798
:10793C005DFF034BC3E9000108BD00BF00006145BA
:10794C00F8E6032010B50020FEF7B4FC0446A0B9FD
:10795C00FEF708FE012810D12046FEF72BFE60B979
:10796C00FFF78EFF10B9FEF741FEF9E7FFF788FF2E
:10797C00BDE810400020FEF79DBC204610BD1FB591
:10798C00FFF7E0FF10220021684600F016FB0021F3
:10799C006846FEF797FC009805B05DF804FB08B547
:1079AC00FFF7EDFFBDE80840C117FFF785BF0000EA
:1079BC0008B5FFF7E4FFC117FFF72CFF014BD868A0
:1079CC0008BD00BFCCE6032008B5FFF7D8FFBDE823
:1079DC000840C117FFF78CBF08B5FFF7D0FFC117E0
:1079EC00FFF718FF014B586908BD00BFCCE6032018
:1079FC00024B1A68024B1A60704700BF4CDE032022
:107A0C00C8E6032070474174704708B5007CFEF748
:107A1C0061FD20EAE07008BD08B5007CFEF732FD80
:107A2C0020EAE07008BD08B5007CFEF73BFD40EA9B
:107A3C00E07008BD08B5007CFEF72CFD40EAE07054
:107A4C0008BD007CFEF736BD37B5457C04462DB12C
:107A5C00207C03B0BDE83040FEF70CBD007C0191EA
:107A6C00FEF738FD00280199F2DC284603B030BD42
:107A7C0010B514210446FCF73EFF204610BD000053
:107A8C0010B54FF47A730446084611460022C4E937
:107A9C000123044B2360012320746374FEF722FD41
:107AAC00204610BD2CBD0B004174704770477047C9
:107ABC0008B50021007CFEF73DFD40EAE07008BDF2
:107ACC0008B50121007CFEF735FD40EAE07008BDE9
:107ADC0008B5007CFEF726FD20EAE07008BD08B56D
:107AEC00007CFEF717FD20EAE07008BD13B50446D4
:107AFC00007C0191FEF716FD0028019901DC607CE9
:107B0C0020B1207CFEF71EFD20EAE07002B010BD13
:107B1C00007CFEF71FBD10B514210446FCF7EBFEEC
:107B2C00204610BD10B54FF47A7304460846002168
:107B3C00C4E90113044B23600123207463741146C0
:107B4C00FEF7D8FC204610BD5CBD0B00007C00226B
:107B5C00FEF7D8BC10B514220446002100F02DFA13
:107B6C00204610BD10B50F4C88B003A8FFF7F2FFEC
:107B7C002178BFF35B8F11F001010FD120460191E9
:107B8C00FCF7BBFE019948B103AA0748FFF7CAFFEF
:107B9C002046FCF7B7FE054800F0F7F9024808B09C
:107BAC0010BD00BF08E703200CE70320B97A0B00D7
:107BBC0010B50446FCF758FE0138231820468342C2
:107BCC0006D90278197800F8011B03F80129F6E7A9
:107BDC0010BD70B50C46911E22291DD8254630B912
:107BEC00234430229D4210D205F8012BFAE7B0FB5A
:107BFC00F2F602FB1600C1B2092894BF303157319E
:107C0C00C9B205F8011B3046E9E7002320462B706A
:107C1C00FFF7CEFF204670BD0020FCE738B5031EF1
:107C2C000C4615460EDAB3F1004F4FF02D0214BF7F
:107C3C005842184601230A702A461944FFF7C9FF17
:107C4C00204638BD0123F9E708B50123FFF7C1FF32
:107C5C0008BD0000014B1860704700BF50DE0320C8
:107C6C0008B50B4B43B1FFF77DFF03681B699847C1
:107C7C00002801DDAFF30080064B43B100F05CF946
:107C8C0003681B699847002801DDAFF3008008BD2D
:107C9C00000000000000000008B5FFF7E1FFFEF750
:107CAC0001FB014B186008BD28E703200548064A74
:107CBC00064908B5121A00F072F9054B054A1A600C
:107CCC0008BD00BF00F4032004F4032034C00B00F3
:107CDC0000F403201E1C279A07B5002300931A46B4
:107CEC006FF07701FEF778FC03B05DF804FB000041
:107CFC0007B543880A2B08D0502B0BD1094B1B68B6
:107D0C004BB103B05DF804EB1847FFF7E5FF03B088
:107D1C005DF804FB002300931A466FF07701FEF721
:107D2C005BFCF4E724E7032010B512480021FEF7B2
:107D3C004DFD114B1A68114B9A42114B0CBF01228D
:107D4C0000221A7001D0FFF7B1FFFEF7A3FA044628
:107D5C0000F03CF90B4B13B12046AFF3008000212F
:107D6C000848FEF783FCBDE8104007480021FEF7E9
:107D7C0029BC00BF617C0B0000F403201E1C279A59
:107D8C0020E7032000000000FD7C0B00252813B524
:107D9C0002D9002002B010BDA0F10B03022B1AD89F
:107DAC00174C2178BFF35B8F11F001010BD12046EA
:107DBC000191FCF7A2FD019928B11248FFF7FEFAD8
:107DCC002046FCF79FFD0F4B1878FEF72BFB002885
:107DDC00DFD10120DEE7012809D800F06DF8002181
:107DEC00007CFEF7D7FA80F00100C0B2D2E7093868
:107DFC000128EED800F0A0F8007CFEF763FBF2E758
:107E0C0054E6032058E60320252838B504460D46D1
:107E1C000AD8FF2908D0FFF7B9FF28B12946204618
:107E2C00BDE83840FEF756BA38BD38B504460D46A5
:107E3C00FEF758FAFF2810D0062804D84D2323FA51
:107E4C0000F0C30709D42046FFF7A0FF28B129464C
:107E5C002046BDE83840FEF74DBA38BD10B5044693
:107E6C00FEF740FA031FDBB2012B08D92046FFF7BF
:107E7C008DFF20B12046BDE81040FEF743BA00202C
:107E8C0010BD704738B50A4B0360012304464361AB
:107E9C000849202000F074F8202560600549A56091
:107EAC00284600F06DF8C4E90305204638BD00BF34
:107EBC001800010084BD0B0030B50E4D2978BFF3BE
:107ECC005B8F11F0010487B011D12846FCF715FD2A
:107EDC0068B16846FFF7D6FF6A4621460648FFF7A9
:107EEC003DF82846FCF70EFD044800F04EF8024819
:107EFC0007B030BD2CE7032030E703208F7E0B004A
:107F0C007047000038B5044614252A46002100F0BD
:107F1C0054F825804025074925812846258200F004
:107F2C002FF804496060284600F02AF8E0602046EB
:107F3C0038BD00BF84BD0B0030B50E4D2978BFF3A2
:107F4C005B8F11F0010487B011D12846FCF7D5FCEA
:107F5C0068B101A8FFF7D6FF01AA21460648FFF732
:107F6C008FFD2846FCF7CEFC044800F00EF80248C2
:107F7C0007B030BD44E7032048E703200D7F0B001A
:107F8C00FCF7B7BC08B5FEF701FC002301461A4606
:107F9C00184600F07DB90A22002100F06FB90A449E
:107FAC00914200F1FF3300D1704710B511F8014B2D
:107FBC0003F8014F9142F9D110BD0244034693429C
:107FCC0000D1704703F8011BF9E7000038B5104BDE
:107FDC001D68AB6B0446B3B91820FEF7B7FB02461D
:107FEC00A86320B90B4B0C484221FEF7E7FB0B4969
:107FFC000B4BC0E900130B4B83600B2383810021D7
:10800C000120C2E90401AB6B00221C615A6138BD2E
:10801C0050DE032085BD0B009CBD0B000E33CDAB99
:10802C0034126DE6ECDE0500034611F8012B03F863
:10803C00012B002AF9D17047024B0146186800F059
:10804C0003B800BF50DE032037B5044608460D4682
:10805C00FCF70AFC421C114620460192FEF79EFBDF
:10806C00044618B1019A2946FFF799FF204603B040
:10807C0030BD10B57AB103460139841813F8010BE1
:10808C0011F8012F904201D1A34201D1801A10BDE9
:10809C000028F3D1FAE71046F9E710B50139034689
:1080AC0032B111F8014F03F8014B013A002CF7D112
:1080BC001A440021934200D110BD03F8011BF9E7CB
:1080CC00164B73B51E68B46D0546FCB95020019172
:1080DC00FEF73CFB0199B065024620B9104B1148E4
:1080EC005721FEF76BFBC0E90044C0E90244C0E92C
:1080FC000444C0E90A44C0E90C44C0E90E44C0E998
:10810C001044C0E91244846104774462B26D0123C7
:10811C00284602B0BDE8704000F006B850DE0320DF
:10812C0085BD0B00F5BD0B00F0B508B9106888B122
:10813C000446204614F8015B0F4617F8016B1EB974
:10814C0065B91560284605E0B542F6D1002BF0D193
:10815C0014600370F0BD1C460CE015B914F8013B1B
:10816C000E4616F8015BAB42F7D1002BF3D000237F
:10817C0004F8013C1460EDE7012B2DE9F04701D028
:10818C00242B06D9FEF712FB162303600020BDE852
:10819C00F087DFF8E4C00D462E4615F8014B14F8B5
:1081AC000C7017F00807F7D12D2C32D12C78012741
:1081BC00B51C002B5BD0102B09D1302C07D12C789F
:1081CC0004F0DF04582C4DD16C781023023507F1E4
:1081DC00004808F1FF384FF0000CB8FBF3F9664685
:1081EC0003FB198AA4F1300EBEF1090F16D87446A0
:1081FC00A34224DDBCF1000F1EDBB1451CD301D121
:10820C00A24519DB06FB03464FF0010C15F8014B98
:10821C00E8E72B2C04BF2C78B51CCAE7A4F1410E5F
:10822C00BEF1190F01D8373CE2E7A4F1610EBEF1A3
:10823C00190F04D8573CDBE74FF0FF3CE6E7BCF1E5
:10824C00000F05DA22230360464642B930469EE70A
:10825C0007B17642002AF9D0BCF1000F00D0691E9C
:10826C001160F3E73024002BB1D10823AFE7302C99
:10827C00A5D00A23ABE700BF51BE0B0013460A463C
:10828C00014602480068FFF777BF00BF50DE0320AD
:10829C002DE9F843DFF8B8800646D8F800001F46F1
:1082AC000D46914600F056F8254B1C6834B9254C08
:1082BC001C60254B13B11B68C4F8883063681F2BF6
:1082CC0007DDD8F8000000F047F84FF0FF30BDE8AC
:1082DC00F8834EB3D4F8880088B91C4B23B9D8F86E
:1082EC00000000F038F8F0E74FF48470FEF72EFA37
:1082FC000028F4D00023C0E94033C4F88800636838
:10830C0040F8239001229A4000EB8301D0F8003111
:10831C001343C0F80031022EC1F8807002BFD0F8B0
:10832C0004311343C0F804316368D8F800005A1CB8
:10833C000233626044F8235000F00EF80020C6E7C8
:10834C00E8E703205CE703200000000059670B00FE
:10835C00B4DE0320704770477047000085480B005F
:10836C00C1480B00E9480B00ED480B000000000071
:10837C007C005570646174696E6720452D50617086
:10838C00657220446973706C61790D0A2000466136
:10839C00696C656420746F20696E697469616C69BD
:1083AC007A6520646973706C6179005449544C454A
:1083BC00005374617274200054696D6500456E64DD
:1083CC002020200042415454455259202500546924
:1083DC006D65205A6F6E6500494E53545255435487
:1083EC004F523A0053746172736869702049465455
:1083FC0033202D20005768617420746F20657870CD
:10840C00656374200066726F6D20746865206E65FC
:10841C0078742000666C69676874207465737400E6
:10842C002530326900414D00504D002D0054004361
:10843C00616C6C696E6720456E6420506F696E7458
:10844C002066756E6374696F6E2E2E2E00667265D3
:10845C0065206D656D6F72793A2000494620537422
:10846C006174656D656E7420657865637574696E8D
:10847C006700686F6F6B2D726573706F6E73652F0D
:10848C006765745F6461746100496E697469616CDD
:10849C00697A696E6720504E3533320053656E64CD
:1084AC00696E6720524649442064617461007B22E6
:1084BC005363616E73223A5B7B224576656E744919
:1084CC0064223A25642C225265616465724D6F6496
:1084DC0065223A222573222C2254696D65537461EE
:1084EC006D70223A222573222C224964656E7469C0
:1084FC0066696572223A222573227D2C7B22457691
:10850C00656E744964223A25642C22526561646557
:10851C00724D6F6465223A222573222C2254696DA8
:10852C00655374616D70223A222573222C224964A2
:10853C00656E746966696572223A222573227D5DC7
:10854C007D00446576696365206461746100436CE9
:10855C00656172696E6720537472696E672062750B
:10856C0066666572004641494C4544202D20504CAE
:10857C0045415345205343414E20414741494E21EB
:10858C00002C005075626C69736820646174612002
:10859C006F6E20636F756E74005075626C697368D2
:1085AC002064617461206F6E2074696D65004C44A9
:1085BC004F20446973636F6E6E6563746564006409
:1085CC00656661756C7420004D5342004C5342003B
:1085DC003C53504953657474696E677320646566C7
:1085EC0061756C743E003C53504953657474696EEC
:1085FC0067732025732575202573204D4F44452521
:10860C00753E00000000000000000000D1580B0077
:10861C00A3580B00A5580B00000000000000000040
:10862C00000000000000000000000000000000003E
:10863C00000000000000000000000C000C000C000A
:10864C000C000C000C000C000C0000000C000000D6
:10865C000000000000000000000000001DC01DC054
:10866C000880088008800000000000000000000066
:10867C00000000000000000000000D800D800D8047
:10868C000D803FC01B003FC01B001B001B001B00CC
:10869C00000000000000000004001F8031803180C9
:1086AC0038001E000F000380318031803F00040031
:1086BC00040000000000000000001800240024004A
:1086CC0018C007801E00318002400240018000006B
:1086DC000000000000000000000000000F00180067
:1086EC00180018000C001D80370033001D8000009E
:1086FC000000000000000000000000000700070060
:10870C000200020002000000000000000000000057
:10871C000000000000000000000003000300060041
:10872C000E000C000C000C000C000E0006000300E8
:10873C0003000000000000000000180018000C00EE
:10874C000600060006000600060006000C001C00D1
:10875C0018000000000000000000060006003FC0EA
:10876C003FC00F001F8019800000000000000000B7
:10877C0000000000000000000000000000000400E9
:10878C00040004003F80040004000400000000000A
:10879C0000000000000000000000000000000000CD
:1087AC0000000000000000000000060004000C00A7
:1087BC00080008000000000000000000000000009D
:1087CC00000000003F8000000000000000000000DE
:1087DC00000000000000000000000000000000008D
:1087EC00000000000000000000000C000C00000065
:1087FC00000000000000000000C000C001800180EB
:10880C000300030006000C000C00180018003000D8
:10881C00300000000000000000000E001B00318042
:10882C00318031803180318031801B000E0000009E
:10883C000000000000000000000006003E000600E2
:10884C000600060006000600060006003FC00000F9
:10885C00000000000000000000000F0019803180B3
:10886C003180030006000C00180030003F8000002F
:10887C00000000000000000000003F00618001804B
:10888C0003001F0003800180018061803F00000015
:10889C0000000000000000000000070007000F00AF
:1088AC000B001B00130033003F8003000F800000FF
:1088BC00000000000000000000001F8018001800DD
:1088CC0018001F0011800180018021801F00000012
:1088DC000000000000000000000007801C001800D1
:1088EC003000370039803180318019800F00000052
:1088FC00000000000000000000007F0043000300A7
:10890C0006000600060006000C000C000C0000001F
:10891C00000000000000000000001F0031803180CA
:10892C0031801F0031803180318031801F00000088
:10893C00000000000000000000001E003300318029
:10894C00318033801D800180030007003C00000053
:10895C00000000000000000000000000000000000B
:10896C000C000C000000000000000C000C000000CB
:10897C0000000000000000000000000000000000EB
:10898C0003000300000000000000060004000800C3
:10899C0008000000000000000000000000C0030000
:1089AC0004001800600018000400030000C0000060
:1089BC0000000000000000000000000000000000AB
:1089CC0000007FC000007FC000000000000000001D
:1089DC000000000000000000000000006000180013
:1089EC000400030000C00300040018006000000035
:1089FC000000000000000000000000001F0031809B
:108A0C003180018007000C000C0000000C000000FD
:108A1C00000000000000000000000E00110021000A
:108A2C0021002700290029002700200011000E003A
:108A3C000000000000000000000000003F000F00DC
:108A4C000900198019801F8030C030C079E0000007
:108A5C000000000000000000000000007F003180DA
:108A6C00318031803F003180318031807F000000C7
:108A7C000000000000000000000000001F4030C09B
:108A8C006040600060006000604030801F000000AB
:108A9C000000000000000000000000007F0031809A
:108AAC0030C030C030C030C030C031807F000000DA
:108ABC000000000000000000000000007F803080FB
:108ACC00308032003E003200308030807F800000E9
:108ADC000000000000000000000000007FC03040DB
:108AEC00304032003E003200300030007C0000008C
:108AFC000000000000000000000000001E8031801B
:108B0C0060806000600067C0618031801F000000E1
:108B1C000000000000000000000000007BC031805D
:108B2C00318031803F803180318031807BC00000CA
:108B3C000000000000000000000000003FC0060024
:108B4C000600060006000600060006003FC00000F6
:108B5C000000000000000000000000001FC0030027
:108B6C000300030003006300630063003E00000089
:108B7C000000000000000000000000007BC03180FD
:108B8C00330036003C003E003300318079C00000D9
:108B9C000000000000000000000000007E00180033
:108BAC001800180018001840184018407FC000002A
:108BBC00000000000000000000000000E0E060C0C9
:108BCC0071C07BC06AC06EC064C060C0FBE00000B6
:108BDC0000000000000000000000000073C03180A5
:108BEC0039803D803580378033803180798000003A
:108BFC000000000000000000000000001F00318099
:108C0C0060C060C060C060C060C031801F000000E8
:108C1C000000000000000000000000007F00318018
:108C2C003180318031803F00300030007E00000008
:108C3C000000000000000000000000001F00318058
:108C4C0060C060C060C060C060C031801F000CC0DC
:108C5C001F80000000000000000000007F00318039
:108C6C00318031803E003300318031807CE0000067
:108C7C000000000000000000000000001F80318098
:108C8C00318038001F000380318031803F000000AC
:108C9C000000000000000000000000007F804C80FD
:108CAC004C804C800C000C000C000C003F000000B1
:108CBC000000000000000000000000007BC03180BC
:108CCC003180318031803180318031801F00000053
:108CDC000000000000000000000000007BC031809C
:108CEC0031801B001B001B000A000E000E00000050
:108CFC00000000000000000000000000FBE060C06D
:108D0C0064C06EC06EC02A803B803B803180000006
:108D1C000000000000000000000000007BC031805B
:108D2C001B000E000E000E001B0031807BC00000EB
:108D3C0000000000000000000000000079E030C0DE
:108D4C0019800F0006000600060006001F800000B8
:108D5C000000000000000000000000003F802180A7
:108D6C002300060004000C00188030803F800000B7
:108D7C000000000000000000000007800600060054
:108D8C0006000600060006000600060006000600A7
:108D9C0007800000000000003000300018001800B0
:108DAC000C000C000600030003000180018000C0D1
:108DBC0000C000000000000000001E0006000600BD
:108DCC000600060006000600060006000600060067
:108DDC001E0000000000000004000A000A00110040
:108DEC002080208000000000000000000000000037
:108DFC000000000000000000000000000000000067
:108E0C000000000000000000000000000000000056
:108E1C00000000000000FFE0080004000200000059
:108E2C000000000000000000000000000000000036
:108E3C000000000000000000000000000000000026
:108E4C001F00018001801F80318033801DC0000015
:108E5C000000000000000000000070003000300036
:108E6C003700398030C030C030C039807700000006
:108E7C0000000000000000000000000000000000E6
:108E8C001E80318060806000608031801F00000097
:108E9C000000000000000000000003800180018041
:108EAC001D80338061806180618033801DC0000033
:108EBC0000000000000000000000000000000000A6
:108ECC001F00318060C07FC0600030C01F80000078
:108EDC000000000000000000000007E00C000C0087
:108EEC003F800C000C000C000C000C003F800000BC
:108EFC000000000000000000000000000000000066
:108F0C001DC0338061806180618033801D80018051
:108F1C0001801F00000000000000700030003000D5
:108F2C003700398031803180318031807BC0000046
:108F3C000000000000000000000006000600000019
:108F4C001E00060006000600060006003FC00000DA
:108F5C0000000000000000000000060006000000F9
:108F6C003F000300030003000300030003000300A1
:108F7C0003003E00000000000000700030003000D4
:108F8C00378036003C003C003600330077C00000D0
:108F9C00000000000000000000001E00060006009B
:108FAC000600060006000600060006003FC0000092
:108FBC0000000000000000000000000000000000A5
:108FCC007F8036C036C036C036C036C076E0000072
:108FDC000000000000000000000000000000000085
:108FEC007700398031803180318031807BC0000046
:108FFC000000000000000000000000000000000065
:10900C001F00318060C060C060C031801F00000054
:10901C000000000000000000000000000000000044
:10902C007700398030C030C030C039803700300014
:10903C0030007C0000000000000000000000000078
:10904C001DC0338061806180618033801D80018010
:10905C00018007C0000000000000000000000000BC
:10906C007B801CC018001800180018007F0000003E
:10907C0000000000000000000000000000000000E4
:10908C001F8031803C001F00038031803F000000B6
:10909C00000000000000000000001800180018007C
:1090AC007F00180018001800180018800F0000002E
:1090BC0000000000000000000000000000000000A4
:1090CC007380318031803180318033801DC000004D
:1090DC000000000000000000000000000000000084
:1090EC007BC0318031801B001B000E000E00000085
:1090FC000000000000000000000000000000000064
:10910C00F1E060C064C06EC03B803B8031800000E9
:10911C000000000000000000000000000000000043
:10912C007BC01B000E000E000E001B007BC000005D
:10913C000000000000000000000000000000000023
:10914C0079E030C0198019800B000F000600060072
:10915C000C003E00000000000000000000000000B9
:10916C003F80218003000E00180030803F800000FB
:10917C000000000000000000000006000C000C00C5
:10918C000C000C000C0018000C000C000C000C0067
:10919C0006000000000000000000060006000600AB
:1091AC000600060006000600060006000600060083
:1091BC00060000000000000000000C000600060085
:1091CC000600060006000300060006000600060066
:1091DC000C00000000000000000000000000000077
:1091EC0000001800248003000000000000000000B4
:1091FC000000000000000000000000000000000063
:10920C000000000000000000000000000000000052
:10921C000000000000000000000000000000000042
:10922C000000070007000700070007000700070001
:10923C000200020000000000070007000000000010
:10924C000000000000000000000000001CE01CE01A
:10925C001CE008400840084000000000000000002E
:10926C0000000000000000000000000000000000F2
:10927C000CC00CC00CC00CC00CC03FF03FF00CC0BC
:10928C000CC03FF03FF00CC00CC00CC00CC00CC0AC
:10929C0000000000000000000300030007E00FE0E6
:1092AC00186018001F000FC000E0186018601FC085
:1092BC001F800300030003000000000000000000FA
:1092CC0000001C002200220022001C6001E00F8024
:1092DC003C0031C002200220022001C0000000002E
:1092EC00000000000000000000000000000003E08F
:1092FC000FE00C000C0006000F301FF019E018C036
:10930C001FF007B00000000000000000000000008B
:10931C0000000000038003800380010001000100B5
:10932C000000000000000000000000000000000031
:10933C000000000000000000000000C000C0018020
:10934C0001800180030003000300030003000300FD
:10935C0001800180018000C000C0000000000000FE
:10936C0000000C000C0006000600060003000300C1
:10937C0003000300030003000600060006000C00B7
:10938C000C000000000000000000030003000300BC
:10939C001B601FE0078007800FC00CC0000000009E
:1093AC0000000000000000000000000000000000B1
:1093BC0000000000000003000300030003003FF066
:1093CC003FF0030003000300030000000000000056
:1093DC000000000000000000000000000000000081
:1093EC0000000000000000000000000000000380EE
:1093FC00030003000600060004000000000000004B
:10940C0000000000000000000000000000003FE031
:10941C003FE0000000000000000000000000000021
:10942C000000000000000000000000000000000030
:10943C00000000000000000000000000000003809D
:10944C00038003800000000000000000000000000A
:10945C000060006000C000C000C0018001800300FB
:10946C000300060006000C000C000C00180018008D
:10947C00000000000000000000000F801FC018C09A
:10948C00306030603060306030603060306018C008
:10949C001FC00F8000000000000000000000000052
:1094AC00000003001F001F00030003000300030063
:1094BC0003000300030003001FE01FE00000000096
:1094CC00000000000000000000000F801FC038E00A
:1094DC003060006000C00180030006000C00180022
:1094EC003FE03FE000000000000000000000000032
:1094FC0000000F803FC030E0006000E007C007C0F4
:10950C0000E00060006060E07FC03F800000000071
:10951C000000000000000000000001C003C003C0F8
:10952C0006C00CC00CC018C030C03FE03FE000C00B
:10953C0003E003E000000000000000000000000059
:10954C0000001FC01FC0180018001F801FC018E0AB
:10955C0000600060006030E03FC01F800000000031
:10956C000000000000000000000003E00FE01E00FF
:10957C001800380037803FC038E03060306018E0A9
:10958C001FC0078000000000000000000000000069
:10959C0000003FE03FE03060006000C000C000C051
:1095AC000180018001800300030003000000000023
:1095BC00000000000000000000000F801FC038E019
:1095CC00306038E01FC01FC038E03060306038E0D9
:1095DC001FC00F8000000000000000000000000011
:1095EC0000000F001FC038C03060306038E01FE052
:1095FC000F6000E000C003C03F803E000000000090
:10960C00000000000000000000000000000000004E
:10961C000000038003800380000000000000038032
:10962C000380038000000000000000000000000028
:10963C000000000000000000000001C001C001C0DB
:10964C000000000000000380030006000600040078
:10965C0000000000000000000000000000000030CE
:10966C0000F003C007001C0078001C00070003C0BA
:10967C0000F00030000000000000000000000000BE
:10968C00000000000000000000007FF07FF00000F0
:10969C0000007FF07FF000000000000000000000E0
:1096AC00000000000000000000000000000030007E
:1096BC003C000F00038000E0007800E003800F0006
:1096CC003C00300000000000000000000000000022
:1096DC00000000000F801FC018601860006001C0FF
:1096EC0003800300000000000700070000000000DA
:1096FC000000000000000000000003800C80084007
:10970C001040104011C012401240124011C0100005
:10971C000800084007800000000000000000000066
:10972C00000000001F801F80038006C006C00CC014
:10973C000C601FE01FE03030787878780000000073
:10974C000000000000000000000000003F803FC04F
:10975C001860186018E01FC01FE01870183018301F
:10976C003FF03FE00000000000000000000000009F
:10977C000000000007B00FF01C70383030003000D3
:10978C003000300038301C700FE007C000000000C3
:10979C000000000000000000000000007F807FC07F
:1097AC0030E030703030303030303030307030E0CD
:1097BC007FC07F800000000000000000000000005F
:1097CC00000000003FF03FF01830183019801F8067
:1097DC001F801980183018303FF03FF00000000057
:1097EC000000000000000000000000003FF03FF00F
:1097FC001830183019801F801F801980180018002D
:10980C003F003F00000000000000000000000000CE
:10981C000000000007B01FF018703030300030002E
:10982C0031F831F8303018301FF007C0000000005C
:10983C000000000000000000000000003CF03CF0C4
:10984C001860186018601FE01FE01860186018603E
:10985C003CF03CF0000000000000000000000000A4
:10986C00000000001FE01FE00300030003000300E2
:10987C0003000300030003001FE01FE000000000D2
:10988C0000000000000000000000000003F803F8D6
:10989C00006000600060006030603060306030E07C
:1098AC003FC00F800000000000000000000000001E
:1098BC00000000003EF83EF818E019801B001F0065
:1098CC001D8018C018C018603E783E38000000009B
:1098DC000000000000000000000000003F003F00FE
:1098EC000C000C000C000C000C000C300C300C307C
:1098FC003FF03FF0000000000000000000000000FE
:10990C00000000007878787838703CF034B037B0CC
:10991C0037B03330333030307CF87CF80000000046
:10992C0000000000000000000000000039F03DF0D5
:10993C001C601E601E601B601B6019E019E018E0C3
:10994C003EE03E600000000000000000000000004F
:10995C000000000007800FC01CE038703030303041
:10996C003030303038701CE00FC007800000000031
:10997C000000000000000000000000003FC03FE0BD
:10998C0018701830183018701FE01FC0180018001D
:10999C003F003F000000000000000000000000003D
:1099AC000000000007800FC01CE0387030303030F1
:1099BC003030303038701CE00FC0078007B00FF02B
:1099CC000CE0000000000000000000003FC03FE081
:1099DC001870183018701FE01FC018E0186018704D
:1099EC003E383E180000000000000000000000009F
:1099FC00000000000FB01FF03870303038001F80AE
:109A0C0007E00070303038703FE037C000000000D5
:109A1C000000000000000000000000003FF03FF0DC
:109A2C0033303330333003000300030003000300F2
:109A3C000FC00FC00000000000000000000000007C
:109A4C00000000003CF03CF01860186018601860D2
:109A5C001860186018601CE00FC007800000000040
:109A6C0000000000000000000000000078F078F01A
:109A7C003060306018C018C00D800D800D8007005C
:109A8C0007000700000000000000000000000000BC
:109A9C00000000007C7C7C7C301833983398339821
:109AAC0036D816D01C701C701C70183000000000CA
:109ABC0000000000000000000000000078F078F0CA
:109ACC00306018C00D80070007000D8018C0306092
