:02000002B0004C
:1040000000400B0022C20B00000006001900050250
:0840100004017D150000000011
:04401800BC850B0058
:1040200081F0004102E000BF83F0004330B54FEA69
:1040300041044FEA430594EA050F08BF90EA020FD6
:104040001FBF54EA000C55EA020C7FEA645C7FEA69
:10405000655C00F0E2804FEA5454D4EB5555B8BF8C
:104060006D420CDD2C4480EA020281EA030382EAFD
:10407000000083EA010180EA020281EA0303362D8F
:1040800088BF30BD11F0004F4FEA01314FF4801C62
:104090004CEA113102D0404261EB410113F0004F74
:1040A0004FEA03334CEA133302D0524263EB43032B
:1040B00094EA050F00F0A780A4F10104D5F1200EC9
:1040C0000DDB02FA0EFC22FA05F2801841F1000124
:1040D00003FA0EF2801843FA05F359410EE0A5F1F8
:1040E00020050EF1200E012A03FA0EFC28BF4CF029
:1040F000020C43FA05F3C01851EBE37101F00045DF
:1041000007D54FF0000EDCF1000C7EEB00006EEBEB
:104110000101B1F5801F1BD3B1F5001F0CD3490875
:104120005FEA30004FEA3C0C04F101044FEA4452CC
:1041300012F5800F80F09A80BCF1004F08BF5FEA53
:10414000500C50F1000041EB045141EA050130BD33
:104150005FEA4C0C404141EB0101013C28BFB1F545
:10416000801FE9D291F0000F04BF01460020B1FA90
:1041700081F308BF2033A3F10B03B3F120020CDA63
:104180000C3208DD02F1140CC2F10C0201FA0CF041
:1041900021FA02F10CE002F11402D8BFC2F1200CA6
:1041A00001FA02F120FA0CFCDCBF41EA0C0190405C
:1041B000E41AA2BF01EB0451294330BD6FEA0404A5
:1041C0001F3C1CDA0C340EDC04F11404C4F1200290
:1041D00020FA04F001FA02F340EA030021FA04F3A2
:1041E00045EA030130BDC4F10C04C4F1200220FAF9
:1041F00002F001FA04F340EA0300294630BD21FA37
:1042000004F0294630BD94F0000F83F4801306BFFC
:1042100081F480110134013D4EE77FEA645C18BFF0
:104220007FEA655C29D094EA050F08BF90EA020F87
:1042300005D054EA000C04BF1946104630BD91EA7F
:10424000030F1EBF0021002030BD5FEA545C05D182
:104250004000494128BF41F0004130BD14F58004C1
:104260003CBF01F5801130BD01F0004545F0FE4135
:1042700041F470014FF0000030BD7FEA645C1ABF6A
:10428000194610467FEA655C1CBF0B46024650EAA1
:10429000013406BF52EA033591EA030F41F40021CD
:1042A00030BD00BF90F0000F04BF0021704730B553
:1042B0004FF4806404F132044FF000054FF0000128
:1042C00050E700BF90F0000F04BF0021704730B5E9
:1042D0004FF4806404F1320410F0004548BF4042BE
:1042E0004FF000013EE700BF42004FEAE2014FEA13
:1042F00031014FEA02701FBF12F07F4393F07F4FEE
:1043000081F06051704732F07F4208BF704793F0F0
:104310007F4F04BF41F40021704730B54FF4607403
:1043200001F0004521F000411CE700BF50EA010206
:1043300008BF704730B54FF000050AE050EA0102AF
:1043400008BF704730B511F0004502D5404261EB1F
:1043500041014FF4806404F132045FEA915C3FF460
:10436000D8AE4FF003025FEADC0C18BF03325FEAFD
:10437000DC0C18BF033202EBDC02C2F1200300FAAE
:1043800003FC20FA02F001FA03FE40EA0E0021FAD3
:1043900002F11444BDE600BF70B54FF0FF0C4CF4C1
:1043A000E06C1CEA11541DBF1CEA135594EA0C0F73
:1043B00095EA0C0F00F0DEF82C4481EA030621EAAE
:1043C0004C5123EA4C5350EA013518BF52EA0335E9
:1043D00041F4801143F4801338D0A0FB02CE4FF09B
:1043E0000005E1FB02E506F00042E0FB03E54FF0CB
:1043F0000006E1FB03569CF0000F18BF4EF0010EC3
:10440000A4F1FF04B6F5007F64F5407404D25FEABE
:104410004E0E6D4146EB060642EAC62141EA555171
:104420004FEAC52040EA5E504FEACE2EB4F1FD0CB3
:1044300088BFBCF5E06F1ED8BEF1004F08BF5FEA31
:10444000500E50F1000041EB045170BD06F00046E3
:1044500046EA010140EA020081EA0301B4EB5C0490
:10446000C2BFD4EB0C0541EA045170BD41F4801188
:104470004FF0000E013C00F3AB8014F1360FDEBFAD
:10448000002001F0004170BDC4F10004203C35DA89
:104490000C341BDC04F11404C4F1200500FA05F30C
:1044A00020FA04F001FA05F240EA020001F00042AD
:1044B00021F0004110EBD37021FA04F642EB060123
:1044C0005EEA430E08BF20EAD37070BDC4F10C044D
:1044D000C4F1200500FA04F320FA05F001FA04F211
:1044E00040EA020001F0004110EBD37041F10001FD
:1044F0005EEA430E08BF20EAD37070BDC4F1200508
:1045000000FA05F24EEA020E20FA04F301FA05F26F
:1045100043EA020321FA04F001F0004121FA04F217
:1045200020EA020000EBD3705EEA430E08BF20EAE7
:10453000D37070BD94F0000F0FD101F00046400021
:1045400041EB010111F4801F08BF013CF7D041EAA3
:10455000060195F0000F18BF704703F000465200A7
:1045600043EB030313F4801F08BF013DF7D043EA78
:104570000603704794EA0C0F0CEA135518BF95EA2E
:104580000C0F0CD050EA410618BF52EA4306D1D1B5
:1045900081EA030101F000414FF0000070BD50EAD4
:1045A000410606BF1046194652EA430619D094EA5E
:1045B0000C0F02D150EA013613D195EA0C0F05D148
:1045C00052EA03361CBF104619460AD181EA03019C
:1045D00001F0004141F0FE4141F470014FF0000054
:1045E00070BD41F0FE4141F4780170BD70B54FF0EF
:1045F000FF0C4CF4E06C1CEA11541DBF1CEA13556F
:1046000094EA0C0F95EA0C0F00F0A7F8A4EB050450
:1046100081EA030E52EA03354FEA013100F0888047
:104620004FEA03334FF0805545EA131343EA126310
:104630004FEA022245EA111545EA10654FEA0026C5
:104640000EF000419D4208BF964244F1FD0404F57E
:10465000407402D25B084FEA3202B61A65EB0305DA
:104660005B084FEA32024FF480104FF4002CB6EB97
:10467000020E75EB030E22BFB61A754640EA0C0017
:104680005B084FEA3202B6EB020E75EB030E22BF57
:10469000B61A754640EA5C005B084FEA3202B6EB98
:1046A000020E75EB030E22BFB61A754640EA9C0057
:1046B0005B084FEA3202B6EB020E75EB030E22BF27
:1046C000B61A754640EADC0055EA060E18D04FEAE5
:1046D000051545EA16754FEA06164FEAC30343EA85
:1046E00052734FEAC2025FEA1C1CC0D111F4801F52
:1046F0000BD141EA00014FF000004FF0004CB6E74B
:1047000011F4801F04BF01430020B4F1FD0C88BFE9
:10471000BCF5E06F3FF6AFAEB5EB030C04BFB6EBF4
:10472000020C5FEA500C50F1000041EB045170BDE7
:104730000EF0004E4EEA113114EB5C04C2BFD4EB14
:104740000C0541EA045170BD41F480114FF0000E98
:10475000013C90E645EA060E8DE60CEA135594EA14
:104760000C0F08BF95EA0C0F3FF43BAF94EA0C0F17
:104770000AD150EA01347FF434AF95EA0C0F7FF48C
:1047800025AF104619462CE795EA0C0F06D152EAE0
:1047900003353FF4FDAE1046194622E750EA4106C4
:1047A00018BF52EA43067FF4C5AE50EA41047FF4D5
:1047B0000DAF52EA43057FF4EBAE12E74FEA410238
:1047C00012F5001215D211D56FF47873B3EB625263
:1047D00012D94FEAC12343F0004343EA505311F08A
:1047E000004F23FA02F018BF404270474FF000001C
:1047F000704750EA013005D111F0004008BF6FF05A
:10480000004070474FF00000704700BF4A0011D2CF
:1048100012F5001211D20DD56FF47873B3EB62521A
:104820000ED44FEAC12343F0004343EA505323FA26
:1048300002F070474FF00000704750EA013002D19B
:104840004FF0FF3070474FF00000704707EE900ABE
:10485000F5EEC07AF1EE10FA01D400F00BB8F1EEEB
:10486000677A08B517EE900A00F004F8404261EB51
:10487000410108BDD0B5FFF737FD0C4B00220646BD
:104880000F46FFF789FDFFF7C1FF0446FFF70AFD5A
:10489000074B0022FFF780FD02460B4630463946A3
:1048A000FFF7C2FBFFF7B2FF2146D0BD0000F03D8D
:1048B0000000F04110F8012B11F8013B012A28BF3C
:1048C0009A42F7D0D01A7047034613F8012B002AFA
:1048D000FBD1181A0138704709480A49884208B5BF
:1048E00005D0094A824202D0121A03F09AFC074806
:1048F000074A0021121A03F0A2FC014808BD00BFBC
:10490000E0DD03205CC10B0078DE032078DE0320AD
:10491000F0E7032070B5074E074C03F047FBA41BDC
:10492000A4080025AC4200D170BD56F8043B98475E
:104930000135F7E714C10B0038C10B0000F058B87F
:1049400008B500F0B3FDBDE8084003F0E7BA02F097
:104950001BB802F019B802F01FB80078B0FA80F066
:1049600040097047012303707047000038B51F4DA0
:104970000446294602F057FF294604F1100002F0D0
:1049800052FF294604F1200002F04DFF294604F1B0
:10499000300002F048FF294604F1400002F043FFD6
:1049A000294604F1500002F03EFF294604F1600060
:1049B00002F039FF294604F1700002F034FF294665
:1049C00004F1800002F02FFF294604F1900002F06C
:1049D0002AFF294604F1A00002F025FF294604F130
:1049E000B00002F020FF204638BD00BF34870B0026
:1049F00030B587B003F0F8F900254FF4E13103F04A
:104A0000E7F9244924482B462A46CDE9005501F010
:104A100033FF0124032241F2883303A8CDE90323A5
:104A2000ADF8144002F003F92146162003F02EFBE6
:104A30002146162003F03BFB2146092003F026FB0C
:104A40002946092003F033FB2146172003F01EFB03
:104A50002146172003F02BFB1048114D114C01F09B
:104A600057FA03F0C1F902F07AFD03F0BDF90E49DF
:104A700002F06EFD284601F0EFFC40B903F0B4F9F6
:104A8000214602F065FD642001F0D6FFF2E707B091
:104A900030BD00BF4D510B00D0850B00E0E003207E
:104AA0003CE1032002870B00E7850B002DE9F04174
:104AB000ADF5434DAAB010A800F076FD03F094F9CF
:104AC0000A4902F045FD10A800F0BCFD044688B17B
:104AD00003F08AF9064902F03BFD10A800F05EFDE4
:104AE0000DF5434D2AB0BDE8F08100BFFA850B00FB
:104AF00016860B0010A800F092FE4FF494734FF44A
:104B0000C87216A904A800F088FF04A8012100F0CB
:104B1000B5FFDFF86C83C64D04A8022100F0C9FF81
:104B200004A8C44B0194CDF8008005220A2101F0AD
:104B30003FF8009504A8C04B019491220A2101F08E
:104B400037F8CDE90054BD4BA52204A80A2101F095
:104B50002FF8BB490CA802F0B2FE0C9BCDE9005423
:104B6000A522732104A801F023F80CA802F010FE7E
:104B7000CDE9005404A8B34B9122CD2101F018F8DF
:104B8000CDE90054AD4BA52204A8CD2101F010F8C9
:104B9000AD490CA802F093FE0C9BCDE90054A52270
:104BA0004FF49B7104A801F003F878260CA802F0DA
:104BB000EFFD009604A80194642323220A2101F04A
:104BC0006BF81B22009204A801946E230A2101F0C5
:104BD00063F86E23CDE90064194604A81B2201F096
:104BE0005BF88C27CDE90064324604A840F28B13B1
:104BF0006E2101F051F8B92600973A4604A80194B5
:104C0000BE230A2101F048F80096324604A8019418
:104C1000BE230A2101F040F8BE23CDE900643A46E4
:104C2000194604A801F038F8C823CDE900643A46D3
:104C3000194604A801F030F8CDE90064324604A812
:104C40004FF4C373C82101F027F8CDE900743A4648
:104C500004A84FF4C373C82101F01EF8CDE9006425
:104C6000324604A84FF491764FF4C373CD2101F07E
:104C700013F8009604A801944FF48273E6220A21E7
:104C800000F0CEFFCDE9006404A84FF4C373C8223E
:104C90004FF48C7100F0C4FFDE236C4F00930126AB
:104CA00004A801944FF4C373C8224FF48C7100F030
:104CB000F3FF04A8664B01960097CD2240F21D1128
:104CC00000F076FF08AB0393624B039819680A2241
:104CD00002F024FE03990CA802F0F1FD5E490CA835
:104CE00002F067FECDE90074E32203684FF4A0717F
:104CF00004A800F05DFF0CA802F04AFD039802F042
:104D000047FD4FF48573009304A801944FF4C373D7
:104D1000F4224FF48C7100F0BFFF504BF92204A82D
:104D2000CDE9007640F21D1100F042FF4C490CA87D
:104D300002F0C5FD0C9B40F20F1240F2311104A8A5
:104D4000CDE9007400F034FF0CA802F021FDC82367
:104D5000009304A801944FF48273E6220A2100F024
:104D60009BFFCDE900563F4BD22204A80F2100F053
:104D70001FFF3D490CA802F0A2FD0C9BF022CDE9DB
:104D800000540F2104A800F013FF0CA802F000FD4E
:104D900036490CA802F093FD0C9B4FF482720F2150
:104DA000CDE9005404A800F003FF0CA802F0F0FCC9
:104DB00004A800F078FE039004A800F076FE0546F3
:104DC00004A800F074FE23462246CDE90050039962
:104DD00010A800F054FC314604A800F04FFE04A8CF
:104DE000022100F066FE04A8CDE90084204B0522D4
:104DF000822100F0DDFE04A8CDE900841D4B2322B2
:104E0000822100F0D5FE04A8CDE900841A4B41228E
:104E1000822100F0CDFE194B5F22822104A8CDE94A
:104E2000008400F0C5FE04A800F03DFE039029E0D8
:104E3000FCDD032033860B0039860B0040860B0017
:104E400088DF032045860B0098DF0320F4DD032074
:104E50004C860B002CE0032054860B0056860B007A
:104E6000E8DE032060860B0008DF032018DF032044
:104E70006C860B007D860B008D860B009C860B00DC
:104E800004DE032004A800F010FE054604A800F08C
:104E90000EFE234603992246CDE9005010A800F0EB
:104EA00056FC10A800F0ECFC322001F0C5FD10A863
:104EB00000F0F3FC024B04A81C6000F0C1FD0CE6FE
:104EC00038E1032000B5574B9DB0D3F8800003F0C4
:104ED000A4F907EE900AB8EEE70A02F055FE524B2D
:104EE000D3F8800003F099F907EE900AB8EEE70ACC
:104EF00002F04AFE02F085FEC11702F011FE0A22FE
:104F00000146684602F00AFD02F07BFEC11702F07E
:104F100021FE4649024604A802F072FD02F071FE2D
:104F2000C11702F01FFE4149024608A802F068FDC1
:104F300002F080FE0A2201460CA802F0EFFC02F00B
:104F400085FE0A22014610A802F0E8FC02F086FE67
:104F50000A22014614A802F0E1FC02F062FE694652
:104F600000284CD118A802F0AAFC314918A802F078
:104F700020FD04A902F011FD2D4902F01AFD08A937
:104F800002F00BFD2B4902F014FD01462A4802F005
:104F900087FC18A802F0FCFB14A918A802F08FFCEB
:104FA000264918A802F005FD10A902F0F6FC2349D5
:104FB00002F0FFFC0CA902F0F0FC214902F0F9FC20
:104FC0001D4902F0EAFC01461E4802F069FC18A8DF
:104FD00002F0DEFB14A802F0DBFB10A802F0D8FB05
:104FE0000CA802F0D5FB08A802F0D2FB04A802F03E
:104FF000CFFB684602F0CCFB1DB05DF804FB18A89F
:1050000002F05DFC0A4918A802F0D3FC04A902F0E2
:10501000C4FC074902F0CDFC08A902F0BEFC0A4915
:10502000B1E700BF78DE032038DF0320A8860B003D
:105030006A860B00AD860B00E8E00320B3860B0008
:10504000B5860B00D0E00320B0860B0038B51D4DAF
:105050001D4C696804F1200002F03CFCA96804F1D1
:10506000300002F037FCE968204602F033FC296981
:1050700004F1400002F02EFC696904F1500002F0D6
:1050800029FCA96904F1600002F024FCE96904F13B
:10509000700002F01FFC296A04F1800002F01AFC83
:1050A000696A04F1900002F015FCA96A04F1A000FD
:1050B00002F010FCE96A04F1B000BDE8384002F0EB
:1050C00009BC00BF54E0032078DE032038B51D4D35
:1050D0001D4CA96A04F1200002F0FCFBA96804F150
:1050E000300002F0F7FB296B204602F0F3FB696BFE
:1050F00004F1400002F0EEFBA96B04F1500002F055
:10510000E9FBE96B04F1600002F0E4FB296C04F1B7
:10511000700002F0DFFB696C04F1800002F0DAFB42
:10512000A96C04F1900002F0D5FBE96C04F1A00039
:1051300002F0D0FB296D04F1B000BDE8384002F068
:10514000C9BB00BF54E0032038DF032038B5154841
:10515000154C164D03F0AAF81449124803F0E0F874
:1051600030B144F8040B2946002003F0D9F8F7E7E2
:10517000FFF76CFF02F038FE0D4902F0E9F902F08A
:1051800033FE0B4902F0E4F9FFF7A0FFFFF79AFEA8
:10519000322001F051FC074B01221A60064B02221B
:1051A0001A6038BDA0E1032054E00320B7860B004D
:1051B00033870B0008E0032038E10320F8B51D48D1
:1051C00000F07FFFA0B31C491A48022201F030F81A
:1051D00001280AD002F008FE184902F0CCF9BDE817
:1051E000F8404FF4FA7001F027BC02F0FDFD1449BD
:1051F000114D144F02F0BFF902F0F6FD124902F012
:10520000A7F90024264602F0EFFD2978102202F0CB
:10521000BCF9013402F0E8FD394602F099F90A2C94
:1052200005F8016BEFD102F0DFFD02F098F9D6E747
:10523000F8BD00BF3CE10320C0E00320B9860B00AD
:10524000D5860B0014860B00E6860B0010B52DEDFD
:10525000088B294C8AB0204600F0B0FD51EC100BB1
:10526000FFF7ACFA254B1860204600F047FD51ECE3
:10527000100BFFF7A3FA224B186002F0B5FD21498D
:1052800002F079F9204600F069FD2046B0EE408A30
:10529000F0EE608A00F032FD2046B0EE409AF0EE6B
:1052A000609A00F0BDFD2046B0EE40AAF0EE60AA84
:1052B00000F0F2FD2046B0EE40BAF0EE60BA00F029
:1052C0007DFD114C114A8DED080B40218DED06BB83
:1052D0008DED04AB8DED029B8DED008B204601F032
:1052E0006BFB02F081FD21460AB0BDEC088BBDE8E6
:1052F000104002F02DB900BFE0E003202CE00320B5
:105300004CE00320EC860B00F8E0032004870B0040
:105310001C4B012210B51A701B4BA2F10112002484
:10532000C3E900449A60022001F04AFA174918487C
:1053300002F079FA1549174802F075FA1349164830
:1053400002F071FA1149154802F06DFA0F4914483C
:1053500002F069FA0D49134802F065FA0B49124848
:1053600002F061FA1148FFF701FB1148FFF7FEFA5E
:1053700022461048022100F0ABFFBDE810400E4865
:1053800000F0B4BC50E0032030E0032034870B0071
:10539000F8DF03201CE003203CE003200CE00320A6
:1053A00090E10320E8E00320D0E0032078DE032032
:1053B00038DF03203CE10320E0E0032030B585B076
:1053C00002F012FD314902F0D6F802F041FB054629
:1053D00002F00AFD2E4902F0BBF802F005FD0A2298
:1053E0000446294602F0D1F8204602F0B8F801F050
:1053F00033FA0446002846D102F0F6FC2549264D32
:1054000002F0B9F80121172002F051FE4FF47A7032
:1054100001F012FB686823462246214601F074FA27
:10542000284601F0DBFF10B901F006FAF8E71A4848
:1054300001F0D4FF01F008FA01F00EFA10B901F002
:10544000FBF9F9E701F008FA144B154A1B788DF8BF
:10545000003014493C2302A801F0ECFC039C7CB111
:105460006368013B63605BB9236820469B6898478B
:10547000A368013BA3601BB923682046DB689847FB
:10548000094B01221A6005B030BD00BF35870B0003
:1054900053870B0061870B0060E6032050E0032078
:1054A000E4DD0320DE850B0038E103207FB501F049
:1054B0001FF8304C304D206001F01AF8206001F0E8
:1054C00017F82E4A28602E48216813680068CB1A06
:1054D000834205D32B4B1B6813B91160FFF76EFF96
:1054E000294A2A48296813680068CB1A834202D3E4
:1054F0001160FFF7ABFE264D2B68012B2FD1002347
:1055000001A8CDE90133ADF80C3001F076FB01F0D4
:10551000A3F9044610B101F08FF9F8E71D4E01F030
:105520009BF9706823462246214601F0F5F9304682
:1055300001F058FF10B901F07FF9F8E7154801F0C4
:1055400051FF0A2001F078FA0021172002F0AFFD88
:1055500002F04AFC104902F00EF800232B60094BC0
:105560001B68022B01D1FFF7A1FA04B0BDE870401F
:10557000FFF724BEB8E00320BCE0032088E103204D
:10558000F0DD032038E103208CE10320E0DD03207F
:1055900008E0032060E6032078870B0010B504467E
:1055A00000F0D7F9204610BD10B5044600F0D0F940
:1055B00006220523C4E9022308210723C4E90413B2
:1055C0004FF4C8704FF49673C4E90003204610BD31
:1055D00010B50C46C068002100F0BCF92046BDE8BB
:1055E000104000F009BA10B50C46C068012100F067
:1055F000B1F92046BDE8104000F0FEB910B50446F0
:10560000606900F0ABF918B9642000F0AAF9F7E777
:1056100010BD10B501210446806800F09BF9C82038
:1056200000F09FF9A068002100F094F9022000F03A
:1056300098F9A068012100F08DF9BDE81040C8205C
:1056400000F08FB938B5044600F0AAF9054698B9BC
:105650002046FFF7DEFF04212046FFF7B9FF204672
:10566000FFF7CCFF29462046FFF7B2FF0F21204667
:10567000FFF7B9FF284638BD4FF0FF35FAE72DE9AF
:10568000F04704460F46912116469946DDE9085831
:10569000FFF79EFF9021204606F0F80AFFF798FFDB
:1056A000C6F307212046FFF79EFF51462046FFF72D
:1056B0009AFF514629440139C1F307212046FFF7DB
:1056C00092FF691E514441F00701C9B22046FFF71D
:1056D0008AFF5FFA89F6C9F307212046FFF783FFA7
:1056E00031462046FFF77FFF09EB08010139C1F37E
:1056F00007212046FFF777FF08F1FF313144C9B297
:105700002046FFF770FF01212046FFF76CFF0220C3
:1057100000F027F910212046FFF75AFF77B1002D3E
:10572000B8BF0735ED1008FB05F50026B54205DDCD
:10573000B95D2046FFF757FF0136F7E7022000F07A
:1057400010F920469221BDE8F047FFF741BF2DE94F
:10575000F04704460F46912116469946DDE9085860
:10576000FFF736FF9021204606F0F80AFFF730FFDA
:10577000C6F307212046FFF736FF51462046FFF7C4
:1057800032FF514629440139C1F307212046FFF772
:105790002AFF691E514441F00701C9B22046FFF7B4
:1057A00022FF5FFA89F6C9F307212046FFF71BFFA6
:1057B00031462046FFF717FF09EB08010139C1F315
:1057C00007212046FFF70FFF08F1FF313144C9B22E
:1057D0002046FFF708FF01212046FFF704FF0220C3
:1057E00000F0BFF813212046FFF7F2FE77B1002D3D
:1057F000B8BF0735ED1008FB05F50026B54205DDFD
:10580000B95D2046FFF7EFFE0136F7E7022000F012
:10581000A8F820469221BDE8F047FFF7D9BE38B579
:1058200010210446FFF7D4FE022000F09AF800256C
:1058300023686268DB085343AB4205D9FF21204649
:10584000FFF7D1FE0135F3E7022000F08AF81321BB
:105850002046FFF7BDFE022000F083F800252368F4
:105860006268DB085343AB4205D9FF212046FFF7AE
:10587000BAFE0135F3E7BDE83840022000F071B808
:1058800010B512210446FFF7A3FE642000F069F86A
:105890002046BDE81040FFF7B1BE10B550210446C8
:1058A000FFF796FE2046F721FFF79DFE02212046D6
:1058B000FFF78EFE2046FFF7A1FE20460721FFF7E7
:1058C00087FE2046A521BDE81040FFF78CBE70473B
:1058D00010B510210446FFF73EF8204610BD0EB467
:1058E00003B503AB002153F8042B019301F06BFEC9
:1058F00002B05DF804EB03B07047000073B50446D6
:1059000008462279A36832B1A3B90B4902B0BDE8B9
:10591000704001F01DBE094A267B094D0949647B90
:10592000012E18BF2946CDE900140749FFF7D7FF1C
:1059300002B070BD054AEFE79A870B0034870B0071
:1059400096870B0092870B00B0870B0089870B00AE
:1059500070477047C9B280B202F0A9BB80B202F0B2
:10596000BFBB01F069B8000013B50B4C2178BFF341
:105970005B8F11F001010BD120460191FEF7EDFF85
:10598000019928B1054801F05BFE2046FEF7EAFFC9
:10599000024802B010BD00BF50E6032054E60320C9
:1059A0001FB50121082002F071FB0121062002F041
:1059B0006DFB0121052002F069FB0021072002F0A8
:1059C00065FBFFF7D1FF01F045FE094B0093094B42
:1059D000029300240123ADF80C308DF80440FFF74A
:1059E000C3FF694601F060FE204604B010BD00BF51
:1059F000D8870B0080841E0010B5002104460820C3
:105A000002F055FBFFF7B0FF214601F0BBFEBDE8F9
:105A100010400121082002F04ABB30B50024C460C8
:105A200012F00704016008D002F10805524202F0AA
:105A30000701224658BF4A42AA1AC0E9012330BDD5
:105A40007047002930B515DB44688C4212DD002A0E
:105A500010DB856895420DDD02FB04120568D2104B
:105A600001F00701802444FA01F1A85649B213B1AC
:105A70000843A85430BD20EA0100FAE770B50B4690
:105A8000044600256268AA420CDD0026A268B242E4
:105A900006DD324629462046FFF7D3FF0136F5E7FB
:105AA0000135EFE770BD0068704740687047806857
:105AB0007047C1607047F0B4C7680D46144667B9B7
:105AC000002937DB47688F4234DD002A32DB8568E6
:105AD00095422FDDF0BCFFF7B4BF012F0CD1002998
:105AE00028DB82688A4225DD002C23DB4168A14245
:105AF00020DD2A46091BEDE7022F0CD1002919DB16
:105B00004168A94216DD002A14DB8268A24211DD39
:105B1000121B491BDEE7032F0CD100290ADB826828
:105B20008A4207DD002C05DB4168A14202DD521BE1
:105B30002146CFE7F0BC70472DE9F74F0C9DAC88AC
:105B4000914614F0070218BF012202EBD402EC8840
:105B5000203B63432C68884603FB024400274FF038
:105B6000800BEB88BB4220DD002609EB0702AB88E7
:105B7000B34215DD217806F0070A4BFA0AF3194201
:105B800008D00D9B019206EB08010090FFF793FFF0
:105B9000DDE90002BAF1070F08BF01340136E6E77C
:105BA0005B0718BF01340137DBE703B0BDE8F08FB6
:105BB0002DE9F341089F06460C4690465D1E15F8F8
:105BC000013F53B1099A2146CDE900723046424661
:105BD000FFF7B2FFBB881C44F1E702B0BDE8F081DB
:105BE000F8B5064617460C46CD18A54207DD2146F6
:105BF000069B3A463046FFF75EFF0134F5E7F8BDF5
:105C0000F8B506460F461446D518A54207DD2246CC
:105C1000069B39463046FFF74EFF0134F5E7F8BDE5
:105C20002DE9FF410F46DDE90A48BB421946A8BFEE
:105C30003946BB42B8BF3B46944227461D46A8BFE3
:105C400017465B1A9442B8BF1446064601333A46DB
:105C5000CDF8008003930291FFF7C2FF039B0299E6
:105C6000CDF80080224630460391FFF7B9FFE31BD1
:105C70000399CDF8008001333A4630460293FFF78E
:105C8000BFFF029BCDF828803A462946304604B033
:105C9000BDE8F041FFF7B4BF2DE9F3418B42044664
:105CA00008981E46A8BF0E468B42B8BF0B469042CE
:105CB0008046A8BF90469042ACBFC8EB0007C8EB37
:105CC00002071D460137AE4209DC099B00933146AD
:105CD0003B4642462046FFF793FF0136F3E702B00A
:105CE000BDE8F0810368C9B29B68184710B5044647
:105CF00002F024FA01F092FA204610BD10B502F02D
:105D00001DFA362101F0C0FA02F018FA0921FFF756
:105D1000E9FF02F013FA002101F0B9FA02F00EFADD
:105D200002223621012301F096FA02F007FA0368F5
:105D30005B699847044602F001FA03685B6998477B
:105D400044EA002080B2FEF7ADFA034B0022FEF7D2
:105D500023FB41EC100B10BD0000B43F10B502F066
:105D6000EDF9362101F090FA02F0E8F90821FFF789
:105D7000B9FF02F0E3F9002101F089FA02F0DEF93F
:105D800002223621012301F066FA02F0D7F90368F6
:105D90005B699847044602F0D1F903685B6998474C
:105DA00044EA002000B2FEF78DFA034B0022FEF712
:105DB000F3FA41EC100B10BD0000703F10B502F07B
:105DC000BDF9362101F060FA02F0B8F90621FFF7BB
:105DD00089FF02F0B3F9002101F059FA02F0AEF99F
:105DE0000222362101F049FA02F0A8F903685B6942
:105DF0009847044602F0A2F903685B69984744EAB1
:105E0000002080B2FEF74EFA034B0022FEF7C4FAE0
:105E100041EC100B10BD00BF0000703F00000000FF
:105E200010B502F08BF9362101F02EFA02F086F956
:105E30000A21FFF757FF02F081F9002101F027FA4C
:105E400002F07CF902223621012301F004FA02F06B
:105E500075F903685B699847044602F06FF90368B7
:105E60005B69984744EA002000B2FEF72BFA06A3CC
:105E7000D3E90023FEF790FA05A3D3E90023FEF748
:105E8000B5FB41EC100B10BD9A9999999999593F1E
:105E90007B14AE47E17A843F10B502F04FF936210A
:105EA00001F0F2F902F04AF90521FFF71BFF02F0B9
:105EB00045F9002101F0EBF902F040F90222362108
:105EC00001F0DBF902F03AF903685B699847044690
:105ED00002F034F903685B69984744EA002080B215
:105EE000FEF7E0F906A3D3E90023FEF755FA06A36F
:105EF000D3E90023FEF77AFB41EC100B10BD00BF85
:105F00007B14AE47E17A743F7B14AE47E17A843F5D
:105F100008B502F013F9362101F0B6F902F00EF9D6
:105F20006021FFF7DFFE02F009F90F21FFF7DAFE2B
:105F300002F004F90021FFF7D5FE02F0FFF801F0AE
:105F4000AAF9322000F078FD02F0F8F8362101F0CD
:105F50009BF902F0F3F8BB21FFF7C4FE02F0EEF864
:105F60000121FFF7BFFE02F0E9F80021FFF7BAFEBA
:105F700002F0E4F8BDE8084001F08DB90368C9B249
:105F80009B6818472DE9F04101320220D5B20F4637
:105F900000F052FD02F0D2F8242101F075F902F070
:105FA000CDF80021FFF7EAFF02F0C8F80021FFF763
:105FB000E5FF02F0C3F8FF21FFF7E0FF02F0BEF8B3
:105FC000036829469B68984702F0B8F86942FFF7D2
:105FD000D5FF02F0B3F8D421FFF7D0FF0024D32679
:105FE000013D04F10108E4B2AC420ADA02F0A6F87D
:105FF0000368395D9B689847395D0E44F6B24446A4
:10600000EFE702F09BF80368F1439B68C9B2984739
:1060100002F094F8036800219B68984702F08EF81C
:10602000BDE8F04101F037B930B5024690F84100C3
:10603000A0B16FF0030502F10A0000230239AD1A86
:106040002C18A14203DD10F8014B2344F8E70A4461
:10605000DB431079DBB21B1A5842584130BD1FB5E3
:10606000044690F8410050B340208DF80000012014
:106070008DF8010060208DF8020018689B88ADF84B
:1060800008301368CDF80A3023688DF803100190AA
:106090001B680E2269462046984723684FF47A729F
:1060A0005B6810212046984748B110212046FFF731
:1060B000BBFF20B1208AA0F141035842584104B0EF
:1060C00010BD1FB590F84130044613B34A238DF834
:1060D000043001238DF8053000238DF80630036865
:1060E00003221B6801A9984723684FF47A725B6802
:1060F000192120469847034658B1A37EE27D84F8D3
:106100003030637C84F82D20228BE2855A1E534266
:106110005341184604B010BD2DE9F041FF2A8AB062
:1061200005460C46164606DD394901F07CFB28463B
:106130000AB0BDE8F08191F841300BB93549F4E778
:106140000846FFF7BEFF10B933492846EDE704F1D2
:10615000270304F12D0231462046FFF780FF08B9DE
:106160002E49F2E740238DF8043001238DF80530E5
:1061700030238DF8063023688DF8076004220DEB7C
:1061800002011B682046984723684FF47A725B68C7
:1061900020212046984708B92149D6E7214902A87D
:1061A00001F041FB20212046FFF73EFF30B3238A58
:1061B000412B23D11C4FDFF874801234002614F8D1
:1061C000011BA1770F2921D8394602A801F0D4FB81
:1061D00014F8011C102206A801F08EFB06A902A8E3
:1061E00001F0C6FB06A801F0D3FA0F2E03D04146FA
:1061F00002A801F0C1FB0136102EE0D102A9284609
:1062000001F043FB02A801F0C3FA90E71022E2E795
:106210006EBD0B0056BD0B0065BD0B0074BD0B00C1
:1062200080BD0B0034870B0054BD0B0014860B009F
:1062300030B590F8413085B004460D46002B39D07A
:1062400001466846FFF768FF1B49684601F0C6FB38
:1062500030B1FF24684601F09BFA204605B030BDFE
:106260001649684601F0BAFB0028F2D11449684685
:1062700001F0B4FB0028ECD11249684601F0AEFBF6
:106280000028E6D11049684601F0A8FB0028E0D1BB
:106290000E49684601F0A2FB0028DAD104F131036F
:1062A0002946413453F8042B41F8042BA342F9D179
:1062B0000124CFE7FF24D0E765BD0B0074BD0B00C0
:1062C0008EBD0B0080BD0B0056BD0B006EBD0B00DC
:1062D00038B50446064B84F8481008461546236036
:1062E000002101F0D3FE84F84950204638BD00BF9C
:1062F000A8BD0B0038B50546652495F8480001F0A7
:10630000EFFE30B1013CA4B22CB10A2000F094FBA6
:10631000F3E7012038BD2046FCE7F7B500238DF8F0
:1063200000308DF801308DF803308DF8053090F88D
:106330004930FF22012B04460D468DF802208DF8CE
:10634000042041D1FFF7D6FF10B9002003B0F0BD03
:1063500001F0F4FE0822242100F08FFF01F0EEFE90
:1063600003685B699847261D04F10A07012000F0C5
:1063700063FB01F0E3FE03685B69984706F8010BD5
:10638000BE42F3D12046FFF7B5FF0028DDD001F073
:10639000D5FE2A1F242100F070FF01F0CFFE036814
:1063A0005B6998476FF00907063D3F1BBB199D428B
:1063B00049DD012000F040FB01F0C0FE03685B698D
:1063C000984706F8010BF1E7002B3CD11E2000F0A6
:1063D00033FB01F0B3FE0822242100F04EFF01F050
:1063E000ADFE03685B699847261D04F10A0701208A
:1063F00000F022FB01F0A2FE03685B69984706F8F3
:10640000010BBE42F3D11E2000F016FB01F096FEF8
:106410002A1F242100F031FF01F090FE03685B6920
:1064200098476FF00907063D3F1BBB199D420ADDE7
:10643000012000F001FB01F081FE03685B699847D1
:1064400006F8010BF1E70622211D684601F053FF13
:10645000B0FA80F0400979E737B5FF2380F827309C
:106460004FF0FF3304460125836280F82C3014235B
:106470008DF804308DF806308DF805508DF80750F2
:1064800001F05CFE00F0CAFE236884F8415004224B
:106490000DEB02011B68204698470A2000F0CCFA59
:1064A00023684FF47A725B680E212046984720B12A
:1064B000207CA0F115035842584103B030BD0000C4
:1064C00008B5024B1B685B6C019308BD48020300D2
:1064D00008B5024B1B685B6D019308BD34020300D5
:1064E00008B5024B1B685B68019308BD18020300E6
:1064F00008B5024B1B685B69019308BD18020300D5
:1065000008B5024B1B689B6D019308BD1802030080
:1065100008B5024B1B685B6E019308BD18020300AF
:1065200008B5024B1B689B68019308BD2C02030051
:1065300008B5024B1B68DB68019308BD2C02030001
:1065400008B5024B1B681B69019308BD2C020300B0
:1065500008B5024B1B685B69019308BD2C02030060
:1065600008B5024B1B68DB68019308BD28020300D5
:1065700008B5024B1B689B69019308BD2802030004
:1065800008B5024B1B68DB69019308BD28020300B4
:1065900008B5024B1B681B6A019308BD2802030063
:1065A00008B5024B1B685B6A019308BD2802030013
:1065B00008B5024B1B689B6A019308BD28020300C3
:1065C00008B5024B1B68DB6A019308BD2802030073
:1065D00008B5024B1B681B6B019308BD2802030022
:1065E00008B5024B1B685B6B019308BD28020300D2
:1065F00008B5024B1B681B6C019308BD2802030001
:1066000008B5024B1B681B6D019308BD28020300EF
:1066100008B5024B1B685B69019308BD6402030067
:1066200008B5024B1B689B68019308BD6802030014
:1066300008B5024B1B68DB68019308BD68020300C4
:1066400008B5024B1B681B68019308BD30020300AC
:1066500008B5024B1B685B69019308BD300203005B
:1066600008B5024B1B68DB69019308BD30020300CB
:1066700008B5024B1B681B6A019308BD300203007A
:1066800008B5024B1B685B6A019308BD300203002A
:1066900008B5024B1B68DB6B019308BD3002030099
:1066A00008B5024B1B681B6C019308BD3002030048
:1066B00008B5024B1B685B6C019308BD30020300F8
:1066C00008B5024B1B68DB68019308BD3C02030060
:1066D00008B5024B1B681B69019308BD3C0203000F
:1066E00008B5024B1B685B69019308BD3C020300BF
:1066F00008B5024B1B689B69019308BD3C0203006F
:1067000008B5024B1B68DB69019308BD3C0203001E
:1067100008B5024B1B681B6A019308BD3C020300CD
:1067200008B5024B1B689B6A019308BD3C0203003D
:1067300008B5024B1B681B6C019308BD3C020300AB
:1067400008B5024B1B681B68019308BD4C0203008F
:1067500008B5024B1B685B68019308BD4C0203003F
:1067600008B5024B1B681B69019308BD4C0203006E
:1067700008B5024B1B685B69019308BD4C0203001E
:1067800008B5024B1B689B69019308BD4C020300CE
:1067900008B5024B1B68DB69019308BD4C0203007E
:1067A00008B5024B1B681B6A019308BD4C0203002D
:1067B00008B5024B1B681B68019308BD200203004B
:1067C00008B5024B1B685B68019308BD20020300FB
:1067D00008B5024B1B685B69019308BD20020300EA
:1067E00008B5024B1B68DB6C019308BD2002030057
:1067F00008B5024B1B685B6D019308BD20020300C6
:1068000008B5024B1B689B6D019308BD2002030075
:1068100008B5034B1B68D3F88830019308BD00000E
:106820002002030008B5034B1B68D3F89430019392
:1068300008BD00002002030008B5024B1B689B68DE
:10684000019308BD4402030008B5024B1B68DB68D6
:10685000019308BD4402030008B5024B1B685B6945
:10686000019308BD4402030008B5024B1B681B6A74
:10687000019308BD4402030008B5024B1B685B6A24
:10688000019308BD4402030008B5024B1B681B6B53
:10689000019308BD4402030008B5024B1B689B6BC3
:1068A000019308BD4402030008B5024B1B68DB6B73
:1068B000019308BD4402030008B5024B1B685B6CE2
:1068C000019308BD4402030008B5024B1B685B68D6
:1068D000019308BD4002030008B5024B1B689B688A
:1068E000019308BD4002030008B5024B1B68DB683A
:1068F000019308BD4002030008B5024B1B681B69E9
:10690000019308BD4002030008B5024B1B685B6998
:10691000019308BD4002030008B5024B1B689B6948
:10692000019308BD4002030008B5024B1B68DB69F8
:10693000019308BD4002030008B5024B1B681B6AA7
:10694000019308BD4002030008B5024B1B681B6B96
:10695000019308BD4002030008B5024B1B685B6B46
:10696000019308BD4002030008B5024B1B681B6C75
:10697000019308BD4002030008B5024B1B685B6C25
:10698000019308BD4002030008B5024B1B681B6859
:10699000019308BD1C02030008B5024B1B685B682D
:1069A000019308BD1C02030008B5024B1B689B68DD
:1069B000019308BD1C02030008B5024B1B68DB698C
:1069C000019308BD1C02030008B5024B1B685B6AFB
:1069D000019308BD1C02030008B5024B1B68DB6A6B
:1069E000019308BD1C02030008B5024B1B681B6B1A
:1069F000019308BD1C02030008B5024B1B68DB6B4A
:106A0000019308BD1C02030008B5024B1B681B6CF8
:106A1000019308BD1C02030008B5024B1B685B6CA8
:106A2000019308BD1C02030008B5024B1B68DB6C18
:106A3000019308BD1C0203000021FFF7C9BE38B551
:106A4000046805467CB16368013B63605BB92368F9
:106A500020469B689847A368013BA3601BB9236845
:106A60002046DB689847284638BD10B58368044641
:106A70000BB901F0C9FBC3689847A3681BB1032297
:106A800021462046984720461021BDE81040FDF7DA
:106A900062BF10B58368044613B1032201469847CC
:106AA000204610BD13B50B460246D0E900016C46E6
:106AB00084E8030093E8030082E8030094E80300FD
:106AC00083E8030002B010BD024800230360FFF713
:106AD000F7BC00BF5CE60320002240681146FFF7C8
:106AE0000BBF002240681146FFF726BF0022406816
:106AF0001146FFF731BF40680022FFF725BF40680D
:106B0000002281F00101FFF70FBF002340681A4601
:106B10001946FFF701BF002340681A461946FFF7E0
:106B2000F3BE002240681146FFF7D6BE406800223F
:106B30000221FFF7D9BE002340681A46FFF7C4BE02
:106B4000084B10B5282422461846002101F077FB97
:106B5000054B04804FF0FF32426004225A60034A22
:106B60001A6010BD68E6032060E60320B8BD0B0084
:106B700070470020704710B510210446FDF7EBFE6A
:106B8000204610BD08B5FFF7F6FF08BD30B500225E
:106B90004FF69C74026084808D888C800C688580A0
:106BA00004600A6030BD10B504460068FFF7F4FECB
:106BB000204610BD38B5C468F4B12378022B03D148
:106BC00004F10C00FFF7EFFF656835B12846FFF7C9
:106BD00060FF10212846FDF7BEFEA56835B12846A6
:106BE000FFF757FF10212846FDF7B5FE2046142178
:106BF000BDE83840FDF7AFBE38BD1FB50C23ADF87A
:106C0000043003688DF80630037A8DF80730436846
:106C100002930021437AADF80D1001A88DF80F10F2
:106C20008DF80C30FFF748FE05B05DF804FB1FB58A
:106C30000C22ADF8042002688DF80620027A8DF847
:106C40000720426802920023427A8DF80C201946F0
:106C500001AA0220ADF80D308DF80F30FFF71CFEB1
:106C600005B05DF804FB0B6803604B68436013B12B
:106C70005A6801325A60704737B5044668460D4677
:106C8000FFF7F1FF009B019A23606260002301A8D7
:106C900001930093FFF7D3FE35B1281DFFF7CFFE18
:106CA00008212846FDF757FE204603B030BD826814
:106CB00010B50AB901F0A8FABDE81040C36818473A
:106CC00008B5006800F11001FFF7F1FF08BD826808
:106CD00010B50AB901F098FABDE81040C36818472A
:106CE00008B5006800F11001FFF7F1FF08BD0000D2
:106CF00038B500230446036010200D46FDF727FE3B
:106D000028B10123C0E90133024B0360C560206054
:106D1000204638BDF4BD0B0038B5002383608B6876
:106D200004460D462BB102229847EB68E360AB683E
:106D3000A360204638BD0000F0B589B004686846FD
:106D4000FFF724FF4FF00203D4E84F2F002A03D1AE
:106D5000C4E8413F0029F7D125D104F10C0569466B
:106D60002846FFF713FFBFF35B8F012363700020FA
:106D700004F10803BFF35B8F53E8006F43E80002A0
:106D8000002AF9D1BFF35B8F6EB1FFF729FD78B10F
:106D900029463046FFF78BFF3046FFF77AFE102179
:106DA0003046FDF7D8FD6846FFF7FDFE09B0F0BD9F
:106DB000314602A8FFF7B0FFE068B4F9105008B1FF
:106DC00001F07CFA06901020ADF81C50FDF7BFFDD5
:106DD0000546E8B1002787601820FDF7B8FD044696
:106DE00088B10146876002A8FFF75CFE049BA26899
:106DF000A360059B049206A9E268E36004F1100019
:106E00000592FFF7C3FE084BEB60084B2C60AB60AC
:106E100006A8FFF7C8FE02A8FFF73BFE002229469E
:106E20000348FFF7E5FCB7E7C16C0B00456F0B00AB
:106E30006B6A0B002DE9F04F8BB005469DF850A012
:106E40000F4690469946FFF707FD07AE834638BBCD
:106E50004FF62E73059005A93046ADF81830FFF7B0
:106E600095FE1420FDF773FD044648B1022303701C
:106E70000123C0E901BB437031460C30FFF786FEA9
:106E80002846214640F8044BFFF732FF3046FFF713
:106E90008AFE05A8FFF787FE28460BB0BDE8F08FF5
:106EA0000C2300241420CDE908440793FDF74FFD7F
:106EB000014618B1C0E901440470447004A803916C
:106EC000FFF716FF1E4B08930820FDF740FD044610
:106ED00010B103A9FFF7C7FE00965FFA8AF34A468E
:106EE000414638460994FFF7BFFCB8B9039B5B786D
:106EF00003F0FF0293B94FF69C7305A903A805920E
:106F0000ADF81830FFF718FF05A8FFF74CFE05A8ED
:106F10000999FFF7B1FE06A8FFF791FD03A905A89F
:106F2000FFF7A1FE059B069A2B606A60002306A866
:106F300006930593FFF783FD04A8FFF780FDABE7F9
:106F4000C16F0B00012AF8B5054603D10B68036039
:106F50000020F8BD022A10D0032AF9D10468002CC1
:106F6000F6D004F11000FFF71EFE2046FFF791FD5A
:106F700018212046FDF7EFFCEAE718200E68FDF720
:106F8000E6FC044650B13146FFF7C6FE3069B6F95B
:106F9000147008B101F092F92061A7822C60D7E744
:106FA00038B5002383608B6804460D462BB102225E
:106FB0009847EB68E360AB68A360204638BD0000EB
:106FC000F0B589B004460D4601A81146FFF754FEFE
:106FD000A4B124B21DB1284601F070F9054601A8FC
:106FE00003A90395ADF81040FFF7A6FE03A8FFF72D
:106FF000DAFD02A8FFF723FD09B0F0BD019D0123D2
:10700000D5E84F2F002A03D1C5E8413F0029F7D129
:10701000EFD12B73BFF35B8F6B702B1DBFF35B8FB7
:1070200053E8006F43E80042002AF9D1BFF35B8FB9
:10703000002EDED02046FFF7D3FB074660B105F1F6
:107040000C013046FFF743FE3046FFF722FD1021CA
:107050003046FDF780FCCCE7314603A8FFF7A0FFE0
:107060002B7B8DF81C301020FDF771FC0546D0B14C
:1070700087601420FDF76BFC044678B187600146F9
:1070800003A8FFF70FFD059BA268A360069B05926E
:10709000E268E3609DF81C3006922374064BEB60B7
:1070A000064B2C60AB6003A8FFF7F3FC00222946D7
:1070B0000348FFF79DFBC7E7E16C0B00C5700B00B1
:1070C0006B6A0B00012A70B5044603D10B6803609C
:1070D000002070BD022A0CD0032AF9D10468002CCC
:1070E000F6D02046FFF7D5FC14212046FDF733FCEF
:1070F000EEE714200E68FDF72AFC054620B1314664
:10710000FFF74EFF337C2B742560E1E700224068D7
:107110001146FFF711BC002240681146FFF71CBC66
:1071200040680022FFF710BC4068002281F0010196
:10713000FFF7FABB002340681A461946FFF7ECBB7D
:10714000002340681A461946FFF7DEBB002240685C
:107150001146FFF7D1BB002240681146FFF7BCBBC8
:10716000406800220221FFF7BFBB002340681A4697
:10717000FFF7AABB024B03225A60024A1A6070470B
:1071800090E6032010BE0B007047F8B50646154682
:107190000C468F18BC4206D0336814F8011B9B685C
:1071A00030469847F6E72846F8BD007C0022FFF7F6
:1071B000EFB9007C0021FFF7F3B9007C0021FFF755
:1071C000F7B9007C0021FFF7FBB9007C0021FFF735
:1071D000FFB910B514210446FDF7BDFB204610BDD4
:1071E00038B5044615464FF47A730022C4E90123EA
:1071F000094B2174084623602946FFF7F9F9BF308F
:1072000008D16B69DB0705D56868FFF7C5FBE8683F
:10721000FFF7C2FB204638BD4CBE0B000023007CAC
:107220001A461946FFF79CB97FB500221423CDE911
:107230000122ADF804300B788DF808304B680393C9
:10724000CB680493007C0B7A059301A9FFF7D8F96A
:1072500007B05DF804FB1FB5003B8DF800104FF040
:107260006401039118BF0123694601928DF808302B
:10727000FFF7DAFF05B05DF804FB0123FFF7EBBF72
:10728000007C0022FFF774B9C9B2FFF7F9BF007C98
:107290000022FFF775B90121FFF7F9BF704710B55C
:1072A00018210446FDF757FB204610BDF0B5037DBD
:1072B000062B8DB00E4600F104074FF0000412D0EB
:1072C00000F1080515F8011D0A22304600F05DF9AD
:1072D000AF42044419D0002CF4D02E21304600F0E7
:1072E0003BF90444EEE72F236A4639460A208DF81D
:1072F0000040FFF78DF96846FDF7E6FA336802466D
:10730000DB68694630469847044620460DB0F0BD1C
:1073100010B5054B0446112240F8043B002100F053
:107320008EFF204610BD00BF74BE0B000346074A07
:1073300010B543F8042B01F1100251F8044B43F847
:10734000044B9142F9D10A781A7010BD74BE0B003B
:1073500010B59DF8084044EA032343EA024242EA9A
:10736000016104234160037510BD000007B5064BA1
:107370000360CB7800938B784A780978FFF7E8FFB1
:1073800003B05DF804FB00BF74BE0B00014B024A62
:107390001A60704798E6032080BE0B000023406807
:1073A0001A46FFF791BA406800220221FFF79CBA03
:1073B000002240681146FFF78FBA0022406811464C
:1073C000FFF79ABA002340681A461946FFF79CBA9D
:1073D000002340681A461946FFF79EBA406800210C
:1073E000FFF7C2BA40680021FFF7C6BA4068002222
:1073F00081F00101FFF798BA40680022FFF7A4BAB4
:10740000002240681146FFF7A7BA002240681146E3
:10741000FFF792BA2DE9F04395B014460D460746A2
:10742000FFF776FF00211C220DA8009100F007FF56
:1074300040230C9320466B460CAA0021FFF7F8F876
:10744000044600284BD1024601216868FFF754FA30
:107450000221804622466868FFF74EFA009E814668
:107460002146002E3BD0002939D17368022B03D06E
:107470000A2B11D0F669F4E7B8F1000FFAD0716960
:1074800006A8043107ADFFF771FF0FCD3C1D0FC4F7
:107490002B6823704146EDE7B9F1000FEAD074691B
:1074A000102201A800F0CBFE06238DF8143001ADA8
:1074B00004F108031834186859682A4603C20833CF
:1074C000A3421546F7D101A906A807ADFFF72EFF85
:1074D0000FCD3C1D0FC42B6823704946CAE70098A6
:1074E000FFF79EF8384615B0BDE8F083024B034A1B
:1074F0001A6000225A6070479CE603208CBE0B0085
:10750000F8B506460D468F180024BD420CD03368EE
:1075100015F8011B9B6830469847031E01DB1C448D
:10752000F3E7002C08BF1C462046F8BD13B50446FF
:10753000084659B10191FDF7C7F923680199DB6845
:107540000246204602B0BDE81040184702B010BD08
:1075500008B5FFF7EBFF08BD03689B68184738B50F
:107560000D210546FFF7F8FF0A2104462846FFF7DC
:10757000F3FF204438BD38B50546FFF7D7FF044672
:107580002846FFF7ECFF204438BD30B58BB0002310
:10759000012A8DF8243098BF0A2209AC0D46B1FBB0
:1075A000F2F101FB125303F0FF03092B94BF3033B8
:1075B0003733DBB2AA4204F8013DEFD92146FFF789
:1075C000B5FF0BB030BD2DE9F04186B000AF0546E8
:1075D0000E46381D142114463B60FFF7F5F91328B9
:1075E0000ED8391D2846FFF7A1FF04461EB12846D4
:1075F000FFF7B5FF044420461837BD46BDE8F081CB
:1076000000F1080323F00703E846ADEB030D224623
:10761000411C3B686846FFF7D7F969462846FFF7E3
:1076200085FF0446C546E1E7014B00229A6070479A
:10763000A4E603200021FFF73BB80021FFF730B894
:1076400010B5044608462170FFF70AF8002363606E
:10765000204610BD13B504460078FFF7EEFF58B979
:10766000207801904FF6FF71FEF7EAFF019802B013
:10767000BDE81040FFF7DEBF02B010BD400830B5D6
:107680001860002418688842E5B206D90134082C35
:1076900002D040081860F5E70725024B5B5D1370C8
:1076A00030BD00BFC0BE0B002DE9F04306468FB0D1
:1076B00000780C46FFF7C1FF00281BDB3578142249
:1076C000002109A800F0BBFD0B23002209A92846D0
:1076D000ADF82430FEF7D4FF9DF82D3013B19DF89E
:1076E0002C5055B10027B946B846012523795DB124
:1076F000C3B100200FB0BDE8F083DDF830809DF805
:1077000034909DF83570F1E7002B35D1A3684345DF
:1077100008D18DF820908DF82170BDF82020A38924
:107720009A42E6D00023A1688DF80F300A9804AB86
:107730000DF10F02FFF7A2FF217985B989B9A3687E
:1077400043450ED38DF820908DF82170BDF8202090
:10775000A3899A4205D1049B434502D1C9E7002978
:10776000F9D100230193637B00939DF80F20237BC5
:107770003078FEF78DFFBCE7CDE900552B462A4651
:107780000121F5E708B50078FEF762FFC0B208BD39
:1077900010B504460068FFF7FFF8204610BD10B58D
:1077A0000446006808B1FFF7F7F80023C4E9013385
:1077B000236010BD38B504460D4600680131FFF75F
:1077C000F3F810B1C4E90005012038BD10B5036815
:1077D000044623B143688B4201D3012010BD2046EB
:1077E000FFF7E8FF0028F9D0A368002BF5D1226845
:1077F0001370F2E737B50D46114601920446FFF7C4
:10780000E5FF019A28B92046FFF7C9FF204603B0DB
:1078100030BDA2602946206800F003FD2268A368FD
:107820000021D154F2E7002313B5C0E90033044628
:107830008360037341B108460191FDF745F8019952
:1078400002462046FFF7D6FF204602B010BD38B5ED
:10785000054600680C4670B16A688B689A4208D386
:10786000096831B100F022FDA368AB600023A3607A
:1078700038BDFFF791F823682B6063686B60A368DD
:10788000AB600023C4E90033F1E710B50023C0E981
:107890000033044683600373FFF7D9FF204610BD11
:1078A000884210B5044605D00B682BB18A6819468A
:1078B000FFF7A0FF204610BDFFF771FFFAE710B5F4
:1078C00000230446C0E9003383600373FFF7E8FF39
:1078D000204610BD13B5044659B108460191FCF786
:1078E000F3FF019902462046FFF784FF204602B0CD
:1078F00010BDFFF754FFF9E71FB504460023C4E9A4
:107900000033A3602373084601A900F0DFFA01A940
:107910002046FFF7DFFF204604B010BD10B5044637
:107920008AB00023C4E90033A3602373084601A989
:1079300000F0B6FA01A92046FFF7CCFF20460AB0B6
:1079400010BD70B505460E4609B9002070BD6AB17C
:10795000846814442146FFF739FF0028F5D02868D1
:10796000AB683146184400F0A1FCAC600120EDE7A3
:107970008A680968FFF7E5BF13B50446084651B1A8
:107980000191FCF7A1FF01990246204602B0BDE833
:107990001040FFF7D6BF02B010BD10B58A68096865
:1079A0000446FFF7CEFF10B92046FFF7F8FE204649
:1079B00010BD13B5044629B92046FFF7F0FE204656
:1079C00002B010BD08460191FCF77EFF0199024606
:1079D0002046FFF7B6FF0028EED0F0E708B5826832
:1079E0003AB921B10878B0FA80F0400900E00120EE
:1079F00008BD006809B90078F5E7FCF75BFFF2E71E
:107A00000EB470B587B00BAD044655F8042B019247
:107A10002B46052104A80395FEF7D6FF0B49064621
:107A20002046FFF700FF31462046FFF7CFFE2068D3
:107A300030B1019A03952B46711CFEF7C5FFA0607B
:107A4000204607B0BDE8704003B0704734870B0094
:107A500010B5202488B022460021684600F0EFFBD4
:107A600000216846ADF80040FEF732FD019808B0ED
:107A700010BD0000054B02221A60054B054A9A60B2
:107A80000020C3E90000FEF79BBE00BFC0E6032054
:107A9000B4E603200000FFFF2DE9F041154ADFF8AE
:107AA0006080D2E90063801943EB0101124BD3E9F6
:107AB0000067D8E90023861941EB0707BB4208BFDE
:107AC000B2428CB013D003A96846CDE90067FEF737
:107AD000ABFF089B094D03F26C7303AC08930FCC0A
:107AE0000FC50FCC0FC5C8E9006723682B600CB029
:107AF000BDE8F081F8E60320F0E60320C8E60320A5
:107B000000E7032008B50020FEF7BEFE28B1FEF70F
:107B1000A3FE80F00100C0B208BD0120FCE7000018
:107B200008B5FFF7B9FF044B986818B10C2800DDC1
:107B30000C3808BD0C20FCE7C8E6032008B5FFF7A9
:107B4000ABFF034B98680B28D4BF0020012008BD71
:107B5000C8E6032008B5FFF79FFF014B586808BD32
:107B6000C8E6032008B5FFF797FF014B186808BD6A
:107B7000C8E6032008B5FFF78FFF024B18690130F4
:107B800008BD00BFC8E60320FAEE087AB4EEE70AA3
:107B9000F1EE10FA08B511D4F2EE0C7AB4EEE70A61
:107BA000F1EE10FA0ADCDFED067A60EE277A17EEC6
:107BB000900AFCF74BFE034BC3E9000108BD00BF70
:107BC00000006145F8E6032010B50020FEF798FCA0
:107BD0000446A0B9FEF7ECFD012810D12046FEF7BF
:107BE0000FFE60B9FFF78EFF10B9FEF725FEF9E72B
:107BF000FFF788FFBDE810400020FEF781BC20465B
:107C000010BD1FB5FFF7E0FF10220021684600F00D
:107C100016FB00216846FEF77BFC009805B05DF876
:107C200004FB08B5FFF7EDFFBDE80840C117FFF7FB
:107C300085BF000008B5FFF7E4FFC117FFF72CFF71
:107C4000014BD86808BD00BFC8E6032008B5FFF7A0
:107C5000D8FFBDE80840C117FFF78CBF08B5FFF794
:107C6000D0FFC117FFF718FF014B586908BD00BFCF
:107C7000C8E60320024B1A68024B1A60704700BF27
:107C80000CDE0320C4E6032070474174704708B53A
:107C9000007CFEF745FD20EAE07008BD08B5007CD9
:107CA000FEF716FD20EAE07008BD08B5007CFEF77F
:107CB0001FFD40EAE07008BD08B5007CFEF710FD2E
:107CC00040EAE07008BD007CFEF71ABD37B5457C80
:107CD00004462DB1207C03B0BDE83040FEF7F0BC77
:107CE000007C0191FEF71CFD00280199F2DC28467A
:107CF00003B030BD10B514210446FCF72CFE20461D
:107D000010BD000010B54FF47A73044608461146C2
:107D10000022C4E90123044B23600123207463740F
:107D2000FEF706FD204610BDECBE0B004174704707
:107D30007047704708B50021007CFEF721FD40EA3E
:107D4000E07008BD08B50121007CFEF719FD40EA8E
:107D5000E07008BD08B5007CFEF70AFD20EAE0707F
:107D600008BD08B5007CFEF7FBFC20EAE07008BD0A
:107D700013B50446007C0191FEF7FAFC0028019936
:107D800001DC607C20B1207CFEF702FD20EAE0707F
:107D900002B010BD007CFEF703BD10B514210446EF
:107DA000FCF7D9FD204610BD10B54FF47A73044698
:107DB00008460021C4E90113044B23600123207409
:107DC00063741146FEF7BCFC204610BD1CBF0B00BF
:107DD000007C0022FEF7BCBC10B514220446002132
:107DE00000F02DFA204610BD10B50F4C88B003A846
:107DF000FFF7F2FF2178BFF35B8F11F001010FD184
:107E000020460191FCF7A9FD019948B103AA074852
:107E1000FFF7CAFF2046FCF7A5FD054800F0F7F97B
:107E2000024808B010BD00BF08E703200CE703209C
:107E3000317D0B0010B50446FCF746FD01382318D0
:107E40002046834206D90278197800F8011B03F80E
:107E50000129F6E710BD70B50C46911E22291DD8E8
:107E6000254630B9234430229D4210D205F8012B1B
:107E7000FAE7B0FBF2F602FB1600C1B2092894BF84
:107E800030315731C9B205F8011B3046E9E700230C
:107E900020462B70FFF7CEFF204670BD0020FCE788
:107EA00038B5031E0C4615460EDAB3F1004F4FF0FD
:107EB0002D0214BF5842184601230A702A4619445D
:107EC000FFF7C9FF204638BD0123F9E708B50123B4
:107ED000FFF7C1FF08BD0000014B1860704700BFED
:107EE00010DE032008B50B4B43B1FFF77DFF03689D
:107EF0001B699847002801DDAFF30080064B43B1B2
:107F000000F05CF903681B699847002801DDAFF3B6
:107F1000008008BD000000000000000008B5FFF769
:107F2000E1FFFEF7E5FA014B186008BD28E70320E2
:107F30000548064A064908B5121A00F072F9054BC1
:107F4000054A1A6008BD00BF00F4032004F40320B2
:107F5000F4C10B0000F403201E1C279A07B5002370
:107F600000931A466FF07701FEF75CFC03B05DF8F2
:107F700004FB000007B543880A2B08D0502B0BD117
:107F8000094B1B684BB103B05DF804EB1847FFF7D2
:107F9000E5FF03B05DF804FB002300931A466FF081
:107FA0007701FEF73FFCF4E724E7032010B5124801
:107FB0000021FEF731FD114B1A68114B9A42114B0B
:107FC0000CBF012200221A7001D0FFF7B1FFFEF7AB
:107FD00087FA044600F03CF90B4B13B12046AFF38F
:107FE000008000210848FEF75FFCBDE8104007480C
:107FF0000021FEF70DBC00BFD97E0B0000F403206A
:108000001E1C279A20E7032000000000757F0B004C
:10801000252813B502D9002002B010BDA0F10B0332
:10802000022B1AD8174C2178BFF35B8F11F0010196
:108030000BD120460191FCF790FC019928B1124820
:10804000FFF7FEFA2046FCF78DFC0F4B1878FEF781
:108050000FFB0028DFD10120DEE7012809D800F05E
:108060006DF80021007CFEF7BBFA80F00100C0B281
:10807000D2E709380128EED800F0A0F8007CFEF71E
:1080800047FBF2E750E6032054E60320252838B5E5
:1080900004460D460AD8FF2908D0FFF7B9FF28B1DA
:1080A00029462046BDE83840FEF73ABA38BD38B513
:1080B00004460D46FEF73CFAFF2810D0062804D8E7
:1080C0004D2323FA00F0C30709D42046FFF7A0FF91
:1080D00028B129462046BDE83840FEF731BA38BD00
:1080E00010B50446FEF724FA031FDBB2012B08D9B2
:1080F0002046FFF78DFF20B12046BDE81040FEF777
:1081000027BA002010BD704738B50A4B0360012321
:10811000044643610849202000F074F8202560607F
:108120000549A560284600F06DF8C4E9030520461E
:1081300038BD00BF1800010044BF0B0030B50E4D24
:108140002978BFF35B8F11F0010487B011D1284665
:10815000FCF703FC68B16846FFF7D6FF6A46214684
:108160000648FFF73DF82846FCF7FCFB044800F002
:108170004EF8024807B030BD2CE7032030E703205B
:1081800007810B007047000038B5044614252A46C5
:10819000002100F054F82580402507492581284614
:1081A000258200F02FF804496060284600F02AF884
:1081B000E060204638BD00BF44BF0B0030B50E4D17
:1081C0002978BFF35B8F11F0010487B011D12846E5
:1081D000FCF7C3FB68B101A8FFF7D6FF01AA21464F
:1081E0000648FFF78FFD2846FCF7BCFB044800F06B
:1081F0000EF8024807B030BD44E7032048E70320EB
:1082000085810B00FCF7A5BB08B5FEF7E5FB002355
:1082100001461A46184600F06BB90A22002100F008
:108220005DB90A44914200F1FF3300D1704710B5A7
:1082300011F8014B03F8014F9142F9D110BD0244EE
:108240000346934200D1704703F8011BF9E7000091
:1082500038B5104B1D68AB6B0446B3B91820FEF758
:1082600093FB0246A86320B90B4B0C484221FEF752
:10827000CBFB0B490B4BC0E900130B4B83600B236B
:10828000838100210120C2E90401AB6B00221C6143
:108290005A6138BD10DE032045BF0B005CBF0B00E8
:1082A0000E33CDAB34126DE6ECDE0500034611F85B
:1082B000012B03F8012B002AF9D17047024B01462C
:1082C000186800F003B800BF10DE032037B504467D
:1082D00008460D46FCF7F8FA421C1146204601926A
:1082E000FEF782FB044618B1019A2946FFF799FF71
:1082F000204603B030BD10B57AB103460139841869
:1083000013F8010B11F8012F904201D1A34201D1C2
:10831000801A10BD0028F3D1FAE71046F9E70000F3
:10832000164B73B51E68B46D0546FCB9502001911B
:10833000FEF72AFB0199B065024620B9104B11489F
:108340005721FEF761FBC0E90044C0E90244C0E9DF
:108350000444C0E90A44C0E90C44C0E90E44C0E941
:108360001044C0E91244846104774462B26D012371
:10837000284602B0BDE8704000F006B810DE0320C9
:1083800045BF0B00B5BF0B00F0B508B9106888B148
:108390000446204614F8015B0F4617F8016B1EB91E
:1083A00065B91560284605E0B542F6D1002BF0D13D
:1083B00014600370F0BD1C460CE015B914F8013BC5
:1083C0000E4616F8015BAB42F7D1002BF3D0002329
:1083D00004F8013C1460EDE7012B2DE9F04701D0D2
:1083E000242B06D9FEF708FB162303600020BDE806
:1083F000F087DFF8E4C00D462E4615F8014B14F85F
:108400000C7017F00807F7D12D2C32D12C780127EA
:10841000B51C002B5BD0102B09D1302C07D12C7848
:1084200004F0DF04582C4DD16C781023023507F18D
:10843000004808F1FF384FF0000CB8FBF3F966462E
:1084400003FB198AA4F1300EBEF1090F16D8744649
:10845000A34224DDBCF1000F1EDBB1451CD301D1CA
:10846000A24519DB06FB03464FF0010C15F8014B42
:10847000E8E72B2C04BF2C78B51CCAE7A4F1410E09
:10848000BEF1190F01D8373CE2E7A4F1610EBEF14D
:10849000190F04D8573CDBE74FF0FF3CE6E7BCF18F
:1084A000000F05DA22230360464642B930469EE7B4
:1084B00007B17642002AF9D0BCF1000F00D0691E46
:1084C0001160F3E73024002BB1D10823AFE7302C43
:1084D000A5D00A23ABE700BF11C00B0013460A4624
:1084E000014602480068FFF777BF00BF10DE032097
:1084F0002DE9F843DFF8B8800646D8F800001F469B
:108500000D46914600F056F8254B1C6834B9254CB1
:108510001C60254B13B11B68C4F8883063681F2B9F
:1085200007DDD8F8000000F047F84FF0FF30BDE855
:10853000F8834EB3D4F8880088B91C4B23B9D8F817
:10854000000000F038F8F0E74FF48470FEF71CFAF2
:108550000028F4D00023C0E94033C4F888006368E1
:1085600040F8239001229A4000EB8301D0F80031BB
:108570001343C0F80031022EC1F8807002BFD0F85A
:1085800004311343C0F804316368D8F800005A1C62
:108590000233626044F8235000F00EF80020C6E772
:1085A000E8E703205CE703200000000089690B0076
:1085B00074DE03207047704770470000D9480B00F5
:1085C00015490B003D490B0041490B00000000001C
:1085D000686F6F6B2D726573706F6E73652F676553
:1085E000745F6461746100496E697469616C697A71
:1085F000696E6720504E353332005570646174697E
:108600006E6720452D506170657220446973706CEF
:1086100061790D0A20004661696C656420746F20E1
:10862000696E697469616C697A6520646973706CDC
:108630006179005449544C450053746172742000B0
:1086400054696D6500456E642020200042415454F9
:1086500045525920250054696D65205A6F6E65009A
:10866000494E5354525543544F523A005374617219
:10867000736869702049465433202D200057686183
:108680007420746F20657870656374200066726F63
:108690006D20746865206E6578742000666C69676B
:1086A00068742074657374002530326900414D0090
:1086B000504D002D0054007C004641494C4544205B
:1086C0002D20504C45415345205343414E204147B6
:1086D00041494E2100454E4A4F59205448452045B6
:1086E00056454E5421005549443A2000436F6E735D
:1086F0007472756374696E67206D65737361676505
:108700002E2E2E00252E326620430A2C20252E32B6
:1087100066206D560A2C20252E3266206D410A2CCB
:1087200020252E3266206D410A2C20252E3266200F
:1087300025250D0A0043616C6C696E6720456E64E7
:1087400020506F696E742066756E6374696F6E2E4B
:108750002E2E0066726565206D656D6F72793A2008
:108760000049462053746174656D656E74206578A8
:1087700065637574696E67004C444F204469736388
:108780006F6E6E65637465640064656661756C74B4
:1087900020004D5342004C5342003C535049536516
:1087A0007474696E67732064656661756C743E00ED
:1087B0003C53504953657474696E67732025732563
:1087C00075202573204D4F444525753E000000005F
:1087D0000000000000000000FD580B00CF580B0007
:1087E000D1580B0000000000000000000000000055
:1087F0000000000000000000000000000000000079
:108800000000000000000C000C000C000C000C002C
:108810000C000C000C0000000C0000000000000028
:1088200000000000000000001DC01DC0088008807E
:1088300008800000000000000000000000000000B0
:108840000000000000000D800D800D800D803FC0F5
:108850001B003FC01B001B001B001B000000000092
:108860000000000004001F803180318038001E00AD
:108870000F000380318031803F00040004000000BD
:1088800000000000000018002400240018C0078029
:108890001E00318002400240018000000000000004
:1088A00000000000000000000F0018001800180071
:1088B0000C001D80370033001D8000000000000008
:1088C0000000000000000000070007000200020096
:1088D0000200000000000000000000000000000096
:1088E0000000000000000300030006000E000C0062
:1088F0000C000C000C000E0006000300030000003A
:10890000000000000000180018000C00060006001F
:1089100006000600060006000C001C0018000000FF
:10892000000000000000060006003FC03FC00F002E
:108930001F801980000000000000000000000000FF
:10894000000000000000000000000400040004001B
:108950003F8004000400040000000000000000004C
:108960000000000000000000000000000000000007
:10897000000000000000060004000C0008000800D1
:1089800000000000000000000000000000000000E7
:108990003F80000000000000000000000000000018
:1089A00000000000000000000000000000000000C7
:1089B0000000000000000C000C000000000000009F
:1089C0000000000000C000C001800180030003001F
:1089D00006000C000C0018001800300030000000E9
:1089E0000000000000000E001B003180318031804B
:1089F0003180318031801B000E000000000000003B
:108A000000000000000006003E0006000600060010
:108A100006000600060006003FC00000000000003F
:108A20000000000000000F00198031803180030039
:108A300006000C00180030003F800000000000001D
:108A40000000000000003F006180018003001F0063
:108A500003800180018061803F0000000000000071
:108A6000000000000000070007000F000B001B00C3
:108A7000130033003F8003000F800000000000005F
:108A80000000000000001F801800180018001F00E0
:108A900011800180018021801F0000000000000083
:108AA00000000000000007801C00180030003700A4
:108AB00039803180318019800F00000000000000F3
:108AC0000000000000007F004300030006000600D5
:108AD000060006000C000C000C0000000000000066
:108AE0000000000000001F003180318031801F0035
:108AF00031803180318031801F0000000000000093
:108B00000000000000001E003300318031803380FF
:108B10001D800180030007003C00000000000000F1
:108B20000000000000000000000000000C000C002D
:108B30000000000000000C000C000000000000001D
:108B4000000000000000000000000000030003001F
:108B500000000000000006000400080008000000FB
:108B6000000000000000000000C003000400180026
:108B7000600018000400030000C0000000000000B6
:108B800000000000000000000000000000007FC0A6
:108B900000007FC000000000000000000000000096
:108BA0000000000000000000600018000400030046
:108BB00000C0030004001800600000000000000076
:108BC00000000000000000001F00318031800180A3
:108BD00007000C000C0000000C000000000000006A
:108BE0000000000000000E001100210021002700FD
:108BF000290029002700200011000E0000000000BD
:108C000000000000000000003F000F000900198074
:108C100019801F8030C030C079E0000000000000E3
:108C200000000000000000007F00318031803180B2
:108C30003F003180318031807F0000000000000063
:108C400000000000000000001F4030C060406000D5
:108C500060006000604030801F00000000000000E5
:108C600000000000000000007F00318030C030C0F4
:108C700030C030C030C031807F00000000000000F4
:108C800000000000000000007F8030803080320053
:108C90003E003200308030807F8000000000000005
:108CA00000000000000000007FC030403040320073
:108CB0003E003200300030007C0000000000000068
:108CC00000000000000000001E8031806080600015
:108CD000600067C0618031801F000000000000005C
:108CE00000000000000000007BC031803180318036
:108CF0003F803180318031807BC000000000000067
:108D000000000000000000003FC006000600060052
:108D100006000600060006003FC00000000000003C
:108D200000000000000000001FC00300030003005B
:108D300003006300630063003E00000000000000C9
:108D400000000000000000007BC0318033003600CE
:108D50003C003E003300318079C00000000000007C
:108D600000000000000000007E001800180018003D
:108D700018001840184018407FC000000000000094
:108D80000000000000000000E0E060C071C07BC097
:108D90006AC06EC064C060C0FBE00000000000005C
:108DA000000000000000000073C0318039803D8069
:108DB00035803780338031807980000000000000EA
:108DC00000000000000000001F00318060C060C093
:108DD00060C060C060C031801F0000000000000063
:108DE00000000000000000007F00318031803180F1
:108DF00031803F00300030007E00000000000000A5
:108E000000000000000000001F00318060C060C052
:108E100060C060C060C031801F000CC01F800000B7
:108E200000000000000000007F00318031803180B0
:108E30003E003300318031807CE000000000000003
:108E400000000000000000001F80318031803800E9
:108E50001F000380318031803F00000000000000CF
:108E600000000000000000007F804C804C804C809F
:108E70000C000C000C000C003F0000000000000083
:108E800000000000000000007BC031803180318094
:108E900031803180318031801F00000000000000EF
:108EA00000000000000000007BC0318031801B000A
:108EB0001B001B000A000E000E0000000000000056
:108EC0000000000000000000FBE060C064C06EC055
:108ED0006EC02A803B803B80318000000000000093
:108EE00000000000000000007BC031801B000E006D
:108EF0000E000E001B0031807BC00000000000004F
:108F0000000000000000000079E030C019800F0070
:108F100006000600060006001F800000000000009A
:108F200000000000000000003F80218023000600B8
:108F300004000C00188030803F800000000000001A
:108F40000000000000000780060006000600060082
:108F50000600060006000600060006000780000066
:108F60000000000030003000180018000C000C0059
:108F70000600030003000180018000C000C0000063
:108F80000000000000001E000600060006000600AB
:108F90000600060006000600060006001E0000008F
:108FA0000000000004000A000A0011002080208058
:108FB00000000000000000000000000000000000B1
:108FC00000000000000000000000000000000000A1
:108FD0000000000000000000000000000000000091
:108FE0000000FFE008000400020000000000000094
:108FF0000000000000000000000000000000000071
:109000000000000000000000000000001F000180C0
:1090100001801F80318033801DC0000000000000EF
:109020000000000000007000300030003700398080
:1090300030C030C030C03980770000000000000030
:109040000000000000000000000000001E803180D1
:1090500060806000608031801F0000000000000020
:109060000000000000000380018001801D8033802B
:1090700061806180618033801DC0000000000000BD
:109080000000000000000000000000001F00318010
:1090900060C07FC0600030C01F8000000000000082
:1090A00000000000000007E00C000C003F800C00F6
:1090B0000C000C000C000C003F80000000000000C1
:1090C0000000000000000000000000001DC0338010
:1090D00061806180618033801D80018001801F007C
:1090E00000000000000070003000300037003980C0
:1090F00031803180318031807BC000000000000071
:109100000000000000000600060000001E0006002F
:1091100006000600060006003FC000000000000038
:109120000000000000000600060000003F000300F1
:1091300003000300030003000300030003003E00DC
:109140000000000000007000300030003780360062
:109150003C003C003600330077C0000000000000F7
:109160000000000000001E000600060006000600C9
:1091700006000600060006003FC0000000000000D8
:109180000000000000000000000000007F8036C0EA
:1091900036C036C036C036C076E0000000000000A1
:1091A000000000000000000000000000770039808F
:1091B00031803180318031807BC0000000000000B0
:1091C0000000000000000000000000001F003180CF
:1091D00060C060C060C031801F000000000000005F
:1091E000000000000000000000000000770039804F
:1091F00030C030C030C039803700300030007C00D3
:109200000000000000000000000000001DC03380CE
:1092100061806180618033801D800180018007C092
:109220000000000000000000000000007B801CC067
:1092300018001800180018007F000000000000004F
:109240000000000000000000000000001F803180CE
:109250003C001F00038031803F0000000000000040
:109260000000000000001800180018007F0018001F
:1092700018001800180018800F00000000000000FF
:10928000000000000000000000000000738031803A
:1092900031803180318033801DC00000000000002B
:1092A0000000000000000000000000007BC03180D2
:1092B00031801B001B000E000E00000000000000AB
:1092C000000000000000000000000000F1E060C0AD
:1092D00064C06EC03B803B80318000000000000015
:1092E0000000000000000000000000007BC01B0028
:1092F0000E000E000E001B007BC0000000000000EE
:1093000000000000000000000000000079E030C014
:10931000198019800B000F00060006000C003E00AB
:109320000000000000000000000000003F802180DD
:1093300003000E00180030803F8000000000000095
:1093400000000000000006000C000C000C000C00E7
:109350000C0018000C000C000C000C0006000000B3
:1093600000000000000006000600060006000600DF
:1093700006000600060006000600060006000000C3
:109380000000000000000C000600060006000600B9
:109390000600030006000600060006000C000000A0
:1093A00000000000000000000000000000001800A5
:1093B0002480030000000000000000000000000006
:1093C000000000000000000000000000000000009D
:1093D000000000000000000000000000000000008D
:1093E0000000000000000000000000000000070076
:1093F000070007000700070007000700020002003F
:10940000000000000700070000000000000000004E
:1094100000000000000000001CE01CE01CE0084010
:1094200008400840000000000000000000000000AC
:109430000000000000000000000000000CC00CC094
:109440000CC00CC00CC03FF03FF00CC00CC03FF093
:109450003FF00CC00CC00CC00CC00CC000000000E1
:10946000000000000300030007E00FE01860180090
:109470001F000FC000E0186018601FC01F800300AD
:1094800003000300000000000000000000001C00BA
:109490002200220022001C6001E00F803C0031C04D
:1094A00002200220022001C0000000000000000095
:1094B0000000000000000000000003E00FE00C00CE
:1094C0000C0006000F301FF019E018C01FF007B0A5
:1094D000000000000000000000000000000000008C
:1094E00003800380038001000100010000000000F0
:1094F000000000000000000000000000000000006C
:1095000000000000000000C000C001800180018058
:109510000300030003000300030003000180018037
:10952000018000C000C000000000000000000C002E
:109530000C00060006000600030003000300030001
:10954000030003000600060006000C000C000000EB
:109550000000000000000300030003001B601FE088
:10956000078007800FC00CC0000000000000000052
:1095700000000000000000000000000000000000EB
:10958000000003000300030003003FF03FF003006E
:1095900003000300030000000000000000000000C2
:1095A00000000000000000000000000000000000BB
:1095B0000000000000000000000003800300030022
:1095C000060006000400000000000000000000008B
:1095D000000000000000000000003FE03FE000004D
:1095E000000000000000000000000000000000007B
:1095F000000000000000000000000000000000006B
:1096000000000000000000000000038003800380D1
:10961000000000000000000000000000006000608A
:1096200000C000C000C001800180030003000600EC
:1096300006000C000C000C001800180000000000D0
:109640000000000000000F801FC018C030603060B4
:109650003060306030603060306018C01FC00F80F4
:1096600000000000000000000000000000000300F7
:109670001F001F000300030003000300030003009A
:10968000030003001FE01FE00000000000000000D6
:109690000000000000000F801FC038E03060006054
:1096A00000C00180030006000C0018003FE03FE00E
:1096B00000000000000000000000000000000F801B
:1096C0003FC030E0006000E007C007C000E000607D
:1096D000006060E07FC03F800000000000000000EC
:1096E00000000000000001C003C003C006C00CC0A1
:1096F0000CC018C030C03FE03FE000C003E003E012
:1097000000000000000000000000000000001FC07A
:109710001FC0180018001F801FC018E00060006004
:10972000006030E03FC01F8000000000000000002B
:1097300000000000000003E00FE01E0018003800E9
:1097400037803FC038E03060306018E01FC00780CD
:1097500000000000000000000000000000003FE0EA
:109760003FE03060006000C000C000C001800180A8
:10977000018003000300030000000000000000005F
:109780000000000000000F801FC038E0306038E0AB
:109790001FC01FC038E03060306038E01FC00F804D
:1097A00000000000000000000000000000000F00AA
:1097B0001FC038C03060306038E01FE00F6000E04C
:1097C00000C003C03F803E00000000000000000019
:1097D0000000000000000000000000000000038006
:1097E00003800380000000000000038003800380EA
:1097F0000000000000000000000000000000000069
:1098000000000000000001C001C001C00000000015
:1098100000000380030006000600040000000000B2
:1098200000000000000000000000003000F003C055
:1098300007001C0078001C00070003C000F0003087
:109840000000000000000000000000000000000018
:109850000000000000007FF07FF0000000007FF0BB
:109860007FF0000000000000000000000000000089
:109870000000000000000000000030003C000F006D
:10988000038000E0007800E003800F003C0030001F
:1098900000000000000000000000000000000000C8
:1098A0000F801FC018601860006001C003800300B3
:1098B000000000000700070000000000000000009A
:1098C00000000000000003800C80084010401040A1
:1098D00011C012401240124011C010000800084090
:1098E00007800000000000000000000000000000F1
:1098F0001F801F80038006C006C00CC00C601FE0E4
:109900001FE0303078787878000000000000000018
:1099100000000000000000003F803FC01860186099
:1099200018E01FC01FE01870183018303FF03FE0FB
:109930000000000000000000000000000000000027
:1099400007B00FF01C7038303000300030003000AD
:1099500038301C700FE007C000000000000000005D
:1099600000000000000000007F807FC030E0307009
:109970003030303030303030307030E07FC07F8079
:1099800000000000000000000000000000000000D7
:109990003FF03FF01830183019801F801F80198069
:1099A000183018303FF03FF00000000000000000C9
:1099B00000000000000000003FF03FF018301830B9
:1099C00019801F801F801980180018003F003F0079
:1099D0000000000000000000000000000000000087
:1099E00007B01FF0187030303000300031F831F817
:1099F000303018301FF007C00000000000000000E9
:109A000000000000000000003CF03CF0186018600E
:109A100018601FE01FE01860186018603CF03CF010
:109A20000000000000000000000000000000000036
:109A30001FE01FE003000300030003000300030016
:109A4000030003001FE01FE0000000000000000012
:109A5000000000000000000003F803F80060006050
:109A60000060006030603060306030E03FC00F80E8
:109A700000000000000000000000000000000000E6
:109A80003EF83EF818E019801B001F001D8018C02A
:109A900018C018603E783E3800000000000000004A
:109AA00000000000000000003F003F000C000C0020
:109AB0000C000C000C000C300C300C303FF03FF070
:109AC0000000000000000000000000000000000096
:109AD0007878787838703CF034B037B037B03330BD
