:02000002B0004C
:1040000000400B00C6CF0B0000000600190005029F
:0840100004017D150000000011
:04401800C4920B0043
:10401C0081F0004102E000BF83F0004330B54FEA6D
:10402C0041044FEA430594EA050F08BF90EA020FDA
:10403C001FBF54EA000C55EA020C7FEA645C7FEA6D
:10404C00655C00F0E2804FEA5454D4EB5555B8BF90
:10405C006D420CDD2C4480EA020281EA030382EA01
:10406C00000083EA010180EA020281EA0303362D93
:10407C0088BF30BD11F0004F4FEA01314FF4801C66
:10408C004CEA113102D0404261EB410113F0004F78
:10409C004FEA03334CEA133302D0524263EB43032F
:1040AC0094EA050F00F0A780A4F10104D5F1200ECD
:1040BC000DDB02FA0EFC22FA05F2801841F1000128
:1040CC0003FA0EF2801843FA05F359410EE0A5F1FC
:1040DC0020050EF1200E012A03FA0EFC28BF4CF02D
:1040EC00020C43FA05F3C01851EBE37101F00045E3
:1040FC0007D54FF0000EDCF1000C7EEB00006EEBF0
:10410C000101B1F5801F1BD3B1F5001F0CD3490879
:10411C005FEA30004FEA3C0C04F101044FEA4452D0
:10412C0012F5800F80F09A80BCF1004F08BF5FEA57
:10413C00500C50F1000041EB045141EA050130BD37
:10414C005FEA4C0C404141EB0101013C28BFB1F549
:10415C00801FE9D291F0000F04BF01460020B1FA94
:10416C0081F308BF2033A3F10B03B3F120020CDA67
:10417C000C3208DD02F1140CC2F10C0201FA0CF045
:10418C0021FA02F10CE002F11402D8BFC2F1200CAA
:10419C0001FA02F120FA0CFCDCBF41EA0C01904060
:1041AC00E41AA2BF01EB0451294330BD6FEA0404A9
:1041BC001F3C1CDA0C340EDC04F11404C4F1200294
:1041CC0020FA04F001FA02F340EA030021FA04F3A6
:1041DC0045EA030130BDC4F10C04C4F1200220FAFD
:1041EC0002F001FA04F340EA0300294630BD21FA3B
:1041FC0004F0294630BD94F0000F83F4801306BF01
:10420C0081F480110134013D4EE77FEA645C18BFF4
:10421C007FEA655C29D094EA050F08BF90EA020F8B
:10422C0005D054EA000C04BF1946104630BD91EA83
:10423C00030F1EBF0021002030BD5FEA545C05D186
:10424C004000494128BF41F0004130BD14F58004C5
:10425C003CBF01F5801130BD01F0004545F0FE4139
:10426C0041F470014FF0000030BD7FEA645C1ABF6E
:10427C00194610467FEA655C1CBF0B46024650EAA5
:10428C00013406BF52EA033591EA030F41F40021D1
:10429C0030BD00BF90F0000F04BF0021704730B557
:1042AC004FF4806404F132044FF000054FF000012C
:1042BC0050E700BF90F0000F04BF0021704730B5ED
:1042CC004FF4806404F1320410F0004548BF4042C2
:1042DC004FF000013EE700BF42004FEAE2014FEA17
:1042EC0031014FEA02701FBF12F07F4393F07F4FF2
:1042FC0081F06051704732F07F4208BF704793F0F5
:10430C007F4F04BF41F40021704730B54FF4607407
:10431C0001F0004521F000411CE700BF50EA01020A
:10432C0008BF704730B54FF000050AE050EA0102B3
:10433C0008BF704730B511F0004502D5404261EB23
:10434C0041014FF4806404F132045FEA915C3FF464
:10435C00D8AE4FF003025FEADC0C18BF03325FEA01
:10436C00DC0C18BF033202EBDC02C2F1200300FAB2
:10437C0003FC20FA02F001FA03FE40EA0E0021FAD7
:10438C0002F11444BDE600BF70B54FF0FF0C4CF4C5
:10439C00E06C1CEA11541DBF1CEA135594EA0C0F77
:1043AC0095EA0C0F00F0DEF82C4481EA030621EAB2
:1043BC004C5123EA4C5350EA013518BF52EA0335ED
:1043CC0041F4801143F4801338D0A0FB02CE4FF09F
:1043DC000005E1FB02E506F00042E0FB03E54FF0CF
:1043EC000006E1FB03569CF0000F18BF4EF0010EC7
:1043FC00A4F1FF04B6F5007F64F5407404D25FEAC3
:10440C004E0E6D4146EB060642EAC62141EA555175
:10441C004FEAC52040EA5E504FEACE2EB4F1FD0CB7
:10442C0088BFBCF5E06F1ED8BEF1004F08BF5FEA35
:10443C00500E50F1000041EB045170BD06F00046E7
:10444C0046EA010140EA020081EA0301B4EB5C0494
:10445C00C2BFD4EB0C0541EA045170BD41F480118C
:10446C004FF0000E013C00F3AB8014F1360FDEBFB1
:10447C00002001F0004170BDC4F10004203C35DA8D
:10448C000C341BDC04F11404C4F1200500FA05F310
:10449C0020FA04F001FA05F240EA020001F00042B1
:1044AC0021F0004110EBD37021FA04F642EB060127
:1044BC005EEA430E08BF20EAD37070BDC4F10C0451
:1044CC00C4F1200500FA04F320FA05F001FA04F215
:1044DC0040EA020001F0004110EBD37041F1000101
:1044EC005EEA430E08BF20EAD37070BDC4F120050C
:1044FC0000FA05F24EEA020E20FA04F301FA05F274
:10450C0043EA020321FA04F001F0004121FA04F21B
:10451C0020EA020000EBD3705EEA430E08BF20EAEB
:10452C00D37070BD94F0000F0FD101F00046400025
:10453C0041EB010111F4801F08BF013CF7D041EAA7
:10454C00060195F0000F18BF704703F000465200AB
:10455C0043EB030313F4801F08BF013DF7D043EA7C
:10456C000603704794EA0C0F0CEA135518BF95EA32
:10457C000C0F0CD050EA410618BF52EA4306D1D1B9
:10458C0081EA030101F000414FF0000070BD50EAD8
:10459C00410606BF1046194652EA430619D094EA62
:1045AC000C0F02D150EA013613D195EA0C0F05D14C
:1045BC0052EA03361CBF104619460AD181EA0301A0
:1045CC0001F0004141F0FE4141F470014FF0000058
:1045DC0070BD41F0FE4141F4780170BD70B54FF0F3
:1045EC00FF0C4CF4E06C1CEA11541DBF1CEA135573
:1045FC0094EA0C0F95EA0C0F00F0A7F8A4EB050455
:10460C0081EA030E52EA03354FEA013100F088804B
:10461C004FEA03334FF0805545EA131343EA126314
:10462C004FEA022245EA111545EA10654FEA0026C9
:10463C000EF000419D4208BF964244F1FD0404F582
:10464C00407402D25B084FEA3202B61A65EB0305DE
:10465C005B084FEA32024FF480104FF4002CB6EB9B
:10466C00020E75EB030E22BFB61A754640EA0C001B
:10467C005B084FEA3202B6EB020E75EB030E22BF5B
:10468C00B61A754640EA5C005B084FEA3202B6EB9C
:10469C00020E75EB030E22BFB61A754640EA9C005B
:1046AC005B084FEA3202B6EB020E75EB030E22BF2B
:1046BC00B61A754640EADC0055EA060E18D04FEAE9
:1046CC00051545EA16754FEA06164FEAC30343EA89
:1046DC0052734FEAC2025FEA1C1CC0D111F4801F56
:1046EC000BD141EA00014FF000004FF0004CB6E74F
:1046FC0011F4801F04BF01430020B4F1FD0C88BFEE
:10470C00BCF5E06F3FF6AFAEB5EB030C04BFB6EBF8
:10471C00020C5FEA500C50F1000041EB045170BDEB
:10472C000EF0004E4EEA113114EB5C04C2BFD4EB18
:10473C000C0541EA045170BD41F480114FF0000E9C
:10474C00013C90E645EA060E8DE60CEA135594EA18
:10475C000C0F08BF95EA0C0F3FF43BAF94EA0C0F1B
:10476C000AD150EA01347FF434AF95EA0C0F7FF490
:10477C0025AF104619462CE795EA0C0F06D152EAE4
:10478C0003353FF4FDAE1046194622E750EA4106C8
:10479C0018BF52EA43067FF4C5AE50EA41047FF4D9
:1047AC000DAF52EA43057FF4EBAE12E74A0011D28B
:1047BC0012F5001211D20DD56FF47873B3EB62526F
:1047CC000ED44FEAC12343F0004343EA505323FA7B
:1047DC0002F070474FF00000704750EA013002D1F0
:1047EC004FF0FF3070474FF00000704707EE900A13
:1047FC00F5EEC07AF1EE10FA01D400F00BB8F1EE40
:10480C00677A08B517EE900A00F004F8404261EBA5
:10481C00410108BDD0B5FFF75FFD0C4B00220646E9
:10482C000F46FFF7B1FDFFF7C1FF0446FFF732FD5E
:10483C00074B0022FFF7A8FD02460B4630463946CF
:10484C00FFF7EAFBFFF7B2FF2146D0BD0000F03DB9
:10485C000000F04110F8012B11F8013B012A28BF90
:10486C009A42F7D0D01A7047034613F8012B002A4E
:10487C00FBD1181A0138704709480A49884208B513
:10488C0005D0094A824202D0121A04F003FB0748F1
:10489C00074A0021121A04F025FB014808BD00BF8D
:1048AC0044DE0320FCCE0B00E0DE0320E0DE032020
:1048BC00F0E7032070B5074E074C04F0A5F9A41BD4
:1048CC00A4080025AC4200D170BD56F8043B9847B3
:1048DC000135F7E7B4CE0B00D8CE0B0000F092BA3E
:1048EC0008B500F06DFCBDE8084004F045B901F0D6
:1048FC0071BD01F06FBD01F075BD000008B5034A34
:10490C0003490C2001F05AFCFEE700BFC95E0B0006
:10491C00D8920B000078B0FA80F040097047012360
:10492C0003707047704700002DE9F047DFF864838F
:10493C00DFF86493CA4DCB4EDFF860A3ADF5434D61
:10494C00A4B0404600F0F5FE4FF494734FF4C872D7
:10495C0010A904A800F0CFFF04A80121002400F046
:10496C00FBFF04A8022101F012F804A8BE4B01942D
:10497C00CDF8009005220A2101F088F8009504A8D2
:10498C00BA4B019491220A2101F080F83346CDE90B
:10499C000054A52204A80A2101F078F80AF150016C
:1049AC000CA803F05AFE0C9BCDE90054A5227321F0
:1049BC0004A801F06BF80CA803F0B8FDCDE9005485
:1049CC0004A8AB4B9122CD2101F060F83346CDE920
:1049DC000054A52204A8CD2101F058F80AF1600179
:1049EC000CA803F03AFE0C9BCDE90054A5224FF421
:1049FC009B7104A801F04AF878260CA803F096FDE8
:104A0C00009604A80194642323220A2101F0B2F831
:104A1C001B22009204A801946E230A2101F0AAF82B
:104A2C006E23CDE90064194604A81B2201F0A2F8FC
:104A3C008C27CDE90064324604A840F28B136E211A
:104A4C0001F098F8B92600973A4604A80194BE23C1
:104A5C000A2101F08FF80096324604A80194BE2377
:104A6C000A2101F087F8BE23CDE900643A461946C5
:104A7C0004A801F07FF8C823CDE900643A46194632
:104A8C0004A801F077F8CDE90064324604A84FF48D
:104A9C00C373C82101F06EF8CDE900743A4604A83E
:104AAC004FF4C373C82101F065F8CDE900643246B8
:104ABC0004A84FF491764FF4C373CD2101F05AF84A
:104ACC00009604A801944FF48273E6220A2101F0A7
:104ADC0015F8CDE9006404A84FF4C373C8224FF451
:104AEC008C7101F00BF8DE23624F0093012604A8B1
:104AFC0001944FF4C373C8224FF48C7101F03AF84F
:104B0C0004A85D4B01960097CD2240F21D1100F0D8
:104B1C00BDFF08AB0393594B039819680A2203F0A5
:104B2C00B9FD03990CA803F098FD55490CA803F0A6
:104B3C00DBFDCDE90074E32203684FF4A07104A8F7
:104B4C0000F0A4FF0CA803F0F1FC039803F0EEFCBA
:104B5C004FF48573009304A801944FF4C373F422AB
:104B6C004FF48C7101F006F8464BF92204A8CDE9FC
:104B7C00007640F21D1100F089FF0AF170010CA8BB
:104B8C0003F06BFD0C9B40F20F1240F2311104A8A4
:104B9C00CDE9007400F07AFF0CA803F0C7FCC82321
:104BAC00009304A801944FF48273E6220A2100F0CA
:104BBC00E1FFCDE90056344BD22204A80F2100F0BE
:104BCC0065FF0AF190010CA803F047FD0C9BF02245
:104BDC00CDE900540F2104A800F058FF0CA803F0F5
:104BEC00A5FC0AF1A0010CA803F037FD0C9B4FF4B7
:104BFC0082720F21CDE9005404A800F047FF0CA8E5
:104C0C0003F094FC04A800F0BCFE039004A800F090
:104C1C00BAFE054604A800F0B8FE23462246CDE9AC
:104C2C0000500399404600F0B4FC314604A800F053
:104C3C0093FE04A8022100F0AAFE04A8CDE900947A
:104C4C00124B0522822100F021FF04A8CDE900942B
:104C5C000F4B2322822100F019FF04A820E000BF93
:104C6C005CDE0320FA920B00ED920B00F3920B002A
:104C7C00FF920B0054DE032006930B0060E0032030
:104C8C000E930B0010930B001A930B0026930B0042
:104C9C0037930B00DCE0032064DE0320E0DE03200E
:104CAC00CDE90094174B4122822100F0EFFE164B08
:104CBC005F22822104A8CDE9009400F0E7FE04A84D
:104CCC0000F05FFE039004A800F05DFE054604A80A
:104CDC0000F05BFE039923462246CDE90050404686
:104CEC0000F0BFFC404600F055FD404600F021FDB1
:104CFC00064B04A81C6000F011FE0DF5434D24B0CA
:104D0C00BDE8F08747930B0056930B001CE1032082
:104D1C0070B50C1E064615460BDA0A2A09D12D2150
:104D2C0003F0E8FA6142EAB23046BDE8704003F0A5
:104D3C00FABA2146F7E700000A4B10B504460360A7
:104D4C0002F0C6FB214602F0FEFD03F081FE03F0EB
:104D5C0073FE2046044B40F8043B02F08FFC2046C7
:104D6C0010BD00BF78940B0060940B0010B5044686
:104D7C00FFF7E2FF20462421FFF7BDFD204610BDC2
:104D8C0038B51F4D0446294603F01BFC294604F197
:104D9C00100003F016FC294604F1200003F011FC6E
:104DAC00294604F1300003F00CFC294604F14000C4
:104DBC0003F007FC294604F1500003F002FC2946DD
:104DCC0004F1600003F0FDFB294604F1700003F0D0
:104DDC00F8FB294604F1800003F0F3FB294604F1AB
:104DEC00900003F0EEFB294604F1A00003F0E9FB70
:104DFC00294604F1B00003F0E4FB204638BD00BFA7
:104E0C0096CB0B0030B587B003F022FE00244FF494
:104E1C00E13103F00DFE3649364823462246CDE9F2
:104E2C00004401F04FFA0125032241F2883303A814
:104E3C00CDE90323ADF8145001F03DFC29461620B2
:104E4C0003F052FF2946162003F05FFF2946092084
:104E5C0003F04AFF2146092003F057FF03F0F8FD49
:104E6C00254903F043FA2946172003F03DFF21465C
:104E7C00172003F04AFF4FF4FA7001F0FBFA03F02D
:104E8C00E7FD03F03AFA03F0E3FD1C4903F02EFAB8
:104E9C001B4800F061FB38B103F0DAFD194907B08B
:104EAC00BDE8304003F022BA03F0D2FD03F025FA3E
:104EBC0003F0CEFD1449154D154C03F017FA284696
:104ECC0000F0A0FF40B903F0C3FD214603F00EFA39
:104EDC00642001F0CFFAF2E703F0BAFD03F00DFA0B
:104EEC0003F0B6FD0B4907B0BDE8304003F011BA32
:104EFC00ED530B0062930B0079930B0084930B0022
:104F0C00DCE00320A1930B00BE930B0020E10320F7
:104F1C00E8930B00D1930B001FB503F099FD2349C7
:104F2C0003F0F7F901F0BEF9044600283BD103F079
:104F3C008FFD1F4903F0DAF90121172003F0E5FE7C
:104F4C00322001F097FA1B4823464068224621463E
:104F5C0001F000FA01F09EF901F0A4F910B901F08A
:104F6C0091F9F9E701F09EF9134B144A1B788DF86F
:104F7C00003013493C2302A801F0A0FC039C7CB137
:104F8C006368013B63605BB9236820469B68984764
:104F9C00A368013BA3601BB923682046DB689847D4
:104FAC00084B01221A6004B010BD00BFEA930B003D
:104FBC0008940B0030E6032070E0032044DE03204D
:104FCC0070930B001CE1032008B503F041FD094967
:104FDC0003F08CF9084800F0BFFA30B103F038FD4B
:104FEC00BDE80840054903F081B9BDE80840FFF76A
:104FFC009BBC00BF1F940B00DCE00320A1930B00B3
:10500C0010B52A4BD3F8800003F037FF07EE900A57
:10501C00B8EEE70A03F0FEFB03F01AFD044603F0BA
:10502C0036FCC11703F0CCFB0A2201462046FFF7E1
:10503C006FFE03F00DFD1E4903F058F903F008FD57
:10504C00044603F024FCC11703F0D4FB0A220146EA
:10505C002046FFF75DFE03F0FBFC154903F046F913
:10506C0003F0F6FC044603F012FCC11703F0CAFB74
:10507C000A2201462046FFF74BFE03F018FC80B9CC
:10508C0003F0E6FC0B4903F044F903F0E1FC0A4998
:10509C0003F03FF903F0DCFCBDE81040064903F0D7
:1050AC0038B903F0D5FC0549EDE700BFA0DF0320BC
:1050BC0024930B003B940B0095CB0B003F940B00FF
:1050CC0038B51D4D1D4C696804F1200003F0D0FA71
:1050DC00A96804F1300003F0CBFAE968204603F02C
:1050EC00C7FA296904F1400003F0C2FA696904F1B6
:1050FC00500003F0BDFAA96904F1600003F0B8FA9E
:10510C00E96904F1700003F0B3FA296A04F1800034
:10511C0003F0AEFA696A04F1900003F0A9FAA96AE7
:10512C0004F1A00003F0A4FAE96A04F1B000BDE8B0
:10513C00384003F09DBA00BF74E00320E0DE03208A
:10514C0038B51D4D1D4CA96A04F1200003F090FAEE
:10515C00A96804F1300003F08BFA296B204603F0A8
:10516C0087FA696B04F1400003F082FAA96B04F131
:10517C00500003F07DFAE96B04F1600003F078FA5B
:10518C00296C04F1700003F073FA696C04F180006F
:10519C0003F06EFAA96C04F1900003F069FAE96C63
:1051AC0004F1A00003F064FA296D04F1B000BDE82D
:1051BC00384003F05DBA00BF74E00320A0DF032089
:1051CC0010B500F083FE0B4B0B4A0C4918601368AA
:1051DC0009680B4CC31A8B4204D3236813B91060B3
:1051EC00FFF79AFE2368022B03D1BDE81040FFF7AE
:1051FC00EBBE10BDD8E003206CE1032050DE032091
:10520C001CE1032070B5D0E900531426044606FBBC
:10521C000356AE4204D0284603F088F91435F8E75B
:10522C00206801F0DFF8204670BD8842F8B50446CE
:10523C000D46164616D9904215D2A2F11406751ACF
:10524C00A1F114072C44B7421CD02CB13146204696
:10525C0003F0E9F9337C2374304603F067F9143E0C
:10526C00143CF0E70ED0B5420CD02CB129462046A8
:10527C0003F0D9F92B7C2374284603F057F9143525
:10528C001434F0E7F8BD2DE9F0410023C0E90033F8
:10529C0083604F689F4204460E4623DD4FF014088E
:1052AC0008FB07F001F096F80546D8B1D4E90012D6
:1052BC0008FB0212FFF7B9FF206801F093F8256094
:1052CC00A760D6E9007308FB0378B84508D03946C7
:1052DC00284603F0C2F93B7C2B7414371435F4E7E1
:1052EC00736863602046BDE8F08100002DE9F04151
:1052FC002F4B304A304D4FF0010883F800802F4B74
:10530C0000248CB09A60C3E90044022000F076FFC0
:10531C002146404600F082FFCDE90044029403F0A0
:10532C0097FB6946064603A8FFF7ADFF2F4603A976
:10533C0006A8FFF7A8FF224B47F8043B06A909A8CB
:10534C00FFF7A1FF09AA4146384602F0DFFB09A886
:10535C00FFF758FF06A8FFF755FF1A4B2B6003A861
:10536C002E62FFF74FFF184B2B6003F071FB4FF4CD
:10537C00165103F05DFB02F0ABF8294602F09CFAE3
:10538C006846FFF73FFF114800F098F81048FFF708
:10539C00F7FC1048FFF7F4FC224602210E4800F0FF
:1053AC006DFC0E480CB0BDE8F04100F009BC00BF2C
:1053BC0070E003200000FFFFF8E0032064E003200E
:1053CC0060940B00CCCB0B0078940B00DCE003203A
:1053DC00E0DE0320A0DF032020E10320F4E0032023
:1053EC007FB52F482F4D304E03F0C9FD2E492C4868
:1053FC0003F014FE04463CB145F8044B3146002042
:10540C0003F00CFE0446F6E7FFF75AFE03F020FB10
:10541C00264902F06BFF03F01BFB244902F066FFE8
:10542C00FFF78EFEFFF7ECFD4FF4966221461C4809
:10543C0003F058FD322001F01DF81D4BADF80C4067
:10544C00022201A8CDE901441A6001F01AF900F01A
:10545C0029FF044610B100F015FFF8E7154D00F0D8
:10546C0021FF686823462246214600F07BFF284630
:10547C0002F086FE10B900F005FFF8E70D4802F0C7
:10548C007FFE0A2000F0F6FF0021172003F03DFC00
:10549C0003F0DEFA084904B0BDE8704002F026BF04
:1054AC0070E1032074E0032043940B0095CB0B00B8
:1054BC001CE1032030E6032045940B0010B5044694
:1054CC0000F0B6F906220523C4E9022308210723BC
:1054DC00C4E904134FF4C8704FF49673C4E9000385
:1054EC00204610BD10B50C46C068002100F0A1F993
:1054FC002046BDE8104000F0EDB910B50C46C06870
:10550C00012100F096F92046BDE8104000F0E2B908
:10551C0010B50446606900F090F918B9642000F0E9
:10552C008FF9F7E710BD10B501210446806800F033
:10553C0080F9C82000F084F9A068002100F079F906
:10554C00022000F07DF9A068012100F072F9BDE89D
:10555C001040C82000F074B938B5044600F08EF93C
:10556C00054698B92046FFF7DEFF04212046FFF7D9
:10557C00B9FF2046FFF7CCFF29462046FFF7B2FFC4
:10558C000F212046FFF7B9FF284638BD4FF0FF35F5
:10559C00FAE72DE9F04704460F4691211646994645
:1055AC00DDE90858FFF79EFF9021204606F0F80A27
:1055BC00FFF798FFC6F307212046FFF79EFF5146E1
:1055CC002046FFF79AFF514629440139C1F30721C0
:1055DC002046FFF792FF691E514441F00701C9B202
:1055EC002046FFF78AFF5FFA89F6C9F307212046A8
:1055FC00FFF783FF31462046FFF77FFF09EB0801D9
:10560C000139C1F307212046FFF777FF08F1FF317D
:10561C003144C9B22046FFF770FF01212046FFF745
:10562C006CFF022000F00CF910212046FFF75AFF06
:10563C0077B1002DB8BF0735ED1008FB05F5002636
:10564C00B54205DDB95D2046FFF757FF0136F7E798
:10565C00022000F0F5F820469221BDE8F047FFF754
:10566C0041BF2DE9F04704460F4691211646994655
:10567C00DDE90858FFF736FF9021204606F0F80ABE
:10568C00FFF730FFC6F307212046FFF736FF5146E0
:10569C002046FFF732FF514629440139C1F3072157
:1056AC002046FFF72AFF691E514441F00701C9B299
:1056BC002046FFF722FF5FFA89F6C9F3072120463F
:1056CC00FFF71BFF31462046FFF717FF09EB0801D8
:1056DC000139C1F307212046FFF70FFF08F1FF3115
:1056EC003144C9B22046FFF708FF01212046FFF7DD
:1056FC0004FF022000F0A4F813212046FFF7F2FE6D
:10570C0077B1002DB8BF0735ED1008FB05F5002665
:10571C00B54205DDB95D2046FFF7EFFE0136F7E730
:10572C00022000F08DF820469221BDE8F047FFF7EB
:10573C00D9BE38B510210446FFF7D4FE022000F084
:10574C007FF8002523686268DB085343AB4205D918
:10575C00FF212046FFF7D1FE0135F3E7022000F0D0
:10576C006FF813212046FFF7BDFE022000F068F809
:10577C00002523686268DB085343AB4205D9FF213F
:10578C002046FFF7BAFE0135F3E7BDE838400220AA
:10579C0000F056B810B512210446FFF7A3FE6420A2
:1057AC0000F04EF82046BDE81040FFF7B1BE704740
:1057BC0010B510210446FFF79EF8204610BD0EB41C
:1057CC0003B503AB002153F8042B019302F0C9FD80
:1057DC0002B05DF804EB03B07047000073B50446EB
:1057EC0008462279A36832B1A3B90B4902B0BDE8CF
:1057FC00704002F07BBD094A267B094D0949647B48
:10580C00012E18BF2946CDE900140749FFF7D7FF31
:10581C0002B070BD054AEFE799940B0096CB0B00D4
:10582C0095940B0091940B00AF940B0088940B0093
:10583C007047C9B280B203F068BA80B203F07EBA86
:10584C0000F018BE13B50B4C2178BFF35B8F11F031
:10585C0001010BD120460191FFF75CF8019928B1A9
:10586C00054802F0BBFD2046FFF759F8024802B08C
:10587C0010BD00BF20E6032024E603201FB5012144
:10588C00082003F031FA0121062003F02DFA012142
:10589C00052003F029FA0021072003F025FAFFF771
:1058AC00D1FF02F0A5FD094B0093094B0293002494
:1058BC000123ADF80C308DF80440FFF7C3FF6946A7
:1058CC0002F0C0FD204604B010BD00BFD4940B0004
:1058DC0080841E0010B500210446082003F015FA40
:1058EC00FFF7B0FF214602F01BFEBDE8104001217E
:1058FC00082003F00ABA30B50024C46012F0070483
:10590C00016008D002F10805524202F0070122465C
:10591C0058BF4A42AA1AC0E9012330BD704700297A
:10592C0030B515DB44688C4212DD002A10DB85682B
:10593C0095420DDD02FB04120568D21001F007013F
:10594C00802444FA01F1A85649B213B10843A85473
:10595C0030BD20EA0100FAE770B50B46044600257D
:10596C006268AA420CDD0026A268B24206DD32460D
:10597C0029462046FFF7D3FF0136F5E70135EFE75F
:10598C0070BD006870474068704780687047C160A0
:10599C007047F0B4C7680D46144667B9002937DB69
:1059AC0047688F4234DD002A32DB856895422FDD53
:1059BC00F0BCFFF7B4BF012F0CD1002928DB8268A3
:1059CC008A4225DD002C23DB4168A14220DD2A46DA
:1059DC00091BEDE7022F0CD1002919DB4168A94204
:1059EC0016DD002A14DB8268A24211DD121B491B52
:1059FC00DEE7032F0CD100290ADB82688A4207DD1F
:105A0C00002C05DB4168A14202DD521B2146CFE789
:105A1C00F0BC70472DE9F74F0C9DAC88914614F003
:105A2C00070218BF012202EBD402EC88203B63432F
:105A3C002C68884603FB024400274FF0800BEB8850
:105A4C00BB4220DD002609EB0702AB88B34215DD13
:105A5C00217806F0070A4BFA0AF3194208D00D9B7D
:105A6C00019206EB08010090FFF793FFDDE90002BD
:105A7C00BAF1070F08BF01340136E6E75B0718BF20
:105A8C0001340137DBE703B0BDE8F08F2DE9F341BA
:105A9C00089F06460C4690465D1E15F8013F53B113
:105AAC00099A2146CDE9007230464246FFF7B2FF13
:105ABC00BB881C44F1E702B0BDE8F081F8B506469E
:105ACC0017460C46CD18A54207DD2146069B3A46E3
:105ADC003046FFF75EFF0134F5E7F8BDF8B5064632
:105AEC000F461446D518A54207DD2246069B3946BB
:105AFC003046FFF74EFF0134F5E7F8BD2DE9FF41C5
:105B0C000F46DDE90A48BB421946A8BF3946BB42DD
:105B1C00B8BF3B46944227461D46A8BF17465B1AA2
:105B2C009442B8BF1446064601333A46CDF800807D
:105B3C0003930291FFF7C2FF039B0299CDF80080FB
:105B4C00224630460391FFF7B9FFE31B0399CDF8CA
:105B5C00008001333A4630460293FFF7BFFF029BA9
:105B6C00CDF828803A462946304604B0BDE8F041CD
:105B7C00FFF7B4BF2DE9F3418B42044608981E464B
:105B8C00A8BF0E468B42B8BF0B4690428046A8BFBA
:105B9C0090469042ACBFC8EB0007C8EB02071D460D
:105BAC000137AE4209DC099B009331463B46424625
:105BBC002046FFF793FF0136F3E702B0BDE8F08112
:105BCC0010B5044603F0E8F801F06CF8204610BD5F
:105BDC000368C9B29B6818472DE9F04101320220D5
:105BEC00D5B20F4600F046FC03F0D6F8242101F0A4
:105BFC008FF803F0D1F80021FFF7EAFF03F0CCF89F
:105C0C000021FFF7E5FF03F0C7F8FF21FFF7E0FFE6
:105C1C0003F0C2F8036829469B68984703F0BCF868
:105C2C006942FFF7D5FF03F0B7F8D421FFF7D0FF97
:105C3C000024D326013D04F10108E4B2AC420ADA97
:105C4C0003F0AAF80368395D9B689847395D0E44E8
:105C5C00F6B24446EFE703F09FF80368F1439B6804
:105C6C00C9B2984703F098F8036800219B689847DD
:105C7C0003F092F8BDE8F04101F051B838B5044694
:105C8C00064B84F84810084615462360002103F0A3
:105C9C002BF884F84950204638BD00BF58CA0B0079
:105CAC0038B50546652495F8480003F047F830B13F
:105CBC00013CA4B22CB10A2000F0DCFBF3E701207C
:105CCC0038BD2046FCE7F7B500238DF800308DF881
:105CDC0001308DF803308DF8053090F84930FF22F3
:105CEC00012B04460D468DF802208DF8042041D17D
:105CFC00FFF7D6FF10B9002003B0F0BD03F04CF84D
:105D0C000822242100F0FDFF03F046F803685B69CC
:105D1C009847261D04F10A07012000F0ABFB03F0A5
:105D2C003BF803685B69984706F8010BBE42F3D158
:105D3C002046FFF7B5FF0028DDD003F02DF82A1F11
:105D4C00242100F0DEFF03F027F803685B69984715
:105D5C006FF00907063D3F1BBB199D4249DD012031
:105D6C0000F088FB03F018F803685B69984706F8A5
:105D7C00010BF1E7002B3CD11E2000F07BFB03F064
:105D8C000BF80822242100F0BCFF03F005F803688F
:105D9C005B699847261D04F10A07012000F06AFB95
:105DAC0002F0FAFF03685B69984706F8010BBE42E4
:105DBC00F3D11E2000F05EFB02F0EEFF2A1F24211F
:105DCC0000F09FFF02F0E8FF03685B6998476FF0F3
:105DDC000907063D3F1BBB199D420ADD012000F05F
:105DEC0049FB02F0D9FF03685B69984706F8010B81
:105DFC00F1E70622211D684603F0E7F8B0FA80F0BF
:105E0C00400979E737B5FF2380F827304FF0FF338F
:105E1C0004460125836280F82C3014238DF804305D
:105E2C008DF806308DF805508DF8075002F0B4FF50
:105E3C0000F038FF236884F8415004220DEB020176
:105E4C001B68204698470A2000F014FB23684FF487
:105E5C007A725B680E212046984720B1207CA0F115
:105E6C0015035842584103B030BD000008B5024B31
:105E7C001B685B6C019308BD4802030008B5024B1C
:105E8C001B689B6C019308BD4802030008B5024BCC
:105E9C001B68DB6C019308BD4802030008B5024B7C
:105EAC001B685B6D019308BD4802030008B5024BEB
:105EBC001B685B68019308BD1802030008B5024B10
:105ECC001B68DB68019308BD1802030008B5024B80
:105EDC001B685B69019308BD1802030008B5024BEF
:105EEC001B689B6D019308BD1802030008B5024B9B
:105EFC001B685B6E019308BD1802030008B5024BCA
:105F0C001B689B68019308BD2C02030008B5024B6B
:105F1C001B68DB68019308BD2C02030008B5024B1B
:105F2C001B681B69019308BD2C02030008B5024BCA
:105F3C001B685B69019308BD2C02030008B5024B7A
:105F4C001B68DB68019308BD2802030008B5024BEF
:105F5C001B689B69019308BD2802030008B5024B1E
:105F6C001B68DB69019308BD2802030008B5024BCE
:105F7C001B681B6A019308BD2802030008B5024B7D
:105F8C001B685B6A019308BD2802030008B5024B2D
:105F9C001B689B6A019308BD2802030008B5024BDD
:105FAC001B68DB6A019308BD2802030008B5024B8D
:105FBC001B681B6B019308BD2802030008B5024B3C
:105FCC001B685B6B019308BD2802030008B5024BEC
:105FDC001B681B6C019308BD2802030008B5024B1B
:105FEC001B681B6D019308BD2802030008B5024B0A
:105FFC001B685B69019308BD6402030008B5024B82
:10600C001B689B68019308BD6802030008B5024B2E
:10601C001B68DB68019308BD6802030008B5024BDE
:10602C001B681B68019308BD3002030008B5024BC6
:10603C001B685B69019308BD3002030008B5024B75
:10604C001B68DB69019308BD3002030008B5024BE5
:10605C001B681B6A019308BD3002030008B5024B94
:10606C001B685B6A019308BD3002030008B5024B44
:10607C001B68DB6B019308BD3002030008B5024BB3
:10608C001B681B6C019308BD3002030008B5024B62
:10609C001B685B6C019308BD3002030008B5024B12
:1060AC001B689B68019308BD3C02030008B5024BBA
:1060BC001B68DB68019308BD3C02030008B5024B6A
:1060CC001B681B69019308BD3C02030008B5024B19
:1060DC001B685B69019308BD3C02030008B5024BC9
:1060EC001B689B69019308BD3C02030008B5024B79
:1060FC001B68DB69019308BD3C02030008B5024B29
:10610C001B681B6A019308BD3C02030008B5024BD7
:10611C001B689B6A019308BD3C02030008B5024B47
:10612C001B68DB6A019308BD3C02030008B5024BF7
:10613C001B681B6C019308BD3C02030008B5024BA5
:10614C001B681B68019308BD4C02030008B5024B89
:10615C001B685B68019308BD4C02030008B5024B39
:10616C001B689B68019308BD4C02030008B5024BE9
:10617C001B681B69019308BD4C02030008B5024B58
:10618C001B685B69019308BD4C02030008B5024B08
:10619C001B689B69019308BD4C02030008B5024BB8
:1061AC001B68DB69019308BD4C02030008B5024B68
:1061BC001B681B6A019308BD4C02030008B5024B17
:1061CC001B685B6B019308BD6002030008B5024BB2
:1061DC001B68DB6E019308BD6002030008B5024B1F
:1061EC001B681B6F019308BD6002030008B5024BCE
:1061FC001B681B68019308BD2002030008B5024B05
:10620C001B685B68019308BD2002030008B5024BB4
:10621C001B685B69019308BD2002030008B5024BA3
:10622C001B68DB6A019308BD2002030008B5024B12
:10623C001B68DB6C019308BD2002030008B5024B00
:10624C001B685B6D019308BD2002030008B5024B6F
:10625C001B689B6D019308BD2002030008B5034B1E
:10626C001B68D3F88830019308BD0000200203009E
:10627C0008B5034B1B68D3F89430019308BD00009C
:10628C002002030008B5024B1B689B68019308BDF4
:10629C004402030008B5024B1B68DB68019308BD80
:1062AC004402030008B5024B1B685B69019308BDEF
:1062BC004402030008B5024B1B681B6A019308BD1E
:1062CC004402030008B5024B1B685B6A019308BDCE
:1062DC004402030008B5024B1B681B6B019308BDFD
:1062EC004402030008B5024B1B689B6B019308BD6D
:1062FC004402030008B5024B1B68DB6B019308BD1D
:10630C004402030008B5024B1B685B6C019308BD8B
:10631C004402030008B5024B1B685B68019308BD7F
:10632C004002030008B5024B1B689B68019308BD33
:10633C004002030008B5024B1B68DB68019308BDE3
:10634C004002030008B5024B1B681B69019308BD92
:10635C004002030008B5024B1B685B69019308BD42
:10636C004002030008B5024B1B689B69019308BDF2
:10637C004002030008B5024B1B68DB69019308BDA2
:10638C004002030008B5024B1B681B6A019308BD51
:10639C004002030008B5024B1B681B6B019308BD40
:1063AC004002030008B5024B1B685B6B019308BDF0
:1063BC004002030008B5024B1B681B6C019308BD1F
:1063CC004002030008B5024B1B685B6C019308BDCF
:1063DC004002030008B5024B1B681B68019308BD03
:1063EC001C02030008B5024B1B685B68019308BDD7
:1063FC001C02030008B5024B1B689B68019308BD87
:10640C001C02030008B5024B1B685B6A019308BDB4
:10641C001C02030008B5024B1B68DB6A019308BD24
:10642C001C02030008B5024B1B681B6B019308BDD3
:10643C001C02030008B5024B1B68DB6B019308BD03
:10644C001C02030008B5024B1B681B6C019308BDB2
:10645C001C02030008B5024B1B685B6C019308BD62
:10646C001C02030008B5024B1B68DB6C019308BDD2
:10647C001C0203000021FFF7C9BE38B504680546AD
:10648C007CB16368013B63605BB9236820469B6801
:10649C009847A368013BA3601BB923682046DB68BF
:1064AC009847284638BD10B5836804460BB902F0EE
:1064BC00DBFCC3689847A3681BB103222146204626
:1064CC00984720461021BDE81040FEF714BA10B5CD
:1064DC008368044613B1032201469847204610BD39
:1064EC0010B54368013B0446436063B903689B687D
:1064FC009847A368013BA3602BB923682046DB684F
:10650C00BDE81040184710BD70B5D0E900530446E3
:10651C0005EB0316AE4204D0284602F007F81035FE
:10652C00F8E72068FFF75EFF204670BD13B50B46F9
:10653C000246D0E900016C4684E8030093E80300AE
:10654C0082E8030094E8030083E8030002B010BD66
:10655C00024800230360FFF789BC00BF2CE6032030
:10656C00002240681146FFF7EDBE0022406811463C
:10657C00FFF708BF002240681146FFF713BF4068C1
:10658C000022FFF707BF4068002281F00101FFF7EE
:10659C00F1BE002340681A461946FFF7E3BE0023FC
:1065AC0040681A461946FFF7D5BE002240681146CE
:1065BC00FFF7B8BE406800220221FFF7BBBE0023E4
:1065CC0040681A46FFF7A6BE084B10B52824224691
:1065DC001846002102F086FC054B04804FF0FF3278
:1065EC00426004225A60034A1A6010BD38E6032048
:1065FC0030E6032068CA0B0070470020704710B5C6
:10660C0010210446FEF777F9204610BD08B5FFF7B8
:10661C00F6FF08BD30B500224FF69C7402608480F2
:10662C008D888C800C68858004600A6030BD10B544
:10663C0004460068FFF7D6FE204610BD38B5C46886
:10664C00F4B12378022B03D104F10C00FFF7EFFF18
:10665C00656835B12846FFF73AFF10212846FEF74A
:10666C004AF9A56835B12846FFF731FF10212846B5
:10667C00FEF741F920461421BDE83840FEF73BB93E
:10668C0038BD1FB50C23ADF8043003688DF8063007
:10669C00037A8DF80730436802930021437AADF8F2
:1066AC000D1001A88DF80F108DF80C30FFF72AFE95
:1066BC0005B05DF804FB1FB50C22ADF80420026890
:1066CC008DF80620027A8DF807204268029200238A
:1066DC00427A8DF80C20194601AA0220ADF80D3033
:1066EC008DF80F30FFF7FEFD05B05DF804FB0B686D
:1066FC0003604B68436013B15A6801325A607047AB
:10670C0037B5044668460D46FFF7F1FF009B019A2A
:10671C0023606260002301A801930093FFF7ADFE94
:10672C0035B1281DFFF7A9FE08212846FEF7E3F82E
:10673C00204603B030BD826810B50AB902F094FB54
:10674C00BDE81040C368184708B5006800F1100197
:10675C00FFF7F1FF08BD826810B50AB902F084FB9F
:10676C00BDE81040C368184708B5006800F1100177
:10677C00FFF7F1FF08BD000038B5002304460360A5
:10678C0010200D46FEF7B3F828B10123C0E9013300
:10679C00024B0360C5602060204638BDA4CA0B00C4
:1067AC0038B5002383608B6804460D462BB102225A
:1067BC009847EB68E360AB68A360204638BD0000E7
:1067CC00F0B589B004686846FFF724FF4FF0020368
:1067DC00D4E84F2F002A03D1C4E8413F0029F7D158
:1067EC0025D104F10C0569462846FFF713FFBFF3CA
:1067FC005B8F01236370002004F10803BFF35B8FF0
:10680C0053E8006F43E80002002AF9D1BFF35B8F15
:10681C006EB1FFF70BFD78B129463046FFF78BFFC1
:10682C003046FFF754FE10213046FEF764F86846F8
:10683C00FFF7FDFE09B0F0BD314602A8FFF7B0FF2F
:10684C00E068B4F9105008B102F0A2FB06901020D9
:10685C00ADF81C50FEF74BF80546E8B100278760F1
:10686C001820FEF744F8044688B10146876002A858
:10687C00FFF75CFE049BA268A360059B049206A92B
:10688C00E268E36004F110000592FFF7C3FE084BC9
:10689C00EB60084B2C60AB6006A8FFF7C8FE02A8A3
:1068AC00FFF715FE002229460348FFF7C7FCB7E7A0
:1068BC0055670B00D9690B00B3640B002DE9F04F41
:1068CC008BB005469DF850A00F4690469946FFF7B1
:1068DC00E9FC07AE834638BB4FF62E73059005A92D
:1068EC003046ADF81830FFF795FE1420FDF7FFFF8A
:1068FC00044648B1022303700123C0E901BB437075
:10690C0031460C30FFF786FE2846214640F8044BF2
:10691C00FFF732FF3046FFF78AFE05A8FFF787FE28
:10692C0028460BB0BDE8F08F0C2300241420CDE9D1
:10693C0008440793FDF7DBFF014618B1C0E9014499
:10694C000470447004A80391FFF716FF1E4B0893C4
:10695C000820FDF7CCFF044610B103A9FFF7C7FED2
:10696C0000965FFA8AF34A46414638460994FFF787
:10697C00A1FCB8B9039B5B7803F0FF0293B94FF607
:10698C009C7305A903A80592ADF81830FFF718FF02
:10699C0005A8FFF74CFE05A80999FFF7B1FE06A85C
:1069AC00FFF76BFD03A905A8FFF7A1FE059B069A4F
:1069BC002B606A60002306A806930593FFF75DFD24
:1069CC0004A8FFF75AFDABE7556A0B00012AF8B58E
:1069DC00054603D10B6803600020F8BD022A10D0D5
:1069EC00032AF9D10468002CF6D004F11000FFF74B
:1069FC001EFE2046FFF76BFD18212046FDF77BFF9E
:106A0C00EAE718200E68FDF772FF044650B13146D4
:106A1C00FFF7C6FE3069B6F9147008B102F0B8FA87
:106A2C002061A7822C60D7E738B5002383608B6880
:106A3C0004460D462BB102229847EB68E360AB6825
:106A4C00A360204638BD0000F0B589B004460D4661
:106A5C0001A81146FFF754FEA4B124B21DB128467B
:106A6C0002F096FA054601A803A90395ADF810406B
:106A7C00FFF7A6FE03A8FFF7DAFD02A8FFF7FDFC5F
:106A8C0009B0F0BD019D0123D5E84F2F002A03D199
:106A9C00C5E8413F0029F7D1EFD12B73BFF35B8FD2
:106AAC006B702B1DBFF35B8F53E8006F43E8004204
:106ABC00002AF9D1BFF35B8F002EDED02046FFF702
:106ACC00B5FB074660B105F10C013046FFF743FEFC
:106ADC003046FFF7FCFC10213046FDF70CFFCCE7ED
:106AEC00314603A8FFF7A0FF2B7B8DF81C3010203C
:106AFC00FDF7FDFE0546D0B187601420FDF7F7FECB
:106B0C00044678B18760014603A8FFF70FFD059B8B
:106B1C00A268A360069B0592E268E3609DF81C30B6
:106B2C0006922374064BEB60064B2C60AB6003A8FB
:106B3C00FFF7CDFC002229460348FFF77FFBC7E790
:106B4C0075670B00596B0B00B3640B00012A70B511
:106B5C00044603D10B680360002070BD022A0CD0E0
:106B6C00032AF9D10468002CF6D02046FFF7AFFCBD
:106B7C0014212046FDF7BFFEEEE714200E68FDF74A
:106B8C00B6FE054620B13146FFF74EFF337C2B7421
:106B9C002560E1E7002240681146FFF7F3BB0022B5
:106BAC0040681146FFF7FEBB40680022FFF7F2BBBE
:106BBC004068002281F00101FFF7DCBB0023406834
:106BCC001A461946FFF7CEBB002340681A461946F1
:106BDC00FFF7C0BB002240681146FFF7B3BB002291
:106BEC0040681146FFF79EBB406800220221FFF768
:106BFC00A1BB002340681A46FFF78CBB024B032253
:106C0C005A60024A1A60704760E60320C0CA0B0043
:106C1C007047F8B5064615460C468F18BC4206D090
:106C2C00336814F8011B9B6830469847F6E72846F2
:106C3C00F8BD007C0022FFF799B9007C0021FFF71A
:106C4C009DB9007C0021FFF7A1B9007C0021FFF762
:106C5C00A5B9007C0021FFF7A9B910B51421044691
:106C6C00FDF749FE204610BD38B5044615464FF4D5
:106C7C007A730022C4E90123094B2174084623606E
:106C8C002946FFF7A3F9BF3008D16B69DB0705D59F
:106C9C006868FFF7A7FBE868FFF7A4FB204638BD40
:106CAC00FCCA0B000023007C1A461946FFF746B9B4
:106CBC007FB500221423CDE90122ADF804300B7806
:106CCC008DF808304B680393CB680493007C0B7AE7
:106CDC00059301A9FFF782F907B05DF804FB1FB516
:106CEC00003B8DF800104FF06401039118BF012395
:106CFC00694601928DF80830FFF7DAFF05B05DF8B0
:106D0C0004FB0123FFF7EBBF007C0022FFF71EB949
:106D1C00C9B2FFF7F9BF007C0022FFF71FB90121B0
:106D2C00FFF7F9BF704710B518210446FDF7E3FDD6
:106D3C00204610BDF0B5037D062B8DB00E4600F13C
:106D4C0004074FF0000412D000F1080515F8011DDE
:106D5C000A22304601F0E7FAAF42044419D0002C65
:106D6C00F4D02E21304601F0C5FA0444EEE72F236F
:106D7C006A4639460A208DF80040FFF737F9684615
:106D8C00FDF772FD33680246DB686946304698476A
:106D9C00044620460DB0F0BD10B5054B044611223B
:106DAC0040F8043B002102F09DF8204610BD00BFC6
:106DBC0024CB0B000346074A10B543F8042B01F112
:106DCC00100251F8044B43F8044B9142F9D10A7864
:106DDC001A7010BD24CB0B0010B59DF8084044EA86
:106DEC00032343EA024242EA016104234160037532
:106DFC0010BD000007B5064B0360CB7800938B7871
:106E0C004A780978FFF7E8FF03B05DF804FB00BF90
:106E1C0024CB0B0000F11003012213F8101C0129E4
:106E2C00184608D153F8041C02EB4102013A03F155
:106E3C001003F2D17047022904BF53F8041C5218F6
:106E4C00F4E70EB4F0B588B000AF07F134051021AB
:106E5C0055F8042B7A6004462B467818FD60FFF732
:106E6C00D1FA0F287A681AD900F1080323F0070326
:106E7C006E46ADEB030D411C2B466846FD60FFF7DB
:106E8C00C1FA021E04DD236869469B6820469847B8
:106E9C00B5462037BD46BDE8F04003B0704700282A
:106EAC00F7D0236802469B6807F1100120469847EB
:106EBC00EFE738B50B6803604D6843689D420446A4
:106ECC0008D015B16B6801336B60606808B1FFF7CF
:106EDC0007FB656038BD07B503688DF807109B6824
:106EEC0001220DF10701984703B05DF804FB0B4636
:106EFC001146002210B5C0E90022044683600BB98C
:106F0C00204610BDFFF7D5FFFAE78368EBB11A787E
:106F1C00032A1AD8DFE802F00417021B0520704779
:106F2C0002685B685268D05C2D2812D0A0F1300347
:106F3C00092B0ED974280ED066280CD0A0F16E0344
:106F4C005842584170470620704700207047042073
:106F5C007047032070470220704710B50446FFF7B6
:106F6C00D4FF02280ED0C31EDBB2012B14D822682A
:106F7C00A36850685B68BDE810400A2200211844E1
:106F8C0002F02AB92268A36852685B68D05CA0F151
:106F9C0074035842584110BD0020FCE738B500235B
:106FAC00C0E9003304460E48C4E90203A9B10B78CA
:106FBC00032B06D08BB9136858684B68C35C6E2BD7
:106FCC0007D013684D6858688B6828445B1BA06019
:106FDC00E36011462046FFF76CFF204638BD00BF2A
:106FEC0096CB0B0038B500250B46C0E90055C0E91F
:106FFC000255C0E90455044611464BB11A78012AD2
:10700C0006D103F11002DB6882604361FFF751FF88
:10701C00204638BD10B54369044663B18068E06012
:10702C00013B1030A0602061636113B1FFF7F2FEE9
:10703C00A060012000E0184610BD10B57D2104466B
:10704C00FFF749FF01232371204610BD08B50379D2
:10705C00012B02D0022B04D008BD2C21FFF73BFFE3
:10706C00FAE73A21FAE710B50446FFF7EFFF20469E
:10707C007B21FFF730FF00232371204610BD000059
:10708C0013B504460191FFF7E1FF2368019ADB6811
:10709C0003492046984701232046237102B010BDB6
:1070AC0030CB0B0013B504460191FFF7CFFF2368DB
:1070BC00019ADB6803492046984701232046237137
:1070CC0002B010BD33CB0B002DE9F0470D46222149
:1070DC0090460446FFF7FFFEDFF8A490A8442F4625
:1070EC004745BA463DD017F8016B222E06D05C2ED0
:1070FC0004D0304601F0C6FE0028F1D12368AAEB7B
:10710C0005029B682946204698475C212046FFF7DC
:10711C00E2FE0D2E0AD8072E1CD9A6F10803052B6A
:10712C0018D8DFE803F00D0F11171315222E01D01C
:10713C005C2E0FD131462046FFF7CDFE3D46CFE702
:10714C006221F8E77421F6E76E21F4E76621F2E795
:10715C007221F0E723683246DB684946204698479F
:10716C00ECE7BD4205D023687A1B9B682946204674
:10717C00984722212046FFF7AEFEBDE8F08700BFFE
:10718C0036CB0B0013B50446CDE90021FFF75EFFAB
:10719C002046DDE90021FFF797FF022320462371EB
:1071AC0002B010BD13B50446CDE90021FFF74EFF28
:1071BC002046DDE90021FFF787FF012320462371DC
:1071CC0002B010BD80680368DB681847704708463A
:1071DC0011B10B685B681847704770477047704770
:1071EC00704738B504460D4600682E2101F0BDFEEF
:1071FC002368C31A2B6023B1037803B101302368D1
:10720C002060184638BD10B50C210446FDF773FB01
:10721C00204610BD10B504210446FDF76CFB20463A
:10722C0010BD10B504210446FDF765FB204610BDCA
:10723C00FEF72CBE08B5FDF70DFBB0FA80F0400947
:10724C0008BD704710B50C4601F002FC844210D00A
:10725C0001F0E2FD844205D101F0DEFDBDE81040F5
:10726C0001F091BB2CB1236820465B68BDE810404F
:10727C00184710BD0B6803604B68436013B15A6824
:10728C0001325A60704713B5044608460191FDF768
:10729C00EBFA01990246204602B0BDE81040FFF718
:1072AC0081BF13B5044608460191FDF7DDFA23684A
:1072BC000199DB680246204602B0BDE81040184731
:1072CC0007B503688DF80710DB6801220DF1070183
:1072DC00984703B05DF804FB0A6802604A68426094
:1072EC000022C0E9022210B502618C688460CC686F
:1072FC00C4600C698A60CA6004610A6110BD000038
:10730C002DE9F74FD0E900844FF0140A00930AFBE3
:10731C0004F4184BA41017465C434546002C21DDA1
:10732C0066100AFB06F005EB00093A46B9F804B002
:10733C00285801915F4528BF5A4601F046FE0028A7
:10734C0001994FF001030BD15F4503D1009A1370E3
:10735C003446E3E7FCD9A61B09F11405013EF7E717
:10736C00F9DBF5E7A5EB08050248AD10684303B05F
:10737C00BDE8F08FCDCCCCCC7FB50369057E0191F7
:10738C0003B3F9B1002600F10C04039603A901A87C
:10739C00FFF727FF0146A8B10DF10B03039A8DF8F7
:1073AC000B602046FFF7ACFF9DF80B3053B1236800
:1073BC00142404FB0034083434F9023C002BA8BF1D
:1073CC00DDB2E3E7284604B070BD0EB4F0B58CB066
:1073DC0000AF07F14405044655F8042B7A602B46A0
:1073EC00202107F11000FD60FFF70CF81F287A68C8
:1073FC001AD900F1080323F007036E46ADEB030D19
:10740C00411C2B466846FD60FEF7FCFF021E04DDA6
:10741C0023686946DB6820469847B5463037BD4639
:10742C00BDE8F04003B070470028F7D0236802464F
:10743C00DB6807F1100120469847EFE710B5094CBF
:10744C002378BFF35B8FDB0709D42046FDF762FA84
:10745C0028B12046FDF763FA034801F008FD034804
:10746C0010BD00BF6CE60320E7710B006CDE03203F
:10747C0010B5094C2378BFF35B8FDB0709D420468A
:10748C00FDF748FA28B12046FDF749FA034801F008
:10749C00EEFC034810BD00BF70E603204F720B00DA
:1074AC0070DE032038B500250446C0E90055C0E95C
:1074BC0004558560856140F8245FFEF7D7FCFFF723
:1074CC00BDFFE061FFF7D4FF25732062204638BD75
:1074DC0010B50A4C2378BFF35B8FDB070CD4204626
:1074EC00FDF718FA40B10648FFF7DCFF2046FDF720
:1074FC0016FA044801F0BBFC014810BD68E60320F5
:10750C0078E60320317A0B00024A03490348002332
:10751C00FEF764BE15780B00A1770B0021770B00EA
:10752C0000231A4619461846FEF758BE37B58D6823
:10753C0004466846FFF79EFE6A4629462046FFF73A
:10754C0051FD01A8FEF799FF204603B030BD37B5B9
:10755C00CD6804466846FFF78DFE6A4629462046EC
:10756C00FFF71CFD01A8FEF788FF204603B030BDD5
:10757C0037B50D6904466846FFF77CFE6A46294616
:10758C002046FFF7B4FC01A8FEF777FF204603B0B6
:10759C0030BD000070B58AB00D46014604A8FFF757
:1075AC00C5FF144E04A8FFF735FDE8B104A96846E1
:1075BC00FFF7CDFF02983146FFF73CFE044610B1B1
:1075CC002C1E18BF012401A8FEF757FF002CE9D090
:1075DC0004A96846FFF7CCFF6846FFF7BEFC28609D
:1075EC0001A8FEF74AFFDDE705A8FEF746FF0AB043
:1075FC0070BD00BF3CCB0B0037B50C462046134981
:10760C001546FDF727F950B901F022FA4FF416513F
:10761C0001F00EFA03B0BDE8304001F019BA0C4984
:10762C002046FDF717F978B94FF4165301A92846EF
:10763C000193FFF7AFFF01F0EFFB019901F0A0F907
:10764C0001F0EAFB03B030BD0020FBE741CB0B009F
:10765C0048CB0B0070B5D0E900531426044606FB4A
:10766C000356AE4205D005F10800FFF7F3FF1435C1
:10767C00F7E72068FEF7B6FE204670BD10B504464D
:10768C000C30FFF7E7FF2046FEF73EFF204610BD0B
:10769C0010B5044B044640F8043BFFF7EFFF2046BF
:1076AC0010BD00BF60940B0010B50446FFF7F0FF4F
:1076BC0020462421FDF71FF9204610BD10B5034BC1
:1076CC0003600446FFF7E4FF204610BDE4CB0B003B
:1076DC0010B50446FFF7F2FF20462421FDF70BF905
:1076EC00204610BD0022C0E9002210B582600C6853
:1076FC0004604C6844608C680A604A6084608A60EC
:10770C0010BD10B5036804461868FEF7C7FB204689
:10771C0010BD00002DE9F04F87B0804603931C4B41
:10772C005B68C3F30803894616466BB9FFF7D0FEB6
:10773C00044600F12403406A0593FFF779FD237B8F
:10774C002BB105A8FFF7DDFF07B0BDE8F08F0123D3
:10775C002373D4E900535FFA89F905EB830AAA4530
:10776C0012D055F8047B3146381DFFF705FE8145D4
:10777C00F5D33B68039A0092D3F808B04A463346D7
:10778C0041463846D847EAE700232373D9E700BFC0
:10779C0000ED00E02DE9F74F9B461A4B5B68C3F3F5
:1077AC0008038046894616466BB9FFF791FE0446DE
:1077BC0000F12403406A0193FFF73AFD237B2BB1C0
:1077CC0001A8FFF79EFF03B0BDE8F08F01232373E0
:1077DC00D4E90053F6B205EB830A55450ED055F8A3
:1077EC00047B5946381DFFF7C7FD8642F5D33B682D
:1077FC004A46DB68414638469847EEE70023237338
:10780C00DEE700BF00ED00E02DE9F341164B5B68AD
:10781C00C3F3080305460F461BBBFFF759FE00F1E7
:10782C0024030446406A0193FFF702FDD4E9006388
:10783C00462406EB8308B04509D101A8FFF761FF88
:10784C00A542B4BF0020012002B0BDE8F08156F87B
:10785C00040B39460430FFF78FFD8442A8BF044661
:10786C00E9E70020F0E700BF00ED00E0F8B5D0E953
:10787C0001539D4204460E460DDB6F1C002F006821
:10788C0004DDB900FEF7B6FD18B9F8BDFEF7AAFD88
:10789C0000202060A7602768626807EB85019200D2
:1078AC00A2EB8502081D01F003FB47F82560636815
:1078BC00013363600120E8E737B500F12403044687
:1078CC00406A01930D46FFF7B3FCD4E9003203EB99
:1078DC008202934219460BD00968A94203F10403B2
:1078EC00F7D101A8FFF70DFF0025284603B030BDE6
:1078FC0029462046FFF7BAFF05460028F1D06368F9
:10790C00012B01D1FFF700FE01A8FFF7FAFEECE70F
:10791C0070B50446D0E900020B4600EB82028242AD
:10792C000FD001461D6851F8046BAE4207D1521AB4
:10793C0001F0BEFA6368013B6360012070BD08462C
:10794C00EDE70020FAE71FB500F124030446406A76
:10795C0001910393FFF76CFC01A92046FFF7D8FFB8
:10796C0018B163680BB9FFF7DBFD03A8FFF7C9FE7D
:10797C0004B010BD70B5D0E904561823044603FBBF
:10798C000656AE4215D005F110012046FFF7C0FF98
:10799C0063680BB9FFF7C4FDE06929690368DB680C
:1079AC009847696919B1206A0368DB6898471835EC
:1079BC00E7E7D4E90453182606FB0356AE4204D07D
:1079CC00284600F0B3FD1835F8E70023636170BD5D
:1079DC0073B50446FFF7A4FD04F12403606A019318
:1079EC00FFF726FC2046FFF7C5FF01A8FFF789FE2D
:1079FC00606A08B1FEF742FAD4E90453182606FB74
:107A0C000356AE4204D0284600F090FD1835F8E736
:107A1C002069FEF7E7FC2068FEF7E4FC204602B084
:107A2C0070BD00000148FFF7D3BF00BF78E603200C
:107A3C008842F8B504460D46164615D9904214D224
:107A4C00A2F11406751AA1F114072C44B7421AD0EE
:107A5C001CB131462046FFF73FFC06F10800FFF74A
:107A6C00F9FD143E143CF1E70DD0B5420BD01CB11E
:107A7C0029462046FFF730FC05F10800FFF7EAFD28
:107A8C0014351434F1E7F8BD8842F8B504460D46B8
:107A9C00164614D9904213D2A2F11006751AA1F110
:107AAC0010072C44B74218D01CB13146204600F0C8
:107ABC00BAFD304600F03AFD103E103CF2E70CD017
:107ACC00B5420AD01CB12946204600F0ACFD284630
:107ADC0000F02CFD10351034F2E7F8BD70B50E1E19
:107AEC00054611DD3001FEF775FC044658B1D5E9A9
:107AFC00001201EB0212FFF7C7FF2868FEF772FCB9
:107B0C002C60AE60012070BD0024F6E72DE9F04F2B
:107B1C00904695B000230391D8F804100A9346229E
:107B2C009942C0E90033C0E90233C0E90433CDE91E
:107B3C0008330446027623DCD8E90057142303FBF0
:107B4C000757AF423BD029460BA800F06CFD0BA9A0
:107B5C000FA8099E00F067FDDDE9091399421BDAB5
:107B6C00089B099A03EB061603EB0212314606F149
:107B7C001000FFF789FFEEB9099B0133099311E05F
:107B8C0008A8FFF7ABFF0028D6D108A8FEF7BCFC6D
:107B9C00204615B0BDE8F08F013108A8FFF79EFF15
:107BAC000028DDD10FA800F0C1FC0BA800F0BEFC32
:107BBC001435C6E70FA9304600F035FDDCE700268A
:107BCC00CDE90B660D964FF01409DDE908239E42B2
:107BDC007CDA3301D35806930BB90136F5E7002351
:107BEC00079309FB06F302930BAD07A906A8FFF751
:107BFC00F8FA82460028F0D04FF000038DF81730C9
:107C0C000146079A0DF117032846FFF779FB9DF8FB
:107C1C0017700190002F4AD1BDF81C30ADF84030E0
:107C2C00CDE911774FF6FF73CDF83CA0ADF842309B
:107C3C001397D5E90132934217DB03F1010ABAF12C
:107C4C00000F30DD09FB0AF0FEF7C4FB834660B37E
:107C5C00D5E9001209FB0212FFF7EAFE2868FEF7CD
:107C6C00C1FBC5F800B0C5F808A02B68019A09FB48
:107C7C00023A6A68514609FB02320AF11400FFF716
:107C8C00D7FEBAF1000F03D00FA95046FFF724FB23
:107C9C006B6801336B6011A8FFF7DCFC3FB10BA8DC
:107CAC00FFF7D8FC71E7BB46D8E70127F3E7019B48
:107CBC002D6809FB0355069B1B782BB9D8F80030AF
:107CCC00029A13441B7CEB8008358EE721682260F6
:107CDC0062686360A36809920A9A0A93E368A260D7
:107CEC000B9A0B932369E2600C9A0C9363692261E3
:107CFC000D9A0D93039B089162612376CFE70000E8
:107D0C00F0B5044687B00D46264619466846174618
:107D1C00FDF7B9FA0B4B46F8043B694603A8FDF78F
:107D2C00B2FA03AA39463046FFF7F0FE03A8FDF776
:107D3C0069FA6846FDF766FA034B23602046256214
:107D4C0007B0F0BD60940B00CCCB0B00F0B50F4628
:107D5C0085B01D490A9C384616461D46FCF77AFD2F
:107D6C00C0B9A4B1294601A8FFF7BCFC17492420CF
:107D7C0001F076F8054630B101AB32462146FFF7EB
:107D8C00BFFF134B2B6001A8FDF73CFA2C46204695
:107D9C0005B0F0BD0F493846FCF75CFD90B9002CDE
:107DAC00F5D0294601A8FFF79DFC0849242001F0D5
:107DBC0057F805460028E6D001AB32462146FFF7BE
:107DCC009FFFE0E70024E2E750CB0B00E4CC0B0074
:107DDC00E4CB0B0054CB0B00014B024A1A607047EA
:107DEC0074E6032065CB0B002DE9F047089DD0F815
:107DFC00209004460E461746984600F029FE814511
:107E0C004CD02B79190704D56A6954492046FFF7E1
:107E1C00DCFAB8F1000F0DD05B212046FFF750FAC9
:107E2C0041462046FFF73DFA23684D49DB680222A4
:107E3C00204698472B79DA0723D5D5F808802F21CF
:107E4C00404601F0D6F808B100F101084146204641
:107E5C00FFF727FA2B799B0708D53A212046FFF725
:107E6C002FFAEA683F492046FFF7AFFA2A792368D0
:107E7C0012F0040FDB6814BF3B493C490222204638
:107E8C0098472B7958071DD529690B461A4613F8C4
:107E9C00010B60B1202808D11946F7E7344800F0EF
:107EAC0082F90028ADD0BDE8F0872828EED12368F0
:107EBC00521ADB682046984723682E49DB68042257
:107ECC002046984700213846FEF780F901462046A7
:107EDC00FFF7E7F923682549DB680222204698471B
:107EEC001EB131462046FFF7DCF92B7913F0300F29
:107EFC002CD023682049DB680222204698472B7936
:107F0C00D9060AD523681D49DB6807222046984705
:107F1C00AA691B492046FFF758FA2B799A0611D506
:107F2C00DB0605D523681049DB68022220469847FA
:107F3C0023681449DB6820460A229847E9692046E1
:107F4C00FFF7AFF95D212046FFF7BAF923680E4918
:107F5C00DB6820460222BDE8F047184769CB0B00CE
:107F6C0070CB0B0030CB0B0073CB0B0078CB0B0022
:107F7C00A0E6032076CB0B007BCB0B007ECB0B005B
:107F8C0086CB0B0089CB0B0094CB0B002DE9F04179
:107F9C000446076A0D46164600F05AFD874207D084
:107FAC00206A036832462946DB68BDE8F041184771
:107FBC00034800F0F8F80028F2D0BDE8F08100BFCB
:107FCC00A0E603202DE9F04385B0D0F820900C9C5E
:107FDC0005460F4690461E4600F03AFD814505D1F8
:107FEC00494800F0E0F8002840F08A802B6A474AA4
:107FFC0001924FF0000901A803938DF80890FFF748
:10800C0032F849464046FEF7E1F8414980460122E4
:10801C0001A8FFF7B7F84146FFF735F93FB13D49E5
:10802C00012201A8FFF7AEF83946FFF72CF93EB153
:10803C003949012201A8FFF7A5F83146FFF723F9CA
:10804C002379DF070ED5A6682F21304600F0D1FF2B
:10805C0000B1461C3149012201A8FFF793F83146C3
:10806C00FFF711F923799E0707D52D49022201A8A4
:10807C00FFF788F8E168FFF703F82379580714D560
:10808C00266933461F4613F8012B2AB1202A01D149
:10809C001E46F7E7282AF5D12249022201A8FFF74C
:1080AC0071F8BA1B3146FFF77DF82379190707D50C
:1080BC001D49012201A8FFF765F86169FEF7F2FF7F
:1080CC002379DA0608D5042218490DEB0200FFF7D4
:1080DC0059F8A169FEF7D4FF23799B0607D51449FB
:1080EC00062201A8FFF74EF8E169FFF7CCF801A8CA
:1080FC00FEF7A3FF286A0F4903680222DB68984742
:10810C0005B0BDE8F08300BFA0E60320B4CB0B00A4
:10811C0046CB0B0097CB0B0053CD0B0082930B007F
:10812C0099CB0B009CCB0B0060930B009FCB0B00EF
:10813C00A4CB0B0094CB0B00002340681A46FEF72F
:10814C00E9B8406800220221FEF7F4B8002240682A
:10815C001146FEF7E7B8002240681146FEF7F2B868
:10816C00002340681A461946FEF7F4B8002340680D
:10817C001A461946FEF7F6B840680021FEF71AB900
:10818C0040680021FEF71EB94068002281F0010111
:10819C00FEF7F0B840680022FEF7FCB800224068F9
:1081AC001146FEF7FFB8002240681146FEF7EAB808
:1081BC002DE9F04395B014460D460746FEF7ECFD4D
:1081CC0000211C220DA8009100F08CFE40230C9382
:1081DC0020466B460CAA0021FDF718FF0446002828
:1081EC004BD1024601216868FEF7ACF802218046AB
:1081FC0022466868FEF7A6F8009E81462146002EAE
:10820C003BD0002939D17368022B03D00A2B11D033
:10821C00F669F4E7B8F1000FFAD0716906A80431D9
:10822C0007ADFEF7E7FD0FCD3C1D0FC42B68237087
:10823C004146EDE7B9F1000FEAD07469102201A8AC
:10824C0000F050FE06238DF8143001AD04F1080344
:10825C001834186859682A4603C20833A3421546D5
:10826C00F7D101A906A807ADFEF7A4FD0FCD3C1D63
:10827C000FC42B6823704946CAE70098FDF7BEFE71
:10828C00384615B0BDE8F083024B034A1A60002251
:10829C005A607047A0E603202CCC0B00F8B50646BC
:1082AC000D468F180024BD420CD0336815F8011B05
:1082BC009B6830469847031E01DB1C44F3E7002CF7
:1082CC0008BF1C462046F8BD13B50446084659B1F4
:1082DC000191FCF7C9FA23680199DB680246204634
:1082EC0002B0BDE81040184702B010BD08B5FFF74A
:1082FC00EBFF08BD03689B68184738B50D21054690
:10830C00FFF7F8FF0A2104462846FFF7F3FF204445
:10831C0038BD38B50546FFF7D7FF04462846FFF7AA
:10832C00ECFF204438BD30B58BB00023012A8DF80A
:10833C00243098BF0A2209AC0D46B1FBF2F101FBC7
:10834C00125303F0FF03092B94BF30333733DBB2E6
:10835C00AA4204F8013DEFD92146FFF7B5FF0BB057
:10836C0030BD2DE9F04186B000AF05460E46381DF4
:10837C00142114463B60FEF745F813280ED8391D1E
:10838C002846FFF7A1FF04461EB12846FFF7B5FFAC
:10839C00044420461837BD46BDE8F08100F10803BF
:1083AC0023F00703E846ADEB030D2246411C3B6866
:1083BC006846FEF727F869462846FFF785FF04460E
:1083CC00C546E1E7014B00229A607047A8E60320FE
:1083DC000021FDF75BBE0021FDF750BE10B5044631
:1083EC0008462170FDF72AFE00236360204610BD6D
:1083FC0013B504460078FFF7EEFF58B920780190CA
:10840C004FF6FF71FDF70AFE019802B0BDE810406F
:10841C00FFF7DEBF02B010BD400830B51860002475
:10842C0018688842E5B206D90134082C02D04008FD
:10843C001860F5E70725024B5B5D137030BD00BF7C
:10844C0060CC0B002DE9F04306468FB000780C464B
:10845C00FFF7C1FF00281BDB35781422002109A887
:10846C0000F040FD0B23002209A92846ADF824306A
:10847C00FDF7F4FD9DF82D3013B19DF82C5055B13E
:10848C000027B946B846012523795DB1C3B1002058
:10849C000FB0BDE8F083DDF830809DF834909DF886
:1084AC003570F1E7002B35D1A368434508D18DF821
:1084BC0020908DF82170BDF82020A3899A42E6D037
:1084CC000023A1688DF80F300A9804AB0DF10F0250
:1084DC00FFF7A2FF217985B989B9A36843450ED36B
:1084EC008DF820908DF82170BDF82020A3899A4238
:1084FC0005D1049B434502D1C9E70029F9D10023DA
:10850C000193637B00939DF80F20237B3078FDF75C
:10851C00ADFDBCE7CDE900552B462A460121F5E718
:10852C0008B50078FDF782FDC0B208BD10B5044651
:10853C000068FDF757FF204610BD10B504460068D3
:10854C0008B1FDF74FFF0023C4E90133236010BDD0
:10855C0038B504460D4600680131FDF74BFF10B1EC
:10856C00C4E90005012038BD10B50368044623B1E9
:10857C0043688B4201D3012010BD2046FFF7E8FF72
:10858C000028F9D0A368002BF5D122681370F2E70C
:10859C0037B50D46114601920446FFF7E5FF019AE7
:1085AC0028B92046FFF7C9FF204603B030BDA260B2
:1085BC002946206800F06EFC2268A3680021D15483
:1085CC00F2E7002313B5C0E900330446836003735C
:1085DC0041B108460191FCF747F901990246204642
:1085EC00FFF7D6FF204602B010BD38B5054600682F
:1085FC000C4670B16A688B689A4208D3096831B12D
:10860C0000F0BDFCA368AB600023A36038BDFDF790
:10861C00E9FE23682B6063686B60A368AB60002382
:10862C00C4E90033F1E710B50023C0E90033044678
:10863C0083600373FFF7D9FF204610BD884210B545
:10864C00044605D00B682BB18A681946FFF7A0FFCA
:10865C00204610BDFFF771FFFAE710B50023044662
:10866C00C0E9003383600373FFF7E8FF204610BDB9
:10867C0013B5044659B108460191FCF7F5F8019978
:10868C0002462046FFF784FF204602B010BDFFF7DC
:10869C0054FFF9E710B504468AB00023C4E900334F
:1086AC00A3602373084601A900F02EFA01A9204605
:1086BC00FFF7DEFF20460AB010BD70B505460E462A
:1086CC0009B9002070BD6AB1846814442146FFF7D3
:1086DC004BFF0028F5D02868AB683146184400F0F1
:1086EC004EFCAC600120EDE713B5044629B92046D9
:1086FC00FFF723FF204602B010BD08460191FCF79E
:10870C00B3F8019902462046FFF7D7FF0028EED0B8
:10871C00F0E70000054B02221A60054B054A9A60EF
:10872C000020C3E90000FDF769BD00BFC4E60320CB
:10873C00B8E603200000FFFF2DE9F041154ADFF8F1
:10874C006080D2E90063801943EB0101124BD3E93D
:10875C000067D8E90023861941EB0707BB4208BF25
:10876C00B2428CB013D003A96846CDE90067FDF77F
:10877C0079FE089B094D03F26C7303AC08930FCC84
:10878C000FC50FCC0FC5C8E9006723682B600CB070
:10879C00BDE8F081F8E60320F0E60320CCE60320E8
:1087AC0000E7032008B50020FDF794FD28B1FDF784
:1087BC0079FD80F00100C0B208BD0120FCE700008B
:1087CC0008B5FFF7B9FF044B986818B10C2800DD09
:1087DC000C3808BD0C20FCE7CCE6032008B5FFF7ED
:1087EC00ABFF034B98680B28D4BF0020012008BDB9
:1087FC00CCE6032008B5FFF79FFF014B586808BD76
:10880C00CCE6032008B5FFF797FF014B186808BDAD
:10881C00CCE60320FAEE087AB4EEE70AF1EE10FA91
:10882C0008B511D4F2EE0C7AB4EEE70AF1EE10FAB8
:10883C000ADCDFED067A60EE277A17EE900AFBF77A
:10884C00D5FF034BC3E9000108BD00BF0000614523
:10885C00F8E6032010B50020FDF740FB0446A0B954
:10886C00FDF7C4FC012810D12046FDF7EFFC60B9E0
:10887C00FFF798FF10B9FDF705FDF9E7FFF792FF39
:10888C00BDE810400020FDF729BB204610BD1FB5E8
:10889C00FFF7E0FF10220021684600F023FB0021C7
:1088AC006846FDF723FB009805B05DF804FB08B59E
:1088BC00FFF7EDFFBDE80840C117FFF78FBF0000C1
:1088CC00024B1A68024B1A60704700BF74DE03201B
:1088DC00C8E6032070474174704708B5007CFDF76B
:1088EC0015FC20EAE07008BD08B5007CFDF7E6FB3E
:1088FC0020EAE07008BD08B5007CFDF7EFFB40EA0C
:10890C00E07008BD08B5007CFDF7E0FB40EAE070C4
:10891C0008BD007CFDF7EABB37B5457C04462DB19C
:10892C00207C03B0BDE83040FDF7C0BB007C01915A
:10893C00FDF7ECFB00280199F2DC284603B030BDB2
:10894C0010B514210446FBF7D6FF204610BD0000DD
:10895C0010B54FF47A730446084611460022C4E958
:10896C000123044B2360012320746374FDF7DEFBA9
:10897C00204610BD8CCC0B00007C0023FDF7CEBB39
:10898C000022FFF7F9BF007CFDF788BB41747047EC
:10899C007047704708B50021007CFDF7F7FB40EAF3
:1089AC00E07008BD08B50121007CFDF7EFFB40EA43
:1089BC00E07008BD08B5007CFDF7E0FB20EAE07034
:1089CC0008BD08B5007CFDF7D1FB20EAE07008BDBE
:1089DC0013B50446007C0191FDF7D0FB00280199EA
:1089EC0001DC607C20B1207CFDF7D8FB20EAE07034
:1089FC0002B010BD007CFDF7D9BB10B514210446A4
:108A0C00FBF779FF204610BD10B54FF47A7304467E
:108A1C0008460021C4E90113044B23600123207490
:108A2C0063741146FDF78AFB204610BDBCCC0B00CD
:108A3C00007C0022FDF78ABB007CFDF78FBB10B5D4
:108A4C0014220446002100F04DFA204610BD00000F
:108A5C0010B50F4C88B003A8FFF7F1FF2178BFF3D6
:108A6C005B8F11F001010FD120460191FBF752FFF2
:108A7C00019948B103AA0748FFF7C6FF2046FBF748
:108A8C004EFF054800F0F3F9024808B010BD00BFD6
:108A9C0008E703200CE703209D890B0010B5044662
:108AAC00FBF7E2FE013823182046834206D90278F0
:108ABC00197800F8011B03F80129F6E710BD70B511
:108ACC000C46911E22291DD8254630B9234430224C
:108ADC009D4210D205F8012BFAE7B0FBF2F602FB2F
:108AEC001600C1B2092894BF30315731C9B205F80C
:108AFC00011B3046E9E7002320462B70FFF7CEFF21
:108B0C00204670BD0020FCE738B5031E0C46154608
:108B1C000EDAB3F1004F4FF02D0214BF5842184635
:108B2C0001230A702A461944FFF7C9FF204638BDB5
:108B3C000123F9E7014B1860704700BF78DE032072
:108B4C0008B50B4B43B1FFF783FF03681B699847CC
:108B5C00002801DDAFF30080064B43B100F05CF957
:108B6C0003681B699847002801DDAFF3008008BD3E
:108B7C00000000000000000008B5FFF7E1FFFDF762
:108B8C00A5F9014B186008BD28E703200548064AE3
:108B9C00064908B5121A00F07DF9054B054A1A6012
:108BAC0008BD00BF00F4032004F4032098CF0B0091
:108BBC0000F403201E1C279A07B5002300931A46C5
:108BCC006FF07701FDF754FB03B05DF804FB000078
:108BDC0007B543880A2B08D0502B0BD1094B1B68C7
:108BEC004BB103B05DF804EB1847FFF7E5FF03B09A
:108BFC005DF804FB002300931A466FF07701FDF734
:108C0C0037FBF4E724E7032010B512480021FDF7E9
:108C1C0021FC114B1A68114B9A42114B0CBF0122CB
:108C2C0000221A7001D0FFF7B1FFFDF73FF904469F
:108C3C0000F060F90B4B13B12046AFF3008000211C
:108C4C000848FDF757FBBDE8104007480021FDF729
:108C5C0005BB00BF418B0B0000F403201E1C279AA0
:108C6C0020E7032000000000DD8B0B00252813B546
:108C7C0002D9002002B010BDA0F10B03022B1AD8B0
:108C8C00174C2178BFF35B8F11F001010BD12046FB
:108C9C000191FBF73FFE019928B11248FFF79EFBAB
:108CAC002046FBF73CFE0F4B1878FDF7CFF9002858
:108CBC00DFD10120DEE7012809D800F06DF8002192
:108CCC00007CFDF77BF980F00100C0B2D2E70938D7
:108CDC000128EED800F0A0F8007CFDF70FFAF2E7BF
:108CEC0020E6032024E60320252838B504460D464B
:108CFC000AD8FF2908D0FFF7B9FF28B1294620462A
:108D0C00BDE83840FDF7FAB838BD38B504460D4615
:108D1C00FDF7FCF8FF2810D0062804D84D2323FAC1
:108D2C0000F0C30709D42046FFF7A0FF28B129465D
:108D3C002046BDE83840FDF7F1B838BD10B5044603
:108D4C00FDF7E4F8031FDBB2012B08D92046FFF72F
:108D5C008DFF20B12046BDE81040FDF7E7B800209C
:108D6C0010BD704738B50A4B0360012304464361BC
:108D7C000849202000F076F8202560600549A560A0
:108D8C00284600F06FF8C4E90305204638BD00BF43
:108D9C0018000100E4CC0B0030B50E4D2978BFF360
:108DAC005B8F11F0010487B011D12846FBF7B2FD9F
:108DBC0068B16846FFF7D6FF6A4621460648FDF7BC
:108DCC0053FF2846FBF7ABFD044800F050F802486F
:108DDC0007B030BD2CE7032030E703206F8D0B006C
:108DEC007047000038B5044614252A46002100F0CF
:108DFC0079F825804025074925812846258200F0F1
:108E0C0031F804496060284600F02CF8E0602046F8
:108E1C0038BD00BFE4CC0B0030B50E4D2978BFF344
:108E2C005B8F11F0010487B011D12846FBF772FD5E
:108E3C0068B101A8FFF7D6FF01AA21460648FFF743
:108E4C0087FD2846FBF76BFD044800F010F802483C
:108E5C0007B030BD44E7032048E70320ED8D0B003D
:108E6C00FBF745BDFBF745BD08B5FDF7D3FA00236D
:108E7C0001461A46184600F0B9B90A22002100F042
:108E8C00ABB90000024B1844407800F097007047D3
:108E9C00B0CD0B000A44914200F1FF3300D1704772
:108EAC0010B511F8014B03F8014F9142F9D110BDE7
:108EBC00884210B501EB020402D98442234607D83C
:108ECC00431EA14208D011F8012B03F8012FF8E73B
:108EDC00024401468A4200D110BD13F8014D02F83C
:108EEC00014DF7E702440346934200D1704703F863
:108EFC00011BF9E738B5104B1D68AB6B0446B3B9D1
:108F0C001820FDF767FA0246A86320B90B4B0C48F2
:108F1C004221FDF797FA0B490B4BC0E900130B4BA1
:108F2C0083600B23838100210120C2E90401AB6B18
:108F3C0000221C615A6138BD78DE0320E5CC0B00A1
:108F4C00FCCC0B000E33CDAB34126DE6ECDE050021
:108F5C00C9B2034610F8012B1AB18A42F9D118464E
:108F6C007047002918BF0023F9E710B50446FFF736
:108F7C00EFFF18B92046FBF777FC204410BD0346E1
:108F8C0011F8012B03F8012B002AF9D170470000CE
:108F9C00024B0146186800F003B800BF78DE0320CE
:108FAC0037B5044608460D46FBF75EFC421C1146DD
:108FBC0020460192FDF736FA044618B1019A29466B
:108FCC00FFF768FF204603B030BD10B57AB10346F9
:108FDC000139841813F8010B11F8012F904201D1BB
:108FEC00A34201D1801A10BD0028F3D1FAE7104634
:108FFC00F9E738B503460C4669B9BDE83840FFF7C8
:10900C00A7BF431C054621461846FFF7A1FF0028C1
:10901C00F7D1284638BD0025F5E70000164B73B58F
:10902C001E68B46D0546FCB950200191FDF7D2F9CC
:10903C000199B065024620B9104B11485721FDF734
:10904C0001FAC0E90044C0E90244C0E90444C0E9A3
:10905C000A44C0E90C44C0E90E44C0E91044C0E91C
:10906C001244846104774462B26D0123284602B035
:10907C00BDE8704000F006B878DE0320E5CC0B00AC
:10908C0055CD0B00F0B508B9106888B104462046E0
:10909C0014F8015B0F4617F8016B1EB965B9156022
:1090AC00284605E0B542F6D1002BF0D114600370D0
:1090BC00F0BD1C460CE015B914F8013B0E4616F831
:1090CC00015BAB42F7D1002BF3D0002304F8013C39
:1090DC001460EDE7012B2DE9F04701D0242B06D9C4
:1090EC00FDF7A8F9162303600020BDE8F087DFF830
:1090FC00E4C00D462E4615F8014B14F80C7017F011
:10910C000807F7D12D2C32D12C780127B51C002B58
:10911C005BD0102B09D1302C07D12C7804F0DF0454
:10912C00582C4DD16C781023023507F1004808F10A
:10913C00FF384FF0000CB8FBF3F9664603FB198AB5
:10914C00A4F1300EBEF1090F16D87446A34224DDEB
:10915C00BCF1000F1EDBB1451CD301D1A24519DBBC
:10916C0006FB03464FF0010C15F8014BE8E72B2CDE
:10917C0004BF2C78B51CCAE7A4F1410EBEF1190F3F
:10918C0001D8373CE2E7A4F1610EBEF1190F04D807
:10919C00573CDBE74FF0FF3CE6E7BCF1000F05DA8C
:1091AC0022230360464642B930469EE707B1764219
:1091BC00002AF9D0BCF1000F00D0691E1160F3E752
:1091CC003024002BB1D10823AFE7302CA5D00A23D3
:1091DC00ABE700BFB1CD0B0013460A46014602486F
:1091EC000068FFF777BF00BF78DE03202DE9F84356
:1091FC00DFF8B8800646D8F800001F460D469146A9
:10920C0000F056F8254B1C6834B9254C1C60254BD6
:10921C0013B11B68C4F8883063681F2B07DDD8F8BE
:10922C00000000F047F84FF0FF30BDE8F8834EB374
:10923C00D4F8880088B91C4B23B9D8F8000000F08A
:10924C0038F8F0E74FF48470FDF7C4F80028F4D038
:10925C000023C0E94033C4F88800636840F82390C9
:10926C0001229A4000EB8301D0F800311343C0F87F
:10927C000031022EC1F8807002BFD0F804311343C4
:10928C00C0F804316368D8F800005A1C02336260DD
:10929C0044F8235000F00EF80020C6E7E8E703205E
:1092AC005CE7032000000000E1630B00DCDE032020
:1092BC00704770477047000085480B00C1480B0091
:1092CC00E9480B00ED480B000000000043616C6C9A
:1092DC00206F6E2070757265207669727475616C82
:1092EC00005449544C450053746172742000546905
:1092FC006D6500456E642020200042415454455257
:10930C005920250054696D65205A6F6E6500494ED1
:10931C005354525543544F523A005374617273680C
:10932C0069702049465433202D2000576861742001
:10933C00746F20657870656374200066726F6D20A1
:10934C00746865206E6578742000666C6967687453
:10935C00207465737400686F6F6B2D726573706F1A
:10936C006E73652F6765745F646174610042757A12
:10937C007A6572206F666600496E697469616C6902
:10938C007A696E6720652D5061706572206469730F
:10939C00706C6179004661696C656420746F20693A
:1093AC006E697469616C697A6520646973706C614B
:1093BC007900496E697469616C697A696E672050CD
:1093CC004E3533320057616974696E6720666F726F
:1093DC00206120636172642E2E2E2E2E2E0043618E
:1093EC006C6C696E6720456E6420506F696E7420DA
:1093FC0066756E6374696F6E2E2E2E00494620536F
:10940C00746174656D656E742065786563757469D7
:10941C006E67005570646174696E6720452D5061EC
:10942C0070657220446973706C61790D0A2000209C
:10943C00414D0020504D007C004C444F204469733A
:10944C00636F6E6E6563746564000000000000005D
:10945C0000000000000000000000000009490B00A3
:10946C0031490B000000000000000000454D0B00CE
:10947C00794D0B00F57D0B00997F0B0064656661DF
:10948C00756C7420004D5342004C5342003C5350B9
:10949C004953657474696E67732064656661756C95
:1094AC00743E003C53504953657474696E67732065
:1094BC0025732575202573204D4F444525753E0099
:1094CC000000000000000000E9570B00BB570B0028
:1094DC00BD570B0000000000000000000000000061
:1094EC000000000000000000000000000000000070
:1094FC000000000000000C000C000C000C000C0024
:10950C000C000C000C0000000C000000000000001F
:10951C0000000000000000001DC01DC00880088075
:10952C0008800000000000000000000000000000A7
:10953C000000000000000D800D800D800D803FC0EC
:10954C001B003FC01B001B001B001B000000000089
:10955C000000000004001F803180318038001E00A4
:10956C000F000380318031803F00040004000000B4
:10957C0000000000000018002400240018C0078020
:10958C001E003180024002400180000000000000FB
:10959C0000000000000000000F0018001800180068
:1095AC000C001D80370033001D80000000000000FF
:1095BC00000000000000000007000700020002008D
:1095CC00020000000000000000000000000000008D
:1095DC000000000000000300030006000E000C0059
:1095EC000C000C000C000E00060003000300000031
:1095FC00000000000000180018000C000600060017
:10960C0006000600060006000C001C0018000000F6
:10961C00000000000000060006003FC03FC00F0025
:10962C001F801980000000000000000000000000F6
:10963C000000000000000000000004000400040012
:10964C003F80040004000400000000000000000043
:10965C0000000000000000000000000000000000FE
:10966C00000000000000060004000C0008000800C8
:10967C0000000000000000000000000000000000DE
:10968C003F8000000000000000000000000000000F
:10969C0000000000000000000000000000000000BE
:1096AC000000000000000C000C0000000000000096
:1096BC000000000000C000C0018001800300030016
:1096CC0006000C000C0018001800300030000000E0
:1096DC000000000000000E001B0031803180318042
:1096EC003180318031801B000E0000000000000032
:1096FC0000000000000006003E0006000600060008
:10970C0006000600060006003FC000000000000036
:10971C000000000000000F00198031803180030030
:10972C0006000C00180030003F8000000000000014
:10973C000000000000003F006180018003001F005A
:10974C0003800180018061803F0000000000000068
:10975C00000000000000070007000F000B001B00BA
:10976C00130033003F8003000F8000000000000056
:10977C000000000000001F801800180018001F00D7
:10978C0011800180018021801F000000000000007A
:10979C0000000000000007801C001800300037009B
:1097AC0039803180318019800F00000000000000EA
:1097BC000000000000007F004300030006000600CC
:1097CC00060006000C000C000C000000000000005D
:1097DC000000000000001F003180318031801F002C
:1097EC0031803180318031801F000000000000008A
:1097FC000000000000001E003300318031803380F7
:10980C001D800180030007003C00000000000000E8
:10981C000000000000000000000000000C000C0024
:10982C000000000000000C000C0000000000000014
:10983C000000000000000000000000000300030016
:10984C0000000000000006000400080008000000F2
:10985C00000000000000000000C00300040018001D
:10986C00600018000400030000C0000000000000AD
:10987C0000000000000000000000000000007FC09D
:10988C0000007FC00000000000000000000000008D
:10989C00000000000000000060001800040003003D
:1098AC0000C003000400180060000000000000006D
:1098BC0000000000000000001F003180318001809A
:1098CC0007000C000C0000000C0000000000000061
:1098DC000000000000000E001100210021002700F4
:1098EC00290029002700200011000E0000000000B4
:1098FC0000000000000000003F000F00090019806C
:10990C0019801F8030C030C079E0000000000000DA
:10991C0000000000000000007F00318031803180A9
:10992C003F003180318031807F000000000000005A
:10993C0000000000000000001F4030C060406000CC
:10994C0060006000604030801F00000000000000DC
:10995C0000000000000000007F00318030C030C0EB
:10996C0030C030C030C031807F00000000000000EB
:10997C0000000000000000007F803080308032004A
:10998C003E003200308030807F80000000000000FC
:10999C0000000000000000007FC03040304032006A
:1099AC003E003200300030007C000000000000005F
:1099BC0000000000000000001E803180608060000C
:1099CC00600067C0618031801F0000000000000053
:1099DC0000000000000000007BC03180318031802D
:1099EC003F803180318031807BC00000000000005E
:1099FC0000000000000000003FC00600060006004A
:109A0C0006000600060006003FC000000000000033
:109A1C0000000000000000001FC003000300030052
:109A2C0003006300630063003E00000000000000C0
:109A3C0000000000000000007BC0318033003600C5
:109A4C003C003E003300318079C000000000000073
:109A5C0000000000000000007E0018001800180034
:109A6C0018001840184018407FC00000000000008B
:109A7C000000000000000000E0E060C071C07BC08E
:109A8C006AC06EC064C060C0FBE000000000000053
:109A9C00000000000000000073C0318039803D8060
:109AAC0035803780338031807980000000000000E1
:109ABC0000000000000000001F00318060C060C08A
:109ACC0060C060C060C031801F000000000000005A
