:02000002B0004C
:1040000000400B0022FF0B00000006001900050213
:0840100004017D150000000011
:04401800FC6A0B0033
:10401C00034613F8012B002AFBD1181A01387047FC
:10402C0009480A49884208B505D0094A824202D09B
:10403C00121A02F080FC0748074A0021121A02F0FB
:10404C0088FC014808BD00BF34E5032080FE0B004E
:10405C00A8E50320A8E50320F0E7032070B5074E80
:10406C00074C02F031FBA41BA4080025AC4200D184
:10407C0070BD56F8043B98470135F7E738FE0B0046
:10408C005CFE0B0000F0AEB908B500F019F9BDE804
:10409C00084002F0D1BA01F05BBA01F059BA01F054
:1040AC005FBA0078B0FA80F04009704701230370C2
:1040BC00704700002DE9F0417A4D7B4FADF5C06D96
:1040CC0002F036FA794901F0C3FF284600F0AFFB45
:1040DC001C234FF4C87209A905A8002400F089FC20
:1040EC0005A8012100F0B6FC22462146704B019434
:1040FC00009705A800F056FD05A800F0C0FC039041
:10410C0005A800F0BEFC064605A800F0CAFC039901
:10411C00CDE9006028236422284600F07CFA0126B1
:10412C00214605A800F096FC624B02226421CDE9E1
:10413C00007605A800F036FD05A800F0A0FC039061
:10414C0005A800F09EFC074605A800F0AAFC224634
:10415C004023CDE900700399284600F0C4FA05A865
:10416C00402100F090FC05A8402100F09CFC322777
:10417C00314605A800F06EFC0194009722462146BA
:10418C0005A8282300F07FFDCDE9007422462146C6
:10419C0005A8282300F01EFD234622462821CDE940
:1041AC00007405A800F016FD05A800F068FC03904B
:1041BC0005A800F066FC804605A800F072FC039987
:1041CC00CDE9008078234822284600F024FA3146B5
:1041DC0005A800F03FFC202211461E23009405A8E0
:1041EC0000F0B3FD05A800F04AFC039005A800F010
:1041FC0048FC804605A800F054FC0399CDE90080EA
:10420C007823C822284600F006FA314605A800F0AB
:10421C0021FC224621462823CDE9007405A800F094
:10422C006EFD05A800F02BFC039005A800F029FCFE
:10423C00074605A800F035FC0399CDE90070C823AA
:10424C004822284600F04FFA314605A800F002FC3F
:10425C00202211461E23009405A800F0B7FD05A8E6
:10426C0000F00DFC039005A800F00BFC044605A81B
:10427C0000F017FCC8231A460399CDE900402846E4
:10428C0000F031FA284600F003FB0B4A0B49284694
:10429C0000F091FA05A800F0BFFB0DF5C06DBDE86C
:1042AC00F08100BF28E6032034E50320106B0B00DF
:1042BC00286B0B00356B0B0088C10B00F0860B00D4
:1042CC0008B5FFF7F7FEBDE8084041F2883001F071
:1042DC007FB938B5046805467CB16368013B6360FF
:1042EC005BB9236820469B689847A368013BA36091
:1042FC001BB923682046DB689847284638BD000068
:10430C002DE9F0434FF47A7089B001F061F92E4F2A
:10431C00DFF8C880DFF8C89001240025E6B202F06F
:10432C009BFA314601F02CFD02F096FA01F033FDB8
:10433C0040BB02F0FDF8494601F08AFE02F0F8F8A5
:10434C0010220646214601F0A0FE304601F087FE01
:10435C00013501347F2CE1D11C4B1B788DF80030DA
:10436C003C2375BB1A492A4604A801F0E3FA05A8B8
:10437C00FFF7AFFF02F0DCF8164909B0BDE8F043D7
:10438C0001F079BE0428E4D10F2C04D802F0D0F847
:10439C00414601F05DFE102231460DEB020001F0AA
:1043AC00E8FF3B7804998DF8003000223C2302A8EA
:1043BC0001F0C0FA03A8FFF78CFF04A801F068FF16
:1043CC00C7E705490022CFE725E6032024E60320B2
:1043DC00626B0B00746B0B006F6B0B00606B0B0054
:1043EC00416B0B0038B502F0A3F84FF4E13102F049
:1043FC0093F841F2883001F0EBF802F099F801F0F3
:10440C002EFE02F095F81A4901F022FE194800F030
:10441C00E5F830B102F08CF8BDE83840164901F0EF
:10442C0017BE02F085F801F01AFE02F081F813496C
:10443C00134D144C01F00CFE284600F041FE48B917
:10444C0002F076F8214601F003FE4FF47A7001F089
:10445C00BFF8F1E702F06CF801F001FE02F068F829
:10446C00094901F008FEBDE83840FFF749BF00BF1D
:10447C00796B0B0028E60320966B0B00B36B0B00DB
:10448C0044E60320DD6B0B00C66B0B0038B51D4BEF
:10449C001D4A00241C701D4B01251D701C4B022055
:1044AC009A60C3E9004400F09FFF2146284600F0C3
:1044BC00ABFF184800F044F81749184801F033FFD7
:1044CC001549174801F02FFF1349164801F02BFF2F
:1044DC001149154801F027FF0F49144801F023FF3B
:1044EC000D49134801F01FFF0B49124801F01BFF47
:1044FC0022461148022100F01FFDBDE838400F484C
:10450C0000F0BCBC24E603200000FFFF25E60320DE
:10451C00B8E5032028E60320276B0B00C4E5032035
:10452C00D4E50320E4E50320F4E5032004E60320AE
:10453C0014E60320A8E5032044E6032040E603200C
:10454C0010B5044600F0F2F906220523C4E9022353
:10455C0008210723C4E904134FF4C8704FF4967371
:10456C00C4E90003204610BD10B50C46C0680021FC
:10457C0000F0DDF92046BDE8104000F029BA10B576
:10458C000C46C068012100F0D2F92046BDE810406D
:10459C0000F01EBA10B50446606900F0CCF918B9E9
:1045AC00642000F0CBF9F7E710BD10B501210446EB
:1045BC00806800F0BCF9C82000F0C0F9A0680021A8
:1045CC0000F0B5F9022000F0B9F9A068012100F063
:1045DC00AEF9BDE81040C82000F0B0B938B50446BB
:1045EC0000F0CAF9054698B92046FFF7DEFF042112
:1045FC002046FFF7B9FF2046FFF7CCFF294620469F
:10460C00FFF7B2FF0F212046FFF7B9FF284638BD50
:10461C004FF0FF35FAE72DE9F04704460F4691219C
:10462C0016469946DDE90858FFF79EFF9021204673
:10463C0006F0F80AFFF798FFC6F307212046FFF7AC
:10464C009EFF51462046FFF79AFF514629440139F7
:10465C00C1F307212046FFF792FF691E514441F038
:10466C000701C9B22046FFF78AFF5FFA89F6C9F342
:10467C0007212046FFF783FF31462046FFF77FFFD7
:10468C0009EB08010139C1F307212046FFF777FF39
:10469C0008F1FF313144C9B22046FFF770FF012108
:1046AC002046FFF76CFF022000F048F9102120464D
:1046BC00FFF75AFF77B1002DB8BF0735ED1008FB97
:1046CC0005F50026B54205DDB95D2046FFF757FF1D
:1046DC000136F7E7022000F031F920469221BDE8BF
:1046EC00F047FFF741BF2DE9F04704460F469121F3
:1046FC0016469946DDE90858FFF736FF902120460B
:10470C0006F0F80AFFF730FFC6F307212046FFF743
:10471C0036FF51462046FFF732FF514629440139F6
:10472C00C1F307212046FFF72AFF691E514441F0CF
:10473C000701C9B22046FFF722FF5FFA89F6C9F3D9
:10474C0007212046FFF71BFF31462046FFF717FFD6
:10475C0009EB08010139C1F307212046FFF70FFFD0
:10476C0008F1FF313144C9B22046FFF708FF01219F
:10477C002046FFF704FF022000F0E0F8132120464A
:10478C00FFF7F2FE77B1002DB8BF0735ED1008FB2F
:10479C0005F50026B54205DDB95D2046FFF7EFFEB5
:1047AC000136F7E7022000F0C9F820469221BDE857
:1047BC00F047FFF7D9BEF8B5044615460F46A9B128
:1047CC001021FFF7D1FE022000F0B8F80026236874
:1047DC006268DB085343B34205D9B95D2046FFF745
:1047EC00CEFE0136F3E7022000F0A8F8B5B1132194
:1047FC002046FFF7B9FE022000F0A0F8002623683F
:10480C006268DB085343B34205D9A95D2046FFF724
:10481C00B6FE0136F3E7022000F090F82046122194
:10482C00FFF7A2FE2046BDE8F840FFF7B3BE38B54F
:10483C0010210446FFF798FE022000F07FF80025B7
:10484C0023686268DB085343AB4205D9FF2120463D
:10485C00FFF795FE0135F3E7022000F06FF8132106
:10486C002046FFF781FE022000F068F8002523683F
:10487C006268DB085343AB4205D9FF212046FFF7A2
:10488C007EFE0135F3E7BDE83840022000F056B853
:10489C0010B512210446FFF767FE642000F04EF8B5
:1048AC002046BDE81040FFF775BE704710B51021CB
:1048BC000446FFF7F4FB204610BD0EB403B503AB62
:1048CC00002153F8042B019301F0FDFB02B05DF8BD
:1048DC0004EB03B07047000073B504460846227918
:1048EC00A36832B1A3B90B4902B0BDE8704001F026
:1048FC00AFBB094A267B094D0949647B012E18BFC1
:10490C002946CDE900140749FFF7D7FF02B070BD67
:10491C00054AEFE7F06B0B00276B0B00EC6B0B0001
:10492C00E86B0B00066C0B00DF6B0B007047C9B219
:10493C0080B201F04ABF80B201F060BF00F048BE07
:10494C0013B50B4C2178BFF35B8F11F001010BD128
:10495C0020460191FFF7A5FB019928B1054801F00C
:10496C00EFFB2046FFF7A2FB024802B010BD00BFD0
:10497C0090E6032094E603201FB50121082001F0E6
:10498C0013FF0121062001F00FFF0121052001F08A
:10499C000BFF0021072001F007FFFFF7D1FF01F00B
:1049AC00D9FB094B0093094B029300240123ADF86A
:1049BC000C308DF80440FFF7C3FF694601F0F4FB9F
:1049CC00204604B010BD00BF2C6C0B0080841E0070
:1049DC0010B500210446082001F0F7FEFFF7B0FFE8
:1049EC00214601F04FFCBDE810400121082001F0E8
:1049FC00ECBE30B50024C46012F00704016008D08E
:104A0C0002F10805524202F00701224658BF4A4201
:104A1C00AA1AC0E9012330BD7047002930B515DB57
:104A2C0044688C4212DD002A10DB856895420DDD4E
:104A3C0002FB04120568D21001F00701802444FA2D
:104A4C0001F1A85649B213B10843A85430BD20EA6D
:104A5C000100FAE770B50B46044600256268AA42CD
:104A6C000CDD0026A268B24206DD324629462046FD
:104A7C00FFF7D3FF0136F5E70135EFE770BD0068AE
:104A8C0070474068704711F0070210B507D001F16C
:104A9C000804494201F0070358BF5A42A11A416069
:104AAC0010BD8068704781607047F0B4C7680D46D0
:104ABC00144667B9002937DB47688F4234DD002A7A
:104ACC0032DB856895422FDDF0BCFFF7A6BF012FC6
:104ADC000CD1002928DB82688A4225DD002C23DBDF
:104AEC004168A14220DD2A46091BEDE7022F0CD1BB
:104AFC00002919DB4168A94216DD002A14DB826803
:104B0C00A24211DD121B491BDEE7032F0CD1002939
:104B1C000ADB82688A4207DD002C05DB4168A14272
:104B2C0002DD521B2146CFE7F0BC70472DE9F74F51
:104B3C000C9DAC88914614F0070218BF012202EBC1
:104B4C00D402EC88203B63432C68884603FB024468
:104B5C0000274FF0800BEB88BB4220DD002609EBD1
:104B6C000702AB88B34215DD217806F0070A4BFA31
:104B7C000AF3194208D00D9B019206EB0801009034
:104B8C00FFF793FFDDE90002BAF1070F08BF01340C
:104B9C000136E6E75B0718BF01340137DBE703B0EA
:104BAC00BDE8F08F2DE9F341089F06460C46904670
:104BBC005D1E15F8013F53B1099A2146CDE90072EB
:104BCC0030464246FFF7B2FFBB881C44F1E702B007
:104BDC00BDE8F0812DE9F04F85B05D1ADDF8388025
:104BEC00002DA8EB0206B8BF6D428B42CCBF4FF034
:104BFC00010A4FF0FF3A002EB8BF76421F46C6F1AD
:104C0C00000B9045CCBF4FF001094FF0FF39AC1BA6
:104C1C00B94215D0424513D00F9B0190CDE9021239
:104C2C00FFF743FFDDE90101BBEB440FDCBFA41B25
:104C3C005144B5EB440F039AEADB2C444A44E7E7B2
:104C4C0005B0BDE8F08FF8B5064617460C46CD18F2
:104C5C00A54207DD2146069B3A463046FFF725FF65
:104C6C000134F5E7F8BDF8B506460F461446D518DD
:104C7C00A54207DD2246069B39463046FFF715FF55
:104C8C000134F5E7F8BD2DE9FF410F46DDE90A488F
:104C9C00BB421946A8BF3946BB42B8BF3B469442FB
:104CAC0027461D46A8BF17465B1A9442B8BF144648
:104CBC00064601333A46CDF8008003930291FFF784
:104CCC00C2FF039B0299CDF8008022463046039127
:104CDC00FFF7B9FFE31B0399CDF8008001333A4687
:104CEC0030460293FFF7BFFF029BCDF828803A466F
:104CFC002946304604B0BDE8F041FFF7B4BF2DE9BA
:104D0C00F3418B42044608981E46A8BF0E468B42C0
:104D1C00B8BF0B4690428046A8BF90469042ACBFAD
:104D2C00C8EB0007C8EB02071D460137AE4209DC91
:104D3C00099B009331463B4642462046FFF793FFC2
:104D4C000136F3E702B0BDE8F0812DE9F3475D428F
:104D5C00C3F1010381460F4690465C000026A7EB89
:104D6C00050A0A9B06EB0802514648460092FFF7DB
:104D7C009CFEE919009A01914846FFF796FEA8EBB4
:104D8C000602019900924846FFF78FFE009A5146A1
:104D9C004846FFF78AFEA64214DB013604EB4603B5
:104DAC00EE4203F1010302D1A54202DB0024A5422D
:104DBC000ADA013503EB45035C1C002DCFDD02B094
:104DCC00BDE8F0872346F2E71C46F6E72DE9F04FE5
:104DDC0087B05D42C3F10103039191465C0000264C
:104DEC00039B0490A3EB050A06EB0908109B4246B3
:104DFC005146FFF75AFE039A0498AF18A9EB060B1D
:104E0C0042463946FFF751FE04985A463946FFF799
:104E1C004CFE04985A465146FFF747FE6FF00103CB
:104E2C00109A049800926B4301334246394605931D
:104E3C00FFF709FF109B049800935A46059B3946CF
:104E4C00FFF701FFA642049814DB013604EB46037E
:104E5C00EE4203F1010302D1A54202DB0024A5427C
:104E6C000ADA013503EB45035C1C002DB8DD07B0F5
:104E7C00BDE8F08F2346F2E71C46F6E710B5044672
:104E8C0001F0EAFC00F04AFF204610BD0368C9B2ED
:104E9C009B6818472DE9F04101320220D5B20F462C
:104EAC0000F096FB01F0D8FC242100F06DFF01F01E
:104EBC00D3FC0021FFF7EAFF01F0CEFC0021FFF745
:104ECC00E5FF01F0C9FCFF21FFF7E0FF01F0C4FC96
:104EDC00036829469B68984701F0BEFC6942FFF7BE
:104EEC00D5FF01F0B9FCD421FFF7D0FF0024D32665
:104EFC00013D04F10108E4B2AC420ADA01F0ACFC69
:104F0C000368395D9B689847395D0E44F6B2444698
:104F1C00EFE701F0A1FC0368F1439B68C9B2984725
:104F2C0001F09AFC036800219B68984701F094FCFF
:104F3C00BDE8F04100F02FBF38B50446064B84F8AD
:104F4C004810084615462360002101F02DFC84F81A
:104F5C004950204638BD00BF28FC0B0038B505462B
:104F6C00652495F8480001F049FC30B1013CA4B22D
:104F7C002CB10A2000F02CFBF3E7012038BD2046B1
:104F8C00FCE7F7B500238DF800308DF801308DF873
:104F9C0003308DF8053090F84930FF22012B044680
:104FAC000D468DF802208DF8042041D1FFF7D6FF75
:104FBC0010B9002003B0F0BD01F04EFC08222421F2
:104FCC0000F0DBFE01F048FC03685B699847261D86
:104FDC0004F10A07012000F0FBFA01F03DFC036824
:104FEC005B69984706F8010BBE42F3D12046FFF7E8
:104FFC00B5FF0028DDD001F02FFC2A1F242100F082
:10500C00BCFE01F029FC03685B6998476FF0090747
:10501C00063D3F1BBB199D4249DD012000F0D8FA2B
:10502C0001F01AFC03685B69984706F8010BF1E77D
:10503C00002B3CD11E2000F0CBFA01F00DFC082215
:10504C00242100F09AFE01F007FC03685B69984785
:10505C00261D04F10A07012000F0BAFA01F0FCFB4E
:10506C0003685B69984706F8010BBE42F3D11E201A
:10507C0000F0AEFA01F0F0FB2A1F242100F07DFEB7
:10508C0001F0EAFB03685B6998476FF00907063D7E
:10509C003F1BBB199D420ADD012000F099FA01F07B
:1050AC00DBFB03685B69984706F8010BF1E7062206
:1050BC00211D684601F0A1FCB0FA80F0400979E7A7
:1050CC0037B5FF2380F827304FF0FF330446012516
:1050DC00836280F82C3014238DF804308DF8063060
:1050EC008DF805508DF8075001F0B6FB00F016FE58
:1050FC00236884F8415004220DEB02011B68204602
:10510C0098470A2000F064FA23684FF47A725B68BF
:10511C000E212046984720B1207CA0F1150358425F
:10512C00584103B030BD000008B5024B1B685B6CE6
:10513C00019308BD4802030008B5024B1B685B686D
:10514C00019308BD1802030008B5024B1B685B698C
:10515C00019308BD1802030008B5024B1B689B683D
:10516C00019308BD2C02030008B5024B1B68DB68D9
:10517C00019308BD2C02030008B5024B1B681B6988
:10518C00019308BD2C02030008B5024B1B685B6938
:10519C00019308BD2C02030008B5024B1B68DB68A9
:1051AC00019308BD2802030008B5024B1B689B69DC
:1051BC00019308BD2802030008B5024B1B68DB698C
:1051CC00019308BD2802030008B5024B1B681B6A3B
:1051DC00019308BD2802030008B5024B1B685B6AEB
:1051EC00019308BD2802030008B5024B1B689B6A9B
:1051FC00019308BD2802030008B5024B1B68DB6A4B
:10520C00019308BD2802030008B5024B1B681B6BF9
:10521C00019308BD2802030008B5024B1B685B6BA9
:10522C00019308BD2802030008B5024B1B681B6CD8
:10523C00019308BD2802030008B5024B1B681B6DC7
:10524C00019308BD2802030008B5024B1B685B697B
:10525C00019308BD6402030008B5024B1B689B68F0
:10526C00019308BD6802030008B5024B1B68DB689C
:10527C00019308BD6802030008B5024B1B681B684C
:10528C00019308BD3002030008B5024B1B685B6933
:10529C00019308BD3002030008B5024B1B68DB69A3
:1052AC00019308BD3002030008B5024B1B681B6A52
:1052BC00019308BD3002030008B5024B1B685B6A02
:1052CC00019308BD3002030008B5024B1B68DB6B71
:1052DC00019308BD3002030008B5024B1B681B6C20
:1052EC00019308BD3002030008B5024B1B685B6CD0
:1052FC00019308BD3002030008B5024B1B68DB6844
:10530C00019308BD3C02030008B5024B1B681B69E6
:10531C00019308BD3C02030008B5024B1B685B6996
:10532C00019308BD3C02030008B5024B1B689B6946
:10533C00019308BD3C02030008B5024B1B68DB69F6
:10534C00019308BD3C02030008B5024B1B681B6AA5
:10535C00019308BD3C02030008B5024B1B689B6A15
:10536C00019308BD3C02030008B5024B1B681B6C83
:10537C00019308BD3C02030008B5024B1B681B6877
:10538C00019308BD4C02030008B5024B1B685B6817
:10539C00019308BD4C02030008B5024B1B681B6946
:1053AC00019308BD4C02030008B5024B1B685B69F6
:1053BC00019308BD4C02030008B5024B1B689B69A6
:1053CC00019308BD4C02030008B5024B1B68DB6956
:1053DC00019308BD4C02030008B5024B1B681B6A05
:1053EC00019308BD4C02030008B5024B1B685B68B7
:1053FC00019308BD2002030008B5024B1B685B69D2
:10540C00019308BD2002030008B5024B1B68DB6A40
:10541C00019308BD2002030008B5024B1B68DB6C2E
:10542C00019308BD2002030008B5024B1B685B6D9D
:10543C00019308BD2002030008B5034B1B68D3F889
:10544C008830019308BD00002002030008B5034B0F
:10545C001B68D3F89430019308BD000020020300B0
:10546C0008B5024B1B685B69019308BD440203003D
:10547C0008B5024B1B681B6A019308BD440203006C
:10548C0008B5024B1B68DB6B019308BD440203009B
:10549C0008B5024B1B685B68019308BD4002030012
:1054AC0008B5024B1B689B68019308BD40020300C2
:1054BC0008B5024B1B68DB68019308BD4002030072
:1054CC0008B5024B1B681B69019308BD4002030021
:1054DC0008B5024B1B685B69019308BD40020300D1
:1054EC0008B5024B1B689B69019308BD4002030081
:1054FC0008B5024B1B68DB69019308BD4002030031
:10550C0008B5024B1B681B6A019308BD40020300DF
:10551C0008B5024B1B681B6B019308BD40020300CE
:10552C0008B5024B1B685B6B019308BD400203007E
:10553C0008B5024B1B681B6C019308BD40020300AD
:10554C0008B5024B1B685B6C019308BD400203005D
:10555C0008B5024B1B681B68019308BD1C020300B5
:10556C0008B5024B1B685B68019308BD1C02030065
:10557C0008B5024B1B689B68019308BD1C02030015
:10558C0008B5024B1B685B6A019308BD1C02030043
:10559C0008B5024B1B68DB6A019308BD1C020300B3
:1055AC0008B5024B1B681B6B019308BD1C02030062
:1055BC0008B5024B1B681B6C019308BD1C02030051
:1055CC0008B5024B1B685B6C019308BD1C02030001
:1055DC000021FFF711BF10B5836804460BB901F029
:1055EC00A1F9C3689847A3681BB103222146204642
:1055FC00984720461021BDE81040FEF750BD10B56D
:10560C008368044613B1032201469847204610BD17
:10561C0013B50B460246D0E900016C4684E8030042
:10562C0093E8030082E8030094E8030083E8030096
:10563C0002B010BD024800230360FFF775BD00BF28
:10564C009CE60320002240681146FFF739BF002278
:10565C0040681146FFF754BF002240681146FFF71F
:10566C005FBF40680022FFF753BF4068002281F003
:10567C000101FFF73DBF002340681A461946FFF7AA
:10568C002FBF002340681A461946FFF721BF00229E
:10569C0040681146FFF704BF406800220221FFF763
:1056AC0007BF002340681A46FFF7F2BE084B10B53F
:1056BC00282422461846002101F04BF9054B0480A2
:1056CC004FF0FF32426004225A60034A1A6010BD48
:1056DC00A8E60320A0E6032038FC0B00704700204E
:1056EC00704710B510210446FEF7D9FC204610BDBA
:1056FC0008B5FFF7F6FF08BD30B500224FF69C74D5
:10570C00026084808D888C800C68858004600A60BF
:10571C0030BD10B504460068FFF722FF204610BDCF
:10572C0038B5C468F4B12378022B03D104F10C0012
:10573C00FFF7EFFF656835B12846FFF760FF1021D2
:10574C002846FEF7ACFCA56835B12846FFF757FF95
:10575C0010212846FEF7A3FC20461421BDE8384052
:10576C00FEF79DBC38BD0B6803604B68436013B1FA
:10577C005A6801325A60704737B5044668460D4680
:10578C00FFF7F1FF009B019A23606260002301A8E0
:10579C0001930093FEF79DFD35B1281DFEF799FD91
:1057AC0008212846FEF77BFC204603B030BD8268FA
:1057BC0010B50AB901F0B6F8BDE81040C368184737
:1057CC0008B5006800F11001FFF7F1FF08BD826811
:1057DC0010B50AB901F0A6F8BDE81040C368184727
:1057EC0008B5006800F11001FFF7F1FF08BD0000DB
:1057FC0038B500230446036010200D46FEF74BFC21
:10580C0028B10123C0E90133024B0360C56020605D
:10581C00204638BD74FC0B0038B5002383608B68C0
:10582C0004460D462BB102229847EB68E360AB6847
:10583C00A360204638BD0000F0B589B00468684606
:10584C00FFF75AFF4FF00203D4E84F2F002A03D181
:10585C00C4E8413F0029F7D125D104F10C05694674
:10586C002846FFF749FFBFF35B8F012363700020CD
:10587C0004F10803BFF35B8F53E8006F43E80002A9
:10588C00002AF9D1BFF35B8F6EB1FFF7C5FD78B17C
:10589C0029463046FFF78BFF3046FFF7B0FE10214C
:1058AC003046FEF7FCFB6846FFF733FF09B0F0BD4E
:1058BC00314602A8FFF7B0FFE068B4F9105008B108
:1058CC0001F07EF806901020ADF81C50FEF7E3FBBB
:1058DC000546E8B1002787601820FEF7DCFB04467C
:1058EC0088B10146876002A8FFF792FE049BA2686C
:1058FC00A360059B049206A9E268E36004F1100022
:10590C000592FFF7F9FE084BEB60084B2C60AB607F
:10591C0006A8FFF7FEFE02A8FFF771FE002229463B
:10592C000348FFF781FDB7E7CD570B00515A0B0029
:10593C00E3550B002DE9F04F8BB005469DF850A0B8
:10594C000F4690469946FFF78BFD07AE834638BB52
:10595C004FF62E73059005A93046ADF81830FFF7B9
:10596C00CBFE1420FEF797FB044648B102230370CC
:10597C000123C0E901BB437031460C30FFF7BCFE7C
:10598C002846214640F8044BFFF732FF3046FFF71C
:10599C00C0FE05A8FFF7BDFE28460BB0BDE8F08F92
:1059AC000C2300241420CDE908440793FEF773FB65
:1059BC00014618B1C0E901440470447004A8039175
:1059CC00FFF716FF1E4B08930820FEF764FB0446F6
:1059DC0010B103A9FFF7C7FE00965FFA8AF34A4697
:1059EC00414638460994FFF743FDB8B9039B5B78F1
:1059FC0003F0FF0293B94FF69C7305A903A8059217
:105A0C00ADF81830FFF718FF05A8FFF782FE05A8C0
:105A1C000999FFF7B1FE06A8FEF75BFC03A905A8E0
:105A2C00FFF7A1FE059B069A2B606A60002306A86F
:105A3C0006930593FEF74DFC04A8FEF74AFCABE772
:105A4C00CD5A0B00012AF8B5054603D10B6803604B
:105A5C000020F8BD022A10D0032AF9D10468002CCA
:105A6C00F6D004F11000FFF754FE2046FFF7C7FDF7
:105A7C0018212046FEF713FBEAE718200E68FEF704
:105A8C000AFB044650B13146FFF7C6FE3069B6F941
:105A9C00147008B100F094FF2061A7822C60D7E746
:105AAC0038B5002383608B6804460D462BB1022267
:105ABC009847EB68E360AB68A360204638BD0000F4
:105ACC00F0B589B004460D4601A81146FFF754FE07
:105ADC00A4B124B21DB1284600F072FF054601A8FE
:105AEC0003A90395ADF81040FFF7A6FE03A8FFF736
:105AFC0010FE02A8FEF7EDFB09B0F0BD019D0123DD
:105B0C00D5E84F2F002A03D1C5E8413F0029F7D132
:105B1C00EFD12B73BFF35B8F6B702B1DBFF35B8FC0
:105B2C0053E8006F43E80042002AF9D1BFF35B8FC2
:105B3C00002EDED02046FFF76FFC074660B105F162
:105B4C000C013046FFF743FE3046FFF758FD10219D
:105B5C003046FEF7A4FACCE7314603A8FFF7A0FFC6
:105B6C002B7B8DF81C301020FEF795FA0546D0B132
:105B7C0087601420FEF78FFA044678B187600146DF
:105B8C0003A8FFF745FD059BA268A360069B059241
:105B9C00E268E3609DF81C3006922374064BEB60C0
:105BAC00064B2C60AB6003A8FFF729FD00222946A9
:105BBC000348FFF739FCC7E7ED570B00D15B0B002F
:105BCC00E3550B00012A70B5044603D10B68036042
:105BDC00002070BD022A0CD0032AF9D10468002CD5
:105BEC00F6D02046FFF70BFD14212046FEF757FA9E
:105BFC00EEE714200E68FEF74EFA054620B131464A
:105C0C00FFF74EFF337C2B742560E1E700224068E0
:105C1C001146FFF775BC002240681146FFF780BCA7
:105C2C0040680022FFF774BC4068002281F001013B
:105C3C00FFF75EBC002340681A461946FFF750BCBC
:105C4C00002340681A461946FFF742BC0022406800
:105C5C001146FFF735BC002240681146FFF720BC07
:105C6C00406800220221FFF723BC002340681A463B
:105C7C00FFF70EBC024B03225A60024A1A607047AF
:105C8C00D0E6032090FC0B007047F8B5064615468D
:105C9C000C468F18BC4206D0336814F8011B9B6865
:105CAC0030469847F6E72846F8BD007C0022FFF7FF
:105CBC008BBA007C0021FFF78FBA007C0021FFF724
:105CCC0093BA007C0021FFF797BA007C0021FFF704
:105CDC009BBA10B514210446FEF7E1F9204610BD1D
:105CEC0038B5044615464FF47A730022C4E90123F3
:105CFC00094B2174084623602946FFF795FABF30FB
:105D0C0008D16B69DB0705D56868FFF729FCE868E3
:105D1C00FFF726FC204638BDCCFC0B000023007C92
:105D2C001A461946FFF738BA7FB500221423CDE97D
:105D3C000122ADF804300B788DF808304B680393D2
:105D4C00CB680493007C0B7A059301A9FFF774FAD6
:105D5C0007B05DF804FB1FB5003B8DF800104FF049
:105D6C006401039118BF0123694601928DF8083034
:105D7C00FFF7DAFF05B05DF804FB0123FFF7EBBF7B
:105D8C00007C0022FFF710BAC9B2FFF7F9BF007C04
:105D9C000022FFF711BA0121FFF7F9BF704710B5C8
:105DAC0018210446FEF77BF9204610BDF0B5037DA3
:105DBC00062B8DB00E4600F104074FF0000412D0F4
:105DCC0000F1080515F8011D0A22304600F05DF9B6
:105DDC00AF42044419D0002CF4D02E21304600F0F0
:105DEC003BF90444EEE72F236A4639460A208DF826
:105DFC000040FFF729FA6846FEF70AF933680246B5
:105E0C00DB68694630469847044620460DB0F0BD25
:105E1C0010B5054B0446112240F8043B002100F05C
:105E2C0098FD204610BD00BFF4FC0B000346074A4A
:105E3C0010B543F8042B01F1100251F8044B43F850
:105E4C00044B9142F9D10A781A7010BDF4FC0B0086
:105E5C0010B59DF8084044EA032343EA024242EAA3
:105E6C00016104234160037510BD000007B5064BAA
:105E7C000360CB7800938B784A780978FFF7E8FFBA
:105E8C0003B05DF804FB00BFF4FC0B00014B024AAD
:105E9C001A607047D8E6032000FD0B000023406811
:105EAC001A46FFF7F5BA406800220221FFF700BB43
:105EBC00002240681146FFF7F3BA002240681146F1
:105ECC00FFF7FEBA002340681A461946FFF700BBDD
:105EDC00002340681A461946FFF702BB40680021B0
:105EEC00FFF726BB40680021FFF72ABB4068002261
:105EFC0081F00101FFF7FCBA40680022FFF708BBF4
:105F0C00002240681146FFF70BBB00224068114687
:105F1C00FFF7F6BA2DE9F04395B014460D46074647
:105F2C00FFF776FF00211C220DA8009100F011FD57
:105F3C0040230C9320466B460CAA0021FFF794F9E2
:105F4C00044600284BD1024601216868FFF7B8FAD5
:105F5C000221804622466868FFF7B2FA009E81460D
:105F6C002146002E3BD0002939D17368022B03D077
:105F7C000A2B11D0F669F4E7B8F1000FFAD0716969
:105F8C0006A8043107ADFFF771FF0FCD3C1D0FC400
:105F9C002B6823704146EDE7B9F1000FEAD0746924
:105FAC00102201A800F0D5FC06238DF8143001ADA9
:105FBC0004F108031834186859682A4603C20833D8
:105FCC00A3421546F7D101A906A807ADFFF72EFF8E
:105FDC000FCD3C1D0FC42B6823704946CAE70098AF
:105FEC00FFF73AF9384615B0BDE8F083024B034A87
:105FFC001A6000225A607047DCE603200CFD0B008F
:10600C00F8B506460D468F180024BD420CD03368F7
:10601C0015F8011B9B6830469847031E01DB1C4496
:10602C00F3E7002C08BF1C462046F8BD13B5044608
:10603C00084659B10191FDF7EBFF23680199DB6824
:10604C000246204602B0BDE81040184702B010BD11
:10605C0008B5FFF7EBFF08BD03689B68184738B518
:10606C000D210546FFF7F8FF0A2104462846FFF7E5
:10607C00F3FF204438BD38B50546FFF7D7FF04467B
:10608C002846FFF7ECFF204438BD30B58BB0002319
:10609C00012A8DF8243098BF0A2209AC0D46B1FBB9
:1060AC00F2F101FB125303F0FF03092B94BF3033C1
:1060BC003733DBB2AA4204F8013DEFD92146FFF792
:1060CC00B5FF0BB030BD2DE9F04186B000AF0546F1
:1060DC000E46381D142114463B60FFF751FA132865
:1060EC000ED8391D2846FFF7A1FF04461EB12846DD
:1060FC00FFF7B5FF044420461837BD46BDE8F081D4
:10610C0000F1080323F00703E846ADEB030D22462C
:10611C00411C3B686846FFF733FA69462846FFF78F
:10612C0085FF0446C546E1E7014B00229A607047A3
:10613C00E4E603200021FFF7D7B80021FFF7CCB825
:10614C0010B5044608462170FFF7A6F800236360DB
:10615C00204610BD13B504460078FFF7EEFF58B982
:10616C00207801904FF6FF71FFF786F8019802B086
:10617C00BDE81040FFF7DEBF02B010BD400830B5DF
:10618C001860002418688842E5B206D90134082C3E
:10619C0002D040081860F5E70725024B5B5D1370D1
:1061AC0030BD00BF40FD0B002DE9F04306468FB01B
:1061BC0000780C46FFF7C1FF00281BDB3578142252
:1061CC00002109A800F0C5FB0B23002209A92846D1
:1061DC00ADF82430FFF770F89DF82D3013B19DF811
:1061EC002C5055B10027B946B846012523795DB12D
:1061FC00C3B100200FB0BDE8F083DDF830809DF80E
:10620C0034909DF83570F1E7002B35D1A3684345E8
:10621C0008D18DF820908DF82170BDF82020A3892D
:10622C009A42E6D00023A1688DF80F300A9804AB8F
:10623C000DF10F02FFF7A2FF217985B989B9A36887
:10624C0043450ED38DF820908DF82170BDF8202099
:10625C00A3899A4205D1049B434502D1C9E7002981
:10626C00F9D100230193637B00939DF80F20237BCE
:10627C003078FFF729F8BCE7CDE900552B462A46C4
:10628C000121F5E708B50078FEF7FEFFC0B208BDA6
:10629C0010B504460068FFF763F9204610BD10B531
:1062AC000446006808B1FFF75BF90023C4E9013329
:1062BC00236010BD38B504460D4600680131FFF768
:1062CC0057F910B1C4E90005012038BD10B50368B9
:1062DC00044623B143688B4201D3012010BD2046F4
:1062EC00FFF7E8FF0028F9D0A368002BF5D122684E
:1062FC001370F2E737B50D46114601920446FFF7CD
:10630C00E5FF019A28B92046FFF7C9FF204603B0E4
:10631C0030BDA2602946206800F00DFB2268A368FE
:10632C000021D154F2E7002313B5C0E90033044631
:10633C008360037341B108460191FDF769FE019931
:10634C0002462046FFF7D6FF204602B010BD13B51B
:10635C00044659B108460191FDF75AFE01990246CF
:10636C002046FFF7C7FF204602B010BDFFF797FF8E
:10637C00F9E71FB504460023C4E90033A360237377
:10638C00084601A900F030F901A92046FFF7DFFF0C
:10639C00204604B010BD0000054B02221A60054BCC
:1063AC00054A9A600020C3E90000FFF71DB800BF42
:1063BC0000E70320F4E603200000FFFF024B1A68FD
:1063CC00024B1A60704700BF3CE5032004E7032032
:1063DC0070474174704708B5007CFEF7BDFF20EA9A
:1063EC00E07008BD08B5007CFEF78EFF20EAE07077
:1063FC0008BD08B5007CFEF797FF40EAE07008BDC9
:10640C0008B5007CFEF788FF40EAE07008BD007C10
:10641C00FEF792BF37B5457C04462DB1207C03B006
:10642C00BDE83040FEF768BF007C0191FEF794FF99
:10643C0000280199F2DC284603B030BD10B51421B8
:10644C000446FDF72CFE204610BD000010B54FF49D
:10645C007A730446084611460022C4E90123044B12
:10646C002360012320746374FEF77EFF204610BD69
:10647C006CFD0B00417470477047704708B50021E4
:10648C00007CFEF799FF40EAE07008BD08B50121D9
:10649C00007CFEF791FF40EAE07008BD08B5007C77
:1064AC00FEF782FF20EAE07008BD08B5007CFEF71D
:1064BC0073FF20EAE07008BD13B50446007C01911F
:1064CC00FEF772FF0028019901DC607C20B1207C72
:1064DC00FEF77AFF20EAE07002B010BD007CFEF7F8
:1064EC007BBF10B514210446FDF7D9FD204610BD25
:1064FC0010B54FF47A73044608460021C4E9011321
:10650C00044B23600123207463741146FEF734FF9F
:10651C00204610BD9CFD0B00007C0022FEF734BF12
:10652C0010B514220446002100F013FA204610BDC9
:10653C0010B50F4C88B003A8FFF7F2FF2178BFF31A
:10654C005B8F11F001010FD120460191FDF7A9FDE0
:10655C00019948B103AA0748FFF7CAFF2046FDF787
:10656C00A5FD054800F0E1F9024808B010BD00BFD8
:10657C0008E703200CE7032085640B0010B50446E4
:10658C00FDF746FD013823182046834206D90278D0
:10659C00197800F8011B03F80129F6E710BD70B556
:1065AC000C46911E22291DD8254630B92344302291
:1065BC009D4210D205F8012BFAE7B0FBF2F602FB74
:1065CC001600C1B2092894BF30315731C9B205F851
:1065DC00011B3046E9E7002320462B70FFF7CEFF66
:1065EC00204670BD0020FCE708B50123FFF7D7FF5C
:1065FC0008BD0000014B1860704700BF40E5032048
:10660C0008B50B4B43B1FFF793FF03681B69984721
:10661C00002801DDAFF30080064B43B100F05CF9BC
:10662C0003681B699847002801DDAFF3008008BDA3
:10663C00000000000000000008B5FFF7E1FFFEF7C6
:10664C0083FD014B186008BD28E703200548064A66
:10665C00064908B5121A00F06EF9054B054A1A6086
:10666C0008BD00BF00F4032004F40320F4FE0B006B
:10667C0000F403201E1C279A07B5002300931A462A
:10668C006FF07701FEF7E2FE03B05DF804FB00004B
:10669C0007B543880A2B08D0502B0BD1094B1B682C
:1066AC004BB103B05DF804EB1847FFF7E5FF03B0FF
:1066BC005DF804FB002300931A466FF07701FEF798
:1066CC00C5FEF4E724E7032010B512480021FEF7BD
:1066DC0077FF114B1A68114B9A42114B0CBF0122D8
:1066EC0000221A7001D0FFF7B1FFFEF725FD04461A
:1066FC0000F038F90B4B13B12046AFF300800021AA
:10670C000848FEF7BDFEBDE8104007480021FEF723
:10671C0093BE00BF01660B0000F403201E1C279AD9
:10672C0020E70320000000009D660B00252813B510
:10673C0002D9002002B010BDA0F10B03022B1AD815
:10674C00174C2178BFF35B8F11F001010BD1204660
:10675C000191FDF7A6FC019928B11248FFF7F0FC56
:10676C002046FDF7A3FC0F4B1878FEF79DFD002883
:10677C00DFD10120DEE7012809D800F06DF80021F7
:10678C00007CFEF749FD80F00100C0B2D2E7093869
:10679C000128EED800F0A0F8007CFEF7D5FDF2E75A
:1067AC0090E6032094E60320252838B504460D46D0
:1067BC000AD8FF2908D0FFF7B9FF28B1294620468F
:1067CC00BDE83840FEF7C8BC38BD38B504460D46A8
:1067DC00FEF7CAFCFF2810D0062804D84D2323FA54
:1067EC0000F0C30709D42046FFF7A0FF28B12946C3
:1067FC002046BDE83840FEF7BFBC38BD10B5044696
:10680C00FEF7B2FC031FDBB2012B08D92046FFF7C1
:10681C008DFF20B12046BDE81040FEF7B5BC00202E
:10682C0010BD704738B50A4B036001230446436121
:10683C000849202000F074F8202560600549A56007
:10684C00284600F06DF8C4E90305204638BD00BFAA
:10685C0018000100C4FD0B0030B50E4D2978BFF3B4
:10686C005B8F11F0010487B011D12846FDF719FC9C
:10687C0068B16846FFF7D6FF6A4621460648FFF71F
:10688C002FFA2846FDF712FC044800F04EF8024897
:10689C0007B030BD2CE7032030E703202F680B0036
:1068AC007047000038B5044614252A46002100F034
:1068BC0050F825804025074925812846258200F07F
:1068CC002FF804496060284600F02AF8E060204662
:1068DC0038BD00BFC4FD0B0030B50E4D2978BFF399
:1068EC005B8F11F0010487B011D12846FDF7D9FB5D
:1068FC0068B101A8FFF7D6FF01AA21460648FFF7A9
:10690C00A5FD2846FDF7D2FB044800F00EF802481E
:10691C0007B030BD44E7032048E70320AD680B0007
:10692C00FDF7BBBB08B5FEF733FE002301461A4644
:10693C00184600F077B80A44914200F1FF3300D1B9
:10694C00704710B511F8014B03F8014F9142F9D182
:10695C0010BD02440346934200D1704703F8011B5B
:10696C00F9E7000038B5104B1D68AB6B0446B3B9A2
:10697C001820FEF7EDFD0246A86320B90B4B0C481E
:10698C004221FEF715FE0B490B4BC0E900130B4BD4
:10699C0083600B23838100210120C2E90401AB6BCE
:1069AC0000221C615A6138BD40E50320C5FD0B0077
:1069BC00DCFD0B000E33CDAB34126DE6ECDE0500C6
:1069CC00024B0146186800F003B800BF40E50320F5
:1069DC0037B5044608460D46FDF71AFB421C114616
:1069EC0020460192FEF7DCFD044618B1019A2946B7
:1069FC00FFF7A1FF204603B030BD10B57AB10346B6
:106A0C000139841813F8010B11F8012F904201D1B0
:106A1C00A34201D1801A10BD0028F3D1FAE7104629
:106A2C00F9E700002DE9F843DFF8B8800646D8F8FE
:106A3C0000001F460D46914600F056F8254B1C6889
:106A4C0034B9254C1C60254B13B11B68C4F8883035
:106A5C0063681F2B07DDD8F8000000F047F84FF0F3
:106A6C00FF30BDE8F8834EB3D4F8880088B91C4BCE
:106A7C0023B9D8F8000000F038F8F0E74FF4847030
:106A8C00FEF766FD0028F4D00023C0E94033C4F8BB
:106A9C008800636840F8239001229A4000EB830140
:106AAC00D0F800311343C0F80031022EC1F88070C9
:106ABC0002BFD0F804311343C0F804316368D8F82E
:106ACC0000005A1C0233626044F8235000F00EF8A8
:106ADC000020C6E7E8E703205CE703200000000085
:106AEC005D550B00A4E5032070477047704700000C
:106AFC002D400B0069400B0091400B0095400B00A2
:106B0C0000000000342E32696E636820652D7061C0
:106B1C0070657220746573740D0A2000652D5061C8
:106B2C007065722044656D6F0048656C6C6F2077E2
:106B3C006F726C640049324320646576696365202A
:106B4C00666F756E64206174206164647265737322
:106B5C002030780030004E6F2049324320666F752C
:106B6C006E6400646F6E6500446F6E6500496E69FB
:106B7C007469616C697A696E6720652D5061706506
:106B8C007220646973706C6179004661696C65642C
:106B9C0020746F20696E697469616C697A65206410
:106BAC006973706C617900496E697469616C697A9A
:106BBC00696E6720504E3533320057616974696EC7
:106BCC006720666F72206120636172642E2E2E2EF8
:106BDC002E2E0064656661756C7420004D53420066
:106BEC004C5342003C53504953657474696E67733F
:106BFC002064656661756C743E003C535049536566
:106C0C007474696E67732025732575202573204D68
:106C1C004F444525753E00000000000000000000B8
:106C2C00E5480B00B7480B00B9480B00000000000A
:106C3C000000000000000000000000000000000048
:106C4C000000000000000000000000000000000038
:106C5C000000000000000000000000000000000028
:106C6C000000000000000000000000000000000018
:106C7C000000000000000000000003800003800002
:106C8C000380000380000380000380000380000366
:106C9C0080000380000100000100000000000000E3
:106CAC0000038000038000000000000000000000D2
:106CBC0000000000000000000000000000000000C8
:106CCC0000000000000E70000E70000E700004201A
:106CDC00000420000420000420000000000000003C
:106CEC000000000000000000000000000000000098
:106CFC000000000000000000000000000000000088
:106D0C0000000000000000000000066000066000AB
:106D1C000660000660000660003FF8003FF80006C1
:106D2C0060000CC0003FF8003FF8000CC0000CC025
:106D3C00000CC0000CC0000CC000000000000000E3
:106D4C000000000000000000000000000000000136
:106D5C00800001800007B0000FF000187000187060
:106D6C00001C00000F800007E00000F0001830004D
:106D7C001C30001C70001FE0001BC00001800001D3
:106D8C008000018000018000000000000000000075
:106D9C00000000000000000000000780000FC00091
:106DAC001CE0001860001860001CE0000FF80007E1
:106DBC00E0001FF00007380006180006180007381E
:106DCC000003F00001E000000000000000000000E3
:106DDC0000000000000000000000000000000000A7
:106DEC00000000000000000003F00007F0000C6041
:106DFC00000C00000C00000600000700000F9C00B7
:106E0C001DFC0018F0001870000FFC0007DC0000DF
:106E1C000000000000000000000000000000000066
:106E2C0000000000000000000000000000038000D3
:106E3C00038000038000010000010000010000013C
:106E4C000000000000000000000000000000000036
:106E5C000000000000000000000000000000000026
:106E6C000000000000000000000000000000000016
:106E7C00000000180000380000700000F00000E076
:106E8C000000E00001C00001C00001C00001C00012
:106E9C0001C00001C00000E00000E0000070000034
:106EAC007000003800001800000000000000000016
:106EBC00000000000000000000001800001C000092
:106ECC000E00000E00000700000700000380000306
:106EDC008000038000038000038000038000070013
:106EEC00000700000F00000E00001C00001800003E
:106EFC000000000000000000000000000000000086
:106F0C0000000180000180000180001DB8001FF806
:106F1C000007E00003C00003C0000660000660002C
:106F2C000000000000000000000000000000000055
:106F3C000000000000000000000000000000000045
:106F4C000000000000000000000000000000000035
:106F5C000180000180000180000180000180003F61
:106F6C00FC003FFC000180000180000180000180DA
:106F7C000001800000000000000000000000000084
:106F8C0000000000000000000000000000000000F5
:106F9C0000000000000000000000000000000000E5
:106FAC0000000000000000000000000000000000D5
:106FBC0000000000000000E00000C00001C0000163
:106FCC0080000180000300000300000000000000AE
:106FDC0000000000000000000000000000000000A5
:106FEC000000000000000000000000000000001F76
:106FFC00F8001FF800000000000000000000000076
:10700C000000000000000000000000000000000074
:10701C000000000000000000000000000000000064
:10702C000000000000000000000000000000000054
:10703C000000000000000000000000000000000044
:10704C0000000000000003C00003C00003C00000EB
:10705C000000000000000000000000000000000024
:10706C00000000000018000018000038000030007C
:10707C0000700000600000600000C00000C0000153
:10708C0080000180000300000300000600000600E1
:10709C00000E00000C00001C00001800001800007E
:1070AC0000000000000000000000000000000000D4
:1070BC00000003C00007E0000C30000C3000181872
:1070CC0000181800181800181800181800181800C4
:1070DC001818000C30000C300007E00003C0000052
:1070EC000000000000000000000000000000000094
:1070FC00000000000000000000000080000780007D
:10710C001F80001D800001800001800001800001B3
:10711C00800001800001800001800001800001805E
:10712C00001FF8001FF80000000000000000000025
:10713C000000000000000000000000000000000043
:10714C00000007C0001FF000383000301800301865
:10715C000000180000300000600001C00003800037
:10716C000600000C00001800003FF8003FF800007B
:10717C000000000000000000000000000000000003
:10718C000000000000000000000003C0000FE00041
:10719C000C700000300000300000600003C00003E1
:1071AC00E0000070000018000018000018001838EB
:1071BC00001FF0000FC000000000000000000000E5
:1071CC0000000000000000000000000000000000B3
:1071DC00000000E00001E00001E000036000066038
:1071EC00000660000C60000C60001860003060004D
:1071FC003FF8003FF80000600003F80003F80000BF
:10720C000000000000000000000000000000000072
:10721C00000000000000000000001FF0001FF00044
:10722C001800001800001800001BC0001FF0001C04
:10723C003000001800001800001800001800303052
:10724C00003FF0000FC00000000000000000000034
:10725C000000000000000000000000000000000022
:10726C00000000F80003F8000700000E00000C00FE
:10727C00001800001BC0001FF0001C300018180084
:10728C001818001818000C38000FF00003E000006C
:10729C0000000000000000000000000000000000E2
:1072AC00000000000000000000001FF8001FF800A4
:1072BC001818001838000030000030000070000072
:1072CC00600000600000E00000C00000C00001C0D1
:1072DC0000018000018000000000000000000000A0
:1072EC000000000000000000000000000000000092
:1072FC00000007E0000FF0001C38001818001818E8
:10730C00000C300007E00007E0000C3000181800FB
:10731C001818001818001C38000FF00007E00000C7
:10732C000000000000000000000000000000000051
:10733C000000000000000000000007C0000FF0007B
:10734C001C30001818001818001818000C38000F02
:10735C00F80003D80000180000300000700000E0B6
:10736C00001FC0001F000000000000000000000013
:10737C000000000000000000000000000000000001
:10738C00000000000000000000000000000003C02E
:10739C000003C00003C0000000000000000000005B
:1073AC0000000000000003C00003C00003C0000088
:1073BC0000000000000000000000000000000000C1
:1073CC0000000000000000000000000000000000B1
:1073DC0000000000000000F00000F00000F00000D1
:1073EC00000000000000000000000000E00001C0F0
:1073FC00000180000180000300000200000000007A
:10740C000000000000000000000000000000000070
:10741C000000000000000000001C00003C0000F018
:10742C000003C0000F00003C0000F000003C000016
:10743C000F000003C00000F000003C00001C000026
:10744C000000000000000000000000000000000030
:10745C000000000000000000000000000000000020
:10746C000000000000000000007FFC007FFC00001A
:10747C0000000000007FFC007FFC0000000000000A
:10748C0000000000000000000000000000000000F0
:10749C0000000000000000000000000000000000E0
:1074AC0000000000000000007000007800001E00CA
:1074BC000007800001E000007800001E000078004A
:1074CC0001E0000780001E00007800007000000042
:1074DC0000000000000000000000000000000000A0
:1074EC000000000000000000000000000007C000C9
:1074FC000FE0001870001830001830000070000009
:10750C00E00003C000038000030000000000000046
:10751C000007000007000000000000000000000051
:10752C00000000000000000000000000000000004F
:10753C00000003E00007F0000E38000C180018786B
:10754C000018F80019D8001998001998001998001B
:10755C0018F8001878001800000C00000E1800072E
:10756C00F80003E000000000000000000000000034
:10757C00000000000000000000000000001F800060
:10758C001FC00001C000036000036000063000064D
:10759C0030000C30000FF8001FF800180C00300CF5
:1075AC0000FC7F00FC7F00000000000000000000D9
:1075BC0000000000000000000000000000000000BF
:1075CC0000000000007FE0007FF000183800181861
:1075DC00001818001838001FF0001FF800181C00C5
:1075EC00180C00180C00180C007FF8007FF000003D
:1075FC00000000000000000000000000000000007F
:10760C000000000000000000000000000003EC007F
:10761C000FFC001C1C00180C00300C00300000305B
:10762C000000300000300000300000180C001C1C62
:10763C00000FF80003F00000000000000000000044
:10764C00000000000000000000000000000000002E
:10765C0000000000007FC0007FF0001838001818F0
:10766C0000180C00180C00180C00180C00180C005A
:10767C00180C001818001838007FF0007FE000008C
:10768C0000000000000000000000000000000000EE
:10769C00000000000000000000000000007FF80067
:1076AC007FF8001818001818001998001980001F8E
:1076BC0080001F80001980001998001818001818F5
:1076CC00007FF8007FF800000000000000000000C0
:1076DC00000000000000000000000000000000009E
:1076EC0000000000003FFC003FFC000C0C000C0CE8
:1076FC00000CCC000CC0000FC0000FC0000CC00070
:10770C000CC0000C00000C00003FC0003FC000008B
:10771C00000000000000000000000000000000005D
:10772C000000000000000000000000000003EC005E
:10773C000FFC001C1C00180C00300C00300000303A
:10774C00000030FE0030FE00300C00380C001C1C19
:10775C00000FFC0003F0000000000000000000001F
:10776C00000000000000000000000000000000000D
:10777C0000000000007E7E007E7E001818001818A5
:10778C00001818001818001FF8001FF8001818002F
:10779C001818001818001818007E7E007E7E000055
:1077AC0000000000000000000000000000000000CD
:1077BC00000000000000000000000000001FF800A6
:1077CC001FF8000180000180000180000180000191
:1077DC008000018000018000018000018000018098
:1077EC00001FF8001FF8000000000000000000005F
:1077FC00000000000000000000000000000000007D
:10780C00000000000007FE0007FE00003000003002
:10781C00000030000030000030003030003030000C
:10782C003030003030003060003FE0000F8000004E
:10783C00000000000000000000000000000000003C
:10784C00000000000000000000000000007F3E006F
:10785C007F3E0018300018600018C0001980001B13
:10786C0080001FC0001CE000187000183000183891
:10787C00007F1F007F1F00000000000000000000C0
:10788C0000000000000000000000000000000000EC
:10789C0000000000007F80007F80000C00000C00C6
:1078AC00000C00000C00000C00000C00000C0C0084
:1078BC000C0C000C0C000C0C007FFC007FFC00007E
:1078CC0000000000000000000000000000000000AC
:1078DC0000000000000000000000000000F00F009D
:1078EC00F81F00381C003C3C003C3C00366C003659
:1078FC006C0033CC0033CC00318C00300C00300CDD
:10790C0000FE7F00FE7F0000000000000000000071
:10791C00000000000000000000000000000000005B
:10792C00000000000078FE0078FE001C18001E18F5
:10793C00001F18001B18001B980019D80018D8003D
:10794C0018F8001878001838007F18007F1800000D
:10795C00000000000000000000000000000000001B
:10796C000000000000000000000000000003C00048
:10797C000FF0001C3800181800381C00300C0030B8
:10798C000C00300C00300C00381C001818001C388F
:10799C00000FF00003C00000000000000000000019
:1079AC0000000000000000000000000000000000CB
:1079BC0000000000003FF0003FF8000C1C000C0C15
:1079CC00000C0C000C0C000C18000FF8000FE00061
:1079DC000C00000C00000C00003FC0003FC0000079
:1079EC00000000000000000000000000000000008B
:1079FC000000000000000000000000000003C000B8
:107A0C000FF0001C3800181800381C00300C003027
:107A1C000C00300C00300C00381C001818001C38FE
:107A2C00000FF00007C00007CC000FFC000C380062
:107A3C00000000000000000000000000000000003A
:107A4C0000000000007FE0007FF0001838001818DC
:107A5C00001818001838001FF0001FC00018E000B4
:107A6C001870001830001838007F1E007F0E0000C0
:107A7C0000000000000000000000000000000000FA
:107A8C000000000000000000000000000007D8000B
:107A9C000FF8001C38001818001818001E00000FF2
:107AAC00C00003F0000078001818001818001C38EB
:107ABC00001FF0001BE000000000000000000000B0
:107ACC0000000000000000000000000000000000AA
:107ADC0000000000003FFC003FFC00318C00318CAA
:107AEC0000318C00318C000180000180000180008D
:107AFC000180000180000180000FF0000FF00000F9
:107B0C000000000000000000000000000000000069
:107B1C00000000000000000000000000007E7E005D
:107B2C007E7E001818001818001818001818001875
:107B3C0018001818001818001818001818000C3025
:107B4C00000FF00003C00000000000000000000067
:107B5C000000000000000000000000000000000019
:107B6C0000000000007F7F007F7F00180C000C18C5
:107B7C00000C18000C1800063000063000036000E2
:107B8C0003600003600001C00001C0000080000021
:107B9C0000000000000000000000000000000000D9
:107BAC0000000000000000000000000000FE3F800C
:107BBC00FE3F8030060030060030860019CC0019DC
:107BCC00CC001B6C001B6C001E7C000E38000E38A9
:107BDC00000C18000C180000000000000000000051
:107BEC000000000000000000000000000000000089
:107BFC0000000000007E7E007E7E001818000C3015
:107C0C000006600003C00001800001800003C0007A
:107C1C000660000C30001818007E7E007E7E00008E
:107C2C000000000000000000000000000000000048
:107C3C00000000000000000000000000007C7E003E
:107C4C007C7E001818000C300006600006600003F3
:107C5C00C0000180000180000180000180000180D3
:107C6C00000FF0000FF0000000000000000000000A
:107C7C0000000000000000000000000000000000F8
:107C8C0000000000001FF8001FF800181800183042
:107C9C000018600018C000018000030000061800E6
:107CAC000C18001818003018003FF8003FF80000BE
:107CBC0000000000000000000000000000000000B8
:107CCC000000000000000000000001F00001F000C6
:107CDC000180000180000180000180000180000112
:107CEC008000018000018000018000018000018083
:107CFC000001800001800001800001F00001F00013
:107D0C000000000000000000000000001800001837
:107D1C0000001C00000C00000E0000060000060015
:107D2C000003000003000001800001800000C0007F
:107D3C0000C0000060000060000070000030000017
:107D4C0038000018000018000000000000000000BF
:107D5C00000000000000000000000F80000F8000F9
:107D6C000180000180000180000180000180000181
:107D7C0080000180000180000180000180000180F2
:107D8C00000180000180000180000F80000F800046
:107D9C0000000000000000000000000000000000D7
:107DAC00800001C00003E0000770000630000C18D2
:107DBC0000180C001004000000000000000000007F
:107DCC0000000000000000000000000000000000A7
:107DDC000000000000000000000000000000000097
:107DEC000000000000000000000000000000000087
:107DFC000000000000000000000000000000000077
:107E0C000000000000000000000000000000000066
:107E1C000000000000000000000000000000000056
:107E2C00000000000000FFFF00FFFF000000000347
:107E3C00000003800000E000006000000000000073
:107E4C000000000000000000000000000000000026
:107E5C000000000000000000000000000000000016
:107E6C000000000000000000000000000000000006
:107E7C0000000000000000000000000000000000F6
:107E8C000000000000000FC0001FE00000300000E8
:107E9C00300007F0001FF000383000303000307038
:107EAC00001FFC000FBC00000000000000000000E0
:107EBC0000000000000000000000000000000000B6
:107ECC0000007800007800001800001800001BE08B
:107EDC00001FF8001C1800180C00180C00180C00DF
:107EEC00180C00180C001C18007FF8007BE0000038
:107EFC000000000000000000000000000000000076
:107F0C000000000000000000000000000000000065
:107F1C0000000000000003EC000FFC001C1C0038EB
:107F2C000C00300C00300000300000380C001C1C21
:107F3C00000FF80003F0000000000000000000003B
:107F4C000000000000000000000000000000000025
:107F5C00000000780000780000180000180007D816
:107F6C00001FF800183800301800301800301800C6
:107F7C003018003018001838001FFE0007DE000013
:107F8C0000000000000000000000000000000000E5
:107F9C0000000000000000000000000000000000D5
:107FAC0000000000000007E0001FF8001818003067
:107FBC000C003FFC003FFC00300000300000180CAF
:107FCC00001FFC0007F00000000000000000000093
:107FDC000000000000000000000000000000000095
:107FEC00000001FC0003FC000600000600003FF846
:107FFC00003FF80006000006000006000006000026
:10800C000600000600000600003FF0003FF00000F4
:10801C000000000000000000000000000000000054
:10802C000000000000000000000000000000000044
:10803C0000000000000007DE001FFE0018380030B2
:10804C00180030180030180030180030180018389C
:10805C00001FF80007D800001800001800003800B6
:10806C000FF0000FC0000000000000000000000036
:10807C0000007800007800001800001800001BE0D9
:10808C00001FF0001C3800181800181800181800F1
:10809C001818001818001818007E7E007E7E00004C
:1080AC0000000000000000000000000000000000C4
:1080BC0000000000000000000000018000018000B2
:1080CC000000000000001F80001F800001800001E4
:1080DC00800001800001800001800001800001808F
:1080EC00003FFC003FFC000000000000000000000E
:1080FC000000000000000000000000000000000074
:10810C00000000C00000C0000000000000001FF0D4
:10811C00001FF00000300000300000300000300084
:10812C000030000030000030000030000030000053
:10813C0030000030000070001FE0001F80000000C5
:10814C00000000000000000000003C00003C0000AB
:10815C000C00000C00000CF8000CF8000CC0000D1A
:10816C0080000F80000F00000F80000DC0000CE09D
:10817C00003C7C003C7C0000000000000000000083
:10818C0000000000000000000000000000000000E3
:10819C0000001F80001F8000018000018000018012
:1081AC00000180000180000180000180000180003E
:1081BC000180000180000180003FFC003FFC0000BA
:1081CC0000000000000000000000000000000000A3
:1081DC000000000000000000000000000000000093
:1081EC00000000000000F77800FFFC0039CC0031E3
:1081FC008C00318C00318C00318C00318C00318C36
:10820C0000FDEF00FDEF000000000000000000008A
:10821C000000000000000000000000000000000052
:10822C0000000000000000000000000000007BE0E7
:10823C00007FF0001C3800181800181800181800DF
:10824C001818001818001818007E7E007E7E00009A
:10825C000000000000000000000000000000000012
:10826C000000000000000000000000000000000002
:10827C0000000000000003C0000FF0001C380038A4
:10828C001C00300C00300C00300C00381C001C386A
:10829C00000FF00003C00000000000000000000010
:1082AC0000000000000000000000000000000000C2
:1082BC0000000000000000000000000000007BE057
:1082CC00007FF8001C1800180C00180C00180C008B
:1082DC00180C00180C001C18001FF8001BE00018EC
:1082EC0000001800001800007F00007F0000000054
:1082FC000000000000000000000000000000000072
:10830C0000000000000007DE001FFE0018380030DF
:10831C0018003018003018003018003018001838C9
:10832C00001FF80007D80000180000180000180003
:10833C0000FE0000FE000000000000000000000035
:10834C0000000000000000000000000000003E786B
:10835C00003EFC0007CC00070000060000060000F1
:10836C000600000600000600003FF0003FF0000091
:10837C0000000000000000000000000000000000F1
:10838C0000000000000000000000000000000000E1
:10839C0000000000000007F8000FF8001818001883
:1083AC0018001F80000FF00000F800181800183893
:1083BC00001FF0001FE000000000000000000000A3
:1083CC0000000000000000000000000000000000A1
:1083DC0000000C00000C00000C00000C00003FF032
:1083EC00003FF0000C00000C00000C00000C000022
:1083FC000C00000C00000C1C0007FC0003F000003B
:10840C000000000000000000000000000000000060
:10841C000000000000000000000000000000000050
:10842C000000000000007878007878001818001818
:10843C001800181800181800181800181800183808
:10844C00000FFE0007DE000000000000000000002E
:10845C000000000000000000000000000000000010
:10846C0000000000000000000000000000007C3E46
:10847C00007C3E001818001818000C30000C30005E
:10848C0006600006600007E00003C00003C00000A7
:10849C0000000000000000000000000000000000D0
:1084AC0000000000000000000000000000000000C0
:1084BC00000000000000783C00783C0031180033CC
:1084CC0098003398001AB0001EF0001EF0001C60DB
:1084DC00000C60000C6000000000000000000000B8
:1084EC000000000000000000000000000000000080
:1084FC0000000000000000000000000000003E7CB6
:10850C00003E7C000C300006600003C000018000BF
:10851C0003C0000660000C30003E7C003E7C000076
:10852C00000000000000000000000000000000003F
:10853C00000000000000000000000000000000002F
:10854C000000000000007E1F007E1F00180C000CB5
:10855C0018000C180006300006300003600003E021
:10856C000001C00000C00001800001800003000079
:10857C003FC0003FC00000000000000000000000F1
:10858C0000000000000000000000000000001FF8C8
:10859C00001FF80018300018600000C000018000B7
:1085AC000300000618000C18001FF8001FF800004C
:1085BC0000000000000000000000000000000000AF
:1085CC000000000000000000000000E00001E000DE
:1085DC000180000180000180000180000180000109
:1085EC0080000380000700000380000180000180F0
:1085FC000001800001800001800001E00000E0002B
:10860C00000000000000000000000000000000005E
:10861C0000000180000180000180000180000180C9
:10862C0000018000018000018000018000018000B9
:10863C0001800001800001800001800001800001A8
:10864C00800001800001800000000000000000009C
:10865C000000000000000000000007000007800080
:10866C000180000180000180000180000180000178
:10867C00800001C00000E00001C00001800001800A
:10868C0000018000018000018000078000070000CD
:10869C0000000000000000000000000000000000CE
:1086AC0000000000000000000000000000000000BE
:1086BC00000000000E00001F18003BB80031F00055
:1086CC0000E00000000000000000000000000000BE
:1086DC00000000000000000000000000000000008E
:1086EC0000000000FFFFFFFFFFFFFFFFFFFFFFFF8A
:1086FC00FFFFFFFFFFFFFFFFFFFFFFFFFFFFFFFF7E
:10870C00FFFFFFFFFFFFFFFFFFFFFFFFFFFFFFFF6D
:10871C00FFFFFFFFFFFFFFFFFFFFFFFFFFFFFFFF5D
:10872C00FFFFFFFFFFFFFFFFFFFFFFFFFFFFFFFF4D
:10890C00F7FFFFFFFFFFFFFFFFFFFFFFFFFFFFFF73
:10891C00FFFFFFFFFFFFFFFFFFFFFFFFFFFFFFFF5B
:10892C00FFFFFFFFFFFFFFFFFFFFFFFFFFFFFFFF4B
:10893C00FFFFC3FFFFFFFFFFFFFFFFFFFFFFFFFF77
:10894C00FFFFFFFFFFFFFFFFFFFFFFFFFFFFFFFF2B
:10895C00FFFFFFFFFFFFFFFFFFFFFFFFFFFFFFFF1B
:10896C00FFFFFFFE03FFFFFFFFFFFFFFFFFFFFFF08
:10897C00FFFFFFFFFFFFFFFFFFFFFFFFFFFFFFFFFB
:10898C00FFFFFFFFFFFFFFFFFFFFFFFFFFFFFFFFEB
:10899C00FFFFFFFFFFF007FFFFFFFFFFFFFFFFFFE2
:1089AC00FFFFFFFFFFFFFFFFFFFFFFFFFFFFFFFFCB
:1089BC00FFFFFFFFFFFFFFFFFFFFFFFFFFFFFFFFBB
:1089CC00FFFFFFFFFFFFFF8007FFFFFFFFFFFFFF22
:1089DC00FFFFFFFFFFFFFFFFFFFFFFFFFFFFFFFF9B
:1089EC00FFFFFFFFFFFFFFFFFFFFFFFFFFFFFFFF8B
:1089FC00FFFFFFFFFFFFFFFFFE0003FFFFFFFFFF77
:108A0C00FFFFFFFFFFFFFFFFFFFFFFFFFFFFFFFF6A
:108A1C00FFFFFFFFFFFFFFFFFFFFFFFFFFFFFFFF5A
:108A2C00FFFFFFFFFFFFFFFFFFFFF80003FFFFFF4C
:108A3C00FFFFFFFFFFFFFFFFFFFFFFFFFFFFFFFF3A
:108A4C00FFFFFFFFFFFFFFFFFFFFFFFFFFFFFFFF2A
:108A5C00FFFFFFFFFFFFFFFFFFFFFFFFE3D003FF61
:108A6C00FFFFFFFFFFFFFFFFFFFFFFFFFFFFFFFF0A
:108A7C00FFFFFFFFFFFFFFFFFFFFFFFFFFFFFFFFFA
:108A8C00FFFFFFFFFFFFFFFFFFFFFFFFFFFFCFEB2E
:108A9C0003FFFFFFFFFFFFFFFFFFFFFFFFFFFFFFD6
:108AAC00FFFFFFFFFFFFFFFFFFFFFFFFFFFFFFFFCA
:108ABC00FFFFFFFFFFFFFFFFFFFFFFFFFFFFFFFFBA
:108ACC0003E383FFFFFFFFFFFFFFFFFFFFFFFFFF3E
:108ADC00FFFFFFFFFFFFFFFFFFFFFFFFFFFFFFFF9A
:108AEC00FFFFFFFFFFFFFFFFFFFFFFFFFFFFFFFF8A
:108AFC00FFFE43F3C3FFFFFFFFFFFFFFFFFFFFFF7F
:108B0C00FFFFFFFFFFFFFFFFFFFFFFFFFFFFFFFF69
:108B1C00FFFFFFFFFFFFFFFFFFFFFFFFFFFFFFFF59
:108B2C00FFFFFFF8C3F3E3FCFFFFFFFFFFFFFFFFB7
:108B3C00FFFFFFFFFFFFFFFFFFFFFFFFFFFFFFFF39
:108B4C00FFFFFFFFFFFFFFFFFFFFFFFFFFFFFFFF29
:108B5C00FFFFFFFFFFF3E3F9E3F8FFFFFFFFFFFF6A
:108B6C00FFFFFFFFFFFFFFFFFFFFFFFFFFFFFFFF09
:108B7C00FFFFFFFFFFFFFFFFFFFFFFFFFFFFFFFFF9
:108B8C00FFFFFFFFFFFFFFE5FFF9F3E0FFFFFFFF34
:108B9C00FFFFFFFFFFFFFFFFFFFFFFFFFFFFFFFFD9
:108BAC00FFFFFFFFFFFFFFFFFFFFFFFFFFFFFFFFC9
:108BBC00FFFFFFFFFFFFFFFFFFC8FFF9F3807FFF01
:108BCC00FFFFFFFFFFFFFFFFFFFFFFFFFFFFFFFFA9
:108BDC00FFFFFFFFFFFFFFFFFFFFFFFFFFFFFFFF99
:108BEC00FFFFFFFFFFFFFFFFFFFFFF927FFBF30085
:108BFC007FFFFFFFFFFFFFFFFFFFFFFFFFFFFFFFF9
:108C0C00FFFFFFFFFFFFFFFFFFFFFFFFFFFFFFFF68
:108C1C00FFFFFFFFFFFFFFFFFFFFFFFFFF30FFF333
:108C2C00F4007FFFFFFFFFFFFFFFFFFFFFFFFFFFD2
:108C3C00FFFFFFFFFFFFFFFFFFFFFFFFFFFFFFFF38
:108C4C00FFFFFFFFFFFFFFFFFFFFFFFFFFFFFE5BCD
:108C5C00FFF3F0707FFFFFFFFFFFFFFFFFFFFFFF42
:108C6C00FFFFFFFFFFFFFFFFFFFFFFFFFFFFFFFF08
:108C7C00FFFFFFFFFFFFFFFFFFFFFFFFFFFFFFFFF8
:108C8C00FE0BFFF3E1F87FFFFFFFFFFFFFFFFFFF8E
:108C9C00FFFFFFFFFFFFFFFFFFFFFFFFFFFFFFFFD8
:108CAC00FFFFFFFFFFFFFFFFFFFFFFFFFFFFFFFFC8
:108CBC00FFFFFC09FFF385FC7FFFFFFFFFFFFFFFBA
:108CCC00FFFFFFFFFFFFFFFFFFFFFFFFFFFFFFFFA8
:108CDC00FFFFFFFFFFFFFFFFFFFFFFFFFFFFFFFF98
:108CEC00FFFFFFFFF94CFFE73DFE7FFFFFFFFFFF9C
:108CFC00FFFFFFFFFFFFFFFFFFFFFFFFFFFFFFFF78
:108D0C00FFFFFFFFFFFFFFFFFFFFFFFFFFFFFFFF67
:108D1C00FFFFFFFFFFFFF27E7FE6FDFE3FFFFFFF41
:108D2C00FFFFFFFFFFFFFFFFFFFFFFFFFFFFFFFF47
:108D3C00FFFFFFFFFFFFFFFFFFFFFFFFFFFFFFFF37
:108D4C00FFFFFFFFFFFFFFFFF03FBFE199FE3FFF7B
:108D5C00FFFFFFFFFFFFFFFFFFFFFFFFFFFFFFFF17
:108D6C00FFFFFFFFFFFFFFFFFFFFFFFFFFFFFFFF07
:108D7C00FFFFFFFFFFFFFFFFFFFFE43FDFE39DFF70
:108D8C003FFFFFFFFFFFFFFFFFFFFFFFFFFFFFFFA7
:108D9C00FFFFFFFFFFFFFFFFFFFFFFFFFFFFFFFFD7
:108DAC00FFFFFFFFFFFFFFFFFFFFFFFFE45FFFC6BB
:108DBC007DFF3FFFFFFFFFFFFFFFFFFFFFFFFFFFF9
:108DCC00FFFFFFFFFFFFFFFFFFFFFFFFFFFFFFFFA7
:108DDC00FFFFFFFFFFFFFFFFFFFFFFFFFFFFCFFFC7
:108DEC00FFDEFFFF1FFFFFFFFFFFFFFFFFFFFFFF88
:108DFC00FFFFFFFFFFFFFFFFFFFFFFFFFFFFFFFF77
:108E0C00FFFFFFFFFFFFFFFFFFFFFFFFFFFFFFFF66
:108E1C00CFFFFF93FFFF9FFFFFFFFFFFFFFFFFFF52
:108E2C00FFFFFFFFFFFFFFFFFFFFFFFFFFFFFFFF46
:108E3C00FFFFFFFFFFFFFFFFFFFFFFFFFFFFFFFF36
:108E4C00FFFFCCFFFF33FFFF9FFFFFFFFFFFFFFF85
:108E5C00FFFFFFFFFFFFFFFFFFFFFFFFFFFFFFFF16
:108E6C00FFFFFFFFFFFFFFFFFFFFFFFFFFFFFFFF06
:108E7C00FFFFFFFFC0FFFE1FFDFF9FFFFFFFFFFF78
:108E8C00FFFFFFFFFFFFFFFFFFFFFFFFFFFFFFFFE6
:108E9C00FFFFFFFFFFFFFFFFFFFFFFFFFFFFFFFFD6
:108EAC00FFFFFFFFFFFFC9FFFC8FFFFF8FFFFFFFDF
:108EBC00FFFFFFFFFFFFFFFFFFFFFFFFFFFFFFFFB6
:108ECC00FFFFFFFFFFFFFFFFFFFFFFFFFFFFFFFFA6
:108EDC00FFFFFFFFFFFFFFFFC9FFF9DFFDFF8FFF64
:108EEC00FFFFFFFFFFFFFFFFFFFFFFFFFFFFFFFF86
:108EFC00FFFFFFFFFFFFFFFFFFFFFFFFFFFFFFFF76
:108F0C00FFFFFFFFFFFFFFFFFFFFCFFFF0FFF5FFAE
:108F1C008FFFFFFFFFFFFFFFFFFFFFFFFFFFFFFFC5
:108F2C00FFFFFFFFFFFFFFFFFFFFFFFFFFFFFFFF45
:108F3C00FFFFFFFFFFFFFFFFFFFFFFFFE7FFF67FD6
:108F4C00F5FF8FFFFFFFFFFFFFFFFFFFFFFFFFFF9F
:108F5C00FFFFFFFFFFFFFFFFFFFFFFFFFFFFFFFF15
:108F6C00FFFFFFFFFFFFFFFFFFFFFFFFFFFFE7FF1D
:108F7C00E33FB5FF87FFFFFFFFFFFFFFFFFFFFFF93
:108F8C00FFFFFFFFFFFFFFFFFFFFFFFFFFFFFFFFE5
:108F9C00FFFFFFFFFFFFFFFFFFFFFFFFFFFFFFFFD5
:108FAC00F3FFEF9F0BFF87FFFFFFFFFFFFFFFFFFAD
:108FBC00FFFFFFFFFFFFFFFFFFFFFFFFFFFFFFFFB5
:108FCC00FFFFFFFFFFFFFFFFFFFFFFFFFFFFFFFFA5
:108FDC00FFFFF3FFCE4FA1FF87FFFFFFFFFFFFFF58
:108FEC00FFFFFFFFFFFFFFFFFFFFFFFFFFFFFFFF85
:108FFC00FFFFFFFFFFFFFFFFFFFFFFFFFFFFFFFF75
:10900C00FFFFFFFFF9FFD727F3FF97FFFFFFFFFFDE
:10901C00FFFFFFFFFFFFFFFFFFFFFFFFFFFFFFFF54
:10902C00FFFFFFFFFFFFFFFFFFFFFFFFFFFFFFFF44
:10903C00FFFFFFFFFFFFFCFBD3C3FBFF97FFFFFF0F
:10904C00FFFFFFFFFFFFFFFFFFFFFFFFFFFFFFFF24
:10905C00FFFFFFFFFFFFFFFFFFFFFFFFFFFFFFFF14
:10906C00FFFFFFFFFFFFFFFFFE7CD3E1FBFF97FF3E
:10907C00FFFFFFFFFFFFFFFFFFFFFFFFFFFFFFFFF4
:10908C00FFFFFFFFFFFFFFFFFFFFFFFFFFFFFFFFE4
:10909C00FFFFFFFFFFFFFFFFFFF00F3E1FF1FFFF82
:1090AC00C7FFFFFFFFFFFFFFFFFFFFFFFFFFFFFFFC
:1090BC00FFFFFFFFFFFFFFFFFFFFFFFFFFFFFFFFB4
:1090CC00FFFFFFFFFFFFFFFFFFFFFFC0000F93F845
:1090DC00DFFFC3FFFFFFFFFFFFFFFFFFFFFFFFFFF0
:1090EC00FFFFFFFFFFFFFFFFFFFFFFFFFFFFFFFF84
:1090FC00FFFFFFFFFFFFFFFFFFFFFFFFFFCFFC03A3
:10910C0093FE5FFFC7FFFFFFFFFFFFFFFFFFFFFFA8
:10911C00FFFFFFFFFFFFFFFFFFFFFFFFFFFFFFFF53
:10912C00FFFFFFFFFFFFFFFFFFFFFFFFFFFFFFA39F
:10913C00FFE0CFFF3FFFC7FFFFFFFFFFFFFFFFFF7A
:10914C00FFFFFFFFFFFFFFFFFFFFFFFFFFFFFFFF23
:10915C00FFFFFFFFFFFFFFFFFFFFFFFFFFFFFFFF13
:10916C00FF79FFFC07FF3F7FE3FFFFFFFFFFFFFFE0
:10917C00FFFFFFFFFFFFFFFFFFFFFFFFFFFFFFFFF3
:10918C00FFFFFFFFFFFFFFFFFFFFFFFFFFFFFFFFE3
:10919C00FFFFFEFE7FF8F7FF9F3FE3FFFFFFFFFFA0
:1091AC00FFFFFFFFFFFFFFFFFFFFFFFFFFFFFFFFC3
:1091BC00FFFFFFFFFFFFFFFFFFFFFFFFFFFFFFFFB3
:1091CC00FFFFFFFFFEFFFFF3D3F7DFBFE3FFFFFF60
:1091DC00FFFFFFFFFFFFFFFFFFFFFFFFFFFFFFFF93
:1091EC00FFFFFFFFFFFFFFFFFFFFFFFFFFFFFFFF83
:1091FC00FFFFFFFFFFFFFCBFFFC1EBFBCF9FE3FFB8
:10920C00FFFFFFFFFFFFFFFFFFFFFFFFFFFFFFFF62
:10921C00FFFFFFFFFFFFFFFFFFFFFFFFFFFFFFFF52
:10922C00FFFFFFFFFFFFFFFFFC0FFFD871FBEFCF2E
:10923C00E7FFFFFFFFFFFFFFFFFFFFFFFFFFFFFF4A
:10924C00FFFFFFFFFFFFFFFFFFFFFFFFFFFFFFFF22
:10925C00FFFFFFFFFFFFFFFFFFFFF9BFFFAFF8F9B5
:10926C00E7EFE7FFFFFFFFFFFFFFFFFFFFFFFFFF42
:10927C00FFFFFFFFFFFFFFFFFFFFFFFFFFFFFFFFF2
:10928C00FFFFFFFFFFFFFFFFFFFFFFFFF9FFFF47A0
:10929C00FE79F7F7A7FFFFFFFFFFFFFFFFFFFFFFC1
:1092AC00FFFFFFFFFFFFFFFFFFFFFFFFFFFFFFFFC2
:1092BC00FFFFFFFFFFFFFFFFFFFFFFFFFFFFFBFFB6
:1092CC00FE47FF39F3FBA7FFFFFFFFFFFFFFFFFF89
:1092DC00FFFFFFFFFFFFFFFFFFFFFFFFFFFFFFFF92
:1092EC00FFFFFFFFFFFFFFFFFFFFFFFFFFFFFFFF82
:1092FC00FA3FFCEFFF99FBF987FFFFFFFFFFFFFF32
:10930C00FFFFFFFFFFFFFFFFFFFFFFFFFFFFFFFF61
:10931C00FFFFFFFFFFFFFFFFFFFFFFFFFFFFFFFF51
:10932C00FFFFF23FFCFFFFC8FDFC07F83FFFFFFF0C
:10933C00FFFFFFFFFFFFFFFFFFFFFFFFFFFFFFFF31
:10934C00FFFFFFFFFFFFFFFFFFFFFFFFFFFFFFFF21
:10935C00FFFFFFFFF203FDFFFFE0FCFC07C00FFF68
:10936C00FFFFFFFFFFFFFFFFFFFFFFFFFFFFFFFF01
:10937C00FFFFFFFFFFFFFFFFFFFFFFFFFFFFFFFFF1
:10938C00FFFFFFFFFFFFF87FF9FFFFF87E7E0F9FC7
:10939C00E3FFFFFFFFFFFFFFFFFFFFFFFFFFFFFFED
:1093AC00FFFFFFFFFFFFFFFFFFFFFFFFFFFFFFFFC1
:1093BC00FFFFFFFFFFFFFFFFF3FFFBFFFFFC3F394A
:1093CC000F2019FFFFFFFFFFFFFFFFFFFFFFFFFF56
:1093DC00FFFFFFFFFFFFFFFFFFFFFFFFFFFFFFFF91
:1093EC00FFFFFFFFFFFFFFFFFFFFF37FFBFFFFFF11
:1093FC000F900E0FC1FFFFFFFFFFFFFFFFFFFFFFEF
:10940C00FFFFFFFFFFFFFFFFFFFFFFFFFFFFFFFF60
:10941C00FFFFFFFFFFFFFFFFFFFFFFFFF23FF3FF29
:10942C00FFFFC7C00C7FF3FFFFFFFFFFFFFFFFFF36
:10943C00FFFFFFFFFFFFFFFFFFFFFFFFFFFFFFFF30
:10944C00FFFFFFFFFFFFFFFFFFFFFFFFFFFFF23FED
:10945C00F3FFFFFFF02009FFF9FFFFFFFFFFFFFF06
:10946C00FFFFFFFFFFFFFFFFFFFFFFFFFFFFFFFF00
:10947C00FFFFFFFFFFFFFFFFFFFFFFFFFFFFFFFFF0
:10948C00FBFFF3FFFEFFFC0001FFF9FFFFFFFFFFF7
:10949C00FFFFFFFFFFFFFFFFFFFFFFFFFFFFFFFFD0
:1094AC00FFFFFFFFFFFFFFFFFFFFFFFFFFFFFFFFC0
:1094BC00FFFFFBFFEBFF803FFC0007FFFCFFFFFF04
:1094CC00FFFFFFFFFFFFFFFFFFFFFFFFFFFFFFFFA0
:1094DC00FFFFFFFFFFFFFFFFFFFFFFFFFFFFFFFF90
:1094EC00FFFFFFFFF91FDBD81FC7FF000FFFFCFFBB
:1094FC00FFFFFFFFFFFFFFFFFFFFFFFFFFFFFFFF70
:10950C00FFFFFFFFFFFFFFFFFFFFFFFFFFFFFFFF5F
:10951C00FFFFFFFFFFFFF91E5BCC3FF83F800FFF03
:10952C00FFFFFFFFFFFFFFFFFFFFFFFFFFFFFFFF3F
:10953C00FFFFFFFFFFFFFFFFFFFFFFFFFFFFFFFF2F
:10954C00FFFFFFFFFFFFFFFFFCBF1BFF8FFF800034
:10955C001FFFFFFFFFFFFFFFFFFFFFFFFFFFFFFFEF
:10956C00FFFFFFFFFFFFFFFFFFFFFFFFFFFFFFFFFF
:10957C00FFFFFFFFFFFFFFFFFFFFFCFF3BFFF9FFBC
:10958C00FF001FFFFFFFFFFFFFFFFFFFFFFFFFFFBE
:10959C00FFFFFFFFFFFFFFFFFFFFFFFFFFFFFFFFCF
:1095AC00FFFFFFFFFFFFFFFFFFFFFFFFFE7EBBFF85
:1095BC00FFFFFF801FFFFFFFFFFFFFFFFFFFFFFF0E
:1095CC00FFFFFFFFFFFFFFFFFFFFFFFFFFFFFFFF9F
:1095DC00FFFFFFFFFFFFFFFFFFFFFFFFFFFFFF3E50
:1095EC00B3FFFFCFFE003FFFFFFFFFFFFFFFFFFFBB
:1095FC00FFFFFFFFFFFFFFFFFFFFFFFFFFFFFFFF6F
:10960C00FFFFFFFFFFFFFFFFFFFFFFFFFFFFFFFF5E
:10961C00FFBE53FFFFF3FE003FFFFFFFFFFFFFFF07
:10962C00FFFFFFFFFFFFFFFFFFFFFFFFFFFFFFFF3E
:10963C00FFFFFFFFFFFFFFFFFFFFFFFFFFFFFFFF2E
:10964C00FFFFFF9F13FFFFF8F8047FFFFFFFFFFFF3
:10965C00FFFFFFFFFFFFFFFFFFFFFFFFFFFFFFFF0E
:10966C00FFFFFFFFFFFFFFFFFFFFFFFFFFFFFFFFFE
:10967C00FFFFFFFFFFCF83FFFFFE180C7FFFFFFFF5
:10968C00FFFFFFFFFFFFFFFFFFFFFFFFFFFFFFFFDE
:10969C00FFFFFFFFFFFFFFFFFFFFFFFFFFFFFFFFCE
:1096AC00FFFFFFFFFFFFFFE7C3FFFFFFC01CFFFF34
:1096BC00FFFFFFFFFFFFFFFFFFFFFFFFFFFFFFFFAE
:1096CC00FFFFFFFFFFFFFFFFFFFFFFFFFFFFFFFF9E
:1096DC00FFFFFFFFFFFFFFFFFFF3E7FFFFFFFC7C38
:1096EC00FFFFFFFFFFFFFFFFFFFFFFFFFFFFFFFF7E
:1096FC00FFFFFFFFFFFFFFFFFFFFFFFFFFFFFFFF6E
:10970C00FFFFFFFFFFFFFFFFFFFFFFF8E3FFFFFF80
:10971C00F9FDFFFFFFFFFFFFFFFFFFFFFFFFFFFF55
:10972C00FFFFFFFFFFFFFFFFFFFFFFFFFFFFFFFF3D
:10973C00FFFFFFFFFFFFFFFFFFFFFFFFFFFE73FFBA
:10974C00FEFFE3FDFFFFFFFFFFFFFFFFFFFFFFFF3C
:10975C00FFFFFFFFFFFFFFFFFFFFFFFFFFFFFFFF0D
:10976C00FFFFFFFFFFFFFFFFFFFFFFFFFFFFFFFFFD
:10977C0033FDFEF88FFFFFFFFFFFFFFFFFFFFFFF33
:10978C00FFFFFFFFFFFFFFFFFFFFFFFFFFFFFFFFDD
:10979C00FFFFFFFFFFFFFFFFFFFFFFFFFFFFFFFFCD
:1097AC00FFFF93EB7EF83FFFFFFFFFFFFFFFFFFF85
:1097BC00FFFFFFFFFFFFFFFFFFFFFFFFFFFFFFFFAD
:1097CC00FFFFFFFFFFFFFFFFFFFFFFFFFFFFFFFF9D
:1097DC00FFFFFFFFC3E8FFF8FFFFFFFFFFFFFFFFE7
:1097EC00FFFFFFFFFFFFFFFFFFFFFFFFFFFFFFFF7D
:1097FC00FFFFFFFFFFFFFFFFFFFFFFFFFFFFFFFF6D
:10980C00FFFFFFFFFFFFE1F1FFC3FFFFFFFFFFFFC4
:10981C00FFFFFFFFFFFFFFFFFFFFFFFFFFFFFFFF4C
:10982C00FFFFFFFFFFFFFFFFFFFFFFFFFFFFFFFF3C
:10983C00FFFFFFFFFFFFFFFFF9F3FF0FFFFFFFFF2E
:10984C00FFFFFFFFFFFFFFFFFFFFFFFFFFFFFFFF1C
:10985C00FFFFFFFFFFFFFFFFFFFFFFFFFFFFFFFF0C
:10986C00FFFFFFFFFFFFFFFFFFFFFCF7F87FFFFF8E
:10987C00FFFFFFFFFFFFFFFFFFFFFFFFFFFFFFFFEC
:10988C00FFFFFFFFFFFFFFFFFFFFFFFFFFFFFFFFDC
:10989C00FFFFFFFFFFFFFFFFFFFFFFFFFE77C1FF93
:1098AC00FFFFFFFFFFFFFFFFFFFFFFFFFFFFFFFFBC
:1098BC00FFFFFFFFFFFFFFFFFFFFFFFFFFFFFFFFAC
:1098CC00FFFFFFFFFFFFFFFFFFFFFFFFFFFFFF207B
:1098DC001FFFFFFFFFFFFFFFFFFFFFFFFFFFFFFF6C
:1098EC00FFFFFFFFFFFFFFFFFFFFFFFFFFFFFFFF7C
:1098FC00FFFFFFFFFFFFFFFFFFFFFFFFFFFFFFFF6C
:10990C00FFE0FFFFFFFFFFFFFFFFFFFFFFFFFFFF7A
:10991C00FFFFFFFFFFFFFFFFFFFFFFFFFFFFFFFF4B
:10992C00FFFFFFFFFFFFFFFFFFFFFFFFFFFFFFFF3B
:10993C00FFFFFFFFFFFFFFFFFFFFFFFFFFFFFFFF2B
:10994C00FFFFFFFFFFFFFFFFFFFFFFFFFFFFFFFF1B
:10AFEC00FFFFFFFFFFFFFFFF00000000000000005D
:10AFFC000000000000000000000000000000000045
:10B00C000000000000000000000000000000000034
:10B01C000000000000000000000000000000000024
:10B02C000000000000000000000000000000000014
:10B27C0000000003FFFFFFFF0000000000000000C3
:10B28C0000000000000000000000000000000000B2
:10B29C0000000000000000000000000000000000A2
:10B2AC00000000000007FFFFFFFFF8000000000097
:10B2BC000000000000000000000000000000000082
:10B2CC000000000000000000000000000000000072
:10B2DC000000000000000007FFFFFFFFFF00000060
:10B2EC000000000000000000000000000000000052
:10B2FC000000000000000000000000000000000042
:10B30C0000000000000000000007FFFFFFFFFFE04F
:10B31C000000000000000000000000000000000021
:10B32C000000000000000000000000000000000011
:10B33C00000000000000000000000007FFFFFFFFFE
:10B34C00FFF0000000000000000000000000000002
:10B35C0000000000000000000000000000000000E1
:10B36C000000000000000000000000000007FFFFCC
:10B37C00FFFFFFFC000000000000000000000000C8
:10B38C0000000000000000000000000000000000B1
:10B39C00000000000000000000000000000000079A
:10B3AC00FFFFFFFFFFFE00000F0001E00078007FB1
:10B3BC00FE007C000007CFFFFFFF807FFFFE1E001A
:10B3CC00001E003FFF000FFFFFE01FFFFFFF00000C
:10B3DC000007FFFFFFFFFFFF80000F0001E0007878
:10B3EC0001FFFF803E00000F8FFFFFFF81FFFFFE7C
:10B3FC001E00001E00FFFFC00FFFFFF81FFFFFFF26
:10B40C0000000007FFFFFFFFFFFFC0000F0001E07F
:10B41C00007807FFFFE03E00000F8FFFFFFF83FF68
:10B42C00FFFE1E00001E03FFFFF00FFFFFFC1FFFBF
:10B43C00FFFF00000007FFFFFFFFF9FFE0000F0018
:10B44C0001E000780FFFFFF01F00001F0FFFFFFF50
:10B45C0087FFFFFE1E00001E07FFFFF80FFFFFFE19
:10B46C001FFFFFFF00000007FFFFFFFFF1FFF000D1
:10B47C000F0001E000781FFFFFF81F00001F0FFFF7
:10B48C00FFFF87FFFFFE1E00001E0FFFFFFC0FFFDC
:10B49C00FFFF1FFFFFFF00000007FFFFFFFFE1FFA3
:10B4AC00F8000F0001E000781FE007F80F80003E65
:10B4BC000F80000007F000001E00001E0FF003FCC0
:10B4CC000F0001FF1F00000000000007FFFFFFFF3F
:10B4DC00C1FFFC000F0001E000783F8001FC0780F9
:10B4EC00003E0F000000078000001E00001E1FC061
:10B4FC00007E0F00001F1E00000000000007FFFF71
:10B50C00FFFF81FFFC000F0001E000783F00007C92
:10B51C0007C0007C0F000000078000001E00001E0A
:10B52C001F80003E0F00000F1E00000000000007EF
:10B53C00FFFFFFFF01FFFE000F0001E000783E005F
:10B54C00007C03C0007C0F000000078000001E0080
:10B55C00001E1F00001E0F00000F1E000000000048
:10B56C000007FFFFFFFE01FFFF000F0001E0007866
