:02000004085F93
:10A0000000A05F08FCFF5F080000060020000501BB
:08A0100004017D1500000000B1
:10A018001348144908B5884205D0134A824202D031
:10A02800124B121A98471248124A0021124B121A60
:10A03800984712481249884205D0124A824202D0F3
:10A048000A4B121A984710481049884205D0104AFE
:10A05800824202D0054B121A9847014808BD00BF3A
:10A068001C82071020F55F089C8207102D0D111027
:10A078009C820710E8AF0710A10E111078AB3F02C1
:10A08800A8A05F0880AB3F0280AB3F02B0A05F088A
:0CA09800F0FF3F0219A05F08000000006C
:08A0A8009CA05F08D8D13F0223
:10A0B000034613F8012B002AFBD1181A0138704708
:10A0C00070B502F0A5F80025054E064CA41BA408A7
:10A0D000AC4200D170BD56F8043B98470135F7E714
:10A0E000CCFF3F02F0FF3F0200F014B808B500F0CB
:10A0F00095F9BDE8084002F043B801F07BBA01F0E1
:10A1000087BA0078B0FA80F04009704701230370E5
:10A110007047000008B501F0A3FF4FF4E13101F0F2
:10A1200093FF01F09DFF01F0EEFC01F099FF0C4957
:10A1300001F0E2FC0B4800F036FA30B101F090FF7C
:10A14000BDE80840084901F0D7BC01F089FF01F0E3
:10A15000DAFC01F085FFBDE80840044901F0DFBCEE
:10A16000E8D13F021C83071005D23F0222D23F02F2
:10A170002DE9F04F914E95B001F072FFDFF88CB2EF
:10A180008F4901F0CCFCDFF888A230468D4901F000
:10A190004CFEDFF8809258468B4901F046FE50464F
:10A1A0008A4901F042FE4846894901F03EFEDFF847
:10A1B000688288498848894D01F037FE8849894876
:10A1C00001F033FE4046884901F02FFEFF2128466A
:10A1D00000F02CFB284600F073FA284600F095FBAF
:10A1E000284600F05CFA4FF4FA7001F057FA28465E
:10A1F000502100F08CF92846172100F093F94FF414
:10A20000B473F022794904A800F045FC04A80321A6
:10A2100000F08DFC04A80121002400F06DFC052253
:10A22000734F1146734B04A80194009700F0FEFC95
:10A230003146714E10A801F0EDFD109B05226421FE
:10A24000009604A8019400F0F1FC10A801F074FD40
:10A2500023226A4B04A80521CDE9007400F0E6FC36
:10A26000594610A801F0D6FD109B23226421CDE9A8
:10A27000006404A800F0DAFC10A801F05DFD4122A2
:10A280005F4B04A80521CDE9007400F0CFFC5146D6
:10A2900008A801F0BFFD08A90CA801F0BBFD5949B1
:10A2A0000CA801F0F7FD8246494610A801F0B2FD66
:10A2B00010A9504601F0E2FD4FF0F00A4FF00109FD
:10A2C000CDE9006441220368642104A800F0AEFCDB
:10A2D00010A801F031FD0CA801F02EFD08A801F036
:10A2E0002BFD214604A84FF4B4738822009400F09B
:10A2F000B5FC04A868238822B421009400F0BEFCB9
:10A30000214604A8AA2391220194CDF800A000F0D0
:10A31000C5FC04A89B220521CDE900793A4B00F049
:10A3200085FCCDE900692C4B04A8B92205211B68E6
:10A3300000F07CFCCDE900692A4B04A8D722052156
:10A340001B6800F073FC4FF4B473912204A8BE2183
:10A35000CDE900A400F0A2FC414610A801F05AFD8E
:10A36000109BB422C821CDE9006904A800F05EFC6E
:10A3700010A801F0E1FC04A800F0D3FB039004A8AE
:10A3800000F0D1FB064604A800F0CFFB234622468E
:10A390000399CDE90060284600F00CFA284600F049
:10A3A0007EF9192001F07AF9284600F0C8FA04A8CD
:10A3B00000F084FB15B0BDE8F08F00BFB882071035
:10A3C0003BD23F025FD23F026BD23F027DD23F02BF
:10A3D00083D23F0289D23F02F88207101C83071004
:10A3E00090D23F020883071097D23F0239830710AB
:10A3F000208207109DD23F0228820710A4D23F027C
:10A40000ACD23F02B3D23F02B7D23F02C88207109C
:10A41000D8820710E88207109C82071008B5FFF762
:10A42000A7FEBDE8084042F2107001F037B9000005
:10A4300038B5002401251C4B1C4A1C701C4B022003
:10A440001D701C4B9A60C3E9004400F0D7FF214601
:10A45000284600F0EFFF184800F044F81749184864
:10A4600001F0B5FC1549174801F0B1FC1349164835
:10A4700001F0ADFC1149154801F0A9FC0F49144841
:10A4800001F0A5FC0D49134801F0A1FC0B4912484D
:10A4900001F09DFC22460221104800F083FCBDE83B
:10A4A00038400F4800F020BC188307100000FFFF61
:10A4B00019830710AC8207101C830710EAD23F02F1
:10A4C000B8820710C8820710D8820710E8820710E8
:10A4D000F8820710088307109C82071034AE07101B
:10A4E0003883071010B5044600F074FA04220223E2
:10A4F0001221C4E900230323F020C4E902134FF41E
:10A50000B473C4E9040300232046237610BD10B5BC
:10A510000C464068002100F05EFA2046BDE810407D
:10A5200000F0A8BA10B50C464068012100F053FABB
:10A530002046BDE8104000F09DBA000010B504466A
:10A5400001F08EFD094901F0D7FAE06800F047FA02
:10A55000C0B20028F9D1C82000F044FA01F080FD13
:10A56000BDE81040024901F0C7BA00BFC1D23F02A6
:10A57000D2D23F0210B504460121006800F02BFA48
:10A58000142000F02FFA0021206800F024FA0220A5
:10A5900000F028FA2068012100F01DFABDE8104003
:10A5A000142000F01FBA38B5044600F037FA05460B
:10A5B000002871D12046FFF7DDFF29462046257689
:10A5C000FFF7A5FFFF212046FFF7ACFF0121204642
:10A5D000FFF7A8FF01212046FFF799FF032120463E
:10A5E000FFF7A0FF10212046FFF79CFF3F212046E8
:10A5F000FFF798FF3F212046FFF794FF03212046F5
:10A60000FFF790FF06212046FFF781FF3721204604
:10A61000FFF788FF3D212046FFF784FF3D212046BC
:10A62000FFF780FF60212046FFF771FF22212046BF
:10A63000FFF778FF82212046FFF769FF07212046B8
:10A64000FFF770FF30212046FFF761FF0921204608
:10A65000FFF768FFE3212046FFF759FF88212046D6
:10A66000FFF760FF61212046FFF751FFF0212046F0
:10A67000FFF758FF01212046FFF754FF68212046CD
:10A68000FFF750FF50212046FFF741FFB72120463A
:10A69000FFF748FF284638BD4FF0FF35FAE710B501
:10A6A00004461721FFF733FF2046A521FFF73AFFA5
:10A6B0002046FFF743FFBDE81040C82000F092B9E4
:10A6C00070B5202104463825FFF721FF344E20467F
:10A6D00016F8011B013DFFF725FF15F0FF05F6D128
:10A6E00021212046FFF713FF2A252E4E204616F87B
:10A6F000011B013DFFF716FF15F0FF05F6D12421E0
:10A700002046FFF704FF2A25274E204616F8011B96
:10A71000013DFFF707FF15F0FF05F6D1237E22214B
:10A720002046F3B9FFF7F3FE3825204E204616F8F1
:10A73000011B013DFFF7F6FE15F0FF05F6D12321C1
:10A740002046FFF7E4FE2A25194E204616F8011B85
:10A75000013DFFF7E7FE15F0FF05F6D10123237653
:10A7600070BDFFF7D4FE3825114E204616F8011BA8
:10A77000013DFFF7D7FE15F0FF05F6D12321204656
:10A78000FFF7C5FE2A25094E204616F8011B013D9C
:10A79000FFF7C8FE15F0FF05F6D12576E0E700BF0C
:10A7A000EBD23F0223D33F02BDD33F024DD33F0242
:10A7B00085D33F022DE9F74F1F4614464FF0000A9C
:10A7C000009113210546FFF7A2FE0C9B4FEAD40B24
:10A7D0001C447B430D99C3F100097B18E4080193E5
:10A7E000696951451FD90026009BCBEBD9089844D5
:10A7F0002969B6EBD10F11D2B3450DD8B4420BD9AC
:10A80000BA4509D3019B534506D318F806102846CC
:10A81000FFF788FE0136EBE70021F8E70C9B0AF111
:10A82000010A9944DCE703B0BDE8F08F2DE9F0415F
:10A830000E46132104460025FFF769FE6369AB420B
:10A8400061D9002705F001082369B7EBD30F4FEA60
:10A85000D30256D20F2E2CD008D8032E0DD8711E3D
:10A86000022915D8DFE801F02D3B1900F02E24D085
:10A8700005D8552E09D0AA2E05D00137E4E7FF2EC2
:10A88000FBD1FF2105E0314603E0B8F1000FF8D11C
:10A8900000212046FFF746FEEFE76269B7EB131F82
:10A8A0004FEA520202D39542F2D3EAE79542EFD241
:10A8B000E7E7B7EB131FE4D2EAE76369B5EB530FA1
:10A8C000F9E7002DE4D06369013BAB42E0D00FB95A
:10A8D0007F21DEE7531EBB42D3D1FE21D9E71822E8
:10A8E000B3FBF2F3BB42CCD8B7EB430FC9D803227A
:10A8F0006369B3FBF2F3AB42CAD2B5EB430FC7D2E5
:10A90000BFE701359AE7BDE8F08138B51321044669
:10A910000025FFF7FCFDD4E904325343B5EBD30F18
:10A9200005D2FF212046FFF7FDFD0135F3E7204664
:10A93000FFF7C6FE2046BDE83840FFF7B0BE10B5B1
:10A9400004460721FFF7E3FD2046BDE81040A5219E
:10A95000FFF7E8BD704710B504461021FFF7CFFBA5
:10A96000204610BD0EB403B503AB53F8042B0021F1
:10A97000019301F0FCF802B05DF804EB03B07047FE
:10A9800073B5044622790846A36832B1A3B90B49CE
:10A9900002B0BDE8704001F0AFB8094A267B094D0E
:10A9A0000949647B012E18BF2946CDE900140749E7
:10A9B000FFF7D8FF02B070BD054AEFE7F8D33F02BA
:10A9C000EAD23F02F4D33F02F0D33F020ED43F025B
:10A9D000E7D33F027047C9B280B201F09ABC80B29F
:10A9E00001F0B0BC00F05ABE13B50A4CD4E88F1F7A
:10A9F00011F001010BD120460191FFF782FB019973
:10AA000028B1054801F0F0F82046FFF77FFB024827
:10AA100002B010BD80AE071084AE07101FB5012133
:10AA2000122001F065FC0121042001F061FC0121EC
:10AA3000022001F05DFC0021032001F059FCFFF72A
:10AA4000D3FF01F0DBF8094B00240093084B8DF88D
:10AA5000044002930123ADF80C30FFF7C5FF6946AF
:10AA600001F0F6F8204604B010BD00BF34D43F0218
:10AA700080841E0010B504460021122001F049FC1C
:10AA8000FFF7B2FF214601F051F9BDE81040012166
:10AA9000122001F03EBC30B50024C46012F007045F
:10AAA000016008D002F10805524202F00701224677
:10AAB00058BF4A42AA1AC0E9012330BD7047002995
:10AAC00030B515DB44688C4212DD002A10DB856846
:10AAD00095420DDD02FB04128024056801F0070198
:10AAE000D21044FA01F1A85649B213B10843A85450
:10AAF00030BD20EA0100FAE770B50B460446002598
:10AB00006268AA420CDD0026A268B24206DD324627
:10AB100029462046FFF7D3FF0136F5E70135EFE779
:10AB200070BD006870474068704780687047C160BA
:10AB30007047F0B4C7680D46144667B9002937DB83
:10AB400047688F4234DD002A32DB856895422FDD6D
:10AB5000F0BCFFF7B4BF012F0CD1002928DB8268BD
:10AB60008A4225DD002C23DB4168A14220DD2A46F4
:10AB7000091BEDE7022F0CD1002919DB4168A9421E
:10AB800016DD002A14DB8268A24211DD121B491B6C
:10AB9000DEE7032F0CD100290ADB82688A4207DD39
:10ABA000002C05DB4168A14202DD2146521BCFE7A4
:10ABB000F0BC70472DE9F74F0C9D9146AC88884654
:10ABC00014F0070218BF012200274FF0800B02EBA0
:10ABD000D402EC88203B63432C6803FB0244EB88DF
:10ABE000BB4220DD002609EB0702AB88B34215DD2E
:10ABF000217806F0070A4BFA0AF3194208D00D9B98
:10AC000006EB080101920090FFF793FFDDE90002D7
:10AC1000BAF1070F08BF01340136E6E75B0718BF3A
:10AC200001340137DBE703B0BDE8F08F2DE9F341D4
:10AC300006460C469046089F5D1E15F8013F53B12D
:10AC4000099A2146CDE9007230464246FFF7B2FF2D
:10AC5000BB881C44F1E702B0BDE8F081F8B50646B8
:10AC600017460C46CD18A54207DD21463A46304628
:10AC7000069BFFF75EFF0134F5E7F8BDF8B5064621
:10AC80000F461446D518A54207DD22463946304600
:10AC9000069BFFF74EFF0134F5E7F8BD2DE9F341C0
:10ACA0008B42044608981E46A8BF0E468B42B8BF8A
:10ACB0000B4690428046A8BF90469042ACBFC8EB7E
:10ACC0000007C8EB02071D460137AE4209DC099BAD
:10ACD0003146009342463B462046FFF7CFFF013600
:10ACE000F3E702B0BDE8F08110B5044601F058FB6F
:10ACF00000F068FD204610BD0368C9B29B68184784
:10AD00002DE9F04101320220D5B20F4600F0C6FC19
:10AD100001F046FB242100F08BFD01F041FB0021F6
:10AD2000FFF7EAFF01F03CFB0021FFF7E5FF01F030
:10AD300037FBFF21FFF7E0FF01F032FB03682946F4
:10AD40009B68984701F02CFB6942FFF7D5FF01F0A3
:10AD500027FBD421FFF7D0FF0024D326013D04F1C7
:10AD60000108E4B2AC420ADA01F01AFB0368395D6B
:10AD70009B689847395D44460E44F6B2EFE701F010
:10AD80000FFBF1430368C9B29B68984701F008FBC9
:10AD9000036800219B68984701F002FBBDE8F04181
:10ADA00000F04DBD38B504461546064B084684F8FC
:10ADB00048102360002101F09BFA204684F8495096
:10ADC00038BD00BFD8FD3F0238B50546652495F86B
:10ADD000480001F0B7FA30B1013CA4B22CB10A200E
:10ADE00000F05CFCF3E7012038BD2046FCE70023BF
:10ADF000F7B5FF228DF800308DF801308DF8033063
:10AE00008DF8053090F849300446012B0D468DF839
:10AE100002208DF8042041D1FFF7D6FF10B90020A1
:10AE200003B0F0BD01F0BCFA0822242100F0F9FCC7
:10AE300001F0B6FA0368261D5B69984704F10A071A
:10AE4000012000F02BFC01F0ABFA03685B69984726
:10AE500006F8010BBE42F3D12046FFF7B5FF0028EC
:10AE6000DDD001F09DFA2A1F242100F0DAFC01F068
:10AE700097FA03686FF009075B699847063D3F1B27
:10AE8000BB199D4249DD012000F008FC01F088FA61
:10AE900003685B69984706F8010BF1E7002B3CD18A
:10AEA0001E2000F0FBFB01F07BFA0822242100F0B9
:10AEB000B8FC01F075FA0368261D5B69984704F138
:10AEC0000A07012000F0EAFB01F06AFA03685B69F7
:10AED000984706F8010BBE42F3D11E2000F0DEFBBE
:10AEE00001F05EFA2A1F242100F09BFC01F058FAC1
:10AEF00003686FF009075B699847063D3F1BBB1964
:10AF00009D420ADD012000F0C9FB01F049FA036807
:10AF10005B69984706F8010BF1E706226846211D98
:10AF200001F076FBB0FA80F0400979E709B50448F2
:10AF30000068044B03441B685B6C029309BD00006E
:10AF40001C8207103000000009B504480068044B5B
:10AF500003441B685B68029309BD00001C82071054
:10AF60000000000009B504480068044B03441B6856
:10AF70005B69029309BD00001C82071000000000FD
:10AF800009B504480068044B03441B689B6802939E
:10AF900009BD00001C8207101400000009B5044818
:10AFA0000068044B03441B68DB68029309BD000082
:10AFB0001C8207101400000009B504480068044B07
:10AFC00003441B681B69029309BD00001C82071023
:10AFD0001400000009B504480068044B03441B68D2
:10AFE0005B69029309BD00001C8207101400000079
:10AFF00009B504480068044B03441B68DB680293EE
:10B0000009BD00001C8207101000000009B50448AB
:10B010000068044B03441B689B69029309BD000050
:10B020001C8207101000000009B504480068044B9A
:10B0300003441B68DB69029309BD00001C820710F2
:10B040001000000009B504480068044B03441B6865
:10B050001B6A029309BD00001C820710100000004B
:10B0600009B504480068044B03441B685B6A0293FB
:10B0700009BD00001C8207101000000009B504483B
:10B080000068044B03441B689B6A029309BD0000DF
:10B090001C8207101000000009B504480068044B2A
:10B0A00003441B68DB6A029309BD00001C82071081
:10B0B0001000000009B504480068044B03441B68F5
:10B0C0001B6B029309BD00001C82071010000000DA
:10B0D00009B504480068044B03441B685B6B02938A
:10B0E00009BD00001C8207101000000009B50448CB
:10B0F0000068044B03441B681B6C029309BD0000ED
:10B100001C8207101000000009B504480068044BB9
:10B1100003441B681B6D029309BD00001C820710CD
:10B120001000000009B504480068044B03441B6884
:10B130005B69029309BD00001C8207104C000000EF
:10B1400009B504480068044B03441B689B680293DC
:10B1500009BD00001C8207105000000009B504481A
:10B160000068044B03441B68DB68029309BD0000C0
:10B170001C8207105000000009B504480068044B09
:10B1800003441B681B68029309BD00001C82071062
:10B190001800000009B504480068044B03441B680C
:10B1A0005B69029309BD00001C82071018000000B3
:10B1B00009B504480068044B03441B68DB6902932B
:10B1C00009BD00001C8207101800000009B50448E2
:10B1D0000068044B03441B681B6A029309BD00000E
:10B1E0001C8207101800000009B504480068044BD1
:10B1F00003441B685B6A029309BD00001C820710B0
:10B200001800000009B504480068044B03441B689B
:10B21000DB6B029309BD00001C82071018000000C0
:10B2200009B504480068044B03441B681B6C029377
:10B2300009BD00001C8207101800000009B5044871
:10B240000068044B03441B685B6C029309BD00005B
:10B250001C8207101800000009B504480068044B60
:10B2600003441B68DB68029309BD00001C820710C1
:10B270002400000009B504480068044B03441B681F
:10B280001B69029309BD00001C8207102400000006
:10B2900009B504480068044B03441B685B690293CA
:10B2A00009BD00001C8207102400000009B50448F5
:10B2B0000068044B03441B689B69029309BD0000AE
:10B2C0001C8207102400000009B504480068044BE4
:10B2D00003441B68DB69029309BD00001C82071050
:10B2E0002400000009B504480068044B03441B68AF
:10B2F0001B6A029309BD00001C8207102400000095
:10B3000009B504480068044B03441B689B6A029318
:10B3100009BD00001C8207102400000009B5044884
:10B320000068044B03441B681B6C029309BD0000BA
:10B330001C8207102400000009B504480068044B73
:10B3400003441B681B68029309BD00001C820710A0
:10B350003400000009B504480068044B03441B682E
:10B360005B68029309BD00001C82071034000000D6
:10B3700009B504480068044B03441B681B69029329
:10B3800009BD00001C8207103400000009B5044804
:10B390000068044B03441B685B69029309BD00000D
:10B3A0001C8207103400000009B504480068044BF3
:10B3B00003441B689B69029309BD00001C820710AF
:10B3C0003400000009B504480068044B03441B68BE
:10B3D000DB69029309BD00001C82071034000000E5
:10B3E00009B504480068044B03441B681B6A0293B8
:10B3F00009BD00001C8207103400000009B5044894
:10B400000068044B03441B685B68029309BD00009D
:10B410001C8207100800000009B504480068044BAE
:10B4200003441B685B69029309BD00001C8207107E
:10B430000800000009B504480068044B03441B6879
:10B44000DB6A029309BD00001C820710080000009F
:10B4500009B504480068044B03441B68D3F88830DE
:10B46000029309BD1C8207100800000009B50448BA
:10B470000068044B03441B68D3F89430029309BD61
:10B480001C8207100800000009B504480068044B3E
:10B4900003441B68DB6B029309BD00001C8207108C
:10B4A0002C00000009B504480068044B03441B68E5
:10B4B0005B68029309BD00001C8207102800000091
:10B4C00009B504480068044B03441B689B68029359
:10B4D00009BD00001C8207102800000009B50448BF
:10B4E0000068044B03441B68DB68029309BD00003D
:10B4F0001C8207102800000009B504480068044BAE
:10B5000003441B681B69029309BD00001C820710DD
:10B510002800000009B504480068044B03441B6878
:10B520005B69029309BD00001C820710280000001F
:10B5300009B504480068044B03441B689B690293E7
:10B5400009BD00001C8207102800000009B504484E
:10B550000068044B03441B68DB69029309BD0000CB
:10B560001C8207102800000009B504480068044B3D
:10B5700003441B681B6A029309BD00001C8207106C
:10B580002800000009B504480068044B03441B6808
:10B590001B6B029309BD00001C82071028000000ED
:10B5A00009B504480068044B03441B685B6B0293B5
:10B5B00009BD00001C8207102800000009B50448DE
:10B5C0000068044B03441B681B6C029309BD000018
:10B5D0001C8207102800000009B504480068044BCD
:10B5E00003441B685B6C029309BD00001C820710BA
:10B5F0002800000009B504480068044B03441B6898
:10B600001B68029309BD00001C82071004000000A3
:10B6100009B504480068044B03441B685B68029347
:10B6200009BD00001C8207100400000009B5044891
:10B630000068044B03441B689B68029309BD00002B
:10B640001C8207100400000009B504480068044B80
:10B6500003441B685B6A029309BD00001C8207104B
:10B660000400000009B504480068044B03441B684B
:10B670001B6C029309BD00001C820710040000002F
:10B6800009B504480068044B03441B685B6C0293D3
:10B6900009BD00001C820710040000000021FFF714
:10B6A000BBBE0000002302480360FFF73FBC00BFA1
:10B6B0008CAE0710002240681146FFF755BF0022EC
:10B6C00040681146FFF76CBF00224068FFF75ABF81
:10B6D0000022406881F00101FFF738BF0023406875
:10B6E0001A461946FFF724BF002340681A46194638
:10B6F000FFF710BF002240681146FFF7FDBE002291
:10B7000040681146FFF7DCBE002202214068FFF7C7
:10B71000E5BE002340681A46FFF7C4BE0322024B71
:10B720005A60024A1A60704790AE0710E8FD3F0267
:10B730007047F8B5064615460C468F18BC4206D031
:10B74000336830469B6814F8011B9847F6E7284693
:10B75000F8BD0022007CFFF775BC0021007CFFF7DC
:10B760007FBC0021007CFFF789BC0021007CFFF733
:10B7700093BC0021007CFFF79DBC10B5044614214A
:10B78000FEF7BDFC204610BD38B5044615464FF403
:10B790007A730022C4E90123094B0846217423600F
:10B7A0002946FFF7A3FCBF3008D16B69DB0705D53D
:10B7B0006868FFF72DFFE868FFF72AFF204638BDCD
:10B7C00024FE3F020023007C1A461946FFF710BCF6
:10B7D0007FB500221423CDE90122ADF804300B78A7
:10B7E000007C8DF808304B680393CB6804930B7A88
:10B7F00001A90593FFF788FC07B05DF804FB1FB5AE
:10B80000003B8DF800104FF0640118BF0123039135
:10B81000694601928DF80830FFF7DAFF05B05DF850
:10B8200004FB0123FFF7EBBF0022007CFFF7EEBB18
:10B83000C9B2FFF7F9BF0022007CFFF7F5BB012179
:10B84000FFF7F9BF704710B504461821FEF757FC03
:10B85000204610BDF0B5037D0E46062B4FF00004C8
:10B860008DB000F1040712D000F1080515F8011D94
:10B870000A22304600F05DF9AF42044419D0002C92
:10B88000F4D02E21304600F03BF90444EEE72F239C
:10B890006A4639460A208DF80040FFF743FC6846A7
:10B8A000FEF706FC3368024669463046DB68984777
:10B8B000044620460DB0F0BD10B50446044B1122DD
:10B8C000002140F8043B00F064FE204610BD00BF9C
:10B8D0004CFE3F020346074A10B543F8042B01F122
:10B8E000100251F8044B914243F8044BF9D10A7805
:10B8F0001A7010BD4CFE3F0210B59DF8084044EA96
:10B90000032343EA0242042342EA016141600375D2
:10B9100010BD000007B5064B0360CB7800938B7811
:10B920004A780978FFF7E8FF03B05DF804FB00BF31
:10B930004CFE3F02014B024A1A60704798AE071056
:10B9400058FE3F02002340681A46FFF7ABBD0022B5
:10B9500002214068FFF7C2BD002240681146FFF790
:10B96000AFBD002240681146FFF7C6BD0023406806
:10B970001A461946FFF7CEBD002340681A461946FD
:10B98000FFF7D6BD00214068FFF718BE00214068D0
:10B99000FFF722BE0022406881F00101FFF7D6BD0B
:10B9A00000224068FFF7EEBD002240681146FFF715
:10B9B000F7BD002240681146FFF7D6BD2DE9F043E0
:10B9C00095B014460D460746FFF776FF00211C226E
:10B9D0000DA8009100F0DDFD402320460C930021CE
:10B9E0006B460CAAFFF7BAFB044600284BD102466F
:10B9F00001216868FFF780FD0221804622466868C1
:10BA0000FFF77AFD21468146009E002E3BD000299B
:10BA100039D17368022B03D00A2B11D0F669F4E7F1
:10BA2000B8F1000FFAD0716906A804313C1D07ADCA
:10BA3000FFF770FF0FCD0FC42B6841462370EDE771
:10BA4000B9F1000FEAD0102201A8746900F0A1FD3D
:10BA5000062301AD8DF8143004F1080318342A468A
:10BA600018685968083303C2A3421546F7D101A9E3
:10BA700006A83C1D07ADFFF72DFF0FCD0FC42B68A7
:10BA800049462370CAE70098FFF75AFB384615B0BD
:10BA9000BDE8F083024B034A1A6000225A607047E7
:10BAA0009CAE071064FE3F02F8B506460D46002422
:10BAB0008F18BD420CD0336830469B6815F8011BC7
:10BAC0009847031E01DB1C44F3E7002C08BF1C460B
:10BAD0002046F8BD13B50446084659B10191FEF75A
:10BAE000E7FA0246204623680199DB6802B0BDE808
:10BAF0001040184702B010BD08B5FFF7EBFF08BDB6
:10BB000003689B68184738B50D210546FFF7F8FF15
:10BB10000A2104462846FFF7F3FF204438BD38B514
:10BB20000546FFF7D7FF04462846FFF7ECFF204401
:10BB300038BD0023012A98BF0A2230B58BB08DF89A
:10BB4000243009AC0D46B1FBF2F101FB125303F0B6
:10BB5000FF03092B94BF30333733DBB2AA4204F81A
:10BB6000013DEFD92146FFF7B5FF0BB030BD2DE900
:10BB7000F04186B000AF05460E46381D142114462C
:10BB80003B60FFF761FD13280ED82846391DFFF7EB
:10BB9000A1FF04461EB12846FFF7B5FF0444204626
:10BBA0001837BD46BDE8F08100F1080323F0070314
:10BBB000E846ADEB030D2246411C3B686846FFF7A3
:10BBC00043FD69462846FFF785FF0446C546E1E781
:10BBD0000022014B9A607047A4AE07100021FFF7C6
:10BBE0002DBB0021FFF71CBB10B504460846217091
:10BBF000FFF7DEFA00232046636010BD13B504464C
:10BC00000078FFF7EEFF58B920784FF6FF710190EA
:10BC1000FFF7B2FA019802B0BDE81040FFF7DEBFAF
:10BC200002B010BD30B50024400818601868E5B2B5
:10BC3000884206D90134082C02D040081860F5E784
:10BC40000725024B5B5D137030BD00BF98FE3F02BD
:10BC50002DE9F04306468FB000780C46FFF7C1FF90
:10BC600000281BDB1422002109A8357800F091FC84
:10BC70000B230022284609A9ADF82430FFF7B4FAB7
:10BC80009DF82D3013B19DF82C5055B1002701259A
:10BC9000B946B84623795DB1C3B100200FB0BDE805
:10BCA000F083DDF830809DF834909DF83570F1E731
:10BCB000002B35D1A368434508D18DF820908DF82D
:10BCC0002170BDF82020A3899A42E6D00023A16804
:10BCD0008DF80F300A9804AB0DF10F02FFF7A2FFA9
:10BCE000217985B989B9A36843450ED38DF8209091
:10BCF0008DF82170BDF82020A3899A4205D1049BBC
:10BD0000434502D1C9E70029F9D100230193637BA0
:10BD10009DF80F200093237B3078FFF773FABCE780
:10BD20002B462A460121CDE90055F5E708B50078F4
:10BD3000FFF730FAC0B208BD10B504460068FFF73F
:10BD400067FC204610BD10B50446006808B1FFF737
:10BD50005FFC0023C4E90133236010BD38B50446FD
:10BD60000D4600680131FFF761FC10B1C4E9000520
:10BD7000012038BD10B50368044623B143688B42E7
:10BD800001D3012010BD2046FFF7E8FF0028F9D0BD
:10BD9000A368002BF5D122681370F2E737B50D4682
:10BDA000114601920446FFF7E5FF019A28B92046A3
:10BDB000FFF7C9FF204603B030BD2946A2602068C6
:10BDC00000F0DAFB00212268A368D154F2E70023D7
:10BDD00013B50446C0E900338360037341B10846DC
:10BDE0000191FEF765F9019902462046FFF7D6FF5B
:10BDF000204602B010BD884210B5044605D00B683D
:10BE00002BB18A681946FFF7C9FF204610BDFFF71E
:10BE10009AFFFAE7002310B50446C0E900338360B7
:10BE20000373FFF7E8FF204610BD13B5044659B170
:10BE300008460191FEF73CF9019902462046FFF7BA
:10BE4000ADFF204602B010BDFFF77DFFF9E770B5EA
:10BE500005460E4609B9002070BD6AB184681444D5
:10BE60002146FFF787FF0028F5D02868AB683146E8
:10BE7000184400F0C5FBAC600120EDE710B58A68FE
:10BE800009680446FFF7E3FF10B92046FFF75BFFA0
:10BE9000204610BD13B5044629B92046FFF753FFCD
:10BEA000204602B010BD08460191FEF701F9019944
:10BEB00002462046FFF7CBFF0028EED0F0E7000057
:10BEC00002220020044B1A60044B054AC3E900001B
:10BED0009A60FFF793BA00BFC0AE0710B4AE071068
:10BEE0000000FFFF024B1A68024B1A60704700BF48
:10BEF00030820710C4AE071070474174704708B510
:10BF0000007CFFF7FDF920EAE07008BD08B5007C71
:10BF1000FFF7B0F920EAE07008BD08B5007CFFF734
:10BF2000C5F940EAE07008BD08B5007CFFF7B0F93C
:10BF300040EAE07008BD007CFFF7C6B937B5457C24
:10BF400004462DB1207C03B0BDE83040FFF784B932
:10BF5000007C0191FFF7D4F900280199F2DC284612
:10BF600003B030BD10B504461421FEF7C8F82046D2
:10BF700010BD000010B54FF47A7304460846114610
:10BF80000022C4E90123044B20742360012363745D
:10BF9000FFF7C4F9204610BDC4FE3F02007CFFF746
:10BFA000A1B9417470477047704708B50021007C03
:10BFB000FFF7FAF940EAE07008BD08B50121007CFE
:10BFC000FFF7F2F940EAE07008BD08B5007CFFF722
:10BFD000DDF920EAE07008BD08B5007CFFF7C8F97C
:10BFE00020EAE07008BD13B50446007C0191FFF71C
:10BFF000CDF90028019901DC607C20B1207CFFF79D
:10C00000E1F920EAE07002B010BD007CFFF7E8B96A
:10C0100010B504461421FEF772F8204610BD00004A
:10C0200010B54FF47A73044608460021C4E90113A1
:10C03000044B20742360012311466374FFF77CF9DD
:10C04000204610BDF4FE3F020022007CFFF782B9BB
:10C0500010B504461422002100F09BFA204610BDC2
:10C0600010B588B003A8FFF7F3FF0C4CD4E88F1F7E
:10C0700011F001010FD120460191FEF742F801991C
:10C0800048B103AA0648FFF7CBFF2046FEF73EF86B
:10C09000044800F06BFA024808B010BDC8AE0710A3
:10C0A000CCAE071077CA3F02002240681146FFF766
:10C0B00023BA002240681146FFF756BA00224068B2
:10C0C0001146FFF76DBA00224068FFF75BBA002205
:10C0D000406881F00101FFF739BA002340681A4631
:10C0E0001946FFF725BA002340681A461946FFF79C
:10C0F00011BA002240681146FFF7E2B9002202217E
:10C100004068FFF7EBB9002340681A46FFF7CAB949
:10C110000422024B5A60024A1A607047E0AE0710D0
:10C1200024FF3F02014B1860704700BF34820710A4
:10C1300008B50F4B43B1FFF793FF03681B6998479E
:10C14000002801DD00E000BF0A4B43B100F07CF99C
:10C1500003681B699847002801DD00E000BF064B1B
:10C160000BB100F0B7F9054B0BB100F0E9F908BDD0
:10C1700000000000000000000000000000000000BF
:10C1800008B5FFF7D5FFFEF7EDFE014B186008BDBF
:10C19000F0AE07100548064A08B5121A054900F026
:10C1A000EBF9054B054A1A6008BD00BF00B4071043
:10C1B00004B40710A0F55F0800B407101E1C279AEE
:10C1C000002307B51A466FF077010093FFF74EF989
:10C1D00003B05DF804FB000007B543880A2B08D0C4
:10C1E000502B0BD1094B1B684BB103B05DF804EB2E
:10C1F0001847FFF7E5FF03B05DF804FB00231A467C
:10C200006FF077010093FFF731F9F4E7ECAE071018
:10C21000002110B51148FFF733FA114B1A68114B82
:10C220009A420CBF012200220F4B1A7001D0FFF777
:10C23000B1FFFEF789FE044600F0B4F90B4B13B1D1
:10C24000204600E000BF00210848FFF71DF9BDE8C7
:10C25000104000210648FFF7FBB800BFF5CB3F02B6
:10C2600000B407101E1C279AE8AE0710000000005B
:10C27000A9CC3F021B2837B5044602D9002003B0E1
:10C2800030BDA0F10F03022B0BD9012821D800F0FB
:10C2900087F80021007CFEF71BFF80F00100C0B290
:10C2A000EDE7114DD5E88F1F11F001010BD12846A4
:10C2B0000191FDF726FF019928B10C48FFF794FC86
:10C2C0002846FDF723FF094B1878FEF77FFF00286B
:10C2D000D4D1083C012C05D800F0B6F8007CFFF75B
:10C2E00001F8DAE70120CAE780AE071084AE071034
:10C2F0001B2838B504460D460AD8FF2908D0FFF799
:10C30000B9FF28B129462046BDE83840FEF738BEBF
:10C3100038BD38B504460D46FEF740FEFF2810D064
:10C32000062804D84D2323FA00F0C30709D4204679
:10C33000FFF7A0FF28B129462046BDE83840FEF7A8
:10C340003BBE38BD10B50446FEF728FE031FDBB226
:10C35000012B08D92046FFF78DFF20B12046BDE80C
:10C360001040FEF737BE002010BD704738B50A4BAD
:10C3700004460360012309494361202000F0F4F8DA
:10C380002025606005492846A56000F0EDF8C4E965
:10C390000305204638BD00BF1800010058FF3F02CA
:10C3A00030B50E4D87B0D5E88F1F11F0010411D1C3
:10C3B0002846FDF7A6FE68B16846FFF7D7FF6A4634
:10C3C00021460748FFF7E0F92846FDF79FFE05489C
:10C3D00000F0CCF8024807B030BD00BFF4AE071043
:10C3E000F8AE07103BCE3F027047000038B5142569
:10C3F00004462A46002100F0CCF825804025074954
:10C4000028462581258200F0AFF80449606028465F
:10C4100000F0AAF8E060204638BD00BF58FF3F0298
:10C420007047704710B50446FFF7E0FF204610BD87
:10C4300010B50446FFF7DAFF204610BD10B50446DC
:10C44000FFF7D4FF204610BD30B50E4D87B0D5E8BC
:10C450008F1F11F0010411D12846FDF752FE68B17B
:10C4600001A8FFF7DFFF214601AA0748FFF782FD79
:10C470002846FDF74BFE054800F078F8024807B063
:10C4800030BD00BF0CAF071018AF0710B9CE3F0288
:10C4900010B50D4C86B0D4E88F3FDB0711D4204691
:10C4A000FDF72FFE68B101A8FFF7C2FF012101AA25
:10C4B0000648FFF75FFD2046FDF728FE044800F020
:10C4C00055F8024806B010BD10AF07102CAF07108A
:10C4D000F3CE3F0210B5FFF7DBFF074B044653B125
:10C4E000FFF75CFD38B1236820461B699847002898
:10C4F00001DD00E000BF10BD0000000010B50D4CD4
:10C5000086B0D4E88F3FDB0711D42046FDF7F9FD54
:10C5100068B101A8FFF792FF022101AA0648FFF7C0
:10C5200029FD2046FDF7F2FD044800F01FF80248FF
:10C5300006B010BD14AF071040AF0710F1CE3F0298
:10C5400010B5FFF7DBFF074B044653B1FFF726FD9D
:10C5500038B1236820461B699847002801DD00E0B8
:10C5600000BF10BD00000000FDF7C7BD002301465D
:10C570001A46184600F060B80A44431E914200D1A2
:10C58000704710B511F8014B914203F8014FF9D1F2
:10C5900010BD02440346934200D1704703F8011BCB
:10C5A000F9E7000038B5104B04461D68AB6BB3B912
:10C5B0001820FFF71FF80246A86320B90B4B422151
:10C5C0000B48FFF74FF80B490B4BC0E900130B4B1F
:10C5D000002183600B2383810120C2E90401AB6B3E
:10C5E00000221C615A6138BD3482071059FF3F0296
:10C5F00070FF3F020E33CDAB34126DE6ECDE05006A
:10C60000034611F8012B03F8012B002AF9D17047DA
:10C6100010B57AB103460139841813F8010B11F8EB
:10C62000012F904201D1A34201D1801A10BD0028F0
:10C63000F3D1FAE71046F9E72DE9F843DFF8BC80BB
:10C6400006461F460D46D8F80000914600F058F8FF
:10C65000264B1C6834B9264C1C60264B13B11B6852
:10C66000C4F8883063681F2B07DDD8F8000000F09D
:10C6700049F84FF0FF30BDE8F8835EB3D4F8880086
:10C6800088B91D4B23B9D8F8000000F03AF8F0E75C
:10C690004FF48470FEF7AEFF0028F4D00023C0E909
:10C6A0004033C4F8880063680122022E40F82390CA
:10C6B00002FA03F200EB8301D0F8003143EA0203EF
:10C6C000C0F80031C1F8807002BFD0F804311343C4
:10C6D000C0F804316368D8F800005A1C0233626065
:10C6E00044F8235000F00EF80020C4E7E0AF071034
:10C6F00054AF071000000000C5C03F029882071029
:10C70000704770477047000091AB3F02B9AB3F02E2
:10C71000BDAB3F0200000000496E697469616C693D
:10C720007A696E6720652D50617065722064697347
:10C73000706C6179004661696C656420746F206972
:10C740006E697469616C697A6520646973706C6183
:10C75000790057616974696E6720666F7220612085
:10C76000636172642E2E2E2E2E2E00436F6E737414
:10C7700072756374696E67206D6573736167652098
:10C78000666F7220646973706C61792E2E2E00447E
:10C79000696E696E6720526F6F6D004D6172732014
:10C7A0006865726520776520636F6D650031303A8A
:10C7B00030300031323A30300053746576696500AC
:10C7C000576F6E646572004552524F5200524F4F80
:10C7D0004D3A20005449544C453A200054494D45A7
:10C7E0003A2000202D2000535045414B45523A201D
:10C7F00000652D50617065722062757379200D0A95
:10C800002000652D50617065722062757379207209
:10C81000656C65617365200D0A2000010F0F0F0123
:10C820000101000000000000000000000000000006
:10C8300000000000000000000000000000000000F8
:10C8400000000000000000000000000000000000E8
:10C85000000000014F8F0F010101000000000000E7
:10C8600000000000000000000000000000000000C8
:10C8700000000000000000000000000000010F8F19
:10C880000F01010100000000000000000000000096
:10C890000000000000000000000000000000000098
:10C8A0000000000000000000000000000000000088
:10C8B0000000000000014F8F4F0101010000000047
:10C8C0000000000000000000000000000000000068
:10C8D0000000000000000000000000000000000058
:10C8E00000000000000000000000000000010F8FA9
:10C8F0004F010101000000000000000000000000E6
:10C900000000000000000000000000000000000027
:10C910000000000000000064656661756C74200012
:10C920004D5342004C5342003C535049536574747C
:10C93000696E67732064656661756C743E003C5374
:10C94000504953657474696E67732025732575208B
:10C950002573204D4F444525753E00000000000022
:10C960000000000051B43F0225B43F0227B43F024B
:10C9700000000000000000000000000000000000B7
:10C9800000000000000000000000000000000000A7
:10C990000000000000000000000007000700070082
:10C9A0000700070007000700020002000000000067
:10C9B0000700070000000000000000000000000069
:10C9C000000000001CE01CE01CE00840084008409B
:10C9D0000000000000000000000000000000000057
:10C9E00000000000000000000CC00CC00CC00CC017
:10C9F0000CC03FF03FF00CC00CC03FF03FF00CC04B
:10CA00000CC00CC00CC00CC00000000000000000F6
:10CA10000300030007E00FE0186018001F000FC0BC
:10CA200000E0186018601FC01F80030003000300AF
:10CA3000000000000000000000001C002200220096
:10CA400022001C6001E00F803C0031C00220022067
:10CA5000022001C0000000000000000000000000F3
:10CA600000000000000003E00FE00C000C000600D6
:10CA70000F301FF019E018C01FF007B000000000D1
:10CA800000000000000000000000000003800380A0
:10CA90000380010001000100000000000000000010
:10CAA0000000000000000000000000000000000086
:10CAB000000000C000C0018001800180030003006D
:10CAC000030003000300030001800180018000C017
:10CAD00000C000000000000000000C000C00060078
:10CAE0000600060003000300030003000300030028
:10CAF0000600060006000C000C000000000000000C
:10CB000000000300030003001B601FE00780078094
:10CB10000FC00CC00000000000000000000000007A
:10CB20000000000000000000000000000000030002
:10CB30000300030003003FF03FF003000300030085
:10CB400003000000000000000000000000000000E2
:10CB500000000000000000000000000000000000D5
:10CB60000000000000000380030003000600060030
:10CB700004000000000000000000000000000000B1
:10CB80000000000000003FE03FE000000000000067
:10CB90000000000000000000000000000000000095
:10CBA0000000000000000000000000000000000085
:10CBB00000000000000003800380038000000000EC
:10CBC00000000000000000000060006000C000C025
:10CBD00000C00180018003000300060006000C0075
:10CBE0000C000C00180018000000000000000000FD
:10CBF00000000F801FC018C03060306030603060AF
:10CC000030603060306018C01FC00F80000000002E
:10CC10000000000000000000000003001F001F00D3
:10CC200003000300030003000300030003000300EC
:10CC30001FE01FE0000000000000000000000000F6
:10CC400000000F801FC038E03060006000C001802D
:10CC5000030006000C0018003FE03FE00000000069
:10CC6000000000000000000000000F803FC030E026
:10CC7000006000E007C007C000E00060006060E006
:10CC80007FC03F80000000000000000000000000A6
:10CC9000000001C003C003C006C00CC00CC018C017
:10CCA00030C03FE03FE000C003E003E000000000D0
:10CCB000000000000000000000001FC01FC018009E
:10CCC00018001F801FC018E000600060006030E0A6
:10CCD0003FC01F80000000000000000000000000B6
:10CCE000000003E00FE01E001800380037803FC04E
:10CCF00038E03060306018E01FC00780000000009E
:10CD0000000000000000000000003FE03FE0306055
:10CD1000006000C000C000C00180018001800300ED
:10CD200003000300000000000000000000000000FD
:10CD300000000F801FC038E0306038E01FC01FC007
:10CD400038E03060306038E01FC00F800000000025
:10CD5000000000000000000000000F001FC038C0ED
:10CD60003060306038E01FE00F6000E000C003C0BA
:10CD70003F803E00000000000000000000000000B6
:10CD8000000000000000000000000380038003801A
:10CD9000000000000000038003800380000000000A
:10CDA0000000000000000000000000000000000083
:10CDB000000001C001C001C00000000000000380AD
:10CDC0000300060006000400000000000000000050
:10CDD000000000000000003000F003C007001C004D
:10CDE00078001C00070003C000F0003000000000C5
:10CDF0000000000000000000000000000000000033
:10CE000000007FF07FF0000000007FF07FF0000066
:10CE10000000000000000000000000000000000012
:10CE200000000000000030003C000F00038000E024
:10CE3000007800E003800F003C003000000000009C
:10CE40000000000000000000000000000F801FC074
:10CE500018601860006001C003800300000000003B
:10CE600007000700000000000000000000000000B4
:10CE7000000003800C8008401040104011C0124098
:10CE80001240124011C01000080008400780000046
:10CE90000000000000000000000000001F801F8054
:10CEA000038006C006C00CC00C601FE01FE03030DD
:10CEB0007878787800000000000000000000000092
:10CEC000000000003F803FC01860186018E01FC0DD
:10CED0001FE01870183018303FF03FE000000000ED
:10CEE00000000000000000000000000007B00FF08C
:10CEF0001C703830300030003000300038301C708A
:10CF00000FE007C00000000000000000000000006B
:10CF1000000000007F807FC030E030703030303063
:10CF200030303030307030E07FC07F800000000053
:10CF30000000000000000000000000003FF03FF093
:10CF40001830183019801F801F8019801830183051
:10CF50003FF03FF000000000000000000000000073
:10CF6000000000003FF03FF01830183019801F809B
:10CF70001F801980180018003F003F0000000000CB
:10CF800000000000000000000000000007B01FF0DB
:10CF9000187030303000300031F831F8303018304F
:10CFA0001FF007C0000000000000000000000000AB
:10CFB000000000003CF03CF01860186018601FE0B2
:10CFC0001FE01860186018603CF03CF000000000A2
:10CFD0000000000000000000000000001FE01FE053
:10CFE0000300030003000300030003000300030029
:10CFF0001FE01FE000000000000000000000000033
:10D000000000000003F803F80060006000600060AA
:10D0100030603060306030E03FC00F8000000000C2
:10D020000000000000000000000000003EF83EF894
:10D0300018E019801B001F001D8018C018C0186060
:10D040003E783E38000000000000000000000000B4
:10D05000000000003F003F000C000C000C000C0022
:10D060000C000C300C300C303FF03FF000000000A2
:10D0700000000000000000000000000078787878D0
:10D0800038703CF034B037B037B0333033303030F4
:10D090007CF87CF8000000000000000000000000A8
:10D0A0000000000039F03DF01C601E601E601B6037
:10D0B0001B6019E019E018E03EE03E60000000004F
:10D0C00000000000000000000000000007800FC00A
:10D0D0001CE03870303030303030303038701CE088
:10D0E0000FC00780000000000000000000000000EA
:10D0F000000000003FC03FE0187018301830187072
:10D100001FE01FC0180018003F003F000000000093
:10D1100000000000000000000000000007800FC0B9
:10D120001CE03870303030303030303038701CE037
:10D130000FC0078007B00FF00CE0000000000000F7
:10D14000000000003FC03FE01870183018701FE06A
:10D150001FC018E0186018703E383E18000000002C
:10D160000000000000000000000000000FB01FF0F1
:10D170003870303038001F8007E000703030387071
:10D180003FE037C000000000000000000000000089
:10D19000000000003FF03FF0333033303330030005
:10D1A00003000300030003000FC00FC000000000D5
:10D1B0000000000000000000000000003CF03CF017
:10D1C00018601860186018601860186018601CE01B
:10D1D0000FC00780000000000000000000000000F9
:10D1E0000000000078F078F03060306018C018C09F
:10D1F0000D800D800D800700070007000000000073
:10D200000000000000000000000000007C7C7C7C2E
:10D21000301833983398339836D816D01C701C7059
:10D220001C7018300000000000000000000000002A
:10D230000000000078F078F0306018C00D80070022
:10D2400007000D8018C0306078F078F00000000012
:10D250000000000000000000000000003CF03CF076
:10D2600018600CC007800780030003000300030060
:10D270000FC00FC000000000000000000000000010
:10D28000000000001FE01FE0186018C001800300CC
:10D29000030006000C6018601FE01FE000000000A3
:10D2A0000000000000000000000003C003C00300F5
:10D2B0000300030003000300030003000300030056
:10D2C00003000300030003C003C0000000000000CF
:10D2D000180018000C000C000C00060006000300EB
:10D2E00003000180018000C000C000C00060006039
:10D2F000000000000000000000000F000F0003000D
:10D300000300030003000300030003000300030005
:10D310000300030003000F000F00000000000000E6
:10D320000000020007000D8018C0306020200000BF
:10D3300000000000000000000000000000000000ED
:10D3400000000000000000000000000000000000DD
:10D3500000000000000000000000000000000000CD
:10D36000000000000000000000000000FFFCFFFCC7
:10D370000000040003000080000000000000000026
:10D38000000000000000000000000000000000009D
:10D39000000000000000000000000000000000008D
:10D3A00000000FC01FE000600FE01FE0386030E0B9
:10D3B0003FF01F70000000000000000000000000AF
:10D3C0000000700070003000300037803FE03860AF
:10D3D00030303030303038607FE07780000000003F
:10D3E000000000000000000000000000000000003D
:10D3F000000007B01FF018303030300030003830F7
:10D400001FF00FC00000000000000000000000003E
:10D410000000007000700030003007B01FF018707E
:10D4200030303030303038701FF807B8000000005E
:10D4300000000000000000000000000000000000EC
:10D44000000007801FE018603FF03FF03000183008
:10D450001FF007C0000000000000000000000000F6
:10D46000000003F007F0060006001FE01FE00600C2
:10D4700006000600060006001FE01FE00000000096
:10D48000000000000000000000000000000000009C
:10D49000000007B81FF81870303030303030187086
:10D4A0001FF007B0003000700FE00FC00000000058
:10D4B000000038003800180018001BC01FE01C6076
:10D4C00018601860186018603CF03CF00000000024
:10D4D0000000000000000000000003000300000046
:10D4E00000001F001F0003000300030003000300EF
:10D4F0001FE01FE00000000000000000000000002E
:10D50000000003000300000000001FC01FC000C097
:10D5100000C000C000C000C000C000C000C001C00A
:10D520003F803F0000000000000038003800180075
:10D5300018001BE01BE01B001E001E001B001980D2
:10D5400039F039F000000000000000000000000089
:10D5500000001F001F00030003000300030003007E
:10D5600003000300030003001FE01FE000000000B1
:10D5700000000000000000000000000000000000AB
:10D5800000007EE07FF033303330333033303330DF
:10D590007BB87BB800000000000000000000000025
:10D5A000000000000000000000003BC03FE01C60E5
:10D5B00018601860186018603CF03CF00000000033
:10D5C000000000000000000000000000000000005B
:10D5D000000007801FE018603030303030301860B5
:10D5E0001FE00780000000000000000000000000B5
:10D5F0000000000000000000000077807FE038603D
:10D6000030303030303038603FE03780300030002C
:10D610007C007C0000000000000000000000000012
:10D62000000007B81FF818703030303030301870F4
:10D630001FF007B00030003000F800F800000000D4
:10D64000000000000000000000003CE03DF00F3052
:10D650000E000C000C000C003FC03FC0000000009A
:10D6600000000000000000000000000000000000BA
:10D67000000007E01FE018601E000FC001E0186006
:10D680001FE01F80000000000000000000000000FC
:10D69000000000000C000C000C003FE03FE00C001C
:10D6A0000C000C000C000C300FF007C00000000054
:10D6B000000000000000000000000000000000006A
:10D6C000000038E038E0186018601860186018E052
:10D6D0001FF00F70000000000000000000000000BC
:10D6E0000000000000000000000078F078F03060DA
:10D6F00018C018C00D800D80070007000000000052
:10D700000000000000000000000000000000000019
:10D71000000078F078F03260326037E01DC01DC044
:10D7200018C018C000000000000000000000000049
:10D73000000000000000000000003CF03CF00CC0C5
:10D740000780030007800CC03CF03CF000000000A4
:10D7500000000000000000000000000000000000C9
:10D76000000078F078F0306018C018C00D800F808D
:10D770000700060006000C007F007F00000000008C
:10D78000000000000000000000001FE01FE018C0C3
:10D790000180030006000C601FE01FE00000000095
:10D7A0000000000000000000000001C003C00300F2
:10D7B000030003000300030007000E00070003003E
:10D7C00003000300030003C001C0000000000000CC
:10D7D0000000030003000300030003000300030034
:10D7E0000300030003000300030003000300030021
:10D7F000030000000000000000001C001E000600E6
:10D800000600060006000600070003800700060069
:10D810000600060006001E001C00000000000000BC
:10D820000000000000000000000000000E003F307B
:10D8300033F001E0000000000000000000000000E4
:10D8400000000000000000000000000000000000D8
:10D8500000000000000000000000000000000000C8
:10D8600000000000000000000000000000000000B8
:10D8700000000000000000000000000000000000A8
:10D880000000000000000000000000000000000098
:10D8900000000000000003800003800003800003FC
:10D8A0008000038000038000038000038000038069
:10D8B00000010000010000000000000000038000E3
:10D8C00003800000000000000000000000000000D5
:10D8D0000000000000000000000000000000000048
:10D8E000000E70000E70000E700004200004200076
:10D8F00004200004200000000000000000000000E0
:10D900000000000000000000000000000000000017
:10D910000000000000000000000000000000000007
:10D9200000000000000006600006600006600006BF
:10D9300060000660003FF8003FF8000660000CC081
:10D94000003FF8003FF8000CC0000CC0000CC00005
:10D950000CC0000CC000000000000000000000002F
:10D9600000000000000000000000000180000180B5
:10D970000007B0000FF0001870001870001C0000C5
:10D980000F800007E00000F0001830001C30001C81
:10D9900070001FE0001BC0000180000180000180BA
:10D9A00000018000000000000000000000000000F6
:10D9B0000000000000000780000FC0001CE00018FD
:10D9C00060001860001CE0000FF80007E0001FF086
:10D9D0000007380006180006180007380003F0009A
:10D9E00001E0000000000000000000000000000056
:10D9F0000000000000000000000000000000000027
:10DA00000000000003F00007F0000C60000C0000B4
:10DA10000C00000600000700000F9C001DFC001811
:10DA2000F0001870000FFC0007DC00000000000090
:10DA300000000000000000000000000000000000E6
:10DA400000000000000000000003800003800003CD
:10DA50008000010000010000010000010000000042
:10DA600000000000000000000000000000000000B6
:10DA700000000000000000000000000000000000A6
:10DA8000000000000000000000000000000000187E
:10DA90000000380000700000F00000E00000E0002E
:10DAA00001C00001C00001C00001C00001C00001B0
:10DAB000C00000E00000E0000070000070000038CE
:10DAC000000018000000000000000000000000003E
:10DAD0000000000000001800001C00000E00000EF6
:10DAE000000007000007000003800003800003809F
:10DAF000000380000380000380000700000700008F
:10DB00000F00000E00001C000018000000000000C4
:10DB10000000000000000000000000000000018084
:10DB2000000180000180001DB8001FF80007E00020
:10DB300003C00003C0000660000660000000000093
:10DB400000000000000000000000000000000000D5
:10DB500000000000000000000000000000000000C5
:10DB60000000000000000000000000000180000133
:10DB700080000180000180000180003FFC003FFC2C
:10DB80000001800001800001800001800001800010
:10DB90000000000000000000000000000000000085
:10DBA0000000000000000000000000000000000075
:10DBB0000000000000000000000000000000000065
:10DBC0000000000000000000000000000000000055
:10DBD000000000E00000C00001C0000180000180E2
:10DBE000000300000300000000000000000000002F
:10DBF0000000000000000000000000000000000025
:10DC000000000000000000000000001FF8001FF8E6
:10DC10000000000000000000000000000000000004
:10DC200000000000000000000000000000000000F4
:10DC300000000000000000000000000000000000E4
:10DC400000000000000000000000000000000000D4
:10DC500000000000000000000000000000000000C4
:10DC6000000003C00003C00003C00000000000006B
:10DC700000000000000000000000000000000000A4
:10DC8000001800001800003800003000007000008C
:10DC9000600000600000C00000C000018000018042
:10DCA000000300000300000600000600000E000054
:10DCB0000C00001C0000180000180000000000000C
:10DCC000000000000000000000000000000003C091
:10DCD0000007E0000C30000C300018180018180085
:10DCE0001818001818001818001818001818000C38
:10DCF00030000C300007E00003C00000000000000E
:10DD00000000000000000000000000000000000013
:10DD10000000000000000080000780001F80001D40
:10DD200080000180000180000180000180000180EE
:10DD3000000180000180000180000180001FF800C8
:10DD40001FF80000000000000000000000000000BC
:10DD5000000000000000000000000000000007C0FC
:10DD6000001FF00038300030180030180000180094
:10DD700000300000600001C0000380000600000CBD
:10DD800000001800003FF8003FF80000000000000D
:10DD90000000000000000000000000000000000083
:10DDA00000000000000003C0000FE0000C70000045
:10DDB000300000300000600003C00003E00000708D
:10DDC000000018000018000018001838001FF000AC
:10DDD0000FC0000000000000000000000000000074
:10DDE000000000000000000000000000000000E053
:10DDF0000001E00001E00003600006600006600032
:10DE00000C60000C60001860003060003FF8003FBC
:10DE1000F80000600003F80003F8000000000000B4
:10DE200000000000000000000000000000000000F2
:10DE30000000000000001FF0001FF0001800001894
:10DE400000001800001BC0001FF0001C300000186C
:10DE5000000018000018000018003030003FF000EB
:10DE60000FC00000000000000000000000000000E3
:10DE7000000000000000000000000000000000F8AA
:10DE80000003F8000700000E00000C00001800005E
:10DE90001BC0001FF0001C300018180018180018D4
:10DEA00018000C38000FF00003E000000000000034
:10DEB0000000000000000000000000000000000062
:10DEC0000000000000001FF8001FF80018180018DC
:10DED000380000300000300000700000600000607A
:10DEE0000000E00000C00000C00001C00001800090
:10DEF00001800000000000000000000000000000A1
:10DF0000000000000000000000000000000007E02A
:10DF1000000FF0001C38001818001818000C300012
:10DF200007E00007E0000C3000181800181800186F
:10DF300018001C38000FF00007E00000000000008F
:10DF400000000000000000000000000000000000D1
:10DF500000000000000007C0000FF0001C30001897
:10DF600018001818001818000C38000FF80003D813
:10DF70000000180000300000700000E0001FC0002A
:10DF80001F00000000000000000000000000000072
:10DF90000000000000000000000000000000000081
:10DFA0000000000000000000000003C00003C000EB
:10DFB00003C000000000000000000000000000009E
:10DFC000000003C00003C00003C000000000000008
:10DFD0000000000000000000000000000000000041
:10DFE0000000000000000000000000000000000031
:10DFF000000000F00000F00000F000000000000051
:10E000000000000000000000E00001C000018000EE
:10E01000018000030000020000000000000000007A
:10E0200000000000000000000000000000000000F0
:10E0300000000000001C00003C0000F00003C000D5
:10E040000F00003C0000F000003C00000F00000347
:10E05000C00000F000003C00001C000000000000B8
:10E0600000000000000000000000000000000000B0
:10E0700000000000000000000000000000000000A0
:10E0800000000000007FFC007FFC0000000000009A
:10E09000007FFC007FFC000000000000000000008A
:10E0A0000000000000000000000000000000000070
:10E0B0000000000000000000000000000000000060
:10E0C000000000007000007800001E0000078000C3
:10E0D00001E000007800001E0000780001E0000769
:10E0E00080001E00007800007000000000000000AA
:10E0F0000000000000000000000000000000000020
:10E1000000000000000000000007C0000FE0001841
:10E11000700018300018300000700000E00003C0EC
:10E120000003800003000000000000000007000062
:10E1300007000000000000000000000000000000D8
:10E14000000000000000000000000000000003E0EC
:10E150000007F0000E38000C180018780018F800BE
:10E1600019D80019980019980019980018F8001883
:10E1700078001800000C00000E180007F80003E0FB
:10E18000000000000000000000000000000000008F
:10E190000000000000000000001F80001FC0000100
:10E1A000C0000360000360000630000630000C3041
:10E1B000000FF8001FF800180C00300C00FC7F0066
:10E1C000FC7F0000000000000000000000000000D4
:10E1D000000000000000000000000000000000003F
:10E1E000007FE0007FF000183800181800181800B1
:10E1F0001838001FF0001FF800181C00180C001839
:10E200000C00180C007FF8007FF0000000000000F8
:10E2100000000000000000000000000000000000FE
:10E2200000000000000000000003EC000FFC001CD8
:10E230001C00180C00300C003000003000003000D2
:10E2400000300000300000180C001C1C000FF8000B
:10E2500003F00000000000000000000000000000CB
:10E2600000000000000000000000000000000000AE
:10E27000007FC0007FF000183800181800180C004C
:10E28000180C00180C00180C00180C00180C0018C2
:10E2900018001838007FF0007FE000000000000048
:10E2A000000000000000000000000000000000006E
:10E2B0000000000000000000007FF8007FF8001858
:10E2C00018001818001998001980001F80001F807E
:10E2D000001980001998001818001818007FF8001D
:10E2E0007FF80000000000000000000000000000B7
:10E2F000000000000000000000000000000000001E
:10E30000003FFC003FFC000C0C000C0C000CCC008F
:10E310000CC0000FC0000FC0000CC0000CC0000CEF
:10E3200000000C00003FC0003FC0000000000000E3
:10E3300000000000000000000000000000000000DD
:10E3400000000000000000000003EC000FFC001CB7
:10E350001C00180C00300C0030000030000030FEB3
:10E360000030FE00300C00380C001C1C000FFC00BC
:10E3700003F00000000000000000000000000000AA
:10E38000000000000000000000000000000000008D
:10E39000007E7E007E7E00181800181800181800F5
:10E3A0001818001FF8001FF8001818001818001897
:10E3B00018001818007E7E007E7E0000000000001D
:10E3C000000000000000000000000000000000004D
:10E3D0000000000000000000001FF8001FF800010E
:10E3E0008000018000018000018000018000018028
:10E3F000000180000180000180000180001FF80002
:10E400001FF80000000000000000000000000000F5
:10E4100000000000000000000000000000000000FC
:10E420000007FE0007FE0000300000300000300052
:10E43000003000003000303000303000303000302C
:10E4400030003060003FE0000F800000000000005E
:10E4500000000000000000000000000000000000BC
:10E460000000000000000000007F3E007F3E00181A
:10E47000300018600018C0001980001B80001FC009
:10E48000001CE0001870001830001838007F1F00D2
:10E490007F1F0000000000000000000000000000DE
:10E4A000000000000000000000000000000000006C
:10E4B000007F80007F80000C00000C00000C00003A
:10E4C0000C00000C00000C00000C0C000C0C000CEC
:10E4D0000C000C0C007FFC007FFC00000000000022
:10E4E000000000000000000000000000000000002C
:10E4F000000000000000000000F00F00F81F0038CE
:10E500001C003C3C003C3C00366C00366C0033CCBC
:10E510000033CC00318C00300C00300C00FE7F004A
:10E52000FE7F00000000000000000000000000006E
:10E5300000000000000000000000000000000000DB
:10E540000078FE0078FE001C18001E18001F18003E
:10E550001B18001B980019D80018D80018F80018CC
:10E5600078001838007F18007F18000000000000B5
:10E57000000000000000000000000000000000009B
:10E5800000000000000000000003C0000FF0001CAD
:10E590003800181800381C00300C00300C00300C0B
:10E5A00000300C00381C001818001C38000FF00058
:10E5B00003C0000000000000000000000000000098
:10E5C000000000000000000000000000000000004B
:10E5D000003FF0003FF8000C1C000C0C000C0C007D
:10E5E0000C0C000C18000FF8000FE0000C00000CE1
:10E5F00000000C00003FC0003FC000000000000011
:10E60000000000000000000000000000000000000A
:10E6100000000000000000000003C0000FF0001C1C
:10E620003800181800381C00300C00300C00300C7A
:10E6300000300C00381C001818001C38000FF000C7
:10E6400007C00007CC000FFC000C380000000000E1
:10E6500000000000000000000000000000000000BA
:10E66000007FE0007FF0001838001818001818002C
:10E670001838001FF0001FC00018E00018700018C4
:10E6800030001838007F1E007F0E000000000000E0
:10E69000000000000000000000000000000000007A
:10E6A00000000000000000000007D8000FF8001C68
:10E6B00038001818001818001E00000FC00003F0E2
:10E6C000000078001818001818001C38001FF0000F
:10E6D0001BE000000000000000000000000000003F
:10E6E000000000000000000000000000000000002A
:10E6F000003FFC003FFC00318C00318C00318C006D
:10E70000318C000180000180000180000180000147
:10E7100080000180000FF0000FF0000000000000FA
:10E7200000000000000000000000000000000000E9
:10E730000000000000000000007E7E007E7E0018C9
:10E7400018001818001818001818001818001818C1
:10E75000001818001818001818000C30000FF000EE
:10E7600003C00000000000000000000000000000E6
:10E770000000000000000000000000000000000099
:10E78000007F7F007F7F00180C000C18000C180021
:10E790000C18000630000630000360000360000320
:10E7A000600001C00001C000008000000000000007
:10E7B0000000000000000000000000000000000059
:10E7C000000000000000000000FE3F80FE3F80309F
:10E7D000060030060030860019CC0019CC001B6CF6
:10E7E000001B6C001E7C000E38000E38000C180058
:10E7F0000C180000000000000000000000000000F5
:10E800000000000000000000000000000000000008
:10E81000007E7E007E7E001818000C30000660002E
:10E8200003C00001800001800003C0000660000CEE
:10E8300030001818007E7E007E7E00000000000080
:10E8400000000000000000000000000000000000C8
:10E850000000000000000000007C7E007C7E0018AC
:10E8600018000C300006600006600003C000018044
:10E87000000180000180000180000180000FF00095
:10E880000FF0000000000000000000000000000089
:10E890000000000000000000000000000000000078
:10E8A000001FF8001FF8001818001830001860004A
:10E8B00018C0000180000300000618000C180018A2
:10E8C00018003018003FF8003FF80000000000007A
:10E8D0000000000000000000000000000000000038
:10E8E00000000000000001F00001F00001800001C4
:10E8F0008000018000018000018000018000018013
:10E900000001800001800001800001800001800082
:10E9100001800001800001F00001F0000000000013
:10E9200000000000000000001800001800001C009B
:10E93000000C00000E0000060000060000030000AE
:10E9400003000001800001800000C00000C0000042
:10E950006000006000007000003000003800001807
:10E96000000018000000000000000000000000008F
:10E970000000000000000F80000F800001800001F7
:10E980008000018000018000018000018000018082
:10E9900000018000018000018000018000018000F2
:10E9A0000180000180000F80000F80000000000047
:10E9B000000000000000000000000000800001C016
:10E9C0000003E0000770000630000C1800180C006F
:10E9D0001004000000000000000000000000000023
:10E9E0000000000000000000000000000000000027
:10E9F0000000000000000000000000000000000017
:10EA00000000000000000000000000000000000006
:10EA100000000000000000000000000000000000F6
:10EA200000000000000000000000000000000000E6
:10EA300000000000000000000000000000000000D6
:10EA40000000FFFF00FFFF00000000030000038044
:10EA50000000E00000600000000000000000000076
:10EA600000000000000000000000000000000000A6
:10EA70000000000000000000000000000000000096
:10EA80000000000000000000000000000000000086
:10EA90000000000000000000000000000000000076
:10EAA00000000FC0001FE00000300000300007F041
:10EAB000001FF0003830003030003070001FFC00C4
:10EAC0000FBC00000000000000000000000000007B
:10EAD00000000000000000000000000000007800BE
:10EAE000007800001800001800001BE0001FF8006C
:10EAF0001C1800180C00180C00180C00180C00183A
:10EB00000C001C18007FF8007BE0000000000000F3
:10EB100000000000000000000000000000000000F5
:10EB200000000000000000000000000000000000E5
:10EB3000000003EC000FFC001C1C00380C00300C23
:10EB400000300000300000380C001C1C000FF800E2
:10EB500003F00000000000000000000000000000C2
:10EB6000000000000000000000000000000000782D
:10EB70000000780000180000180007D8001FF800F7
:10EB800018380030180030180030180030180030E5
:10EB900018001838001FFE0007DE0000000000000B
:10EBA0000000000000000000000000000000000065
:10EBB0000000000000000000000000000000000055
:10EBC000000007E0001FF800181800300C003FFCA0
:10EBD000003FFC00300000300000180C001FFC005B
:10EBE00007F000000000000000000000000000002E
:10EBF000000000000000000000000000000001FC18
:10EC00000003FC000600000600003FF8003FF8008B
:10EC100006000006000006000006000006000006D0
:10EC200000000600003FF0003FF000000000000080
:10EC300000000000000000000000000000000000D4
:10EC400000000000000000000000000000000000C4
:10EC5000000007DE001FFE001838003018003018D2
:10EC6000003018003018003018001838001FF80065
:10EC700007D8000018000018000038000FF0000F3F
:10EC8000C00000000000000000000000000078004C
:10EC9000007800001800001800001BE0001FF000C2
:10ECA0001C38001818001818001818001818001838
:10ECB00018001818007E7E007E7E00000000000014
:10ECC0000000000000000000000000000000000044
:10ECD0000000000000000180000180000000000032
:10ECE00000001F80001F8000018000018000018063
:10ECF000000180000180000180000180003FFC00D5
:10ED00003FFC0000000000000000000000000000C8
:10ED1000000000000000000000000000000000C033
:10ED20000000C0000000000000001FF0001FF00005
:10ED300000300000300000300000300000300000E3
:10ED400030000030000030000030000030000030A3
:10ED5000000070001FE0001F8000000000000000A5
:10ED60000000000000003C00003C00000C00000C13
:10ED700000000CF8000CF8000CC0000D80000F80A3
:10ED8000000F00000F80000DC0000CE0003C7C0074
:10ED90003C7C0000000000000000000000000000BB
:10EDA00000000000000000000000000000001F80C4
:10EDB000001F8000018000018000018000018000B0
:10EDC00001800001800001800001800001800001BD
:10EDD00080000180003FFC003FFC000000000000BC
:10EDE0000000000000000000000000000000000023
:10EDF0000000000000000000000000000000000013
:10EE00000000F77800FFFC0039CC00318C00318C19
:10EE100000318C00318C00318C00318C00FDEF0012
:10EE2000FDEF0000000000000000000000000000F6
:10EE300000000000000000000000000000000000D2
:10EE4000000000000000000000007BE0007FF000F8
:10EE50001C38001818001818001818001818001886
:10EE600018001818007E7E007E7E00000000000062
:10EE70000000000000000000000000000000000092
:10EE80000000000000000000000000000000000082
:10EE9000000003C0000FF0001C3800381C00300CCC
:10EEA00000300C00300C00381C001C38000FF00043
:10EEB00003C000000000000000000000000000008F
:10EEC0000000000000000000000000000000000042
:10EED000000000000000000000007BE0007FF80060
:10EEE0001C1800180C00180C00180C00180C001846
:10EEF0000C001C18001FF8001BE000180000180090
:10EF0000001800007F00007F0000000000000000EB
:10EF100000000000000000000000000000000000F1
:10EF2000000007DE001FFE001838003018003018FF
:10EF3000003018003018003018001838001FF80092
:10EF400007D80000180000180000180000FE00009C
:10EF5000FE000000000000000000000000000000B3
:10EF6000000000000000000000003E78003EFC00B1
:10EF700007CC00070000060000060000060000069F
:10EF800000000600003FF0003FF00000000000001D
:10EF90000000000000000000000000000000000071
:10EFA0000000000000000000000000000000000061
:10EFB000000007F8000FF8001818001818001F804C
:10EFC000000FF00000F8001818001838001FF000BB
:10EFD0001FE0000000000000000000000000000032
:10EFE00000000000000000000000000000000C0015
:10EFF000000C00000C00000C00003FF0003FF0008F
:10F000000C00000C00000C00000C00000C00000CB8
:10F0100000000C1C0007FC0003F0000000000000D2
:10F0200000000000000000000000000000000000E0
:10F0300000000000000000000000000000000000D0
:10F040000000787800787800181800181800181850
:10F05000001818001818001818001838000FFE00C3
:10F0600007DE0000000000000000000000000000BB
:10F070000000000000000000000000000000000090
:10F08000000000000000000000007C3E007C3E000C
:10F090001818001818000C30000C3000066000062C
:10F0A000600007E00003C00003C000000000000093
:10F0B0000000000000000000000000000000000050
:10F0C0000000000000000000000000000000000040
:10F0D0000000783C00783C003118003398003398E9
:10F0E000001AB0001EF0001EF0001C60000C600052
:10F0F0000C600000000000000000000000000000A4
:10F1000000000000000000000000000000000000FF
:10F11000000000000000000000003E7C003E7C007B
:10F120000C300006600003C00001800003C0000630
:10F1300060000C30003E7C003E7C000000000000BF
:10F1400000000000000000000000000000000000BF
:10F1500000000000000000000000000000000000AF
:10F1600000007E1F007E1F00180C000C18000C18F9
:10F170000006300006300003600003E00001C0001C
:10F1800000C0000180000180000300003FC0003F7C
:10F19000C0000000000000000000000000000000AF
:10F1A000000000000000000000001FF8001FF80031
:10F1B00018300018600000C0000180000300000645
:10F1C00018000C18001FF8001FF8000000000000D5
:10F1D000000000000000000000000000000000002F
:10F1E00000000000000000E00001E00001800001DC
:10F1F0008000018000018000018000018000038008
:10F2000000070000038000018000018000018000F1
:10F2100001800001800001E00000E000000000002B
:10F22000000000000000000000000000000001805D
:10F230000001800001800001800001800001800049
:10F240000180000180000180000180000180000138
:10F2500080000180000180000180000180000180A9
:10F26000000180000000000000000000000000001D
:10F27000000000000000070000078000018000017E
:10F28000800001800001800001800001800001C039
:10F290000000E00001C0000180000180000180004A
:10F2A00001800001800007800007000000000000CE
:10F2B000000000000000000000000000000000004E
:10F2C000000000000000000000000000000000003E
:10F2D0000E00001F18003BB80031F00000E00000F5
:10F2E000000000000000000000000000000000001E
:10F2F000000000000000000000000000000000000E
:10F300000000000000000000D1B73F02BFB83F027C
:10F310000000000000000000E3C13F02D9C13F022D
:10F32000CFC13F02C5C13F02B9C13F02ADC13F02DB
:10F3300055C43F025DC43F02A1C13F0299C13F02D3
:10F340008FC13F0285C13F028DC43F020000000013
:10F350000000000001C23F024BC23F0223C23F0235
:10F3600003C23F022BC23F0233C23F023BC23F02F5
:10F3700043C23F02000000000000000025C33F021E
:10F3800015C33F0217C33F02617070000000000008
:10F390000000000015C43F021FC43F0229C43F0201
:10F3A00033C43F023DC43F0249C43F0255C43F023B
:10F3B0005DC43F0265C43F0271C43F0279C43F028D
:10F3C00083C43F028DC43F02000810182028303843
:10F3D00025592D256D2D25645425483A254D3A256E
:10F3E00053257A0061736374696D65000000000045
:10F3F00000000000C9C93F0235CA3F020DCA3F02E2
:10F4000079C53F02DDC93F02F9C93F02EBC93F029E
:10F4100007CA3F02CBC93F02CFC93F02000000002C
:10F420000000000079CA3F02E1CA3F02B7CA3F02AA
:10F4300079C53F02A9CA3F027BCA3F028BCA3F027D
:10F44000DBCA3F029BCA3F0273CA3F0200000000B2
:10F4500000000000D7CB3F02CDCB3F02C3CB3F0221
:10F4600079CB3F02B7CB3F02ABCB3F0255C43F0243
:10F470005DC43F029FCB3F0297CB3F028DCB3F0243
:10F4800083CB3F028DC43F02005245454E54206D50
:10F49000616C6C6F6320737563636565646564009C
:10F4A0002F746D702F6A656E6B696E732D474343C1
:10F4B0002D31302D706970656C696E652D34385F43
:10F4C00032303230313132345F31363036313830EB
:10F4D0003633392F7372632F6E65776C69622F6EC6
:10F4E00065776C69622F6C6962632F7374646C69F1
:10F4F000622F72616E642E630000000001AF3F0254
:10F5000075C13F02EDC13F0205C43F0265C53F0220
:10F51000A1C63F0291C93F02B5C93F02E1CB3F02FC
:10F520000000000240D43F020E00140018E33F0226
:10F5300011001800B4FE3F023882071000000000DE
:10F5400000000000000000000000000000000000BB
:10F5500000000000000000000000000000000000AB
:10F56000000000000000000000000000000000009B
:10F57000000000000000000000000000000000008B
:10F58000000000000000000000000000000000007B
:10F59000000000000000000000000000E4AF0710C1
:04F5A0000000000067
:10FFBE000200100000A05F08A8A05F0878AB3F0207
:10FFCE0001000A00FFFFFFFFFFFF00000102030414
:10FFDE0005060708090A0B0C0D0E0F10111213144B
:0EFFEE0015161718191A1B1C1D1E1F203E0089
:04FFFC0078563412ED
:04000005085FA018D8
:00000001FF
