:02000002B0004C
:1040000000400B0072650B0000000600190005025D
:084010000401E01500000000AE
:04401800A0610B0098
:10401C0010F8012B11F8013B012A28BF9A42F7D066
:10402C00D01A7047034613F8012B002AFBD1181A3B
:10403C000138704709480A49884208B505D0094A31
:10404C00824202D0121A01F0C0FF0748074A002131
:10405C00121A01F0C8FF014808BD00BF24E4032078
:10406C00D8640B0090E4032090E40320F0E70320D5
:10407C0070B5074E074C01F071FEA41BA408002577
:10408C00AC4200D170BD56F8043B98470135F7E7B8
:10409C0090640B00B4640B0000F0C2B808B500F0DB
:1040AC009DF8BDE8084001F011BE00F0EDBD00F038
:1040BC00EBBD00F0F1BD0078B0FA80F0400970471C
:1040CC00012303707047000038B51F4D0446294684
:1040DC0001F009FC294604F1100001F004FC29460A
:1040EC0004F1200001F0FFFB294604F1300001F03F
:1040FC00FAFB294604F1400001F0F5FB294604F1D6
:10410C00500001F0F0FB294604F1600001F0EBFBDC
:10411C00294604F1700001F0E6FB294604F1800009
:10412C0001F0E1FB294604F1900001F0DCFB29468B
:10413C0004F1A00001F0D7FB294604F1B00001F016
:10414C00D2FB204638BD00BFE6610B00F8B51D4818
:10415C0000F0AEF9A0B31C491A48022200F060FA34
:10416C0001280AD001F02EFD184901F038FBBDE8FA
:10417C00F8404FF4FA7000F0BFBD01F023FD144974
:10418C00114D144F01F02BFB01F01CFD124901F0F5
:10419C0013FB0024264601F015FD2978102201F0AE
:1041AC0028FB013401F00EFD394601F005FB0A2C09
:1041BC0005F8016BEFD101F005FD01F004FBD6E72A
:1041CC00F8BD00BF44E6032018E60320B4610B00E1
:1041DC00D0610B00E5610B00E1610B0008B500F04C
:1041EC0077FB034B1860BDE80840FFF7AFBF00BF7B
:1041FC0014E6032038B5046805467CB16368013BBE
:10420C0063605BB9236820469B689847A368013BB1
:10421C00A3601BB923682046DB689847284638BD45
:10422C0030B585B001F0CEFC4FF4E13101F0BEFCAD
:10423C000121162001F002FE0121162001F00FFED3
:10424C000121092001F0FAFD0021092001F007FEEF
:10425C0001F0B8FC1D491E4D1E4C01F0ADFA0121B8
:10426C00172001F0EBFD0121172001F0F8FD01F002
:10427C00A9FC01F0A8FA01F0A5FC174901F09CFA81
:10428C00164B17491B788DF8003000223C2302A8EE
:10429C0000F0E4FE03A8FFF7ADFF284600F0D4FAC7
:1042AC0040B901F08FFC214601F086FA642000F041
:1042BC0023FDF2E701F086FC01F085FA01F082FCA7
:1042CC00084905B0BDE8304001F089BAE7610B0040
:1042DC0044E603201C620B00F2610B0010E6032085
:1042EC00FF610B0005620B0008B50B4B0B4801225C
:1042FC001A7000F01DF80A48FFF7E6FE0948FFF7B0
:10430C00E3FE09480022022100F0DAF9BDE808407A
:10431C00064800F022B800BF10E6032028E6032070
:10432C0090E4032050E5032044E6032040E60320FC
:10433C0010B5044600F010F806220523C4E9022348
:10434C0008210723C4E904134FF4C8704FF4967383
:10435C00C4E90003204610BD704710B5044601F0B7
:10436C00C5FD01F06FF8204610BD0368C9B29B680B
:10437C0018472DE9F04101320220D5B20F4600F06A
:10438C00BBFC01F0B3FD242101F092F801F0AEFD6D
:10439C000021FFF7EAFF01F0A9FD0021FFF7E5FF7F
:1043AC0001F0A4FDFF21FFF7E0FF01F09FFD036882
:1043BC0029469B68984701F099FD6942FFF7D5FFA4
:1043CC0001F094FDD421FFF7D0FF0024D326013D4A
:1043DC0004F10108E4B2AC420ADA01F087FD03688B
:1043EC00395D9B689847395D0E44F6B24446EFE759
:1043FC0001F07CFD0368F1439B68C9B2984701F05A
:10440C0075FD036800219B68984701F06FFDBDE8BE
:10441C00F04101F054B830B5024690F84100A0B11B
:10442C006FF0030502F10A0000230239AD1A2C18B3
:10443C00A14203DD10F8014B2344F8E70A44DB43A7
:10444C001079DBB21B1A5842584130BD1FB50446D7
:10445C0090F8410050B340208DF8000001208DF8F9
:10446C00010060208DF8020018689B88ADF80830B8
:10447C001368CDF80A3023688DF8031001901B687F
:10448C000E2269462046984723684FF47A725B687F
:10449C0010212046984748B110212046FFF7BBFF5A
:1044AC0020B1208AA0F141035842584104B010BDFC
:1044BC001FB590F84130044613B34A238DF80430ED
:1044CC0001238DF8053000238DF806300368032294
:1044DC001B6801A9984723684FF47A725B6819210D
:1044EC0020469847034658B1A37EE27D84F83030CD
:1044FC00637C84F82D20228BE2855A1E5342534153
:10450C00184604B010BD00002DE9F041FF2A8AB016
:10451C0005460C46164606DD394901F0E4F92846F5
:10452C000AB0BDE8F08191F841300BB93549F4E798
:10453C000846FFF7BDFF10B933492846EDE704F1F3
:10454C00270304F12D0231462046FFF77FFF08B9FF
:10455C002E49F2E740238DF8043001238DF8053005
:10456C0030238DF8063023688DF8076004220DEB9C
:10457C0002011B682046984723684FF47A725B68E7
:10458C0020212046984708B92149D6E7214902A89D
:10459C0001F0A9F920212046FFF73DFF30B3238A13
:1045AC00412B23D11C4FDFF874801234002614F8F1
:1045BC00011BA1770F2921D8394602A801F013FA63
:1045CC0014F8011C102206A801F0DCF906A902A8B7
:1045DC0001F005FA06A801F03BF90F2E03D0414675
:1045EC0002A801F000FA0136102EE0D102A92846EB
:1045FC0001F0ABF902A801F02BF990E71022E2E7E9
:10460C0038620B0020620B002F620B003E620B0025
:10461C004A620B00E6610B001E620B00E5610B00A9
:10462C0030B590F8413085B004460D46002B39D09A
:10463C0001466846FFF768FF1B49684601F0E4F93C
:10464C0030B1FF24684601F003F9204605B030BDB7
:10465C001649684601F0D8F90028F2D11449684689
:10466C0001F0D2F90028ECD11249684601F0CCF9DE
:10467C000028E6D11049684601F0C6F90028E0D1BF
:10468C000E49684601F0C0F90028DAD104F1310373
:10469C002946413453F8042B41F8042BA342F9D199
:1046AC000124CFE7FF24D0E72F620B003E620B0002
:1046BC0058620B004A620B0020620B0038620B0040
:1046CC0038B50446064B84F8481008461546236056
:1046DC00002101F0B3FB84F84950204638BD00BFDF
:1046EC0070620B0038B50546652495F8480001F05A
:1046FC00CFFB30B1013CA4B22CB10A2000F0FCFA83
:10470C00F3E7012038BD2046FCE7F7B500238DF810
:10471C0000308DF801308DF803308DF8053090F8AD
:10472C004930FF22012B04460D468DF802208DF8EE
:10473C00042041D1FFF7D6FF10B9002003B0F0BD23
:10474C0001F0D4FB0822242100F0ABFE01F0CEFBDB
:10475C0003685B699847261D04F10A07012000F0E5
:10476C00CBFA01F0C3FB03685B69984706F8010BB1
:10477C00BE42F3D12046FFF7B5FF0028DDD001F093
:10478C00B5FB2A1F242100F08CFE01F0AFFB03685F
:10479C005B6998476FF00907063D3F1BBB199D42AB
:1047AC0049DD012000F0A8FA01F0A0FB03685B6969
:1047BC00984706F8010BF1E7002B3CD11E2000F0C6
:1047CC009BFA01F093FB0822242100F06AFE01F011
:1047DC008DFB03685B699847261D04F10A070120CD
:1047EC0000F08AFA01F082FB03685B69984706F8CF
:1047FC00010BBE42F3D11E2000F07EFA01F076FBD5
:10480C002A1F242100F04DFE01F070FB03685B6948
:10481C0098476FF00907063D3F1BBB199D420ADD07
:10482C00012000F069FA01F061FB03685B699847AD
:10483C0006F8010BF1E70622211D684601F02FFC5A
:10484C00B0FA80F0400979E737B5FF2380F82730BC
:10485C004FF0FF3304460125836280F82C3014237B
:10486C008DF804308DF806308DF805508DF8075012
:10487C0001F03CFB00F0E6FD236884F84150042273
:10488C000DEB02011B68204698470A2000F034FA11
:10489C0023684FF47A725B680E212046984720B14A
:1048AC00207CA0F115035842584103B030BD0000E4
:1048BC0008B5024B1B685B6C019308BD48020300F2
:1048CC0008B5024B1B685B68019308BD1802030016
:1048DC0008B5024B1B685B69019308BD1802030005
:1048EC0008B5024B1B689B68019308BD2C020300A2
:1048FC0008B5024B1B68DB68019308BD2C02030052
:10490C0008B5024B1B681B69019308BD2C02030000
:10491C0008B5024B1B685B69019308BD2C020300B0
:10492C0008B5024B1B68DB68019308BD2802030025
:10493C0008B5024B1B689B69019308BD2802030054
:10494C0008B5024B1B68DB69019308BD2802030004
:10495C0008B5024B1B681B6A019308BD28020300B3
:10496C0008B5024B1B685B6A019308BD2802030063
:10497C0008B5024B1B689B6A019308BD2802030013
:10498C0008B5024B1B68DB6A019308BD28020300C3
:10499C0008B5024B1B681B6B019308BD2802030072
:1049AC0008B5024B1B685B6B019308BD2802030022
:1049BC0008B5024B1B681B6C019308BD2802030051
:1049CC0008B5024B1B681B6D019308BD2802030040
:1049DC0008B5024B1B685B69019308BD64020300B8
:1049EC0008B5024B1B689B68019308BD6802030065
:1049FC0008B5024B1B68DB68019308BD6802030015
:104A0C0008B5024B1B68DB69019308BD300203003B
:104A1C0008B5024B1B681B6A019308BD30020300EA
:104A2C0008B5024B1B68DB68019308BD3C02030010
:104A3C0008B5024B1B681B69019308BD3C020300BF
:104A4C0008B5024B1B685B69019308BD3C0203006F
:104A5C0008B5024B1B689B69019308BD3C0203001F
:104A6C0008B5024B1B68DB69019308BD3C020300CF
:104A7C0008B5024B1B681B6A019308BD3C0203007E
:104A8C0008B5024B1B689B6A019308BD3C020300EE
:104A9C0008B5024B1B681B6C019308BD3C0203005C
:104AAC0008B5024B1B681B68019308BD4C02030040
:104ABC0008B5024B1B685B68019308BD4C020300F0
:104ACC0008B5024B1B681B69019308BD4C0203001F
:104ADC0008B5024B1B685B69019308BD4C020300CF
:104AEC0008B5024B1B689B69019308BD4C0203007F
:104AFC0008B5024B1B68DB69019308BD4C0203002F
:104B0C0008B5024B1B681B6A019308BD4C020300DD
:104B1C0008B5024B1B685B68019308BD20020300BB
:104B2C0008B5024B1B685B69019308BD20020300AA
:104B3C0008B5024B1B68DB6C019308BD2002030017
:104B4C0008B5024B1B685B6D019308BD2002030086
:104B5C0008B5034B1B68D3F88830019308BD0000DF
:104B6C002002030008B5034B1B68D3F89430019363
:104B7C0008BD00002002030008B5024B1B685B69EE
:104B8C00019308BD4402030008B5024B1B681B6A65
:104B9C00019308BD4402030008B5024B1B68DB6B94
:104BAC00019308BD4402030008B5024B1B685B6807
:104BBC00019308BD4002030008B5024B1B689B68BB
:104BCC00019308BD4002030008B5024B1B68DB686B
:104BDC00019308BD4002030008B5024B1B681B691A
:104BEC00019308BD4002030008B5024B1B685B69CA
:104BFC00019308BD4002030008B5024B1B689B697A
:104C0C00019308BD4002030008B5024B1B68DB6929
:104C1C00019308BD4002030008B5024B1B681B6AD8
:104C2C00019308BD4002030008B5024B1B681B6BC7
:104C3C00019308BD4002030008B5024B1B685B6B77
:104C4C00019308BD4002030008B5024B1B681B6CA6
:104C5C00019308BD4002030008B5024B1B685B6C56
:104C6C00019308BD4002030008B5024B1B685B6D45
:104C7C00019308BD4002030008B5024B1B689B6DF5
:104C8C00019308BD4002030008B5024B1B681B686A
:104C9C00019308BD1C02030008B5024B1B685B683E
:104CAC00019308BD1C02030008B5024B1B689B68EE
:104CBC00019308BD1C02030008B5024B1B68DB6A9C
:104CCC00019308BD1C02030008B5024B1B681B6B4B
:104CDC00019308BD1C02030008B5024B1B681B6C3A
:104CEC00019308BD1C02030008B5024B1B685B6CEA
:104CFC00019308BD1C0203000021FFF711BF10B582
:104D0C00836804460BB901F057F9C3689847A36848
:104D1C001BB1032221462046984720461021BDE8AE
:104D2C001040FFF7C6B910B58368044613B10322CF
:104D3C0001469847204610BD13B50B460246D0E9F4
:104D4C0000016C4684E8030093E8030082E803004A
:104D5C0094E8030083E8030002B010BD024800236E
:104D6C000360FFF7A5BD00BF9CE60320002240684E
:104D7C001146FFF731BF002240681146FFF74CBFC8
:104D8C00002240681146FFF757BF40680022FFF72A
:104D9C004BBF4068002281F00101FFF735BF0023B3
:104DAC0040681A461946FFF727BF002340681A4689
:104DBC001946FFF719BF002240681146FFF7FCBEE9
:104DCC00406800220221FFF7FFBE002340681A460C
:104DDC00FFF7EABE084B10B52824224618460021DE
:104DEC0001F001F9054B04804FF0FF3242600422C0
:104DFC005A60034A1A6010BDA8E60320A0E60320FF
:104E0C0080620B0070470020704710B510210446DB
:104E1C00FFF74FF9204610BD08B5FFF7F6FF08BDA8
:104E2C0030B500224FF69C74026084808D888C8093
:104E3C000C68858004600A6030BD10B504460068BB
:104E4C00FFF72AFF204610BD38B5C468F4B12378AB
:104E5C00022B03D104F10C00FFF7EFFF656835B1AD
:104E6C002846FFF760FF10212846FFF722F9A568B6
:104E7C0035B12846FFF757FF10212846FFF719F9DF
:104E8C0020461421BDE83840FFF713B938BD0B6834
:104E9C0003604B68436013B15A6801325A60704723
:104EAC0037B5044668460D46FFF7F1FF009B019AA3
:104EBC0023606260002301A801930093FFF79AF925
:104ECC0035B1281DFFF796F908212846FFF7F1F8B0
:104EDC00204603B030BD826810B50AB901F06CF8F9
:104EEC00BDE81040C368184708B5006800F1100110
:104EFC00FFF7F1FF08BD826810B50AB901F05CF844
:104F0C00BDE81040C368184708B5006800F11001EF
:104F1C00FFF7F1FF08BD000038B50023044603601D
:104F2C0010200D46FFF7C1F828B10123C0E9013369
:104F3C00024B0360C5602060204638BDC4620B0084
:104F4C0038B5002383608B6804460D462BB10222D2
:104F5C009847EB68E360AB68A360204638BD00005F
:104F6C00F0B589B004686846FFF75AFF4FF00203AA
:104F7C00D4E84F2F002A03D1C4E8413F0029F7D1D0
:104F8C0025D104F10C0569462846FFF749FFBFF30C
:104F9C005B8F01236370002004F10803BFF35B8F68
:104FAC0053E8006F43E80002002AF9D1BFF35B8F8E
:104FBC006EB1FFF7BDFD78B129463046FFF78BFF88
:104FCC003046FFF7B0FE10213046FFF772F8684606
:104FDC00FFF733FF09B0F0BD314602A8FFF7B0FF71
:104FEC00E068B4F9105008B101F03CF806901020BC
:104FFC00ADF81C50FFF759F80546E8B1002787605B
:10500C001820FFF752F8044688B10146876002A8C1
:10501C00FFF792FE049BA268A360059B049206A96D
:10502C00E268E36004F110000592FFF7F9FE084B0B
:10503C00EB60084B2C60AB6006A8FFF7FEFE02A8E5
:10504C00FFF771FE002229460348FFF779FDB7E709
:10505C00F54E0B0079510B000B4D0B002DE9F04F69
:10506C008BB005469DF850A00F4690469946FFF729
:10507C0083FD07AE834638BB4FF62E73059005A90A
:10508C003046ADF81830FFF7CBFE1420FFF70DF8C3
:10509C00044648B1022303700123C0E901BB4370ED
:1050AC0031460C30FFF7BCFE2846214640F8044B35
:1050BC00FFF732FF3046FFF7C0FE05A8FFF7BDFE35
:1050CC0028460BB0BDE8F08F0C2300241420CDE94A
:1050DC0008440793FEF7E9FF014618B1C0E9014403
:1050EC000470447004A80391FFF716FF1E4B08933D
:1050FC000820FEF7DAFF044610B103A9FFF7C7FE3C
:10510C0000965FFA8AF34A46414638460994FFF7FF
:10511C003BFDB8B9039B5B7803F0FF0293B94FF6E4
:10512C009C7305A903A80592ADF81830FFF718FF7A
:10513C0005A8FFF782FE05A80999FFF7B1FE06A89E
:10514C00FFF758F803A905A8FFF7A1FE059B069ADF
:10515C002B606A60002306A806930593FFF74AF8B4
:10516C0004A8FFF747F8ABE7F5510B00012AF8B597
:10517C00054603D10B6803600020F8BD022A10D04D
:10518C00032AF9D10468002CF6D004F11000FFF7C3
:10519C0054FE2046FFF7C7FD18212046FEF789FF75
:1051AC00EAE718200E68FEF780FF044650B131463E
:1051BC00FFF7C6FE3069B6F9147008B100F052FF63
:1051CC002061A7822C60D7E738B5002383608B68F9
:1051DC0004460D462BB102229847EB68E360AB689E
:1051EC00A360204638BD0000F0B589B004460D46DA
:1051FC0001A81146FFF754FEA4B124B21DB12846F4
:10520C0000F030FF054601A803A90395ADF8104046
:10521C00FFF7A6FE03A8FFF710FE02A8FEF7EAFFB1
:10522C0009B0F0BD019D0123D5E84F2F002A03D111
:10523C00C5E8413F0029F7D1EFD12B73BFF35B8F4A
:10524C006B702B1DBFF35B8F53E8006F43E800427C
:10525C00002AF9D1BFF35B8F002EDED02046FFF77A
:10526C0067FC074660B105F10C013046FFF743FEC1
:10527C003046FFF758FD10213046FEF71AFFCCE7F9
:10528C00314603A8FFF7A0FF2B7B8DF81C301020B4
:10529C00FEF70BFF0546D0B187601420FEF705FF23
:1052AC00044678B18760014603A8FFF745FD059BCE
:1052BC00A268A360069B0592E268E3609DF81C302F
:1052CC0006922374064BEB60064B2C60AB6003A874
:1052DC00FFF729FD002229460348FFF731FCC7E7F9
:1052EC00154F0B00F9520B000B4D0B00012A70B53A
:1052FC00044603D10B680360002070BD022A0CD059
:10530C00032AF9D10468002CF6D02046FFF70BFDD8
:10531C0014212046FEF7CDFEEEE714200E68FEF7B2
:10532C00C4FE054620B13146FFF74EFF337C2B748B
:10533C002560E1E7002240681146FFF76DBC0022B2
:10534C0040681146FFF778BC40680022FFF76CBC40
:10535C004068002281F00101FFF756BC0023406831
:10536C001A461946FFF748BC002340681A461946EE
:10537C00FFF73ABC002240681146FFF72DBC002213
:10538C0040681146FFF718BC406800220221FFF765
:10539C001BBC002340681A46FFF706BC024B0322D5
:1053AC005A60024A1A607047D0E60320E0620B0094
:1053BC007047F8B5064615460C468F18BC4206D009
:1053CC00336814F8011B9B6830469847F6E728466B
:1053DC00F8BD007C0022FFF7BBBA007C0021FFF770
:1053EC00BFBA007C0021FFF7C3BA007C0021FFF795
:1053FC00C7BA007C0021FFF7CBBA10B514210446C4
:10540C00FEF757FE204610BD38B5044615464FF43E
:10541C007A730022C4E90123094B217408462360E6
:10542C002946FFF7C5FABF3008D16B69DB0705D5F4
:10543C006868FFF731FCE868FFF72EFC204638BDA2
:10544C0024630B000023007C1A461946FFF768BA48
:10545C007FB500221423CDE90122ADF804300B787E
:10546C008DF808304B680393CB680493007C0B7A5F
:10547C00059301A9FFF7A4FA07B05DF804FB1FB56B
:10548C00003B8DF800104FF06401039118BF01230D
:10549C00694601928DF80830FFF7DAFF05B05DF828
:1054AC0004FB0123FFF7EBBF007C0022FFF740BA9F
:1054BC00C9B2FFF7F9BF007C0022FFF741BA012106
:1054CC00FFF7F9BF704710B518210446FEF7F1FD40
:1054DC00204610BDF0B5037D062B8DB00E4600F1B5
:1054EC0004074FF0000412D000F1080515F8011D57
:1054FC000A22304600F07DF9AF42044419D0002C4A
:10550C00F4D02E21304600F05BF90444EEE72F2353
:10551C006A4639460A208DF80040FFF759FA68466A
:10552C00FEF780FD33680246DB68694630469847D3
:10553C00044620460DB0F0BD10B5054B04461122B3
:10554C0040F8043B002100F04EFD204610BD00BF8A
:10555C004C630B000346074A10B543F8042B01F1CA
:10556C00100251F8044B43F8044B9142F9D10A78DC
:10557C001A7010BD4C630B0010B59DF8084044EA3E
:10558C00032343EA024242EA0161042341600375AA
:10559C0010BD000007B5064B0360CB7800938B78E9
:1055AC004A780978FFF7E8FF03B05DF804FB00BF09
:1055BC004C630B00014B024A1A607047D8E603207B
:1055CC0058630B00002340681A46FFF7EDBA406899
:1055DC0000220221FFF7F8BA002240681146FFF7BB
:1055EC00EBBA002240681146FFF7F6BA0023406878
:1055FC001A461946FFF7F8BA002340681A461946AE
:10560C00FFF7FABA40680021FFF71EBB4068002183
:10561C00FFF722BB4068002281F00101FFF7F4BACA
:10562C0040680022FFF700BB002240681146FFF7DC
:10563C0003BB002240681146FFF7EEBA4068002118
:10564C00FFF71ABB2DE9F04395B014460D460746FB
:10565C00FFF772FF00211C220DA8009100F0C3FC83
:10566C0040230C9320466B460CAA0021FFF7C0F98F
:10567C00044600284BD1024601216868FFF7ACFABA
:10568C000221804622466868FFF7A6FA009E8146F2
:10569C002146002E3BD0002939D17368022B03D050
:1056AC000A2B11D0F669F4E7B8F1000FFAD0716942
:1056BC0006A8043107ADFFF76DFF0FCD3C1D0FC4DD
:1056CC002B6823704146EDE7B9F1000FEAD07469FD
:1056DC00102201A800F087FC06238DF8143001ADD0
:1056EC0004F108031834186859682A4603C20833B1
:1056FC00A3421546F7D101A906A807ADFFF72AFF6B
:10570C000FCD3C1D0FC42B6823704946CAE7009887
:10571C00FFF766F9384615B0BDE8F083032802465A
:10572C0005D0044B0448042A18BF18467047034898
:10573C00704700BFDCE60320A0E60320D0E6032080
:10574C0008B500224068FFF78FFABDE80840FFF764
:10575C00E5BF0000024B034A1A6000225A607047F2
:10576C00DCE6032064630B00F8B506460D468F1883
:10577C000024BD420CD0336815F8011B9B683046E1
:10578C009847031E01DB1C44F3E7002C08BF1C46A2
:10579C002046F8BD13B50446084659B10191FEF7F1
:1057AC0041FC23680199DB680246204602B0BDE843
:1057BC001040184702B010BD08B5FFF7EBFF08BD4D
:1057CC0003689B68184738B50D210546FFF7F8FFAD
:1057DC000A2104462846FFF7F3FF204438BD38B5AC
:1057EC000546FFF7D7FF04462846FFF7ECFF204499
:1057FC0038BD30B58BB00023012A8DF8243098BF0A
:10580C000A2209AC0D46B1FBF2F101FB125303F075
:10581C00FF03092B94BF30333733DBB2AA4204F8B1
:10582C00013DEFD92146FFF7B5FF0BB030BD0000AD
:10583C00014B00229A607047E4E6032010B5044641
:10584C0008462170FFF7DCF800236360204610BD8A
:10585C0010B504460068FFF71FFA204610BD10B5BE
:10586C000446006808B1FFF717FA0023C4E90133B6
:10587C00236010BD38B504460D4600680131FFF7B2
:10588C0013FA10B1C4E90005012038BD10B5036846
:10589C00044623B143688B4201D3012010BD20463E
:1058AC00FFF7E8FF0028F9D0A368002BF5D1226898
:1058BC001370F2E737B50D46114601920446FFF717
:1058CC00E5FF019A28B92046FFF7C9FF204603B02F
:1058DC0030BDA2602946206800F077FB2268A368DF
:1058EC000021D154F2E7002313B5C0E9003304467C
:1058FC008360037341B108460191FEF793FB019954
:10590C0002462046FFF7D6FF204602B010BD38B540
:10591C00054600680C4670B16A688B689A4208D3D9
:10592C00096831B100F096FBA368AB600023A3605B
:10593C0038BDFFF7B1F923682B6063686B60A3680F
:10594C00AB600023C4E90033F1E710B50023C0E9D4
:10595C000033044683600373FFF7D9FF204610BD64
:10596C0013B5044659B108460191FEF75BFB01994A
:10597C0002462046FFF79EFF204602B010BDFFF7FF
:10598C006EFFF9E71FB504460023C4E90033A3609A
:10599C002373084601A9CDE901338DF80C3000F0D2
:1059AC006DF901A92046FFF7DBFF204604B010BDBE
:1059BC0070B505460E4609B9002070BD6AB1846801
:1059CC0014442146FFF762FF0028F5D02868AB6825
:1059DC003146184400F03EFBAC600120EDE78A68CC
:1059EC000968FFF7E5BF13B50446084651B10191AC
:1059FC00FEF718FB01990246204602B0BDE81040A4
:105A0C00FFF7D6BF02B010BD08B582683AB921B114
:105A1C000878B0FA80F0400900E0012008BD006869
:105A2C0009B90078F5E7FEF7F3FAF2E7054B022225
:105A3C001A60054B054A9A600020C3E90000FFF785
:105A4C0067B800BF00E70320F4E603200000FFFF67
:105A5C00024B1A68024B1A60704700BF24E4032003
:105A6C0004E7032070474174704708B5007CFFF7CA
:105A7C0007F820EAE07008BD08B5007CFEF7D8FFF7
:105A8C0020EAE07008BD08B5007CFEF7E1FF40EAB3
:105A9C00E07008BD08B5007CFEF7D2FF40EAE0706C
:105AAC0008BD007CFEF7DCBF37B5457C04462DB144
:105ABC00207C03B0BDE83040FEF7B2BF007C019102
:105ACC00FEF7DEFF00280199F2DC284603B030BD5A
:105ADC0010B514210446FEF7ECFA204610BD000068
:105AEC0010B54FF47A730446084611460022C4E9F7
:105AFC000123044B2360012320746374FEF7C8FF59
:105B0C00204610BDC4630B0041747047704770474A
:105B1C0008B50021007CFEF7E3FF40EAE07008BD09
:105B2C0008B50121007CFEF7DBFF40EAE07008BD00
:105B3C0008B5007CFEF7CCFF20EAE07008BD08B584
:105B4C00007CFEF7BDFF20EAE07008BD13B50446EB
:105B5C00007C0191FEF7BCFF0028019901DC607C00
:105B6C0020B1207CFEF7C4FF20EAE07002B010BD2B
:105B7C00007CFEF7C5BF10B514210446FEF799FA58
:105B8C00204610BD10B54FF47A7304460846002128
:105B9C00C4E90113044B2360012320746374114680
:105BAC00FEF77EFF204610BDF4630B00007C002244
:105BBC00FEF77EBF10B514220446002100F013FA44
:105BCC00204610BD10B50F4C88B003A8FFF7F2FFAC
:105BDC002178BFF35B8F11F001010FD120460191A9
:105BEC00FEF769FA019948B103AA0748FFF7CAFF03
:105BFC002046FEF765FA054800F0E1F9024808B0C6
:105C0C0010BD00BF08E703200CE70320195B0B0055
:105C1C0010B50446FEF706FA0138231820468342D5
:105C2C0006D90278197800F8011B03F80129F6E768
:105C3C0010BD70B50C46911E22291DD8254630B9D1
:105C4C00234430229D4210D205F8012BFAE7B0FB19
:105C5C00F2F602FB1600C1B2092894BF303157315D
:105C6C00C9B205F8011B3046E9E7002320462B702A
:105C7C00FFF7CEFF204670BD0020FCE708B50123DE
:105C8C00FFF7D7FF08BD0000014B1860704700BF3D
:105C9C0028E4032008B50B4B43B1FFF793FF0368CF
:105CAC001B699847002801DDAFF30080064B43B118
:105CBC0000F05CF903681B699847002801DDAFF31D
:105CCC00008008BD000000000000000008B5FFF7D0
:105CDC00E1FFFEF7FDFD014B186008BD28E703202E
:105CEC000548064A064908B5121A00F06EF9054B2C
:105CFC00054A1A6008BD00BF00F4032004F4032019
:105D0C0044650B0000F403201E1C279A07B50023E2
:105D1C0000931A466FF07701FEF724FF03B05DF88D
:105D2C0004FB000007B543880A2B08D0502B0BD17D
:105D3C00094B1B684BB103B05DF804EB1847FFF738
:105D4C00E5FF03B05DF804FB002300931A466FF0E7
:105D5C007701FEF707FFF4E724E7032010B512489C
:105D6C000021FEF7C1FF114B1A68114B9A42114BDF
:105D7C000CBF012200221A7001D0FFF7B1FFFEF711
:105D8C009FFD044600F038F90B4B13B12046AFF3DE
:105D9C00008000210848FEF7FFFEBDE810400748D0
:105DAC000021FEF7D5BE00BF955C0B0000F403206C
:105DBC001E1C279A20E7032000000000315D0B0019
:105DCC00252813B502D9002002B010BDA0F10B0399
:105DDC00022B1AD8174C2178BFF35B8F11F00101FD
:105DEC000BD120460191FEF766F9019928B11248B2
:105DFC00FFF724FD2046FEF763F90F4B1878FEF7EA
:105E0C0007FE0028DFD10120DEE7012809D800F0C9
:105E1C006DF80021007CFEF7C3FD80F00100C0B2DC
:105E2C00D2E709380128EED800F0A0F8007CFEF784
:105E3C001FFEF2E790E6032094E60320252838B5F0
:105E4C0004460D460AD8FF2908D0FFF7B9FF28B140
:105E5C0029462046BDE83840FEF742BD38BD38B56E
:105E6C0004460D46FEF744FDFF2810D0062804D842
:105E7C004D2323FA00F0C30709D42046FFF7A0FFF7
:105E8C0028B129462046BDE83840FEF739BD38BD5B
:105E9C0010B50446FEF72CFD031FDBB2012B08D90D
:105EAC002046FFF78DFF20B12046BDE81040FEF7DD
:105EBC002FBD002010BD704738B50A4B036001237D
:105ECC00044643610849202000F074F820256060E6
:105EDC000549A560284600F06DF8C4E90305204685
:105EEC0038BD00BF180001001C640B0030B50E4D0E
:105EFC002978BFF35B8F11F0010487B011D12846CC
:105F0C00FEF7D9F868B16846FFF7D6FF6A46214616
:105F1C000648FFF779FA2846FEF7D2F8044800F055
:105F2C004EF8024807B030BD2CE7032030E70320C1
:105F3C00C35E0B007047000038B5044614252A4692
:105F4C00002100F050F8258040250749258128467E
:105F5C00258200F02FF804496060284600F02AF8EA
:105F6C00E060204638BD00BF1C640B0030B50E4D00
:105F7C002978BFF35B8F11F0010487B011D128464B
:105F8C00FEF799F868B101A8FFF7D6FF01AA2146E0
:105F9C000648FFF7A5FD2846FEF792F8044800F0E6
:105FAC000EF8024807B030BD44E7032048E7032051
:105FBC00415F0B00FEF77BB808B5FEF77DFE0023B2
:105FCC0001461A46184600F07FB80A44914200F187
:105FDC00FF3300D1704710B511F8014B03F8014F96
:105FEC009142F9D110BD02440346934200D170474F
:105FFC0003F8011BF9E7000038B5104B1D68AB6BBB
:10600C000446B3B91820FEF73FFE0246A86320B938
:10601C000B4B0C484221FEF75FFE0B490B4BC0E9C2
:10602C0000130B4B83600B23838100210120C2E9F9
:10603C000401AB6B00221C615A6138BD28E40320BB
:10604C001D640B0034640B000E33CDAB34126DE6C3
:10605C00ECDE0500034611F8012B03F8012B002A96
:10606C00F9D17047024B0146186800F003B800BF25
:10607C0028E4032037B5044608460D46FDF7D2FF49
:10608C00421C114620460192FEF71EFE044618B132
:10609C00019A2946FFF799FF204603B030BD10B591
:1060AC007AB103460139841813F8010B11F8012F4A
:1060BC00904201D1A34201D1801A10BD0028F3D126
:1060CC00FAE71046F9E700002DE9F843DFF8B8804D
:1060DC000646D8F800001F460D46914600F056F8CB
:1060EC00254B1C6834B9254C1C60254B13B11B681F
:1060FC00C4F8883063681F2B07DDD8F8000000F067
:10610C0047F84FF0FF30BDE8F8834EB3D4F8880061
:10611C0088B91C4B23B9D8F8000000F038F8F0E728
:10612C004FF48470FEF7B0FD0028F4D00023C0E9D2
:10613C004033C4F88800636840F8239001229A40E9
:10614C0000EB8301D0F800311343C0F80031022E6C
:10615C00C1F8807002BFD0F804311343C0F8043189
:10616C006368D8F800005A1C0233626044F823506C
:10617C0000F00EF80020C6E7E8E703205CE70320F8
:10618C0000000000954C0B008CE403207047704716
:10619C007047000041400B007D400B00A5400B00F8
:1061AC00A9400B00000000004641494C4544202DFD
:1061BC0020504C45415345205343414E20414741CB
:1061CC00494E2100454E4A4F5920544845204556CA
:1061DC00454E5421005549443A200042757A7A655F
:1061EC0072206F666600496E697469616C697A69C0
:1061FC006E6720504E3533320057616974696E6793
:10620C0020666F72206120636172642E2E2E2E2EFA
:10621C002E00300077616B65207570206572726F8F
:10622C007221006E6F20636172642100666C617371
:10623C00650072656164206572726F72210072650F
:10624C0061642074696D656F75742100756E6B6E79
:10625C006F776E206572726F722100000000000073
:10626C00000000007F430B0017470B0000000000EC
:10627C0000000000D74D0B00CD4D0B00C34D0B00A3
:10628C00794D0B00B74D0B00AB4D0B0011560B00AD
:10629C0019560B009F4D0B00974D0B008D4D0B00AD
:1062AC00834D0B004D570B0049560B0051560B00FC
:1062BC000000000000000000114E0B00174E0B00F8
:1062CC00554E0B00254E0B00134E0B00000000002A
:1062DC00000000009F530B0095530B008B530B00D9
:1062EC0081530B0075530B0069530B0011560B00B7
:1062FC0019560B005D530B0055530B004B530B0001
:10630C0041530B004D570B0049560B0051560B00D7
:10631C000000000000000000BD530B0007540B00F0
:10632C00DF530B00BF530B00E7530B00EF530B0075
:10633C00F7530B00FF530B0000000000000000009F
:10634C00E1540B00D1540B00D3540B00617070005E
:10635C000000000000000000D1550B00DB550B00C5
:10636C00E5550B00EF550B00F9550B0005560B00CE
:10637C0011560B0019560B0021560B002D560B0015
:10638C0035560B003F560B004D570B0049560B0072
:10639C0051560B0025592D256D2D25645425483A51
:1063AC00254D3A2553257A0061736374696D650038
:1063BC000000000000000000715A0B00DD5A0B00B9
:1063CC00B55A0B0075570B00855A0B00A15A0B00E0
:1063DC00935A0B00AF5A0B00735A0B00775A0B00F1
:1063EC0000000000000000001B5B0B00835B0B0037
:1063FC00595B0B0075570B004B5B0B001D5B0B00C7
:10640C002D5B0B007D5B0B003D5B0B00155B0B00EC
:10641C00005245454E54206D616C6C6F6320737552
:10642C0063636565646564002F746D702F6A656EB7
:10643C006B696E732D4743432D31302D7069706538
:10644C006C696E652D34385F323032303131323414
:10645C005F313630363138303633392F7372632F23
:10646C006E65776C69622F6E65776C69622F6C69EB
:10647C0062632F7374646C69622F72616E642E6335
:10648C0000000000F5420B00694D0B00E14D0B00C4
:10649C00A9530B00C1550B0061570B003D580B0065
:0864AC00395A0B005D5A0B0088
:1064B400040000001400000003000000474E5500D3
:1064C4006D443A2219E937AF3706FF33248FE75476
:0464D400EDD8DB7DA7
:1064D800B4630B002CE4032000000000000000005F
:1064E80000000000000000000000000000000000A4
:1064F8000000000000000000000000000000000094
:106508000000000000000000000000000000000083
:106518000000000000000000000000000000000073
:106528000000000000000000000000000000000063
:0C6538000000000000000000ECE7032061
:046544000000000053
:10654E0000000102030405060708090A0B0C0D0ED4
:10655E000F101112131415161718191A1B1C1D1EC5
:04656E001F202800C2
:046572007856341211
:04000003B000401CED
:00000001FF
