:02000002B0004C
:1040000000400B00BA030C00000006001900050276
:0840100004012215000000006C
:04401800186F0B0012
:10401C0010F8012B11F8013B012A28BF9A42F7D066
:10402C00D01A7047034613F8012B002AFBD1181A3B
:10403C000138704709480A49884208B505D0094A31
:10404C00824202D0121A02F07CFE0748074A002175
:10405C00121A02F084FE014808BD00BF30E50320AF
:10406C0018030C00A4E50320A4E50320F0E70320CB
:10407C0070B5074E074C02F02DFDA41BA4080025BB
:10408C00AC4200D170BD56F8043B98470135F7E7B8
:10409C00D0020C00F4020C0000F0F0B908B500F0EE
:1040AC0063F9BDE8084002F0CDBC01F0F1BB01F0B2
:1040BC00EFBB01F0F5BB0078B0FA80F04009704717
:1040CC000123037070470000F8B51D4800F0D5FFC0
:1040DC00A0B31C491A48022201F086F801280AD024
:1040EC0002F02CFC184902F066F9BDE8F8404FF4D8
:1040FC00FA7001F00DBC02F021FC1449114D144F63
:10410C0002F059F902F01AFC124902F041F90024AC
:10411C00264602F013FC2978102202F056F90134DD
:10412C0002F00CFC394602F033F90A2C05F8016B4D
:10413C00EFD102F003FC02F032F9D6E7F8BD00BF74
:10414C0044E6032016E603202C6F0B00486F0B008F
:10415C00756F0B00596F0B002DE9F0417B4D7C4FB7
:10416C00ADF5C06D02F0EAFB7A4902F011F9284670
:10417C0000F097FB1C234FF4C87209A905A8002472
:10418C0000F08BFC05A8012100F0B8FC224621466A
:10419C00714B0194009705A800F058FD05A800F09C
:1041AC00C2FC039005A800F0C0FC064605A800F070
:1041BC00CCFC0399CDE9006028236422284600F04A
:1041CC0064FA0126214605A800F098FC634B0222F4
:1041DC006421CDE9007605A800F038FD05A800F0B3
:1041EC00A2FC039005A800F0A0FC074605A800F06F
:1041FC00ACFC22464023CDE900700399284600F020
:10420C00ACFA05A8402100F092FC05A8402100F072
:10421C009EFC3227314605A800F070FC01940097F3
:10422C002246214605A8282300F081FDCDE9007423
:10423C002246214605A8282300F020FD23462246CD
:10424C002821CDE9007405A800F018FD05A800F0A0
:10425C006AFC039005A800F068FC804605A800F0F5
:10426C0074FC0399CDE9008078234822284600F09D
:10427C000CFA314605A800F041FC202211461E2301
:10428C00009405A800F0B5FD05A800F04CFC0390C7
:10429C0005A800F04AFC804605A800F056FC0399DE
:1042AC00CDE900807823C822284600F0EEF931468B
:1042BC0005A800F023FC224621462823CDE90074F2
:1042CC0005A800F070FD05A800F02DFC039005A8D2
:1042DC0000F02BFC074605A800F037FC0399CDE94C
:1042EC000070C8234822284600F037FA314605A84A
:1042FC0000F004FC202211461E23009405A800F0B7
:10430C00B9FD05A800F00FFC039005A800F00DFC0A
:10431C00044605A800F019FCC8231A460399CDE9F8
:10432C000040284600F019FA284600F0EBFA0C4A37
:10433C000C49284600F079FA284600F0F0FA05A856
:10434C0000F0BEFB0DF5C06DBDE8F08128E6032042
:10435C0030E503205F6F0B00776F0B00846F0B0051
:10436C00D8C50B00408B0B00FFF7AEBE38B5046808
:10437C0005467CB16368013B63605BB923682046EA
:10438C009B689847A368013BA3601BB92368204630
:10439C00DB689847284638BD2DE9F0434FF47A7016
:1043AC0089B001F0B5FA2E4FDFF8C880DFF8C8905D
:1043BC0001240025E6B202F055FC314601F080FEE6
:1043CC0002F050FC01F087FE40BB02F0B7FA494600
:1043DC0001F0DEFF02F0B2FA10220646214601F08F
:1043EC00F4FF304601F0DBFF013501347F2CE1D1C5
:1043FC001C4B1B788DF800303C2375BB1A492A46A0
:10440C0004A801F037FC05A8FFF7B0FF02F096FAFC
:10441C00164909B0BDE8F04301F0CDBF0428E4D142
:10442C000F2C04D802F08AFA414601F0B1FF102299
:10443C0031460DEB020002F065F93B7804998DF8DA
:10444C00003000223C2302A801F014FC03A8FFF763
:10445C008DFF04A802F0BCF8C7E705490022CFE79E
:10446C0015E6032014E60320B16F0B00C36F0B009D
:10447C00BE6F0B00AF6F0B00906F0B0038B502F0E6
:10448C005DFA4FF4E13102F04DFA02F057FA01F007
:10449C0086FF02F053FA1B4901F07AFF1A4800F02C
:1044AC00D7F830B102F04AFABDE83840174901F0AC
:1044BC006FBF02F043FA01F072FF02F03FFA1449A9
:1044CC00144D154C01F064FF284600F0A1FF48B9CB
:1044DC0002F034FA214601F05BFF4FF47A7001F0E0
:1044EC0017FAF1E7FFF738FE02F028FA01F057FF50
:1044FC0002F024FA094901F05EFFBDE83840FFF7ED
:10450C004BBF00BFC86F0B0028E60320E56F0B0004
:10451C0002700B0044E603202C700B0015700B008E
:10452C00174B184810B500241C70174B01221A7039
:10453C0000F040F81549164802F095F81349154853
:10454C0002F091F81149144802F08DF80F49134804
:10455C0002F089F80D49124802F085F80B49114810
:10456C0002F081F80949104802F07DF822460F4804
:10457C00022100F089FEBDE810400D4800F0D2BCCD
:10458C0014E6032028E6032015E60320766F0B00C3
:10459C00B4E50320C4E50320D4E50320E4E50320BF
:1045AC00F4E5032004E60320A4E5032044E60320FD
:1045BC0040E6032010B5044600F00CFA0622052351
:1045CC00C4E9022308210723C4E904134FF4C8707B
:1045DC004FF49673C4E90003204610BD10B50C4689
:1045EC00C068002100F0F7F92046BDE8104000F04B
:1045FC0043BA10B50C46C068012100F0ECF9204616
:10460C00BDE8104000F038BA10B50446606900F0FF
:10461C00E6F918B9642000F0E5F9F7E710BD10B51C
:10462C0001210446806800F0D6F9C82000F0DAF9C0
:10463C00A068002100F0CFF9022000F0D3F9A068A7
:10464C00012100F0C8F9BDE81040C82000F0CAB93B
:10465C0038B5044600F0E4F9054698B92046FFF752
:10466C00DEFF04212046FFF7B9FF2046FFF7CCFF01
:10467C0029462046FFF7B2FF0F212046FFF7B9FF6E
:10468C00284638BD4FF0FF35FAE72DE9F0470446D0
:10469C000F46912116469946DDE90858FFF79EFF13
:1046AC009021204606F0F80AFFF798FFC6F3072181
:1046BC002046FFF79EFF51462046FFF79AFF5146D2
:1046CC0029440139C1F307212046FFF792FF691EE7
:1046DC00514441F00701C9B22046FFF78AFF5FFA47
:1046EC0089F6C9F307212046FFF783FF31462046A0
:1046FC00FFF77FFF09EB08010139C1F307212046C1
:10470C00FFF777FF08F1FF313144C9B22046FFF7BC
:10471C0070FF01212046FFF76CFF022000F062F9C8
:10472C0010212046FFF75AFF77B1002DB8BF07358F
:10473C00ED1008FB05F50026B54205DDB95D2046F8
:10474C00FFF757FF0136F7E7022000F04BF9204640
:10475C009221BDE8F047FFF741BF2DE9F047044631
:10476C000F46912116469946DDE90858FFF736FFAA
:10477C009021204606F0F80AFFF730FFC6F3072118
:10478C002046FFF736FF51462046FFF732FF5146D1
:10479C0029440139C1F307212046FFF72AFF691E7E
:1047AC00514441F00701C9B22046FFF722FF5FFADE
:1047BC0089F6C9F307212046FFF71BFF3146204637
:1047CC00FFF717FF09EB08010139C1F30721204658
:1047DC00FFF70FFF08F1FF313144C9B22046FFF754
:1047EC0008FF01212046FFF704FF022000F0FAF831
:1047FC0013212046FFF7F2FE77B1002DB8BF073525
:10480C00ED1008FB05F50026B54205DDB95D204627
:10481C00FFF7EFFE0136F7E7022000F0E3F8204641
:10482C009221BDE8F047FFF7D9BEF8B5044615460E
:10483C000F46A9B11021FFF7D1FE022000F0D2F8EB
:10484C00002623686268DB085343B34205D9B95D7F
:10485C002046FFF7CEFE0136F3E7022000F0C2F847
:10486C00B5B113212046FFF7B9FE022000F0BAF8CB
:10487C00002623686268DB085343B34205D9A95D5F
:10488C002046FFF7B6FE0136F3E7022000F0AAF847
:10489C0020461221FFF7A2FE2046BDE8F840FFF7A4
:1048AC00B3BE38B510210446FFF798FE022000F085
:1048BC0099F8002523686268DB085343AB4205D99D
:1048CC00FF212046FFF795FE0135F3E7022000F0AB
:1048DC0089F813212046FFF781FE022000F082F8B0
:1048EC00002523686268DB085343AB4205D9FF21DE
:1048FC002046FFF77EFE0135F3E7BDE83840022085
:10490C0000F070B810B512210446FFF767FE642062
:10491C0000F068F82046BDE81040FFF775BE10B5F2
:10492C0050210446FFF75AFE2046F721FFF761FE9F
:10493C0002212046FFF752FE2046FFF765FE204677
:10494C000721FFF74BFE2046A521BDE81040FFF7DD
:10495C0050BE704710B510210446FFF7AAFB204645
:10496C0010BD0EB403B503AB002153F8042B019317
:10497C0001F049FD02B05DF804EB03B07047000094
:10498C0073B5044608462279A36832B1A3B90B4922
:10499C0002B0BDE8704001F0FBBC094A267B094D12
:1049AC000949647B012E18BF2946CDE9001407493B
:1049BC00FFF7D7FF02B070BD054AEFE73F700B0061
:1049CC00766F0B003B700B0037700B0055700B00B3
:1049DC002E700B007047C9B280B202F0FCB880B2E6
:1049EC0002F012B900F094BF13B50B4C2178BFF351
:1049FC005B8F11F001010BD120460191FFF75BFB9E
:104A0C00019928B1054801F03BFD2046FFF758FB02
:104A1C00024802B010BD00BF90E6032094E60320CC
:104A2C001FB50121082002F0C5F80121062002F073
:104A3C00C1F80121052002F0BDF80021072002F089
:104A4C00B9F8FFF7D1FF01F025FD094B0093094B95
:104A5C00029300240123ADF80C308DF80440FFF7CD
:104A6C00C3FF694601F040FD204604B010BD00BFF5
:104A7C007C700B0080841E0010B5002104460820B9
:104A8C0002F0A9F8FFF7B0FF214601F09BFDBDE84D
:104A9C0010400121082002F09EB830B50024C460FB
:104AAC0012F00704016008D002F10805524202F02E
:104ABC000701224658BF4A42AA1AC0E9012330BD59
:104ACC007047002930B515DB44688C4212DD002A92
:104ADC0010DB856895420DDD02FB04120568D210CF
:104AEC0001F00701802444FA01F1A85649B213B130
:104AFC000843A85430BD20EA0100FAE770B50B4614
:104B0C00044600256268AA420CDD0026A268B24267
:104B1C0006DD324629462046FFF7D3FF0136F5E77E
:104B2C000135EFE770BD006870474068704711F0C1
:104B3C00070210B507D001F10804494201F0070340
:104B4C0058BF5A42A11A416010BD806870478160FD
:104B5C007047F0B4C7680D46144667B9002937DBB7
:104B6C0047688F4234DD002A32DB856895422FDDA1
:104B7C00F0BCFFF7A6BF012F0CD1002928DB8268FF
:104B8C008A4225DD002C23DB4168A14220DD2A4628
:104B9C00091BEDE7022F0CD1002919DB4168A94252
:104BAC0016DD002A14DB8268A24211DD121B491BA0
:104BBC00DEE7032F0CD100290ADB82688A4207DD6D
:104BCC00002C05DB4168A14202DD521B2146CFE7D8
:104BDC00F0BC70472DE9F74F0C9DAC88914614F052
:104BEC00070218BF012202EBD402EC88203B63437E
:104BFC002C68884603FB024400274FF0800BEB889F
:104C0C00BB4220DD002609EB0702AB88B34215DD61
:104C1C00217806F0070A4BFA0AF3194208D00D9BCB
:104C2C00019206EB08010090FFF793FFDDE900020B
:104C3C00BAF1070F08BF01340136E6E75B0718BF6E
:104C4C0001340137DBE703B0BDE8F08F2DE9F34108
:104C5C00089F06460C4690465D1E15F8013F53B161
:104C6C00099A2146CDE9007230464246FFF7B2FF61
:104C7C00BB881C44F1E702B0BDE8F0812DE9F04F90
:104C8C0085B05D1ADDF83880002DA8EB0206B8BFA0
:104C9C006D428B42CCBF4FF0010A4FF0FF3A002E11
:104CAC00B8BF76421F46C6F1000B9045CCBF4FF003
:104CBC0001094FF0FF39AC1BB94215D0424513D056
:104CCC000F9B0190CDE90212FFF743FFDDE90101D3
:104CDC00BBEB440FDCBFA41B5144B5EB440F039A50
:104CEC00EADB2C444A44E7E705B0BDE8F08FF8B5A1
:104CFC00064617460C46CD18A54207DD2146069BF5
:104D0C003A463046FFF725FF0134F5E7F8BDF8B514
:104D1C0006460F461446D518A54207DD2246069BCB
:104D2C0039463046FFF715FF0134F5E7F8BD2DE99C
:104D3C00FF410F46DDE90A48BB421946A8BF394678
:104D4C00BB42B8BF3B46944227461D46A8BF1746F8
:104D5C005B1A9442B8BF1446064601333A46CDF866
:104D6C00008003930291FFF7C2FF039B0299CDF8D9
:104D7C000080224630460391FFF7B9FFE31B0399ED
:104D8C00CDF8008001333A4630460293FFF7BFFF5F
:104D9C00029BCDF828803A462946304604B0BDE83F
:104DAC00F041FFF7B4BF2DE9F3418B42044608985C
:104DBC001E46A8BF0E468B42B8BF0B46904280469B
:104DCC00A8BF90469042ACBFC8EB0007C8EB0207E7
:104DDC001D460137AE4209DC099B009331463B4628
:104DEC0042462046FFF793FF0136F3E702B0BDE8D9
:104DFC00F0812DE9F3475D42C3F1010381460F4673
:104E0C0090465C000026A7EB050A0A9B06EB0802FD
:104E1C00514648460092FFF79CFEE919009A019111
:104E2C004846FFF796FEA8EB060201990092484609
:104E3C00FFF78FFE009A51464846FFF78AFEA642BE
:104E4C0014DB013604EB4603EE4203F1010302D1FD
:104E5C00A54202DB0024A5420ADA013503EB450327
:104E6C005C1C002DCFDD02B0BDE8F0872346F2E7D5
:104E7C001C46F6E72DE9F04F87B05D42C3F1010304
:104E8C00039191465C000026039B0490A3EB050A5A
:104E9C0006EB0908109B42465146FFF75AFE039A4F
:104EAC000498AF18A9EB060B42463946FFF751FEA2
:104EBC0004985A463946FFF74CFE04985A46514618
:104ECC00FFF747FE6FF00103109A049800926B43B2
:104EDC000133424639460593FFF709FF109B0498AE
:104EEC0000935A46059B3946FFF701FFA6420498EA
:104EFC0014DB013604EB4603EE4203F1010302D14D
:104F0C00A54202DB0024A5420ADA013503EB450376
:104F1C005C1C002DB8DD07B0BDE8F08F2346F2E72E
:104F2C001C46F6E710B5044601F09CFE01F096F81D
:104F3C00204610BD0368C9B29B6818472DE9F041A3
:104F4C0001320220D5B20F4600F0E2FC01F08AFEDD
:104F5C00242101F0B9F801F085FE0021FFF7EAFFEA
:104F6C0001F080FE0021FFF7E5FF01F07BFEFF2141
:104F7C00FFF7E0FF01F076FE036829469B6898472F
:104F8C0001F070FE6942FFF7D5FF01F06BFED421F2
:104F9C00FFF7D0FF0024D326013D04F10108E4B251
:104FAC00AC420ADA01F05EFE0368395D9B689847F3
:104FBC00395D0E44F6B24446EFE701F053FE036848
:104FCC00F1439B68C9B2984701F04CFE036800217D
:104FDC009B68984701F046FEBDE8F04101F07BB8B4
:104FEC0030B5024690F84100A0B16FF0030502F114
:104FFC000A0000230239AD1A2C18A14203DD10F867
:10500C00014B2344F8E70A44DB431079DBB21B1A4B
:10501C005842584130BD1FB5044690F8410050B37A
:10502C0040208DF8000001208DF8010060208DF8E3
:10503C00020018689B88ADF808301368CDF80A3068
:10504C0023688DF8031001901B680E2269462046D8
:10505C00984723684FF47A725B6810212046984772
:10506C0048B110212046FFF7BBFF20B1208AA0F1E8
:10507C0041035842584104B010BD1FB590F841305F
:10508C00044613B34A238DF8043001238DF8053000
:10509C0000238DF80630036803221B6801A998478A
:1050AC0023684FF47A725B681921204698470346AF
:1050BC0058B1A37EE27D84F83030637C84F82D20D7
:1050CC00228BE2855A1E53425341184604B010BD40
:1050DC002DE9F041FF2A8AB005460C46164606DD3E
:1050EC00394901F0C0FA28460AB0BDE8F08191F8C0
:1050FC0041300BB93549F4E70846FFF7BEFF10B94C
:10510C0033492846EDE704F1270304F12D0231461B
:10511C002046FFF780FF08B92E49F2E740238DF8AF
:10512C00043001238DF8053030238DF806302368C8
:10513C008DF8076004220DEB02011B68204698478E
:10514C0023684FF47A725B6820212046984708B98F
:10515C002149D6E7214902A801F085FA20212046F1
:10516C00FFF73EFF30B3238A412B23D11C4FDFF8CE
:10517C0074801234002614F8011BA1770F2921D852
:10518C00394602A801F0EBFA14F8011C102206A80B
:10519C0001F0B8FA06A902A801F0DDFA06A801F0A0
:1051AC0017FA0F2E03D0414602A801F0D8FA0136A7
:1051BC00102EE0D102A9284601F087FA02A801F0CE
:1051CC0007FA90E71022E2E788000C0070000C0050
:1051DC007F000C008E000C009A000C00766F0B0008
:1051EC00AF6F0B00756F0B0030B590F8413085B088
:1051FC0004460D46002B39D001466846FFF768FF80
:10520C001B49684601F0BCFA30B1FF24684601F036
:10521C00DFF9204605B030BD1649684601F0B0FAFA
:10522C000028F2D11449684601F0AAFA0028ECD102
:10523C001249684601F0A4FA0028E6D110496846E4
:10524C0001F09EFA0028E0D10E49684601F098FA68
:10525C000028DAD104F131032946413453F8042BE8
:10526C0041F8042BA342F9D10124CFE7FF24D0E766
:10527C007F000C008E000C00A8000C009A000C00A3
:10528C0070000C0088000C0038B50446064B84F8FE
:10529C004810084615462360002101F08BFC84F869
:1052AC004950204638BD00BFC0000C0038B505463B
:1052BC00652495F8480001F0A7FC30B1013CA4B27C
:1052CC002CB10A2000F024FBF3E7012038BD204666
:1052DC00FCE7F7B500238DF800308DF801308DF820
:1052EC0003308DF8053090F84930FF22012B04462D
:1052FC000D468DF802208DF8042041D1FFF7D6FF22
:10530C0010B9002003B0F0BD01F0ACFC0822242140
:10531C0000F0D3FE01F0A6FC03685B699847261DDC
:10532C0004F10A07012000F0F3FA01F09BFC03687A
:10533C005B69984706F8010BBE42F3D12046FFF794
:10534C00B5FF0028DDD001F08DFC2A1F242100F0D0
:10535C00B4FE01F087FC03685B6998476FF009079E
:10536C00063D3F1BBB199D4249DD012000F0D0FAE0
:10537C0001F078FC03685B69984706F8010BF1E7CC
:10538C00002B3CD11E2000F0C3FA01F06BFC08226C
:10539C00242100F092FE01F065FC03685B699847DC
:1053AC00261D04F10A07012000F0B2FA01F05AFCA4
:1053BC0003685B69984706F8010BBE42F3D11E20C7
:1053CC0000F0A6FA01F04EFC2A1F242100F075FE15
:1053DC0001F048FC03685B6998476FF00907063DCC
:1053EC003F1BBB199D420ADD012000F091FA01F030
:1053FC0039FC03685B69984706F8010BF1E7062254
:10540C00211D684601F007FDB0FA80F0400979E7EC
:10541C0037B5FF2380F827304FF0FF3304460125C2
:10542C00836280F82C3014238DF804308DF806300C
:10543C008DF805508DF8075001F014FC00F00EFEAD
:10544C00236884F8415004220DEB02011B682046AE
:10545C0098470A2000F05CFA23684FF47A725B6874
:10546C000E212046984720B1207CA0F1150358420C
:10547C00584103B030BD000008B5024B1B685B6C93
:10548C00019308BD4802030008B5024B1B685B681A
:10549C00019308BD1802030008B5024B1B685B6939
:1054AC00019308BD1802030008B5024B1B689B68EA
:1054BC00019308BD2C02030008B5024B1B68DB6886
:1054CC00019308BD2C02030008B5024B1B681B6935
:1054DC00019308BD2C02030008B5024B1B685B69E5
:1054EC00019308BD2C02030008B5024B1B68DB6856
:1054FC00019308BD2802030008B5024B1B689B6989
:10550C00019308BD2802030008B5024B1B68DB6938
:10551C00019308BD2802030008B5024B1B681B6AE7
:10552C00019308BD2802030008B5024B1B685B6A97
:10553C00019308BD2802030008B5024B1B689B6A47
:10554C00019308BD2802030008B5024B1B68DB6AF7
:10555C00019308BD2802030008B5024B1B681B6BA6
:10556C00019308BD2802030008B5024B1B685B6B56
:10557C00019308BD2802030008B5024B1B681B6C85
:10558C00019308BD2802030008B5024B1B681B6D74
:10559C00019308BD2802030008B5024B1B685B6928
:1055AC00019308BD6402030008B5024B1B689B689D
:1055BC00019308BD6802030008B5024B1B68DB6849
:1055CC00019308BD6802030008B5024B1B681B68F9
:1055DC00019308BD3002030008B5024B1B685B69E0
:1055EC00019308BD3002030008B5024B1B68DB6950
:1055FC00019308BD3002030008B5024B1B681B6AFF
:10560C00019308BD3002030008B5024B1B685B6AAE
:10561C00019308BD3002030008B5024B1B68DB6B1D
:10562C00019308BD3002030008B5024B1B681B6CCC
:10563C00019308BD3002030008B5024B1B685B6C7C
:10564C00019308BD3002030008B5024B1B68DB68F0
:10565C00019308BD3C02030008B5024B1B681B6993
:10566C00019308BD3C02030008B5024B1B685B6943
:10567C00019308BD3C02030008B5024B1B689B69F3
:10568C00019308BD3C02030008B5024B1B68DB69A3
:10569C00019308BD3C02030008B5024B1B681B6A52
:1056AC00019308BD3C02030008B5024B1B689B6AC2
:1056BC00019308BD3C02030008B5024B1B681B6C30
:1056CC00019308BD3C02030008B5024B1B681B6824
:1056DC00019308BD4C02030008B5024B1B685B68C4
:1056EC00019308BD4C02030008B5024B1B681B69F3
:1056FC00019308BD4C02030008B5024B1B685B69A3
:10570C00019308BD4C02030008B5024B1B689B6952
:10571C00019308BD4C02030008B5024B1B68DB6902
:10572C00019308BD4C02030008B5024B1B681B6AB1
:10573C00019308BD4C02030008B5024B1B685B6863
:10574C00019308BD2002030008B5024B1B685B697E
:10575C00019308BD2002030008B5024B1B68DB6CEB
:10576C00019308BD2002030008B5024B1B685B6D5A
:10577C00019308BD2002030008B5034B1B68D3F846
:10578C008830019308BD00002002030008B5034BCC
:10579C001B68D3F89430019308BD0000200203006D
:1057AC0008B5024B1B685B69019308BD44020300FA
:1057BC0008B5024B1B681B6A019308BD4402030029
:1057CC0008B5024B1B68DB6B019308BD4402030058
:1057DC0008B5024B1B685B68019308BD40020300CF
:1057EC0008B5024B1B689B68019308BD400203007F
:1057FC0008B5024B1B68DB68019308BD400203002F
:10580C0008B5024B1B681B69019308BD40020300DD
:10581C0008B5024B1B685B69019308BD400203008D
:10582C0008B5024B1B689B69019308BD400203003D
:10583C0008B5024B1B68DB69019308BD40020300ED
:10584C0008B5024B1B681B6A019308BD400203009C
:10585C0008B5024B1B681B6B019308BD400203008B
:10586C0008B5024B1B685B6B019308BD400203003B
:10587C0008B5024B1B681B6C019308BD400203006A
:10588C0008B5024B1B685B6C019308BD400203001A
:10589C0008B5024B1B681B68019308BD1C02030072
:1058AC0008B5024B1B685B68019308BD1C02030022
:1058BC0008B5024B1B689B68019308BD1C020300D2
:1058CC0008B5024B1B685B6A019308BD1C02030000
:1058DC0008B5024B1B68DB6A019308BD1C02030070
:1058EC0008B5024B1B681B6B019308BD1C0203001F
:1058FC0008B5024B1B681B6C019308BD1C0203000E
:10590C0008B5024B1B685B6C019308BD1C020300BD
:10591C000021FFF719BF10B5836804460BB901F0DD
:10592C0007FAC3689847A3681BB103222146204697
:10593C00984720461021BDE81040FEF7BABB10B5C1
:10594C008368044613B1032201469847204610BDD4
:10595C0013B50B460246D0E900016C4684E80300FF
:10596C0093E8030082E8030094E8030083E8030053
:10597C0002B010BD024800230360FFF77DBD00BFDD
:10598C009CE60320002240681146FFF739BF002235
:10599C0040681146FFF754BF002240681146FFF7DC
:1059AC005FBF40680022FFF753BF4068002281F0C0
:1059BC000101FFF73DBF002340681A461946FFF767
:1059CC002FBF002340681A461946FFF721BF00225B
:1059DC0040681146FFF704BF406800220221FFF720
:1059EC0007BF002340681A46FFF7F2BE084B10B5FC
:1059FC00282422461846002101F0B1F9054B0480F9
:105A0C004FF0FF32426004225A60034A1A6010BD04
:105A1C00A8E60320A0E60320D0000C00704700206D
:105A2C00704710B510210446FEF743FB204610BD0D
:105A3C0008B5FFF7F6FF08BD30B500224FF69C7491
:105A4C00026084808D888C800C68858004600A607C
:105A5C0030BD10B504460068FFF722FF204610BD8C
:105A6C0038B5C468F4B12378022B03D104F10C00CF
:105A7C00FFF7EFFF656835B12846FFF760FF10218F
:105A8C002846FEF716FBA56835B12846FFF757FFE9
:105A9C0010212846FEF70DFB20461421BDE83840A6
:105AAC00FEF707BB38BD0B6803604B68436013B14E
:105ABC005A6801325A60704737B5044668460D463D
:105ACC00FFF7F1FF009B019A23606260002301A89D
:105ADC0001930093FEF74AFC35B1281DFEF746FCF6
:105AEC0008212846FEF7E5FA204603B030BD82684F
:105AFC0010B50AB901F01CF9BDE81040C36818478D
:105B0C0008B5006800F11001FFF7F1FF08BD8268CD
:105B1C0010B50AB901F00CF9BDE81040C36818477C
:105B2C0008B5006800F11001FFF7F1FF08BD000097
:105B3C0038B500230446036010200D46FEF7B5FA75
:105B4C0028B10123C0E90133024B0360C56020601A
:105B5C00204638BD0C010C0038B5002383608B68DF
:105B6C0004460D462BB102229847EB68E360AB6804
:105B7C00A360204638BD0000F0B589B004686846C3
:105B8C00FFF75AFF4FF00203D4E84F2F002A03D13E
:105B9C00C4E8413F0029F7D125D104F10C05694631
:105BAC002846FFF749FFBFF35B8F0123637000208A
:105BBC0004F10803BFF35B8F53E8006F43E8000266
:105BCC00002AF9D1BFF35B8F6EB1FFF7C5FD78B139
:105BDC0029463046FFF78BFF3046FFF7B0FE102109
:105BEC003046FEF766FA6846FFF733FF09B0F0BDA2
:105BFC00314602A8FFF7B0FFE068B4F9105008B1C5
:105C0C0001F0ECF806901020ADF81C50FEF74DFAA0
:105C1C000546E8B1002787601820FEF746FA0446CF
:105C2C0088B10146876002A8FFF792FE049BA26828
:105C3C00A360059B049206A9E268E36004F11000DE
:105C4C000592FFF7F9FE084BEB60084B2C60AB603C
:105C5C0006A8FFF7FEFE02A8FFF771FE00222946F8
:105C6C000348FFF781FDB7E70D5B0B00915D0B005F
:105C7C0023590B002DE9F04F8BB005469DF850A031
:105C8C000F4690469946FFF78BFD07AE834638BB0F
:105C9C004FF62E73059005A93046ADF81830FFF776
:105CAC00CBFE1420FEF701FA044648B10223037020
:105CBC000123C0E901BB437031460C30FFF7BCFE39
:105CCC002846214640F8044BFFF732FF3046FFF7D9
:105CDC00C0FE05A8FFF7BDFE28460BB0BDE8F08F4F
:105CEC000C2300241420CDE908440793FEF7DDF9BA
:105CFC00014618B1C0E901440470447004A8039132
:105D0C00FFF716FF1E4B08930820FEF7CEF904464A
:105D1C0010B103A9FFF7C7FE00965FFA8AF34A4653
:105D2C00414638460994FFF743FDB8B9039B5B78AD
:105D3C0003F0FF0293B94FF69C7305A903A80592D3
:105D4C00ADF81830FFF718FF05A8FFF782FE05A87D
:105D5C000999FFF7B1FE06A8FEF708FB03A905A8F1
:105D6C00FFF7A1FE059B069A2B606A60002306A82C
:105D7C0006930593FEF7FAFA04A8FEF7F7FAABE7D9
:105D8C000D5E0B00012AF8B5054603D10B680360C4
:105D9C000020F8BD022A10D0032AF9D10468002C87
:105DAC00F6D004F11000FFF754FE2046FFF7C7FDB4
:105DBC0018212046FEF77DF9EAE718200E68FEF759
:105DCC0074F9044650B13146FFF7C6FE3069B6F996
:105DDC00147008B101F002F82061A7822C60D7E79B
:105DEC0038B5002383608B6804460D462BB1022224
:105DFC009847EB68E360AB68A360204638BD0000B1
:105E0C00F0B589B004460D4601A81146FFF754FEC3
:105E1C00A4B124B21DB1284600F0E0FF054601A84C
:105E2C0003A90395ADF81040FFF7A6FE03A8FFF7F2
:105E3C0010FE02A8FEF79AFA09B0F0BD019D0123ED
:105E4C00D5E84F2F002A03D1C5E8413F0029F7D1EF
:105E5C00EFD12B73BFF35B8F6B702B1DBFF35B8F7D
:105E6C0053E8006F43E80042002AF9D1BFF35B8F7F
:105E7C00002EDED02046FFF76FFC074660B105F11F
:105E8C000C013046FFF743FE3046FFF758FD10215A
:105E9C003046FEF70EF9CCE7314603A8FFF7A0FF1A
:105EAC002B7B8DF81C301020FEF7FFF80546D0B187
:105EBC0087601420FEF7F9F8044678B18760014634
:105ECC0003A8FFF745FD059BA268A360069B0592FE
:105EDC00E268E3609DF81C3006922374064BEB607D
:105EEC00064B2C60AB6003A8FFF729FD0022294666
:105EFC000348FFF739FCC7E72D5B0B00115F0B0064
:105F0C0023590B00012A70B5044603D10B680360BA
:105F1C00002070BD022A0CD0032AF9D10468002C91
:105F2C00F6D02046FFF70BFD14212046FEF7C1F8F2
:105F3C00EEE714200E68FEF7B8F8054620B131469E
:105F4C00FFF74EFF337C2B742560E1E7002240689D
:105F5C001146FFF775BC002240681146FFF780BC64
:105F6C0040680022FFF774BC4068002281F00101F8
:105F7C00FFF75EBC002340681A461946FFF750BC79
:105F8C00002340681A461946FFF742BC00224068BD
:105F9C001146FFF735BC002240681146FFF720BCC4
:105FAC00406800220221FFF723BC002340681A46F8
:105FBC00FFF70EBC024B03225A60024A1A6070476C
:105FCC00D0E6032028010C007047F8B506461546AC
:105FDC000C468F18BC4206D0336814F8011B9B6822
:105FEC0030469847F6E72846F8BD007C0022FFF7BC
:105FFC0093BA007C0021FFF797BA007C0021FFF7D1
:10600C009BBA007C0021FFF79FBA007C0021FFF7B0
:10601C00A3BA10B514210446FEF74BF8204610BD68
:10602C0038B5044615464FF47A730022C4E90123AF
:10603C00094B2174084623602946FFF79DFABF30AF
:10604C0008D16B69DB0705D56868FFF729FCE868A0
:10605C00FFF726FC204638BD64010C000023007CB1
:10606C001A461946FFF740BA7FB500221423CDE932
:10607C000122ADF804300B788DF808304B6803938F
:10608C00CB680493007C0B7A059301A9FFF77CFA8B
:10609C0007B05DF804FB1FB5003B8DF800104FF006
:1060AC006401039118BF0123694601928DF80830F1
:1060BC00FFF7DAFF05B05DF804FB0123FFF7EBBF38
:1060CC00007C0022FFF718BAC9B2FFF7F9BF007CB9
:1060DC000022FFF719BA0121FFF7F9BF704710B57D
:1060EC0018210446FDF7E5FF204610BDF0B5037DF1
:1060FC00062B8DB00E4600F104074FF0000412D0B1
:10610C0000F1080515F8011D0A22304600F05DF972
:10611C00AF42044419D0002CF4D02E21304600F0AC
:10612C003BF90444EEE72F236A4639460A208DF8E2
:10613C000040FFF731FA6846FDF774FF33680246FA
:10614C00DB68694630469847044620460DB0F0BDE2
:10615C0010B5054B0446112240F8043B002100F019
:10616C00FEFD204610BD00BF8C010C000346074A03
:10617C0010B543F8042B01F1100251F8044B43F80D
:10618C00044B9142F9D10A781A7010BD8C010C00A5
:10619C0010B59DF8084044EA032343EA024242EA60
:1061AC00016104234160037510BD000007B5064B67
:1061BC000360CB7800938B784A780978FFF7E8FF77
:1061CC0003B05DF804FB00BF8C010C00014B024ACC
:1061DC001A607047D8E6032098010C000023406831
:1061EC001A46FFF7F5BA406800220221FFF700BB00
:1061FC00002240681146FFF7F3BA002240681146AE
:10620C00FFF7FEBA002340681A461946FFF700BB99
:10621C00002340681A461946FFF702BB406800216C
:10622C00FFF726BB40680021FFF72ABB406800221D
:10623C0081F00101FFF7FCBA40680022FFF708BBB0
:10624C00002240681146FFF70BBB00224068114644
:10625C00FFF7F6BA2DE9F04395B014460D46074604
:10626C00FFF776FF00211C220DA8009100F077FDAE
:10627C0040230C9320466B460CAA0021FFF79CF997
:10628C00044600284BD1024601216868FFF7B8FA92
:10629C000221804622466868FFF7B2FA009E8146CA
:1062AC002146002E3BD0002939D17368022B03D034
:1062BC000A2B11D0F669F4E7B8F1000FFAD0716926
:1062CC0006A8043107ADFFF771FF0FCD3C1D0FC4BD
:1062DC002B6823704146EDE7B9F1000FEAD07469E1
:1062EC00102201A800F03BFD06238DF8143001ADFF
:1062FC0004F108031834186859682A4603C2083395
:10630C00A3421546F7D101A906A807ADFFF72EFF4A
:10631C000FCD3C1D0FC42B6823704946CAE700986B
:10632C00FFF742F9384615B0BDE8F083024B034A3B
:10633C001A6000225A607047DCE60320A4010C00AE
:10634C00F8B506460D468F180024BD420CD03368B4
:10635C0015F8011B9B6830469847031E01DB1C4453
:10636C00F3E7002C08BF1C462046F8BD13B50446C5
:10637C00084659B10191FDF755FE23680199DB6878
:10638C000246204602B0BDE81040184702B010BDCE
:10639C0008B5FFF7EBFF08BD03689B68184738B5D5
:1063AC000D210546FFF7F8FF0A2104462846FFF7A2
:1063BC00F3FF204438BD38B50546FFF7D7FF044638
:1063CC002846FFF7ECFF204438BD30B58BB00023D6
:1063DC00012A8DF8243098BF0A2209AC0D46B1FB76
:1063EC00F2F101FB125303F0FF03092B94BF30337E
:1063FC003733DBB2AA4204F8013DEFD92146FFF74F
:10640C00B5FF0BB030BD2DE9F04186B000AF0546AD
:10641C000E46381D142114463B60FFF751FA132821
:10642C000ED8391D2846FFF7A1FF04461EB1284699
:10643C00FFF7B5FF044420461837BD46BDE8F08190
:10644C0000F1080323F00703E846ADEB030D2246E9
:10645C00411C3B686846FFF733FA69462846FFF74C
:10646C0085FF0446C546E1E7014B00229A60704760
:10647C00E4E603200021FFF7DFB80021FFF7D4B8D2
:10648C0010B5044608462170FFF7AEF80023636090
:10649C00204610BD13B504460078FFF7EEFF58B93F
:1064AC00207801904FF6FF71FFF78EF8019802B03B
:1064BC00BDE81040FFF7DEBF02B010BD400830B59C
:1064CC001860002418688842E5B206D90134082CFB
:1064DC0002D040081860F5E70725024B5B5D13708E
:1064EC0030BD00BFD8010C002DE9F04306468FB03B
:1064FC0000780C46FFF7C1FF00281BDB357814220F
:10650C00002109A800F02BFC0B23002209A9284626
:10651C00ADF82430FFF778F89DF82D3013B19DF8C5
:10652C002C5055B10027B946B846012523795DB1E9
:10653C00C3B100200FB0BDE8F083DDF830809DF8CA
:10654C0034909DF83570F1E7002B35D1A3684345A5
:10655C0008D18DF820908DF82170BDF82020A389EA
:10656C009A42E6D00023A1688DF80F300A9804AB4C
:10657C000DF10F02FFF7A2FF217985B989B9A36844
:10658C0043450ED38DF820908DF82170BDF8202056
:10659C00A3899A4205D1049B434502D1C9E700293E
:1065AC00F9D100230193637B00939DF80F20237B8B
:1065BC003078FFF731F8BCE7CDE900552B462A4679
:1065CC000121F5E708B50078FFF706F8C0B208BD61
:1065DC0010B504460068FFF763F9204610BD10B5EE
:1065EC000446006808B1FFF75BF90023C4E90133E6
:1065FC00236010BD38B504460D4600680131FFF725
:10660C0057F910B1C4E90005012038BD10B5036875
:10661C00044623B143688B4201D3012010BD2046B0
:10662C00FFF7E8FF0028F9D0A368002BF5D122680A
:10663C001370F2E737B50D46114601920446FFF789
:10664C00E5FF019A28B92046FFF7C9FF204603B0A1
:10665C0030BDA2602946206800F073FB2268A36855
:10666C000021D154F2E7002313B5C0E900330446EE
:10667C008360037341B108460191FDF7D3FC019986
:10668C0002462046FFF7D6FF204602B010BD38B5B3
:10669C00054600680C4670B16A688B689A4208D34C
:1066AC00096831B100F092FBA368AB600023A360D2
:1066BC0038BDFFF7F5F823682B6063686B60A3683F
:1066CC00AB600023C4E90033F1E710B50023C0E947
:1066DC000033044683600373FFF7D9FF204610BDD7
:1066EC0013B5044659B108460191FDF79BFC01997D
:1066FC0002462046FFF79EFF204602B010BDFFF772
:10670C006EFFF9E71FB504460023C4E90033A3600C
:10671C002373084601A900F06DF901A92046FFF783
:10672C00DFFF204604B010BD70B505460E4609B912
:10673C00002070BD6AB1846814442146FFF766FFDF
:10674C000028F5D02868AB683146184400F03EFBB1
:10675C00AC600120EDE78A680968FFF7E5BF13B567
:10676C000446084651B10191FDF75CFC01990246C3
:10677C00204602B0BDE81040FFF7D6BF02B010BDF6
:10678C0008B582683AB921B10878B0FA80F04009AE
:10679C0000E0012008BD006809B90078F5E7FDF7B5
:1067AC0037FCF2E7054B02221A60054B054A9A604A
:1067BC000020C3E90000FEF7BFBF00BF00E70320C5
:1067CC00F4E603200000FFFF024B1A68024B1A602C
:1067DC00704700BF38E5032004E70320704741747D
:1067EC00704708B5007CFEF75FFF20EAE07008BD3B
:1067FC0008B5007CFEF730FF20EAE07008BD08B554
:10680C00007CFEF739FF40EAE07008BD08B5007C5B
:10681C00FEF72AFF40EAE07008BD007CFEF734BFAB
:10682C0037B5457C04462DB1207C03B0BDE8304023
:10683C00FEF70ABF007C0191FEF736FF0028019994
:10684C00F2DC284603B030BD10B514210446FDF728
:10685C0030FC204610BD000010B54FF47A7304468E
:10686C00084611460022C4E90123044B236001238E
:10687C0020746374FEF720FF204610BD04020C0048
:10688C00417470477047704708B50021007CFEF7D3
:10689C003BFF40EAE07008BD08B50121007CFEF723
:1068AC0033FF40EAE07008BD08B5007CFEF724FF1A
:1068BC0020EAE07008BD08B5007CFEF715FF20EA61
:1068CC00E07008BD13B50446007C0191FEF714FF7F
:1068DC000028019901DC607C20B1207CFEF71CFFB4
:1068EC0020EAE07002B010BD007CFEF71DBF10B5B1
:1068FC0014210446FDF7DDFB204610BD10B54FF406
:10690C007A73044608460021C4E90113044B236042
:10691C000123207463741146FEF7D6FE204610BD89
:10692C0034020C00007C0022FEF7D6BE10B51422F7
:10693C000446002100F013FA204610BD10B50F4C90
:10694C0088B003A8FFF7F2FF2178BFF35B8F11F03B
:10695C0001010FD120460191FDF7ADFB019948B122
:10696C0003AA0748FFF7CAFF2046FDF7A9FB054815
:10697C0000F0E1F9024808B010BD00BF08E70320A1
:10698C000CE7032091680B0010B50446FDF74AFB99
:10699C00013823182046834206D90278197800F86A
:1069AC00011B03F80129F6E710BD70B50C46911ECA
:1069BC0022291DD8254630B9234430229D4210D2BD
:1069CC0005F8012BFAE7B0FBF2F602FB1600C1B298
:1069DC00092894BF30315731C9B205F8011B304634
:1069EC00E9E7002320462B70FFF7CEFF204670BD51
:1069FC000020FCE708B50123FFF7D7FF08BD000016
:106A0C00014B1860704700BF3CE5032008B50B4BE9
:106A1C0043B1FFF793FF03681B699847002801DD1A
:106A2C00AFF30080064B43B100F05CF903681B69BF
:106A3C009847002801DDAFF3008008BD000000007E
:106A4C000000000008B5FFF7E1FFFEF725FD014B44
:106A5C00186008BD28E703200548064A064908B512
:106A6C00121A00F06EF9054B054A1A6008BD00BFFA
:106A7C0000F4032004F403208C030C0000F4032026
:106A8C001E1C279A07B5002300931A466FF0770156
:106A9C00FEF77CFE03B05DF804FB000007B54388ED
:106AAC000A2B08D0502B0BD1094B1B684BB103B0F0
:106ABC005DF804EB1847FFF7E5FF03B05DF804FB46
:106ACC00002300931A466FF07701FEF75FFEF4E7A0
:106ADC0024E7032010B512480021FEF711FF114BDB
:106AEC001A68114B9A42114B0CBF012200221A70EA
:106AFC0001D0FFF7B1FFFEF7C7FC044600F038F9F0
:106B0C000B4B13B12046AFF3008000210848FEF771
:106B1C0057FEBDE8104007480021FEF72DBE00BF10
:106B2C000D6A0B0000F403201E1C279A20E703209B
:106B3C0000000000A96A0B00252813B502D900201B
:106B4C0002B010BDA0F10B03022B1AD8174C217800
:106B5C00BFF35B8F11F001010BD120460191FDF7C2
:106B6C00AAFA019928B11248FFF78AFC2046FDF7D2
:106B7C00A7FA0F4B1878FEF73FFD0028DFD1012054
:106B8C00DEE7012809D800F06DF80021007CFEF743
:106B9C00EBFC80F00100C0B2D2E709380128EED836
:106BAC0000F0A0F8007CFEF777FDF2E790E60320FA
:106BBC0094E60320252838B504460D460AD8FF294B
:106BCC0008D0FFF7B9FF28B129462046BDE8384068
:106BDC00FEF76ABC38BD38B504460D46FEF76CFCB2
:106BEC00FF2810D0062804D84D2323FA00F0C30741
:106BFC0009D42046FFF7A0FF28B129462046BDE85E
:106C0C003840FEF761BC38BD10B50446FEF754FCA5
:106C1C00031FDBB2012B08D92046FFF78DFF20B1F3
:106C2C002046BDE81040FEF757BC002010BD704751
:106C3C0038B50A4B03600123044643610849202000
:106C4C0000F074F8202560600549A560284600F026
:106C5C006DF8C4E90305204638BD00BF18000100DB
:106C6C005C020C0030B50E4D2978BFF35B8F11F030
:106C7C00010487B011D12846FDF71DFA68B16846AA
:106C8C00FFF7D6FF6A4621460648FFF7C9F92846A2
:106C9C00FDF716FA044800F04EF8024807B030BD74
:106CAC002CE7032030E703203B6C0B0070470000FF
:106CBC0038B5044614252A46002100F050F82580EA
:106CCC004025074925812846258200F02FF80449E4
:106CDC006060284600F02AF8E060204638BD00BF0E
:106CEC005C020C0030B50E4D2978BFF35B8F11F0B0
:106CFC00010487B011D12846FDF7DDF968B101A870
:106D0C00FFF7D6FF01AA21460648FFF7A5FD284646
:106D1C00FDF7D6F9044800F00EF8024807B030BD74
:106D2C0044E7032048E70320B96C0B00FDF7BFB91B
:106D3C0008B5FEF7CDFD002301461A46184600F0B3
:106D4C007FB80A44914200F1FF3300D1704710B56F
:106D5C0011F8014B03F8014F9142F9D110BD0244D7
:106D6C000346934200D1704703F8011BF9E700007A
:106D7C0038B5104B1D68AB6B0446B3B91820FEF741
:106D8C0087FD0246A86320B90B4B0C484221FEF745
:106D9C00AFFD0B490B4BC0E900130B4B83600B236E
:106DAC00838100210120C2E90401AB6B00221C612C
:106DBC005A6138BD3CE503205D020C0074020C00E6
:106DCC000E33CDAB34126DE6ECDE0500034611F844
:106DDC00012B03F8012B002AF9D17047024B014615
:106DEC00186800F003B800BF3CE5032037B5044633
:106DFC0008460D46FDF716F9421C11462046019235
:106E0C00FEF76EFD044618B1019A2946FFF799FF6B
:106E1C00204603B030BD10B57AB103460139841851
:106E2C0013F8010B11F8012F904201D1A34201D1AB
:106E3C00801A10BD0028F3D1FAE71046F9E70000DC
:106E4C002DE9F843DFF8B8800646D8F800001F4655
:106E5C000D46914600F056F8254B1C6834B9254C6C
:106E6C001C60254B13B11B68C4F8883063681F2B5A
:106E7C0007DDD8F8000000F047F84FF0FF30BDE810
:106E8C00F8834EB3D4F8880088B91C4B23B9D8F8D2
:106E9C00000000F038F8F0E74FF48470FEF7F8FCCF
:106EAC000028F4D00023C0E94033C4F8880063689C
:106EBC0040F8239001229A4000EB8301D0F8003176
:106ECC001343C0F80031022EC1F8807002BFD0F815
:106EDC0004311343C0F804316368D8F800005A1C1D
:106EEC000233626044F8235000F00EF80020C6E72D
:106EFC00E8E703205CE70320000000009D580B002E
:106F0C00A0E50320704770477047000041400B001C
:106F1C007D400B00A5400B00A9400B0000000000B9
:106F2C004641494C4544202D20504C454153452069
:106F3C005343414E20414741494E2100454E4A4F53
:106F4C005920544845204556454E54210055494436
:106F5C003A2000342E32696E636820652D706170A2
:106F6C00657220746573740D0A2000652D50617074
:106F7C0065722044656D6F0048656C6C6F20776F8F
:106F8C00726C6400493243206465766963652066DF
:106F9C006F756E6420617420616464726573732014
:106FAC0030780030004E6F2049324320666F756E8A
:106FBC006400646F6E6500446F6E6500496E6974A1
:106FCC0069616C697A696E6720652D5061706572B4
:106FDC0020646973706C6179004661696C6564202A
:106FEC00746F20696E697469616C697A6520646973
:106FFC0073706C617900496E697469616C697A6946
:10700C006E6720504E3533320057616974696E6774
:10701C0020666F72206120636172642E2E2E2E2EDC
:10702C002E0064656661756C7420004D5342004CF3
:10703C005342003C53504953657474696E67732016
:10704C0064656661756C743E003C535049536574BD
:10705C0074696E67732025732575202573204D4F39
:10706C00444525753E0000000000000000000000B3
:10707C008D490B005F490B0061490B0000000000BB
:10708C0000000000000000000000000000000000F4
:10709C0000000000000000000000000000000000E4
:1070AC0000000000000000000000000000000000D4
:1070BC0000000000000000000000000000000000C4
:1070CC0000000000000000000000038000038000AE
:1070DC000380000380000380000380000380000312
:1070EC00800003800001000001000000000000008F
:1070FC00000380000380000000000000000000007E
:10710C000000000000000000000000000000000073
:10711C0000000000000E70000E70000E70000420C5
:10712C0000042000042000042000000000000000E7
:10713C000000000000000000000000000000000043
:10714C000000000000000000000000000000000033
:10715C000000000000000000000006600006600057
:10716C000660000660000660003FF8003FF800066D
:10717C0060000CC0003FF8003FF8000CC0000CC0D1
:10718C00000CC0000CC0000CC0000000000000008F
:10719C0000000000000000000000000000000001E2
:1071AC00800001800007B0000FF00018700018700C
:1071BC00001C00000F800007E00000F000183000F9
:1071CC001C30001C70001FE0001BC000018000017F
:1071DC008000018000018000000000000000000021
:1071EC00000000000000000000000780000FC0003D
:1071FC001CE0001860001860001CE0000FF800078D
:10720C00E0001FF0000738000618000618000738C9
:10721C000003F00001E0000000000000000000008E
:10722C000000000000000000000000000000000052
:10723C00000000000000000003F00007F0000C60EC
:10724C00000C00000C00000600000700000F9C0062
:10725C001DFC0018F0001870000FFC0007DC00008B
:10726C000000000000000000000000000000000012
:10727C00000000000000000000000000000380007F
:10728C0003800003800001000001000001000001E8
:10729C0000000000000000000000000000000000E2
:1072AC0000000000000000000000000000000000D2
:1072BC0000000000000000000000000000000000C2
:1072CC00000000180000380000700000F00000E022
:1072DC000000E00001C00001C00001C00001C000BE
:1072EC0001C00001C00000E00000E00000700000E0
:1072FC0070000038000018000000000000000000C2
:10730C00000000000000000000001800001C00003D
:10731C000E00000E000007000007000003800003B1
:10732C0080000380000380000380000380000700BE
:10733C00000700000F00000E00001C0000180000E9
:10734C000000000000000000000000000000000031
:10735C0000000180000180000180001DB8001FF8B2
:10736C000007E00003C00003C000066000066000D8
:10737C000000000000000000000000000000000001
:10738C0000000000000000000000000000000000F1
:10739C0000000000000000000000000000000000E1
:1073AC000180000180000180000180000180003F0D
:1073BC00FC003FFC00018000018000018000018086
:1073CC000001800000000000000000000000000030
:1073DC0000000000000000000000000000000000A1
:1073EC000000000000000000000000000000000091
:1073FC000000000000000000000000000000000081
:10740C0000000000000000E00000C00001C000010E
:10741C008000018000030000030000000000000059
:10742C000000000000000000000000000000000050
:10743C000000000000000000000000000000001F21
:10744C00F8001FF800000000000000000000000021
:10745C000000000000000000000000000000000020
:10746C000000000000000000000000000000000010
:10747C000000000000000000000000000000000000
:10748C0000000000000000000000000000000000F0
:10749C0000000000000003C00003C00003C0000097
:1074AC0000000000000000000000000000000000D0
:1074BC000000000000180000180000380000300028
:1074CC0000700000600000600000C00000C00001FF
:1074DC00800001800003000003000006000006008D
:1074EC00000E00000C00001C00001800001800002A
:1074FC000000000000000000000000000000000080
:10750C00000003C00007E0000C30000C300018181D
:10751C00001818001818001818001818001818006F
:10752C001818000C30000C300007E00003C00000FD
:10753C00000000000000000000000000000000003F
:10754C000000000000000000000000800007800028
:10755C001F80001D8000018000018000018000015F
:10756C00800001800001800001800001800001800A
:10757C00001FF8001FF800000000000000000000D1
:10758C0000000000000000000000000000000000EF
:10759C00000007C0001FF000383000301800301811
:1075AC000000180000300000600001C000038000E3
:1075BC000600000C00001800003FF8003FF8000027
:1075CC0000000000000000000000000000000000AF
:1075DC000000000000000000000003C0000FE000ED
:1075EC000C700000300000300000600003C000038D
:1075FC00E000007000001800001800001800183897
:10760C00001FF0000FC00000000000000000000090
:10761C00000000000000000000000000000000005E
:10762C00000000E00001E00001E0000360000660E3
:10763C00000660000C60000C6000186000306000F8
:10764C003FF8003FF80000600003F80003F800006A
:10765C00000000000000000000000000000000001E
:10766C00000000000000000000001FF0001FF000F0
:10767C001800001800001800001BC0001FF0001CB0
:10768C0030000018000018000018000018003030FE
:10769C00003FF0000FC000000000000000000000E0
:1076AC0000000000000000000000000000000000CE
:1076BC00000000F80003F8000700000E00000C00AA
:1076CC00001800001BC0001FF0001C300018180030
:1076DC001818001818000C38000FF00003E0000018
:1076EC00000000000000000000000000000000008E
:1076FC00000000000000000000001FF8001FF80050
:10770C00181800183800003000003000007000001D
:10771C00600000600000E00000C00000C00001C07C
:10772C00000180000180000000000000000000004B
:10773C00000000000000000000000000000000003D
:10774C00000007E0000FF0001C3800181800181893
:10775C00000C300007E00007E0000C3000181800A7
:10776C001818001818001C38000FF00007E0000073
:10777C0000000000000000000000000000000000FD
:10778C000000000000000000000007C0000FF00027
:10779C001C30001818001818001818000C38000FAE
:1077AC00F80003D80000180000300000700000E062
:1077BC00001FC0001F0000000000000000000000BF
:1077CC0000000000000000000000000000000000AD
:1077DC00000000000000000000000000000003C0DA
:1077EC000003C00003C00000000000000000000007
:1077FC0000000000000003C00003C00003C0000034
:10780C00000000000000000000000000000000006C
:10781C00000000000000000000000000000000005C
:10782C0000000000000000F00000F00000F000007C
:10783C00000000000000000000000000E00001C09B
:10784C000001800001800003000002000000000025
:10785C00000000000000000000000000000000001C
:10786C000000000000000000001C00003C0000F0C4
:10787C000003C0000F00003C0000F000003C0000C2
:10788C000F000003C00000F000003C00001C0000D2
:10789C0000000000000000000000000000000000DC
:1078AC0000000000000000000000000000000000CC
:1078BC000000000000000000007FFC007FFC0000C6
:1078CC0000000000007FFC007FFC000000000000B6
:1078DC00000000000000000000000000000000009C
:1078EC00000000000000000000000000000000008C
:1078FC0000000000000000007000007800001E0076
:10790C000007800001E000007800001E00007800F5
:10791C0001E0000780001E000078000070000000ED
:10792C00000000000000000000000000000000004B
:10793C000000000000000000000000000007C00074
:10794C000FE00018700018300018300000700000B4
:10795C00E00003C0000380000300000000000000F2
:10796C0000070000070000000000000000000000FD
:10797C0000000000000000000000000000000000FB
:10798C00000003E00007F0000E38000C1800187817
:10799C000018F80019D800199800199800199800C7
:1079AC0018F8001878001800000C00000E180007DA
:1079BC00F80003E0000000000000000000000000E0
:1079CC00000000000000000000000000001F80000C
:1079DC001FC00001C00003600003600006300006F9
:1079EC0030000C30000FF8001FF800180C00300CA1
:1079FC0000FC7F00FC7F0000000000000000000085
:107A0C00000000000000000000000000000000006A
:107A1C0000000000007FE0007FF00018380018180C
:107A2C00001818001838001FF0001FF800181C0070
:107A3C00180C00180C00180C007FF8007FF00000E8
:107A4C00000000000000000000000000000000002A
:107A5C000000000000000000000000000003EC002B
:107A6C000FFC001C1C00180C00300C003000003007
:107A7C000000300000300000300000180C001C1C0E
:107A8C00000FF80003F000000000000000000000F0
:107A9C0000000000000000000000000000000000DA
:107AAC0000000000007FC0007FF00018380018189C
:107ABC0000180C00180C00180C00180C00180C0006
:107ACC00180C001818001838007FF0007FE0000038
:107ADC00000000000000000000000000000000009A
:107AEC00000000000000000000000000007FF80013
:107AFC007FF8001818001818001998001980001F3A
:107B0C0080001F80001980001998001818001818A0
:107B1C00007FF8007FF8000000000000000000006B
:107B2C000000000000000000000000000000000049
:107B3C0000000000003FFC003FFC000C0C000C0C93
:107B4C00000CCC000CC0000FC0000FC0000CC0001B
:107B5C000CC0000C00000C00003FC0003FC0000037
:107B6C000000000000000000000000000000000009
:107B7C000000000000000000000000000003EC000A
:107B8C000FFC001C1C00180C00300C0030000030E6
:107B9C00000030FE0030FE00300C00380C001C1CC5
:107BAC00000FFC0003F000000000000000000000CB
:107BBC0000000000000000000000000000000000B9
:107BCC0000000000007E7E007E7E00181800181851
:107BDC00001818001818001FF8001FF800181800DB
:107BEC001818001818001818007E7E007E7E000001
:107BFC000000000000000000000000000000000079
:107C0C00000000000000000000000000001FF80051
:107C1C001FF800018000018000018000018000013C
:107C2C008000018000018000018000018000018043
:107C3C00001FF8001FF8000000000000000000000A
:107C4C000000000000000000000000000000000028
:107C5C00000000000007FE0007FE000030000030AE
:107C6C0000003000003000003000303000303000B8
:107C7C003030003030003060003FE0000F800000FA
:107C8C0000000000000000000000000000000000E8
:107C9C00000000000000000000000000007F3E001B
:107CAC007F3E0018300018600018C0001980001BBF
:107CBC0080001FC0001CE00018700018300018383D
:107CCC00007F1F007F1F000000000000000000006C
:107CDC000000000000000000000000000000000098
:107CEC0000000000007F80007F80000C00000C0072
:107CFC00000C00000C00000C00000C00000C0C0030
:107D0C000C0C000C0C000C0C007FFC007FFC000029
:107D1C000000000000000000000000000000000057
:107D2C0000000000000000000000000000F00F0048
:107D3C00F81F00381C003C3C003C3C00366C003604
:107D4C006C0033CC0033CC00318C00300C00300C88
:107D5C0000FE7F00FE7F000000000000000000001D
:107D6C000000000000000000000000000000000007
:107D7C00000000000078FE0078FE001C18001E18A1
:107D8C00001F18001B18001B980019D80018D800E9
:107D9C0018F8001878001838007F18007F180000B9
:107DAC0000000000000000000000000000000000C7
:107DBC000000000000000000000000000003C000F4
:107DCC000FF0001C3800181800381C00300C003064
:107DDC000C00300C00300C00381C001818001C383B
:107DEC00000FF00003C000000000000000000000C5
:107DFC000000000000000000000000000000000077
:107E0C0000000000003FF0003FF8000C1C000C0CC0
:107E1C00000C0C000C0C000C18000FF8000FE0000C
:107E2C000C00000C00000C00003FC0003FC0000024
:107E3C000000000000000000000000000000000036
:107E4C000000000000000000000000000003C00063
:107E5C000FF0001C3800181800381C00300C0030D3
:107E6C000C00300C00300C00381C001818001C38AA
:107E7C00000FF00007C00007CC000FFC000C38000E
:107E8C0000000000000000000000000000000000E6
:107E9C0000000000007FE0007FF000183800181888
:107EAC00001818001838001FF0001FC00018E00060
:107EBC001870001830001838007F1E007F0E00006C
:107ECC0000000000000000000000000000000000A6
:107EDC000000000000000000000000000007D800B7
:107EEC000FF8001C38001818001818001E00000F9E
:107EFC00C00003F0000078001818001818001C3897
:107F0C00001FF0001BE0000000000000000000005B
:107F1C000000000000000000000000000000000055
:107F2C0000000000003FFC003FFC00318C00318C55
:107F3C0000318C00318C0001800001800001800038
:107F4C000180000180000180000FF0000FF00000A4
:107F5C000000000000000000000000000000000015
:107F6C00000000000000000000000000007E7E0009
:107F7C007E7E001818001818001818001818001821
:107F8C0018001818001818001818001818000C30D1
:107F9C00000FF00003C00000000000000000000013
:107FAC0000000000000000000000000000000000C5
:107FBC0000000000007F7F007F7F00180C000C1871
:107FCC00000C18000C18000630000630000360008E
:107FDC0003600003600001C00001C00000800000CD
:107FEC000000000000000000000000000000000085
:107FFC0000000000000000000000000000FE3F80B8
:10800C00FE3F8030060030060030860019CC001987
:10801C00CC001B6C001B6C001E7C000E38000E3854
:10802C00000C18000C1800000000000000000000FC
:10803C000000000000000000000000000000000034
:10804C0000000000007E7E007E7E001818000C30C0
:10805C000006600003C00001800001800003C00026
:10806C000660000C30001818007E7E007E7E00003A
:10807C0000000000000000000000000000000000F4
:10808C00000000000000000000000000007C7E00EA
:10809C007C7E001818000C3000066000066000039F
:1080AC00C00001800001800001800001800001807F
:1080BC00000FF0000FF000000000000000000000B6
:1080CC0000000000000000000000000000000000A4
:1080DC0000000000001FF8001FF8001818001830EE
:1080EC000018600018C00001800003000006180092
:1080FC000C18001818003018003FF8003FF800006A
:10810C000000000000000000000000000000000063
:10811C000000000000000000000001F00001F00071
:10812C0001800001800001800001800001800001BD
:10813C00800001800001800001800001800001802E
:10814C000001800001800001800001F00001F000BE
:10815C0000000000000000000000000018000018E3
:10816C0000001C00000C00000E00000600000600C1
:10817C000003000003000001800001800000C0002B
:10818C0000C00000600000600000700000300000C3
:10819C00380000180000180000000000000000006B
:1081AC00000000000000000000000F80000F8000A5
:1081BC00018000018000018000018000018000012D
:1081CC00800001800001800001800001800001809E
:1081DC00000180000180000180000F80000F8000F2
:1081EC000000000000000000000000000000000083
:1081FC00800001C00003E0000770000630000C187E
:10820C0000180C001004000000000000000000002A
:10821C000000000000000000000000000000000052
:10822C000000000000000000000000000000000042
:10823C000000000000000000000000000000000032
:10824C000000000000000000000000000000000022
:10825C000000000000000000000000000000000012
:10826C000000000000000000000000000000000002
:10827C00000000000000FFFF00FFFF0000000003F3
:10828C00000003800000E00000600000000000001F
:10829C0000000000000000000000000000000000D2
:1082AC0000000000000000000000000000000000C2
:1082BC0000000000000000000000000000000000B2
:1082CC0000000000000000000000000000000000A2
:1082DC000000000000000FC0001FE0000030000094
:1082EC00300007F0001FF0003830003030003070E4
:1082FC00001FFC000FBC000000000000000000008C
:10830C000000000000000000000000000000000061
:10831C0000007800007800001800001800001BE036
:10832C00001FF8001C1800180C00180C00180C008A
:10833C00180C00180C001C18007FF8007BE00000E3
:10834C000000000000000000000000000000000021
:10835C000000000000000000000000000000000011
:10836C0000000000000003EC000FFC001C1C003897
:10837C000C00300C00300000300000380C001C1CCD
:10838C00000FF80003F000000000000000000000E7
:10839C0000000000000000000000000000000000D1
:1083AC00000000780000780000180000180007D8C2
:1083BC00001FF80018380030180030180030180072
:1083CC003018003018001838001FFE0007DE0000BF
:1083DC000000000000000000000000000000000091
:1083EC000000000000000000000000000000000081
:1083FC0000000000000007E0001FF8001818003013
:10840C000C003FFC003FFC00300000300000180C5A
:10841C00001FFC0007F0000000000000000000003E
:10842C000000000000000000000000000000000040
:10843C00000001FC0003FC000600000600003FF8F1
:10844C00003FF800060000060000060000060000D1
:10845C000600000600000600003FF0003FF00000A0
:10846C000000000000000000000000000000000000
:10847C0000000000000000000000000000000000F0
:10848C0000000000000007DE001FFE00183800305E
:10849C001800301800301800301800301800183848
:1084AC00001FF80007D80000180000180000380062
:1084BC000FF0000FC00000000000000000000000E2
:1084CC0000007800007800001800001800001BE085
:1084DC00001FF0001C38001818001818001818009D
:1084EC001818001818001818007E7E007E7E0000F8
:1084FC000000000000000000000000000000000070
:10850C00000000000000000000000180000180005D
:10851C000000000000001F80001F8000018000018F
:10852C00800001800001800001800001800001803A
:10853C00003FFC003FFC00000000000000000000B9
:10854C00000000000000000000000000000000001F
:10855C00000000C00000C0000000000000001FF080
:10856C00001FF00000300000300000300000300030
:10857C0000300000300000300000300000300000FF
:10858C0030000030000070001FE0001F8000000071
:10859C00000000000000000000003C00003C000057
:1085AC000C00000C00000CF8000CF8000CC0000DC6
:1085BC0080000F80000F00000F80000DC0000CE049
:1085CC00003C7C003C7C000000000000000000002F
:1085DC00000000000000000000000000000000008F
:1085EC0000001F80001F80000180000180000180BE
:1085FC0000018000018000018000018000018000EA
:10860C000180000180000180003FFC003FFC000065
:10861C00000000000000000000000000000000004E
:10862C00000000000000000000000000000000003E
:10863C00000000000000F77800FFFC0039CC00318E
:10864C008C00318C00318C00318C00318C00318CE1
:10865C0000FDEF00FDEF0000000000000000000036
:10866C0000000000000000000000000000000000FE
:10867C0000000000000000000000000000007BE093
:10868C00007FF0001C38001818001818001818008B
:10869C001818001818001818007E7E007E7E000046
:1086AC0000000000000000000000000000000000BE
:1086BC0000000000000000000000000000000000AE
:1086CC0000000000000003C0000FF0001C38003850
:1086DC001C00300C00300C00300C00381C001C3816
:1086EC00000FF00003C000000000000000000000BC
:1086FC00000000000000000000000000000000006E
:10870C0000000000000000000000000000007BE002
:10871C00007FF8001C1800180C00180C00180C0036
:10872C00180C00180C001C18001FF8001BE0001897
:10873C0000001800001800007F00007F00000000FF
:10874C00000000000000000000000000000000001D
:10875C0000000000000007DE001FFE00183800308B
:10876C001800301800301800301800301800183875
:10877C00001FF80007D800001800001800001800AF
:10878C0000FE0000FE0000000000000000000000E1
:10879C0000000000000000000000000000003E7817
:1087AC00003EFC0007CC000700000600000600009D
:1087BC000600000600000600003FF0003FF000003D
:1087CC00000000000000000000000000000000009D
:1087DC00000000000000000000000000000000008D
:1087EC0000000000000007F8000FF800181800182F
:1087FC0018001F80000FF00000F80018180018383F
:10880C00001FF0001FE0000000000000000000004E
:10881C00000000000000000000000000000000004C
:10882C0000000C00000C00000C00000C00003FF0DD
:10883C00003FF0000C00000C00000C00000C0000CD
:10884C000C00000C00000C1C0007FC0003F00000E6
:10885C00000000000000000000000000000000000C
:10886C0000000000000000000000000000000000FC
:10887C0000000000000078780078780018180018C4
:10888C0018001818001818001818001818001838B4
:10889C00000FFE0007DE00000000000000000000DA
:1088AC0000000000000000000000000000000000BC
:1088BC0000000000000000000000000000007C3EF2
:1088CC00007C3E001818001818000C30000C30000A
:1088DC0006600006600007E00003C00003C0000053
:1088EC00000000000000000000000000000000007C
:1088FC00000000000000000000000000000000006C
:10890C00000000000000783C00783C003118003377
:10891C0098003398001AB0001EF0001EF0001C6086
:10892C00000C60000C600000000000000000000063
:10893C00000000000000000000000000000000002B
:10894C0000000000000000000000000000003E7C61
:10895C00003E7C000C300006600003C0000180006B
:10896C0003C0000660000C30003E7C003E7C000022
:10897C0000000000000000000000000000000000EB
:10898C0000000000000000000000000000000000DB
:10899C000000000000007E1F007E1F00180C000C61
:1089AC0018000C180006300006300003600003E0CD
:1089BC000001C00000C00001800001800003000025
:1089CC003FC0003FC000000000000000000000009D
:1089DC0000000000000000000000000000001FF874
:1089EC00001FF80018300018600000C00001800063
:1089FC000300000618000C18001FF8001FF80000F8
:108A0C00000000000000000000000000000000005A
:108A1C000000000000000000000000E00001E00089
:108A2C0001800001800001800001800001800001B4
:108A3C00800003800007000003800001800001809B
:108A4C000001800001800001800001E00000E000D6
:108A5C00000000000000000000000000000000000A
:108A6C000000018000018000018000018000018075
:108A7C000001800001800001800001800001800065
:108A8C000180000180000180000180000180000154
:108A9C008000018000018000000000000000000048
:108AAC00000000000000000000000700000780002C
:108ABC000180000180000180000180000180000124
:108ACC00800001C00000E00001C0000180000180B6
:108ADC000001800001800001800007800007000079
:108AEC00000000000000000000000000000000007A
:108AFC00000000000000000000000000000000006A
:108B0C00000000000E00001F18003BB80031F00000
:108B1C0000E0000000000000000000000000000069
:108B2C000000000000000000000000000000000039
:108B3C0000000000FFFFFFFFFFFFFFFFFFFFFFFF35
:108B4C00FFFFFFFFFFFFFFFFFFFFFFFFFFFFFFFF29
:108B5C00FFFFFFFFFFFFFFFFFFFFFFFFFFFFFFFF19
:108B6C00FFFFFFFFFFFFFFFFFFFFFFFFFFFFFFFF09
:108B7C00FFFFFFFFFFFFFFFFFFFFFFFFFFFFFFFFF9
:108D5C00F7FFFFFFFFFFFFFFFFFFFFFFFFFFFFFF1F
:108D6C00FFFFFFFFFFFFFFFFFFFFFFFFFFFFFFFF07
:108D7C00FFFFFFFFFFFFFFFFFFFFFFFFFFFFFFFFF7
:108D8C00FFFFC3FFFFFFFFFFFFFFFFFFFFFFFFFF23
:108D9C00FFFFFFFFFFFFFFFFFFFFFFFFFFFFFFFFD7
:108DAC00FFFFFFFFFFFFFFFFFFFFFFFFFFFFFFFFC7
:108DBC00FFFFFFFE03FFFFFFFFFFFFFFFFFFFFFFB4
:108DCC00FFFFFFFFFFFFFFFFFFFFFFFFFFFFFFFFA7
:108DDC00FFFFFFFFFFFFFFFFFFFFFFFFFFFFFFFF97
:108DEC00FFFFFFFFFFF007FFFFFFFFFFFFFFFFFF8E
:108DFC00FFFFFFFFFFFFFFFFFFFFFFFFFFFFFFFF77
:108E0C00FFFFFFFFFFFFFFFFFFFFFFFFFFFFFFFF66
:108E1C00FFFFFFFFFFFFFF8007FFFFFFFFFFFFFFCD
:108E2C00FFFFFFFFFFFFFFFFFFFFFFFFFFFFFFFF46
:108E3C00FFFFFFFFFFFFFFFFFFFFFFFFFFFFFFFF36
:108E4C00FFFFFFFFFFFFFFFFFE0003FFFFFFFFFF22
:108E5C00FFFFFFFFFFFFFFFFFFFFFFFFFFFFFFFF16
:108E6C00FFFFFFFFFFFFFFFFFFFFFFFFFFFFFFFF06
:108E7C00FFFFFFFFFFFFFFFFFFFFF80003FFFFFFF8
:108E8C00FFFFFFFFFFFFFFFFFFFFFFFFFFFFFFFFE6
:108E9C00FFFFFFFFFFFFFFFFFFFFFFFFFFFFFFFFD6
:108EAC00FFFFFFFFFFFFFFFFFFFFFFFFE3D003FF0D
:108EBC00FFFFFFFFFFFFFFFFFFFFFFFFFFFFFFFFB6
:108ECC00FFFFFFFFFFFFFFFFFFFFFFFFFFFFFFFFA6
:108EDC00FFFFFFFFFFFFFFFFFFFFFFFFFFFFCFEBDA
:108EEC0003FFFFFFFFFFFFFFFFFFFFFFFFFFFFFF82
:108EFC00FFFFFFFFFFFFFFFFFFFFFFFFFFFFFFFF76
:108F0C00FFFFFFFFFFFFFFFFFFFFFFFFFFFFFFFF65
:108F1C0003E383FFFFFFFFFFFFFFFFFFFFFFFFFFE9
:108F2C00FFFFFFFFFFFFFFFFFFFFFFFFFFFFFFFF45
:108F3C00FFFFFFFFFFFFFFFFFFFFFFFFFFFFFFFF35
:108F4C00FFFE43F3C3FFFFFFFFFFFFFFFFFFFFFF2A
:108F5C00FFFFFFFFFFFFFFFFFFFFFFFFFFFFFFFF15
:108F6C00FFFFFFFFFFFFFFFFFFFFFFFFFFFFFFFF05
:108F7C00FFFFFFF8C3F3E3FCFFFFFFFFFFFFFFFF63
:108F8C00FFFFFFFFFFFFFFFFFFFFFFFFFFFFFFFFE5
:108F9C00FFFFFFFFFFFFFFFFFFFFFFFFFFFFFFFFD5
:108FAC00FFFFFFFFFFF3E3F9E3F8FFFFFFFFFFFF16
:108FBC00FFFFFFFFFFFFFFFFFFFFFFFFFFFFFFFFB5
:108FCC00FFFFFFFFFFFFFFFFFFFFFFFFFFFFFFFFA5
:108FDC00FFFFFFFFFFFFFFE5FFF9F3E0FFFFFFFFE0
:108FEC00FFFFFFFFFFFFFFFFFFFFFFFFFFFFFFFF85
:108FFC00FFFFFFFFFFFFFFFFFFFFFFFFFFFFFFFF75
:10900C00FFFFFFFFFFFFFFFFFFC8FFF9F3807FFFAC
:10901C00FFFFFFFFFFFFFFFFFFFFFFFFFFFFFFFF54
:10902C00FFFFFFFFFFFFFFFFFFFFFFFFFFFFFFFF44
:10903C00FFFFFFFFFFFFFFFFFFFFFF927FFBF30030
:10904C007FFFFFFFFFFFFFFFFFFFFFFFFFFFFFFFA4
:10905C00FFFFFFFFFFFFFFFFFFFFFFFFFFFFFFFF14
:10906C00FFFFFFFFFFFFFFFFFFFFFFFFFF30FFF3DF
:10907C00F4007FFFFFFFFFFFFFFFFFFFFFFFFFFF7E
:10908C00FFFFFFFFFFFFFFFFFFFFFFFFFFFFFFFFE4
:10909C00FFFFFFFFFFFFFFFFFFFFFFFFFFFFFE5B79
:1090AC00FFF3F0707FFFFFFFFFFFFFFFFFFFFFFFEE
:1090BC00FFFFFFFFFFFFFFFFFFFFFFFFFFFFFFFFB4
:1090CC00FFFFFFFFFFFFFFFFFFFFFFFFFFFFFFFFA4
:1090DC00FE0BFFF3E1F87FFFFFFFFFFFFFFFFFFF3A
:1090EC00FFFFFFFFFFFFFFFFFFFFFFFFFFFFFFFF84
:1090FC00FFFFFFFFFFFFFFFFFFFFFFFFFFFFFFFF74
:10910C00FFFFFC09FFF385FC7FFFFFFFFFFFFFFF65
:10911C00FFFFFFFFFFFFFFFFFFFFFFFFFFFFFFFF53
:10912C00FFFFFFFFFFFFFFFFFFFFFFFFFFFFFFFF43
:10913C00FFFFFFFFF94CFFE73DFE7FFFFFFFFFFF47
:10914C00FFFFFFFFFFFFFFFFFFFFFFFFFFFFFFFF23
:10915C00FFFFFFFFFFFFFFFFFFFFFFFFFFFFFFFF13
:10916C00FFFFFFFFFFFFF27E7FE6FDFE3FFFFFFFED
:10917C00FFFFFFFFFFFFFFFFFFFFFFFFFFFFFFFFF3
:10918C00FFFFFFFFFFFFFFFFFFFFFFFFFFFFFFFFE3
:10919C00FFFFFFFFFFFFFFFFF03FBFE199FE3FFF27
:1091AC00FFFFFFFFFFFFFFFFFFFFFFFFFFFFFFFFC3
:1091BC00FFFFFFFFFFFFFFFFFFFFFFFFFFFFFFFFB3
:1091CC00FFFFFFFFFFFFFFFFFFFFE43FDFE39DFF1C
:1091DC003FFFFFFFFFFFFFFFFFFFFFFFFFFFFFFF53
:1091EC00FFFFFFFFFFFFFFFFFFFFFFFFFFFFFFFF83
:1091FC00FFFFFFFFFFFFFFFFFFFFFFFFE45FFFC667
:10920C007DFF3FFFFFFFFFFFFFFFFFFFFFFFFFFFA4
:10921C00FFFFFFFFFFFFFFFFFFFFFFFFFFFFFFFF52
:10922C00FFFFFFFFFFFFFFFFFFFFFFFFFFFFCFFF72
:10923C00FFDEFFFF1FFFFFFFFFFFFFFFFFFFFFFF33
:10924C00FFFFFFFFFFFFFFFFFFFFFFFFFFFFFFFF22
:10925C00FFFFFFFFFFFFFFFFFFFFFFFFFFFFFFFF12
:10926C00CFFFFF93FFFF9FFFFFFFFFFFFFFFFFFFFE
:10927C00FFFFFFFFFFFFFFFFFFFFFFFFFFFFFFFFF2
:10928C00FFFFFFFFFFFFFFFFFFFFFFFFFFFFFFFFE2
:10929C00FFFFCCFFFF33FFFF9FFFFFFFFFFFFFFF31
:1092AC00FFFFFFFFFFFFFFFFFFFFFFFFFFFFFFFFC2
:1092BC00FFFFFFFFFFFFFFFFFFFFFFFFFFFFFFFFB2
:1092CC00FFFFFFFFC0FFFE1FFDFF9FFFFFFFFFFF24
:1092DC00FFFFFFFFFFFFFFFFFFFFFFFFFFFFFFFF92
:1092EC00FFFFFFFFFFFFFFFFFFFFFFFFFFFFFFFF82
:1092FC00FFFFFFFFFFFFC9FFFC8FFFFF8FFFFFFF8B
:10930C00FFFFFFFFFFFFFFFFFFFFFFFFFFFFFFFF61
:10931C00FFFFFFFFFFFFFFFFFFFFFFFFFFFFFFFF51
:10932C00FFFFFFFFFFFFFFFFC9FFF9DFFDFF8FFF0F
:10933C00FFFFFFFFFFFFFFFFFFFFFFFFFFFFFFFF31
:10934C00FFFFFFFFFFFFFFFFFFFFFFFFFFFFFFFF21
:10935C00FFFFFFFFFFFFFFFFFFFFCFFFF0FFF5FF5A
:10936C008FFFFFFFFFFFFFFFFFFFFFFFFFFFFFFF71
:10937C00FFFFFFFFFFFFFFFFFFFFFFFFFFFFFFFFF1
:10938C00FFFFFFFFFFFFFFFFFFFFFFFFE7FFF67F82
:10939C00F5FF8FFFFFFFFFFFFFFFFFFFFFFFFFFF4B
:1093AC00FFFFFFFFFFFFFFFFFFFFFFFFFFFFFFFFC1
:1093BC00FFFFFFFFFFFFFFFFFFFFFFFFFFFFE7FFC9
:1093CC00E33FB5FF87FFFFFFFFFFFFFFFFFFFFFF3F
:1093DC00FFFFFFFFFFFFFFFFFFFFFFFFFFFFFFFF91
:1093EC00FFFFFFFFFFFFFFFFFFFFFFFFFFFFFFFF81
:1093FC00F3FFEF9F0BFF87FFFFFFFFFFFFFFFFFF59
:10940C00FFFFFFFFFFFFFFFFFFFFFFFFFFFFFFFF60
:10941C00FFFFFFFFFFFFFFFFFFFFFFFFFFFFFFFF50
:10942C00FFFFF3FFCE4FA1FF87FFFFFFFFFFFFFF03
:10943C00FFFFFFFFFFFFFFFFFFFFFFFFFFFFFFFF30
:10944C00FFFFFFFFFFFFFFFFFFFFFFFFFFFFFFFF20
:10945C00FFFFFFFFF9FFD727F3FF97FFFFFFFFFF8A
:10946C00FFFFFFFFFFFFFFFFFFFFFFFFFFFFFFFF00
:10947C00FFFFFFFFFFFFFFFFFFFFFFFFFFFFFFFFF0
:10948C00FFFFFFFFFFFFFCFBD3C3FBFF97FFFFFFBB
:10949C00FFFFFFFFFFFFFFFFFFFFFFFFFFFFFFFFD0
:1094AC00FFFFFFFFFFFFFFFFFFFFFFFFFFFFFFFFC0
:1094BC00FFFFFFFFFFFFFFFFFE7CD3E1FBFF97FFEA
:1094CC00FFFFFFFFFFFFFFFFFFFFFFFFFFFFFFFFA0
:1094DC00FFFFFFFFFFFFFFFFFFFFFFFFFFFFFFFF90
:1094EC00FFFFFFFFFFFFFFFFFFF00F3E1FF1FFFF2E
:1094FC00C7FFFFFFFFFFFFFFFFFFFFFFFFFFFFFFA8
:10950C00FFFFFFFFFFFFFFFFFFFFFFFFFFFFFFFF5F
:10951C00FFFFFFFFFFFFFFFFFFFFFFC0000F93F8F0
:10952C00DFFFC3FFFFFFFFFFFFFFFFFFFFFFFFFF9B
:10953C00FFFFFFFFFFFFFFFFFFFFFFFFFFFFFFFF2F
:10954C00FFFFFFFFFFFFFFFFFFFFFFFFFFCFFC034E
:10955C0093FE5FFFC7FFFFFFFFFFFFFFFFFFFFFF54
:10956C00FFFFFFFFFFFFFFFFFFFFFFFFFFFFFFFFFF
:10957C00FFFFFFFFFFFFFFFFFFFFFFFFFFFFFFA34B
:10958C00FFE0CFFF3FFFC7FFFFFFFFFFFFFFFFFF26
:10959C00FFFFFFFFFFFFFFFFFFFFFFFFFFFFFFFFCF
:1095AC00FFFFFFFFFFFFFFFFFFFFFFFFFFFFFFFFBF
:1095BC00FF79FFFC07FF3F7FE3FFFFFFFFFFFFFF8C
:1095CC00FFFFFFFFFFFFFFFFFFFFFFFFFFFFFFFF9F
:1095DC00FFFFFFFFFFFFFFFFFFFFFFFFFFFFFFFF8F
:1095EC00FFFFFEFE7FF8F7FF9F3FE3FFFFFFFFFF4C
:1095FC00FFFFFFFFFFFFFFFFFFFFFFFFFFFFFFFF6F
:10960C00FFFFFFFFFFFFFFFFFFFFFFFFFFFFFFFF5E
:10961C00FFFFFFFFFEFFFFF3D3F7DFBFE3FFFFFF0B
:10962C00FFFFFFFFFFFFFFFFFFFFFFFFFFFFFFFF3E
:10963C00FFFFFFFFFFFFFFFFFFFFFFFFFFFFFFFF2E
:10964C00FFFFFFFFFFFFFCBFFFC1EBFBCF9FE3FF63
:10965C00FFFFFFFFFFFFFFFFFFFFFFFFFFFFFFFF0E
:10966C00FFFFFFFFFFFFFFFFFFFFFFFFFFFFFFFFFE
:10967C00FFFFFFFFFFFFFFFFFC0FFFD871FBEFCFDA
:10968C00E7FFFFFFFFFFFFFFFFFFFFFFFFFFFFFFF6
:10969C00FFFFFFFFFFFFFFFFFFFFFFFFFFFFFFFFCE
:1096AC00FFFFFFFFFFFFFFFFFFFFF9BFFFAFF8F961
:1096BC00E7EFE7FFFFFFFFFFFFFFFFFFFFFFFFFFEE
:1096CC00FFFFFFFFFFFFFFFFFFFFFFFFFFFFFFFF9E
:1096DC00FFFFFFFFFFFFFFFFFFFFFFFFF9FFFF474C
:1096EC00FE79F7F7A7FFFFFFFFFFFFFFFFFFFFFF6D
:1096FC00FFFFFFFFFFFFFFFFFFFFFFFFFFFFFFFF6E
:10970C00FFFFFFFFFFFFFFFFFFFFFFFFFFFFFBFF61
:10971C00FE47FF39F3FBA7FFFFFFFFFFFFFFFFFF34
:10972C00FFFFFFFFFFFFFFFFFFFFFFFFFFFFFFFF3D
:10973C00FFFFFFFFFFFFFFFFFFFFFFFFFFFFFFFF2D
:10974C00FA3FFCEFFF99FBF987FFFFFFFFFFFFFFDD
:10975C00FFFFFFFFFFFFFFFFFFFFFFFFFFFFFFFF0D
:10976C00FFFFFFFFFFFFFFFFFFFFFFFFFFFFFFFFFD
:10977C00FFFFF23FFCFFFFC8FDFC07F83FFFFFFFB8
:10978C00FFFFFFFFFFFFFFFFFFFFFFFFFFFFFFFFDD
:10979C00FFFFFFFFFFFFFFFFFFFFFFFFFFFFFFFFCD
:1097AC00FFFFFFFFF203FDFFFFE0FCFC07C00FFF14
:1097BC00FFFFFFFFFFFFFFFFFFFFFFFFFFFFFFFFAD
:1097CC00FFFFFFFFFFFFFFFFFFFFFFFFFFFFFFFF9D
:1097DC00FFFFFFFFFFFFF87FF9FFFFF87E7E0F9F73
:1097EC00E3FFFFFFFFFFFFFFFFFFFFFFFFFFFFFF99
:1097FC00FFFFFFFFFFFFFFFFFFFFFFFFFFFFFFFF6D
:10980C00FFFFFFFFFFFFFFFFF3FFFBFFFFFC3F39F5
:10981C000F2019FFFFFFFFFFFFFFFFFFFFFFFFFF01
:10982C00FFFFFFFFFFFFFFFFFFFFFFFFFFFFFFFF3C
:10983C00FFFFFFFFFFFFFFFFFFFFF37FFBFFFFFFBC
:10984C000F900E0FC1FFFFFFFFFFFFFFFFFFFFFF9A
:10985C00FFFFFFFFFFFFFFFFFFFFFFFFFFFFFFFF0C
:10986C00FFFFFFFFFFFFFFFFFFFFFFFFF23FF3FFD5
:10987C00FFFFC7C00C7FF3FFFFFFFFFFFFFFFFFFE2
:10988C00FFFFFFFFFFFFFFFFFFFFFFFFFFFFFFFFDC
:10989C00FFFFFFFFFFFFFFFFFFFFFFFFFFFFF23F99
:1098AC00F3FFFFFFF02009FFF9FFFFFFFFFFFFFFB2
:1098BC00FFFFFFFFFFFFFFFFFFFFFFFFFFFFFFFFAC
:1098CC00FFFFFFFFFFFFFFFFFFFFFFFFFFFFFFFF9C
:1098DC00FBFFF3FFFEFFFC0001FFF9FFFFFFFFFFA3
:1098EC00FFFFFFFFFFFFFFFFFFFFFFFFFFFFFFFF7C
:1098FC00FFFFFFFFFFFFFFFFFFFFFFFFFFFFFFFF6C
:10990C00FFFFFBFFEBFF803FFC0007FFFCFFFFFFAF
:10991C00FFFFFFFFFFFFFFFFFFFFFFFFFFFFFFFF4B
:10992C00FFFFFFFFFFFFFFFFFFFFFFFFFFFFFFFF3B
:10993C00FFFFFFFFF91FDBD81FC7FF000FFFFCFF66
:10994C00FFFFFFFFFFFFFFFFFFFFFFFFFFFFFFFF1B
:10995C00FFFFFFFFFFFFFFFFFFFFFFFFFFFFFFFF0B
:10996C00FFFFFFFFFFFFF91E5BCC3FF83F800FFFAF
:10997C00FFFFFFFFFFFFFFFFFFFFFFFFFFFFFFFFEB
:10998C00FFFFFFFFFFFFFFFFFFFFFFFFFFFFFFFFDB
:10999C00FFFFFFFFFFFFFFFFFCBF1BFF8FFF8000E0
:1099AC001FFFFFFFFFFFFFFFFFFFFFFFFFFFFFFF9B
:1099BC00FFFFFFFFFFFFFFFFFFFFFFFFFFFFFFFFAB
:1099CC00FFFFFFFFFFFFFFFFFFFFFCFF3BFFF9FF68
:1099DC00FF001FFFFFFFFFFFFFFFFFFFFFFFFFFF6A
:1099EC00FFFFFFFFFFFFFFFFFFFFFFFFFFFFFFFF7B
:1099FC00FFFFFFFFFFFFFFFFFFFFFFFFFE7EBBFF31
:109A0C00FFFFFF801FFFFFFFFFFFFFFFFFFFFFFFB9
:109A1C00FFFFFFFFFFFFFFFFFFFFFFFFFFFFFFFF4A
:109A2C00FFFFFFFFFFFFFFFFFFFFFFFFFFFFFF3EFB
:109A3C00B3FFFFCFFE003FFFFFFFFFFFFFFFFFFF66
:109A4C00FFFFFFFFFFFFFFFFFFFFFFFFFFFFFFFF1A
:109A5C00FFFFFFFFFFFFFFFFFFFFFFFFFFFFFFFF0A
:109A6C00FFBE53FFFFF3FE003FFFFFFFFFFFFFFFB3
:109A7C00FFFFFFFFFFFFFFFFFFFFFFFFFFFFFFFFEA
:109A8C00FFFFFFFFFFFFFFFFFFFFFFFFFFFFFFFFDA
:109A9C00FFFFFF9F13FFFFF8F8047FFFFFFFFFFF9F
:109AAC00FFFFFFFFFFFFFFFFFFFFFFFFFFFFFFFFBA
:109ABC00FFFFFFFFFFFFFFFFFFFFFFFFFFFFFFFFAA
:109ACC00FFFFFFFFFFCF83FFFFFE180C7FFFFFFFA1
:109ADC00FFFFFFFFFFFFFFFFFFFFFFFFFFFFFFFF8A
:109AEC00FFFFFFFFFFFFFFFFFFFFFFFFFFFFFFFF7A
:109AFC00FFFFFFFFFFFFFFE7C3FFFFFFC01CFFFFE0
:109B0C00FFFFFFFFFFFFFFFFFFFFFFFFFFFFFFFF59
:109B1C00FFFFFFFFFFFFFFFFFFFFFFFFFFFFFFFF49
:109B2C00FFFFFFFFFFFFFFFFFFF3E7FFFFFFFC7CE3
:109B3C00FFFFFFFFFFFFFFFFFFFFFFFFFFFFFFFF29
:109B4C00FFFFFFFFFFFFFFFFFFFFFFFFFFFFFFFF19
:109B5C00FFFFFFFFFFFFFFFFFFFFFFF8E3FFFFFF2C
:109B6C00F9FDFFFFFFFFFFFFFFFFFFFFFFFFFFFF01
:109B7C00FFFFFFFFFFFFFFFFFFFFFFFFFFFFFFFFE9
:109B8C00FFFFFFFFFFFFFFFFFFFFFFFFFFFE73FF66
:109B9C00FEFFE3FDFFFFFFFFFFFFFFFFFFFFFFFFE8
:109BAC00FFFFFFFFFFFFFFFFFFFFFFFFFFFFFFFFB9
:109BBC00FFFFFFFFFFFFFFFFFFFFFFFFFFFFFFFFA9
:109BCC0033FDFEF88FFFFFFFFFFFFFFFFFFFFFFFDF
:109BDC00FFFFFFFFFFFFFFFFFFFFFFFFFFFFFFFF89
:109BEC00FFFFFFFFFFFFFFFFFFFFFFFFFFFFFFFF79
:109BFC00FFFF93EB7EF83FFFFFFFFFFFFFFFFFFF31
:109C0C00FFFFFFFFFFFFFFFFFFFFFFFFFFFFFFFF58
:109C1C00FFFFFFFFFFFFFFFFFFFFFFFFFFFFFFFF48
:109C2C00FFFFFFFFC3E8FFF8FFFFFFFFFFFFFFFF92
:109C3C00FFFFFFFFFFFFFFFFFFFFFFFFFFFFFFFF28
:109C4C00FFFFFFFFFFFFFFFFFFFFFFFFFFFFFFFF18
:109C5C00FFFFFFFFFFFFE1F1FFC3FFFFFFFFFFFF70
:109C6C00FFFFFFFFFFFFFFFFFFFFFFFFFFFFFFFFF8
:109C7C00FFFFFFFFFFFFFFFFFFFFFFFFFFFFFFFFE8
:109C8C00FFFFFFFFFFFFFFFFF9F3FF0FFFFFFFFFDA
:109C9C00FFFFFFFFFFFFFFFFFFFFFFFFFFFFFFFFC8
